{
  "_format": "hh-sol-artifact-1",
  "contractName": "MicroPaths",
  "address": "0xb73B2F12a0bc161010D1aAcADAD61C1b1b92F3a4",
  "sourceName": "contracts/callpaths/MicroPaths.sol",
  "abi": [
    {
      "anonymous": false,
      "inputs": [
        {
          "indexed": true,
          "internalType": "bytes32",
          "name": "pool",
          "type": "bytes32"
        },
        {
          "indexed": true,
          "internalType": "int24",
          "name": "tick",
          "type": "int24"
        },
        {
          "indexed": false,
          "internalType": "bool",
          "name": "isBid",
          "type": "bool"
        },
        {
          "indexed": false,
          "internalType": "uint32",
          "name": "pivotTime",
          "type": "uint32"
        },
        {
          "indexed": false,
          "internalType": "uint64",
          "name": "feeMileage",
          "type": "uint64"
        },
        {
          "indexed": false,
          "internalType": "uint160",
          "name": "commitEntropy",
          "type": "uint160"
        }
      ],
      "name": "SdexKnockoutCross",
      "type": "event"
    },
    {
      "inputs": [
        {
          "internalType": "address",
          "name": "",
          "type": "address"
        },
        {
          "internalType": "uint16",
          "name": "slot",
          "type": "uint16"
        }
      ],
      "name": "acceptSdexProxyRole",
      "outputs": [
        {
          "internalType": "bool",
          "name": "",
          "type": "bool"
        }
      ],
      "stateMutability": "pure",
      "type": "function"
    },
    {
      "inputs": [
        {
          "internalType": "uint128",
          "name": "price",
          "type": "uint128"
        },
        {
          "internalType": "uint128",
          "name": "seed",
          "type": "uint128"
        },
        {
          "internalType": "uint128",
          "name": "conc",
          "type": "uint128"
        },
        {
          "internalType": "uint64",
          "name": "seedGrowth",
          "type": "uint64"
        },
        {
          "internalType": "uint64",
          "name": "concGrowth",
          "type": "uint64"
        },
        {
          "internalType": "uint128",
          "name": "liq",
          "type": "uint128"
        },
        {
          "internalType": "bytes32",
          "name": "poolHash",
          "type": "bytes32"
        }
      ],
      "name": "burnAmbient",
      "outputs": [
        {
          "internalType": "int128",
          "name": "baseFlow",
          "type": "int128"
        },
        {
          "internalType": "int128",
          "name": "quoteFlow",
          "type": "int128"
        },
        {
          "internalType": "uint128",
          "name": "seedOut",
          "type": "uint128"
        }
      ],
      "stateMutability": "payable",
      "type": "function"
    },
    {
      "inputs": [
        {
          "internalType": "uint128",
          "name": "price",
          "type": "uint128"
        },
        {
          "internalType": "int24",
          "name": "priceTick",
          "type": "int24"
        },
        {
          "internalType": "uint128",
          "name": "seed",
          "type": "uint128"
        },
        {
          "internalType": "uint128",
          "name": "conc",
          "type": "uint128"
        },
        {
          "internalType": "uint64",
          "name": "seedGrowth",
          "type": "uint64"
        },
        {
          "internalType": "uint64",
          "name": "concGrowth",
          "type": "uint64"
        },
        {
          "internalType": "int24",
          "name": "lowTick",
          "type": "int24"
        },
        {
          "internalType": "int24",
          "name": "highTick",
          "type": "int24"
        },
        {
          "internalType": "uint128",
          "name": "liq",
          "type": "uint128"
        },
        {
          "internalType": "bytes32",
          "name": "poolHash",
          "type": "bytes32"
        }
      ],
      "name": "burnRange",
      "outputs": [
        {
          "internalType": "int128",
          "name": "baseFlow",
          "type": "int128"
        },
        {
          "internalType": "int128",
          "name": "quoteFlow",
          "type": "int128"
        },
        {
          "internalType": "uint128",
          "name": "seedOut",
          "type": "uint128"
        },
        {
          "internalType": "uint128",
          "name": "concOut",
          "type": "uint128"
        }
      ],
      "stateMutability": "payable",
      "type": "function"
    },
    {
      "inputs": [
        {
          "internalType": "uint128",
          "name": "price",
          "type": "uint128"
        },
        {
          "internalType": "uint128",
          "name": "seed",
          "type": "uint128"
        },
        {
          "internalType": "uint128",
          "name": "conc",
          "type": "uint128"
        },
        {
          "internalType": "uint64",
          "name": "seedGrowth",
          "type": "uint64"
        },
        {
          "internalType": "uint64",
          "name": "concGrowth",
          "type": "uint64"
        },
        {
          "internalType": "uint128",
          "name": "liq",
          "type": "uint128"
        },
        {
          "internalType": "bytes32",
          "name": "poolHash",
          "type": "bytes32"
        }
      ],
      "name": "mintAmbient",
      "outputs": [
        {
          "internalType": "int128",
          "name": "baseFlow",
          "type": "int128"
        },
        {
          "internalType": "int128",
          "name": "quoteFlow",
          "type": "int128"
        },
        {
          "internalType": "uint128",
          "name": "seedOut",
          "type": "uint128"
        }
      ],
      "stateMutability": "payable",
      "type": "function"
    },
    {
      "inputs": [
        {
          "internalType": "uint128",
          "name": "price",
          "type": "uint128"
        },
        {
          "internalType": "int24",
          "name": "priceTick",
          "type": "int24"
        },
        {
          "internalType": "uint128",
          "name": "seed",
          "type": "uint128"
        },
        {
          "internalType": "uint128",
          "name": "conc",
          "type": "uint128"
        },
        {
          "internalType": "uint64",
          "name": "seedGrowth",
          "type": "uint64"
        },
        {
          "internalType": "uint64",
          "name": "concGrowth",
          "type": "uint64"
        },
        {
          "internalType": "int24",
          "name": "lowTick",
          "type": "int24"
        },
        {
          "internalType": "int24",
          "name": "highTick",
          "type": "int24"
        },
        {
          "internalType": "uint128",
          "name": "liq",
          "type": "uint128"
        },
        {
          "internalType": "bytes32",
          "name": "poolHash",
          "type": "bytes32"
        }
      ],
      "name": "mintRange",
      "outputs": [
        {
          "internalType": "int128",
          "name": "baseFlow",
          "type": "int128"
        },
        {
          "internalType": "int128",
          "name": "quoteFlow",
          "type": "int128"
        },
        {
          "internalType": "uint128",
          "name": "seedOut",
          "type": "uint128"
        },
        {
          "internalType": "uint128",
          "name": "concOut",
          "type": "uint128"
        }
      ],
      "stateMutability": "payable",
      "type": "function"
    },
    {
      "inputs": [
        {
          "components": [
            {
              "internalType": "uint128",
              "name": "priceRoot_",
              "type": "uint128"
            },
            {
              "internalType": "uint128",
              "name": "ambientSeeds_",
              "type": "uint128"
            },
            {
              "internalType": "uint128",
              "name": "concLiq_",
              "type": "uint128"
            },
            {
              "internalType": "uint64",
              "name": "seedDeflator_",
              "type": "uint64"
            },
            {
              "internalType": "uint64",
              "name": "concGrowth_",
              "type": "uint64"
            }
          ],
          "internalType": "struct CurveMath.CurveState",
          "name": "curve",
          "type": "tuple"
        },
        {
          "internalType": "int24",
          "name": "midTick",
          "type": "int24"
        },
        {
          "components": [
            {
              "internalType": "bool",
              "name": "isBuy_",
              "type": "bool"
            },
            {
              "internalType": "bool",
              "name": "inBaseQty_",
              "type": "bool"
            },
            {
              "internalType": "uint8",
              "name": "rollType_",
              "type": "uint8"
            },
            {
              "internalType": "uint128",
              "name": "qty_",
              "type": "uint128"
            },
            {
              "internalType": "uint128",
              "name": "limitPrice_",
              "type": "uint128"
            }
          ],
          "internalType": "struct Directives.SwapDirective",
          "name": "swap",
          "type": "tuple"
        },
        {
          "components": [
            {
              "components": [
                {
                  "internalType": "uint8",
                  "name": "schema_",
                  "type": "uint8"
                },
                {
                  "internalType": "uint16",
                  "name": "feeRate_",
                  "type": "uint16"
                },
                {
                  "internalType": "uint8",
                  "name": "protocolTake_",
                  "type": "uint8"
                },
                {
                  "internalType": "uint16",
                  "name": "tickSize_",
                  "type": "uint16"
                },
                {
                  "internalType": "uint8",
                  "name": "jitThresh_",
                  "type": "uint8"
                },
                {
                  "internalType": "uint8",
                  "name": "knockoutBits_",
                  "type": "uint8"
                },
                {
                  "internalType": "uint8",
                  "name": "oracleFlags_",
                  "type": "uint8"
                }
              ],
              "internalType": "struct PoolSpecs.Pool",
              "name": "head_",
              "type": "tuple"
            },
            {
              "internalType": "bytes32",
              "name": "hash_",
              "type": "bytes32"
            },
            {
              "internalType": "address",
              "name": "oracle_",
              "type": "address"
            }
          ],
          "internalType": "struct PoolSpecs.PoolCursor",
          "name": "pool",
          "type": "tuple"
        }
      ],
      "name": "sweepSwap",
      "outputs": [
        {
          "components": [
            {
              "internalType": "int128",
              "name": "baseFlow_",
              "type": "int128"
            },
            {
              "internalType": "int128",
              "name": "quoteFlow_",
              "type": "int128"
            },
            {
              "internalType": "uint128",
              "name": "baseProto_",
              "type": "uint128"
            },
            {
              "internalType": "uint128",
              "name": "quoteProto_",
              "type": "uint128"
            }
          ],
          "internalType": "struct Chaining.PairFlow",
          "name": "accum",
          "type": "tuple"
        },
        {
          "internalType": "uint128",
          "name": "priceOut",
          "type": "uint128"
        },
        {
          "internalType": "uint128",
          "name": "seedOut",
          "type": "uint128"
        },
        {
          "internalType": "uint128",
          "name": "concOut",
          "type": "uint128"
        },
        {
          "internalType": "uint64",
          "name": "ambientOut",
          "type": "uint64"
        },
        {
          "internalType": "uint64",
          "name": "concGrowthOut",
          "type": "uint64"
        }
      ],
      "stateMutability": "payable",
      "type": "function"
    }
  ],
  "bytecode": "0x608060405262010011805460ff60e01b1916600160e71b17905534801561002557600080fd5b50615d1180620000366000396000f3fe6080604052600436106100655760003560e01c80637b370fc2116100435780637b370fc21461011c5780637c6dfe3d146101af578063ac54c0fc146101c257600080fd5b80632370632b1461006a5780632a6f0864146100c15780632ee1158714610109575b600080fd5b61007d6100783660046152cd565b6101f2565b60408051600f95860b81529390940b60208401526fffffffffffffffffffffffffffffffff9182169383019390935290911660608201526080015b60405180910390f35b6100d46100cf366004615380565b61049e565b60408051600f94850b81529290930b60208301526fffffffffffffffffffffffffffffffff16918101919091526060016100b8565b6100d4610117366004615380565b610660565b61012f61012a366004615605565b610775565b604080518751600f90810b82526020808a015190910b90820152878201516fffffffffffffffffffffffffffffffff90811692820192909252606097880151821697810197909752948516608087015292841660a0860152921660c084015267ffffffffffffffff91821660e084015216610100820152610120016100b8565b61007d6101bd3660046152cd565b6108fb565b3480156101ce57600080fd5b506101e26101dd36600461573f565b610aee565b60405190151581526020016100b8565b6040805160a08101825260008082526020820181905291810182905260608101829052608081018290528190819081908e81600001906fffffffffffffffffffffffffffffffff1690816fffffffffffffffffffffffffffffffff16815250508c81602001906fffffffffffffffffffffffffffffffff1690816fffffffffffffffffffffffffffffffff16815250508b81604001906fffffffffffffffffffffffffffffffff1690816fffffffffffffffffffffffffffffffff16815250508a816060019067ffffffffffffffff16908167ffffffffffffffff168152505089816080019067ffffffffffffffff16908167ffffffffffffffff1681525050610321818f8b8b8b8b60008054906101000a900473ffffffffffffffffffffffffffffffffffffffff16610afd565b809550819650505080604001519150806020015192507f06904e18e3ad0482b94e66f9728969794208933d17287f2eda7da25656b168978f8f8f8f8f8f8f8f8f8f6040516020016103e59a999897969594939291906fffffffffffffffffffffffffffffffff9a8b1681526002998a0b6020820152978a166040890152958916606088015267ffffffffffffffff94851660808801529290931660a0860152850b60c0850152930b60e0830152919092166101008301526101208201526101400190565b604080517fffffffffffffffffffffffffffffffffffffffffffffffffffffffffffffffe0818403018152828252600f89810b602085015288900b918301919091526fffffffffffffffffffffffffffffffff8086166060840152861660808301529060a001604080517fffffffffffffffffffffffffffffffffffffffffffffffffffffffffffffffe08184030181529082905261048492916157d7565b60405180910390a1509a509a509a509a9650505050505050565b6040805160a0810182526fffffffffffffffffffffffffffffffff8981168252888116602083015287169181019190915267ffffffffffffffff85811660608301528416608082015260008054909182918291906105179082908890889073ffffffffffffffffffffffffffffffffffffffff16610b7c565b8094508195505050806020015191507f5a638767ca3678de6e948c79be0141345591065fa67d27603119802e21beb0df8b8b8b8b8b8b8b6040516020016105b397969594939291906fffffffffffffffffffffffffffffffff97881681529587166020870152938616604086015267ffffffffffffffff92831660608601529116608084015290921660a082015260c081019190915260e00190565b604080517fffffffffffffffffffffffffffffffffffffffffffffffffffffffffffffffe0818403018152828252600f88810b602085015287900b918301919091526fffffffffffffffffffffffffffffffff8516606083015290608001604080517fffffffffffffffffffffffffffffffffffffffffffffffffffffffffffffffe08184030181529082905261064a92916157d7565b60405180910390a1509750975097945050505050565b6040805160a0810182526fffffffffffffffffffffffffffffffff8981168252888116602083015287169181019190915267ffffffffffffffff85811660608301528416608082015260008054909182918291906106d99082908890889073ffffffffffffffffffffffffffffffffffffffff16610bd9565b8094508195505050806020015191507f090c4a8df4c78b04ae53738fae59bf31e13e8aba9bccc35e9062d7bad29955338b8b8b8b8b8b8b6040516020016105b397969594939291906fffffffffffffffffffffffffffffffff97881681529587166020870152938616604086015267ffffffffffffffff92831660608601529116608084015290921660a082015260c081019190915260e00190565b604080516080810182526000808252602082018190529181018290526060810182905290808080806107aa868b8b8b8b610c35565b89600001519450896020015193508960400151925089606001519150896080015190507f2bca59fa3cbc95f7bd32504a724340659269c4c30943d07ad916f57065570cf98a8a8a8a6040516020016108059493929190615896565b604080517fffffffffffffffffffffffffffffffffffffffffffffffffffffffffffffffe08184030181528282528951600f90810b6020858101919091528b0151900b83830152908901516fffffffffffffffffffffffffffffffff9081166060808501919091528a01518116608084015280891660a084015280881660c0840152861660e083015267ffffffffffffffff80861661010084015284166101208301529061014001604080517fffffffffffffffffffffffffffffffffffffffffffffffffffffffffffffffe0818403018152908290526108e692916157d7565b60405180910390a19499939850945094509450565b6040805160a08101825260008082526020820181905291810182905260608101829052608081018290528190819081908e81600001906fffffffffffffffffffffffffffffffff1690816fffffffffffffffffffffffffffffffff16815250508c81602001906fffffffffffffffffffffffffffffffff1690816fffffffffffffffffffffffffffffffff16815250508b81604001906fffffffffffffffffffffffffffffffff1690816fffffffffffffffffffffffffffffffff16815250508a816060019067ffffffffffffffff16908167ffffffffffffffff168152505089816080019067ffffffffffffffff16908167ffffffffffffffff1681525050610a2a818f8b8b8b8b60008054906101000a900473ffffffffffffffffffffffffffffffffffffffff16610dd8565b809550819650505080604001519150806020015192507f54662b825a79a9bb944acb69f801f5f874ddedd0ecfd3a96ec2fc646e76a0a7c8f8f8f8f8f8f8f8f8f8f6040516020016103e59a999897969594939291906fffffffffffffffffffffffffffffffff9a8b1681526002998a0b6020820152978a166040890152958916606088015267ffffffffffffffff94851660808801529290931660a0860152850b60c0850152930b60e0830152919092166101008301526101208201526101400190565b61ffff81166083145b92915050565b6000806000610b2e858a8a8a610b248b6fffffffffffffffffffffffffffffffff16610e5d565b8f60800151610f33565b9050610b3e84868a8a8a86610f7b565b610b4c858989898589611003565b600080610b5b8c898c8c611168565b91509150610b69828261119c565b909d909c509a5050505050505050505050565b6000806000610b918486888a606001516111e1565b9050610bad8582896060015167ffffffffffffffff16876112d3565b600080610bba89846112e8565b91509150610bc88282611327565b945094505050505b94509492505050565b6000806000610bee8486888a60600151611372565b9050610c0a8582896060015167ffffffffffffffff168761144f565b600080610c178984611460565b91509150610c25828261119c565b909a909950975050505050505050565b8151610c705781608001516fffffffffffffffffffffffffffffffff1684600001516fffffffffffffffffffffffffffffffff161015610ca1565b81608001516fffffffffffffffffffffffffffffffff1684600001516fffffffffffffffffffffffffffffffff1611155b610d0c576040517f08c379a000000000000000000000000000000000000000000000000000000000815260206004820152600260248201527f534400000000000000000000000000000000000000000000000000000000000060448201526064015b60405180910390fd5b6000610d188584611497565b90505b8015610dd057600080610d378460200151866000015188611534565b85519193509150610d4e9088908a9088908661157a565b610d588786611497565b92508215610dc9578015610daf576000610d7b8560200151848860000151611631565b92839150600282810b91900b1480610dac578551610d9f908a908c908a908861157a565b610da98988611497565b94505b50505b8215610dc957610dc6888389888860200151611720565b95505b5050610d1b565b505050505050565b6000806000610e09858a8a8a610dff8b6fffffffffffffffffffffffffffffffff16610e5d565b8f608001516117bd565b90506000610e1b85878b8b8b87611817565b9050610e2b868a8a8a868a6118d3565b600080610e3b8d8a858e8e611990565b91509150610e498282611327565b955095505050505097509795505050505050565b6000600a82901c6e3fffffffffffffffffffffffffffff8116906ffffffffffffffffffffffffffffffc0084169060011615808015610ead5750846fffffffffffffffffffffffffffffffff1682145b8015610ec457506bffffffffffffffffffffffff83105b610f2a576040517f08c379a000000000000000000000000000000000000000000000000000000000815260206004820152600260248201527f46440000000000000000000000000000000000000000000000000000000000006044820152606401610d03565b50909392505050565b6000610f41878787856119bf565b610f4d878786856119bf565b610f58878685611a71565b610f63878585611adc565b610f708787878786611b67565b979650505050505050565b60408051606088901b7fffffffffffffffffffffffffffffffffffffffff000000000000000000000000166020808301919091526034820188905260e887811b605484015286901b60578301528251603a818403018152605a909201835281519181019190912060009081526201001290915220610ffa818484611bb3565b50505050505050565b60005473ffffffffffffffffffffffffffffffffffffffff828116911614610dd057600080546040517f668e2cdb00000000000000000000000000000000000000000000000000000000815273ffffffffffffffffffffffffffffffffffffffff918216600482015260248101899052600288810b604483015287900b60648201526fffffffffffffffffffffffffffffffff8616608482015268ffffffffffffffffff851660a48201529083169063668e2cdb9060c4015b6020604051808303816000875af11580156110db573d6000803e3d6000fd5b505050506040513d601f19601f820116820180604052508101906110ff919061593c565b905080610ffa576040517f08c379a000000000000000000000000000000000000000000000000000000000815260206004820152600260248201527f4c500000000000000000000000000000000000000000000000000000000000006044820152606401610d03565b60008060008060006111808960000151898989611cf5565b925092509250611191898983611df9565b610bc8838383611e23565b6000806111ba846fffffffffffffffffffffffffffffffff16611e9b565b6111d5846fffffffffffffffffffffffffffffffff16611e9b565b915091505b9250929050565b6000806111ee8686611ecf565b905061120c6fffffffffffffffffffffffffffffffff851684611ef7565b81549092506fffffffffffffffffffffffffffffffff9081169083161061126d5780547fffffffffffffffffffffffff0000000000000000000000000000000000000000811682556fffffffffffffffffffffffffffffffff1691506112ca565b8054829082906000906112939084906fffffffffffffffffffffffffffffffff16615988565b92506101000a8154816fffffffffffffffffffffffffffffffff02191690836fffffffffffffffffffffffffffffffff1602179055505b50949350505050565b6112e2846000808686866118d3565b50505050565b6000806112f58484611f45565b90925090506111da846113196fffffffffffffffffffffffffffffffff8616611e9b565b611322906159b1565b611fb8565b600080611345846fffffffffffffffffffffffffffffffff16611e9b565b61134e906159b1565b611369846fffffffffffffffffffffffffffffffff16611e9b565b6111d5906159b1565b60008061137f8686611ecf565b905061139d6fffffffffffffffffffffffffffffffff851684611ef7565b81549092506113be906fffffffffffffffffffffffffffffffff1683611ff7565b81547fffffffffffffffffffffffffffffffff00000000000000000000000000000000166fffffffffffffffffffffffffffffffff9190911617815561140261201c565b815463ffffffff91909116700100000000000000000000000000000000027fffffffffffffffffffffffff00000000ffffffffffffffffffffffffffffffff909116179055949350505050565b600080610dd0868383888888611003565b6000806000806114708686611f45565b9150915061147e868661203b565b61148a82826001611e23565b9350935050509250929050565b60008082600001516114d75782608001516fffffffffffffffffffffffffffffffff1684600001516fffffffffffffffffffffffffffffffff1611611507565b82608001516fffffffffffffffffffffffffffffffff1684600001516fffffffffffffffffffffffffffffffff16105b905080801561152c5750600083606001516fffffffffffffffffffffffffffffffff16115b949350505050565b6000806000611543868561205e565b90506000611555600286900b87612084565b9050600285900b60081d61156b878383866120c0565b90999098509650505050505050565b600061158f828560800151866000015161210f565b905060008660000151905060008060006115b48a8960600151898b602001518961218a565b60208b015192955090935091506115cf908a908585856121d6565b6115e88a89602001518a600001518b6060015189612241565b6fffffffffffffffffffffffffffffffff1660608b015260208a01519194509250611618908a90858560006121d6565b8751611625908b86612340565b50505050505050505050565b60008180156116465750600283900b627fffff145b156116555750627fffff611719565b811580156116865750600283900b7fffffffffffffffffffffffffffffffffffffffffffffffffffffffffff800000145b156116b257507fffffffffffffffffffffffffffffffffffffffffffffffffffffffffff800000611719565b6000806116bf8585612388565b915091506000806116d2888585896123c0565b91509150806116e657509250611719915050565b6116f28885858961242c565b90925090508061170757509250611719915050565b6117128885886124a9565b9450505050505b9392505050565b600061172b856124c9565b6117365750836117b4565b6117468486856000015185612508565b600080600061176e8660200151876000015188606001518a6125b4909392919063ffffffff16565b9194509250905061178089848461268f565b6060860180518290036fffffffffffffffffffffffffffffffff16905285516117ac57600188036117ae565b875b93505050505b95945050505050565b6000806117cb8887866126c6565b905060006117da89878761277f565b90506117e98989898988611b67565b925081156117fb576117fb898861282e565b801561180b5761180b898761282e565b50509695505050505050565b604080517fffffffffffffffffffffffffffffffffffffffff000000000000000000000000606089901b166020808301919091526034820188905260e887811b605484015286901b60578301528251808303603a018152605a909201835281519181019190912060009081526201001290915290812080546118bc90790100000000000000000000000000000000000000000000000000900463ffffffff168861289d565b6118c781858561295f565b98975050505050505050565b60005473ffffffffffffffffffffffffffffffffffffffff828116911614610dd057600080546040517f93835c1e00000000000000000000000000000000000000000000000000000000815273ffffffffffffffffffffffffffffffffffffffff918216600482015260248101899052600288810b604483015287900b60648201526fffffffffffffffffffffffffffffffff8616608482015268ffffffffffffffffff851660a4820152908316906393835c1e9060c4016110bc565b60008061199f87878686612ac8565b90925090506119b18282898989612b16565b909890975095505050505050565b60006119cb8584612bbd565b80549091506bffffffffffffffffffffffff16158015611a08575080546c0100000000000000000000000090046bffffffffffffffffffffffff16155b15611a6a578360020b8360020b12611a6057805477ffffffffffffffffffffffffffffffffffffffffffffffff16780100000000000000000000000000000000000000000000000067ffffffffffffffff8416021781555b611a6a8584612c10565b5050505050565b6000611a7d8484612bbd565b80549091506bffffffffffffffffffffffff166000611a9c8285612c98565b83547fffffffffffffffffffffffffffffffffffffffff000000000000000000000000166bffffffffffffffffffffffff91909116179092555050505050565b6000611ae88484612bbd565b80549091506c0100000000000000000000000090046bffffffffffffffffffffffff166000611b178285612c98565b83546bffffffffffffffffffffffff9091166c01000000000000000000000000027fffffffffffffffff000000000000000000000000ffffffffffffffffffffffff909116179092555050505050565b600080611b7687868886612cb9565b67ffffffffffffffff1690506000611b9088868987612cb9565b67ffffffffffffffff908116915082611ba983836159ef565b6117ae9190615a11565b82546fffffffffffffffffffffffffffffffff1660008115611bf657508354700100000000000000000000000000000000900468ffffffffffffffffff16611bfa565b5060005b6000611c186fffffffffffffffffffffffffffffffff841686611ff7565b90506000611c3368ffffffffffffffffff8616878587612d40565b90506000611c3f61201c565b885463ffffffff909116790100000000000000000000000000000000000000000000000000027fffffff00000000ffffffffffffffffffffffffffffffffffffffffffffffffff68ffffffffffffffffff909416700100000000000000000000000000000000027fffffffffffffff000000000000000000000000000000000000000000000000009092166fffffffffffffffffffffffffffffffff909516949094171791909116919091179095555050505050565b6000806000806000611d078787612df3565b91509150816fffffffffffffffffffffffffffffffff16896fffffffffffffffffffffffffffffffff161015611d5b57611d546fffffffffffffffffffffffffffffffff89168383612e6a565b9350611ded565b806fffffffffffffffffffffffffffffffff16896fffffffffffffffffffffffffffffffff1610611daa57611da36fffffffffffffffffffffffffffffffff89168383612eb5565b9450611ded565b611dc76fffffffffffffffffffffffffffffffff89168a83612e6a565b9350611de66fffffffffffffffffffffffffffffffff8916838b612eb5565b9450600192505b50509450945094915050565b611e1e83611e18846fffffffffffffffffffffffffffffffff16611e9b565b83612efd565b505050565b6000806000856fffffffffffffffffffffffffffffffff161180611e445750825b611e4f576000611e5a565b611e5a600486615a33565b6000856fffffffffffffffffffffffffffffffff161180611e785750835b611e83576000611e8e565b611e8e600486615a33565b915091505b935093915050565b60006f80000000000000000000000000000000826fffffffffffffffffffffffffffffffff1610611ecb57600080fd5b5090565b60006201000e6000611ee18585612f40565b8152602001908152602001600020905092915050565b6000660100000000000075ffffffffffffffffffffffffffffffff000000000000603085901b168267ffffffffffffffff851683018281611f3a57611f3a615a5c565b049695505050505050565b6000806000611f58848660600151612f9b565b8551909150611f9b906fffffffffffffffffffffffffffffffff80841691160260401c5b77ffffffffffffffffffffffffffffffffffffffffffffffff16612ff0565b9250611fae611f7c828760000151613029565b9150509250929050565b6020820151611fd9906fffffffffffffffffffffffffffffffff1682613072565b6fffffffffffffffffffffffffffffffff1660209092019190915250565b8082016fffffffffffffffffffffffffffffffff8084169082161015610af757600080fd5b60004263ffffffff8111156120365763ffffffff91505090565b919050565b61205a82611322836fffffffffffffffffffffffffffffffff16611e9b565b5050565b60008061206b84846130df565b6000908152620100076020526040902054949350505050565b6000806120908461312a565b90506000836120a05760006120a3565b60015b60ff169050806120b38386613138565b60ff160195945050505050565b60008080806120d085888a61314f565b915091506120df88828761318d565b9250826120f857600886901b60020b60ff831601612102565b61210288876131c0565b9350505094509492505050565b60008061211d858585613227565b9050620100026fffffffffffffffffffffffffffffffff821610156121485762010002915050611719565b6f0ffff5433e2b3d8211706e6102aa94726fffffffffffffffffffffffffffffffff82161061152c57506f0ffff5433e2b3d8211706e6102aa94719050611719565b60008060008060006121a88a8a8a602001518b604001518b8b61330a565b90925090506121b88a8389613351565b6121c38282896133c4565b9450945094505050955095509592505050565b6121e185848461268f565b83156122135780856060018181516121f99190615a33565b6fffffffffffffffffffffffffffffffff16905250611a6a565b80856040018181516122259190615a33565b6fffffffffffffffffffffffffffffffff169052505050505050565b60008060008561227c5787600001516fffffffffffffffffffffffffffffffff16846fffffffffffffffffffffffffffffffff1611156122a9565b87600001516fffffffffffffffffffffffffffffffff16846fffffffffffffffffffffffffffffffff1610155b6122b257600080fd5b60006122c089878a8861341c565b90506fffffffffffffffffffffffffffffffff808716908216108015612304576122ed8a878b8b8b613467565b919650945092506122ff8a84886134b5565b612333565b89516123138b848c8c8c613544565b919750955093506123268b858b8a61357e565b612331898c83612340565b505b5050955095509592505050565b826123645781516fffffffffffffffffffffffffffffffff8083169116111561237f565b81516fffffffffffffffffffffffffffffffff808316911610155b611e1e57600080fd5b6000806000836123a25761239d600186615a8b565b6123a4565b845b90506123b28160020b613643565b9250611fae8160020b61365a565b60008060006201000760006123d6898989613676565b815260208101919091526040016000908120549150806123f783828861314f565b915091508015612411576000600194509450505050610bd0565b61241c8888846136d4565b9960009950975050505050505050565b600080600062010006600061244189896136fd565b8152602001908152602001600020549050600061245e8686613138565b90506000806124718460ff85168961314f565b91509150801561248c57600060019550955050505050610bd0565b6124988a8a848a6123c0565b955095505050505094509492505050565b6000816124bf576124ba8484613711565b61152c565b61152c848461379d565b60007fffffffffffffffffffffffffffffffffffffffffffffffffffffffffff800000600283900b138015610af7575050627fffff60029190910b1290565b60008061251b83868689608001516137e7565b60408801519193509150612541906fffffffffffffffffffffffffffffffff1683613072565b6fffffffffffffffffffffffffffffffff1660408701528015610dd05760006125708487878a60800151613926565b6040880151909150612594906fffffffffffffffffffffffffffffffff1682613072565b6fffffffffffffffffffffffffffffffff16604088015250505050505050565b6000806000806125ce6125c689613a82565b895189613aa7565b9050806fffffffffffffffffffffffffffffffff16856fffffffffffffffffffffffffffffffff161161265d576040517f08c379a000000000000000000000000000000000000000000000000000000000815260206004820152600260248201527f42440000000000000000000000000000000000000000000000000000000000006044820152606401610d03565b851561267a5761266e888883613b1b565b93509350935050612685565b61266e888883613bb7565b9450945094915050565b81836000018181516126a19190615acc565b600f0b9052506020830180518291906126bb908390615acc565b600f0b905250505050565b6000806126d38585612bbd565b80549091506bffffffffffffffffffffffff1660006126f28286613c61565b83547fffffffffffffffffffffffffffffffffffffffff000000000000000000000000166bffffffffffffffffffffffff82169081178555909150158015612757575082546c0100000000000000000000000090046bffffffffffffffffffffffff16155b15612772576127668787613c6d565b60019350505050611719565b5060009695505050505050565b60008061278c8585612bbd565b80549091506c0100000000000000000000000090046bffffffffffffffffffffffff1660006127bb8286613c61565b83547fffffffffffffffff000000000000000000000000ffffffffffffffffffffffff166c010000000000000000000000006bffffffffffffffffffffffff8316908102919091178555909150158015612757575082546bffffffffffffffffffffffff16612772576127668787613c6d565b620100026000838360405160200161285392919091825260e81b602082015260230190565b604080517fffffffffffffffffffffffffffffffffffffffffffffffffffffffffffffffe08184030181529181528151602092830120835290820192909252016000908120555050565b600a6000836128aa61201c565b6128b49190615b1a565b905060006128c28383615b37565b905060ff63ffffffff821611611a6a5760008481526201000960205260409020546601000000000000900460ff1663ffffffff82161015611a6a576040517f08c379a000000000000000000000000000000000000000000000000000000000815260206004820152600160248201527f4a000000000000000000000000000000000000000000000000000000000000006044820152606401610d03565b82546000906fffffffffffffffffffffffffffffffff16816129818286613cf6565b86549091506129b29068ffffffffffffffffff86811691700100000000000000000000000000000000900416613d02565b92506fffffffffffffffffffffffffffffffff811615612a985785547d010000000000000000000000000000000000000000000000000000000000900460ff1615612a59576040517f08c379a000000000000000000000000000000000000000000000000000000000815260206004820152600260248201527f4f520000000000000000000000000000000000000000000000000000000000006044820152606401610d03565b85547fffffffffffffffffffffffffffffffff00000000000000000000000000000000166fffffffffffffffffffffffffffffffff8216178655612abf565b85547fffff0000000000000000000000000000000000000000000000000000000000001686555b50509392505050565b6000806000612add8760000151878787611cf5565b91945092509050612b0c87612b036fffffffffffffffffffffffffffffffff8916611e9b565b611e18906159b1565b5094509492505050565b60008067ffffffffffffffff831615612bb2576000612b696fffffffffffffffffffffffffffffffff861667ffffffffffffffff86160260301c71ffffffffffffffffffffffffffffffffffff16613db0565b90506fffffffffffffffffffffffffffffffff811615612bb057600080612b9088846112e8565b9092509050612b9f828b615a33565b9950612bab818a615a33565b985050505b505b509495939450505050565b60006201000260008484604051602001612be492919091825260e81b602082015260230190565b604051602081830303815290604052805190602001208152602001908152602001600020905092915050565b6000612c1e8260020b61365a565b60ff166001901b90506000612c358360020b61312a565b60ff166001901b905081620100066000612c4f8787613de3565b81526020019081526020016000206000828254179250508190555080620100076000612c7b87876130df565b815260208101919091526040016000208054909117905550505050565b8082016bffffffffffffffffffffffff8084169082161015610af757600080fd5b600080612cc68686612bbd565b90508360020b8560020b1315612d0d578054612d08907801000000000000000000000000000000000000000000000000900467ffffffffffffffff1684615b5a565b612d36565b80547801000000000000000000000000000000000000000000000000900467ffffffffffffffff165b9695505050505050565b6000816fffffffffffffffffffffffffffffffff16600003612d6357508361152c565b836fffffffffffffffffffffffffffffffff16600003612d8457508161152c565b8268ffffffffffffffffff168568ffffffffffffffffff1603612da857508361152c565b6000612dbe8686612db98682615a33565b613e0f565b90506000612dd18585612db9818a615a33565b9050612dde8160016159ef565b612de98360016159ef565b610f7091906159ef565b6000808360020b8360020b13612e0857600080fd5b7ffffffffffffffffffffffffffffffffffffffffffffffffffffffffffff5d892600285900b1215612e3957600080fd5b620cb14a600284900b1315612e4d57600080fd5b612e5684613e5a565b9150612e6183613e5a565b90509250929050565b6000826fffffffffffffffffffffffffffffffff16826fffffffffffffffffffffffffffffffff161115612eaa57612ea38483856141cc565b9050611719565b612ea38484846141cc565b600080826fffffffffffffffffffffffffffffffff16846fffffffffffffffffffffffffffffffff1611612eeb57838303612eef565b8284035b90506117b48582600161424b565b8015611e1e576040830151612f24906fffffffffffffffffffffffffffffffff1683613072565b6fffffffffffffffffffffffffffffffff166040840152505050565b6040517fffffffffffffffffffffffffffffffffffffffff000000000000000000000000606084901b166020820152603481018290526000906054015b60405160208183030381529060405280519060200120905092915050565b600066010000000000006fffffffffffffffffffffffffffffffff80851667ffffffffffffffff851683010290603082901c908111156117b4576fffffffffffffffffffffffffffffffff9350505050610af7565b806fffffffffffffffffffffffffffffffff811677ffffffffffffffffffffffffffffffffffffffffffffffff82161461203657600080fd5b60006fffffffffffffffffffffffffffffffff821677ffffffffffffffffffffffffffffffff0000000000000000604085901b168161306a5761306a615a5c565b049392505050565b60008082600f0b12156130a957508082016fffffffffffffffffffffffffffffffff808416908216106130a457600080fd5b610af7565b826fffffffffffffffffffffffffffffffff168284019150816fffffffffffffffffffffffffffffffff161015610af757600080fd5b600080600283900b60081d9050838160405160200161310b92919091825260f01b602082015260220190565b6040516020818303038152906040528051906020012091505092915050565b6000610af761010083615b7b565b600081613148578260ff03611719565b5090919050565b60008061315d85858561429e565b945050831580611e93578261317a57613175856142c2565b613183565b6131838561436f565b9150935093915050565b6000831561319c575081611719565b60006131a88382614552565b9050806131b557836117b4565b506000949350505050565b6000821561321a576131d183614585565b60010b8260010b1461320a576132056131eb836001615b9d565b6131f585156145bb565b60ff1660089190911b60020b0190565b613213565b613213836145d1565b9050610af7565b600882901b60020b613213565b60007ffffffffffffffffffffffffffffffffffffffffffffffffffffffffffff5d892600285900b1315806132635750620cb14a600285900b12155b1561326f575081611719565b81156132c257600160008161328387613e5a565b039050846fffffffffffffffffffffffffffffffff16816fffffffffffffffffffffffffffffffff16106132b757846132b9565b805b92505050611719565b60006132cd85613e5a565b9050836fffffffffffffffffffffffffffffffff16816fffffffffffffffffffffffffffffffff16116133005783613302565b805b915050611719565b6000808061331a89898787614608565b9050610100620f42406fffffffffffffffffffffffffffffffff831661ffff8a16020460ff88168102919091049081900390610c25565b600061335c84613a82565b9050806fffffffffffffffffffffffffffffffff1660000361337e5750505050565b8351821590600090613393908490878561464a565b905060006133a7848860000151848661469a565b905067ffffffffffffffff811615610ffa57610ffa8782856146b4565b6000808085850184156133f3576133ec816fffffffffffffffffffffffffffffffff16611e9b565b9250613411565b61340e816fffffffffffffffffffffffffffffffff16611e9b565b93505b509195909450915050565b60008061342a868585614798565b9050846fffffffffffffffffffffffffffffffff16816fffffffffffffffffffffffffffffffff161161345d5780612d36565b5092949350505050565b600080600080600061347a8a8a8a6147ce565b9150915060008061348d84848c8c61484e565b915091506134a08c8b8b8b8f8787614885565b96509650965050505050955095509592505050565b82516fffffffffffffffffffffffffffffffff9081168183161490831615158180156134de5750805b611a6a576040517f08c379a000000000000000000000000000000000000000000000000000000000815260206004820152600260248201527f52500000000000000000000000000000000000000000000000000000000000006044820152606401610d03565b60008060008060006135588a8a8a8a61491d565b9150915060008061356b8b858c8c614997565b915091506134a08c8b8b8b878787614885565b6000826135a35784516fffffffffffffffffffffffffffffffff8084169116116135bd565b84516fffffffffffffffffffffffffffffffff8084169116105b90506fffffffffffffffffffffffffffffffff8416158180156135dd5750805b610dd0576040517f08c379a000000000000000000000000000000000000000000000000000000000815260206004820152600260248201527f52460000000000000000000000000000000000000000000000000000000000006044820152606401610d03565b6000610af76136558360020b60101d90565b6149b6565b600061010061366c8360020b60081d90565b610af79190615bdd565b600080613693613685856149d6565b60081b60010b60ff85160190565b905084816040516020016136b492919091825260f01b602082015260220190565b604051602081830303815290604052805190602001209150509392505050565b600061152c6136e2856149d6565b60101b60020b61ff00600886901b1660030b0160ff84160190565b60006117198361370c846149d6565b614a15565b600060ff7fffffffffffffffffffffffffffffffffffffffffffffffffffffffffffffffff83015b60ff8160ff16101561379257600080613755878486600061242c565b915091508061376957509250610af7915050565b50507fffffffffffffffffffffffffffffffffffffffffffffffffffffffffffffffff01613739565b5061152c60006145d1565b600080600183015b60ff8116156137dc576000806137be878486600161242c565b91509150806137d257509250610af7915050565b50506001016137a5565b5061152c60016145d1565b60008060006137f68787612bbd565b8054909150600090613829906bffffffffffffffffffffffff808216916c01000000000000000000000000900416614a36565b90508561383e57613839816159b1565b613840565b805b825490945067ffffffffffffffff868116780100000000000000000000000000000000000000000000000090920416146138f05781546138a6907801000000000000000000000000000000000000000000000000900467ffffffffffffffff1686615b5a565b825467ffffffffffffffff9190911678010000000000000000000000000000000000000000000000000277ffffffffffffffffffffffffffffffffffffffffffffffff9091161782555b856139015781546001161515613919565b81546c01000000000000000000000000900460011615155b9250505094509492505050565b610dad5460009073ffffffffffffffffffffffffffffffffffffffff1661394c57600080fd5b6000806001610dac015460405160248101899052600288900b6044820152861515606482015267ffffffffffffffff8616608482015273ffffffffffffffffffffffffffffffffffffffff9091169060a401604080517fffffffffffffffffffffffffffffffffffffffffffffffffffffffffffffffe08184030181529181526020820180517bffffffffffffffffffffffffffffffffffffffffffffffffffffffff167f3c05c6210000000000000000000000000000000000000000000000000000000017905251613a1f9190615bff565b600060405180830381855af49150503d8060008114613a5a576040519150601f19603f3d011682016040523d82523d6000602084013e613a5f565b606091505b509150915081613a6e57600080fd5b80806020019051810190610f709190615c1b565b600080613a9783602001518460600151612f9b565b9050611719818460400151611ff7565b60008115613ac75750600167ffffffffffffffff604085901c1601611719565b6000613ad68560018603613029565b90506000613ae48686613029565b9050808203600177ffffffffffffffffffffffffffffffffffffffffffffffff821601613b1081614a52565b945050505050611719565b600080600060016f0ffff5433e2b3d8211706e6102aa9472036fffffffffffffffffffffffffffffffff1686600001516fffffffffffffffffffffffffffffffff161015613b7d5785516001016fffffffffffffffffffffffffffffffff1686525b60009150613b9c846fffffffffffffffffffffffffffffffff16611e9b565b925084613baa576000613bac565b835b905093509350939050565b6000806000620100026fffffffffffffffffffffffffffffffff1686600001516fffffffffffffffffffffffffffffffff161115613c285785517fffffffffffffffffffffffffffffffffffffffffffffffffffffffffffffffff016fffffffffffffffffffffffffffffffff1686525b60009250613c47846fffffffffffffffffffffffffffffffff16611e9b565b915084613c545783613bac565b6000905093509350939050565b60006117198284615c3e565b6000613c7b8260020b61365a565b60ff166001901b1990506000613c938360020b61312a565b60ff166001901b1990506000613ca985856130df565b600081815262010007602052604081208054851690819055919250819003610dd0576000613cd78787613de3565b6000908152620100066020526040902080548616905550505050505050565b60006117198284615988565b60006002613d1081846159ef565b68ffffffffffffffffff168468ffffffffffffffffff161115613d7957600081613d3a8587615a11565b613d449190615a11565b905067ffffffffffffffff68ffffffffffffffffff821611613d665780613d70565b67ffffffffffffffff5b92505050610af7565b6000915050610af7565b5092915050565b67ffffffffffffffff166fffffffffffffffffffffffffffffffff919091160260301c90565b806fffffffffffffffffffffffffffffffff811671ffffffffffffffffffffffffffffffffffff82161461203657600080fd5b600080600283900b60101d9050838160405160200161310b92919091825260f81b602082015260210190565b6000816fffffffffffffffffffffffffffffffff16836fffffffffffffffffffffffffffffffff168568ffffffffffffffffff160281613e5157613e51615a5c565b04949350505050565b60007ffffffffffffffffffffffffffffffffffffffffffffffffffffffffffff5d892600283900b12801590613e975750620cb14a600283900b13155b613ea057600080fd5b6000808360020b12613eb5578260020b613ebd565b8260020b6000035b9050600081600116600003613ee357700100000000000000000000000000000000613ef5565b6ffffcb933bd6fad37aa2d162d1a5940015b70ffffffffffffffffffffffffffffffffff1690506002821615613f29576ffff97272373d413259a46990580e213a0260801c5b6004821615613f48576ffff2e50f5f656932ef12357cf3c7fdcc0260801c5b6008821615613f67576fffe5caca7e10e4e61c3624eaa0941cd00260801c5b6010821615613f86576fffcb9843d60f6159c9db58835c9266440260801c5b6020821615613fa5576fff973b41fa98c081472e6896dfb254c00260801c5b6040821615613fc4576fff2ea16466c96a3843ec78b326b528610260801c5b6080821615613fe3576ffe5dee046a99a2a811c461f1969c30530260801c5b610100821615614003576ffcbe86c7900a88aedcffc83b479aa3a40260801c5b610200821615614023576ff987a7253ac413176f2b074cf7815e540260801c5b610400821615614043576ff3392b0822b70005940c7a398e4b70f30260801c5b610800821615614063576fe7159475a2c29b7443b29c7fa6e889d90260801c5b611000821615614083576fd097f3bdfd2022b8845ad8f792aa58250260801c5b6120008216156140a3576fa9f746462d870fdf8a65dc1f90e061e50260801c5b6140008216156140c3576f70d869a156d2a1b890bb3df62baf32f70260801c5b6180008216156140e3576f31be135f97d08fd981231505542fcfa60260801c5b62010000821615614104576f09aa508b5b7a84e1c677de54f3e99bc90260801c5b62020000821615614124576e5d6af8dedb81196699c329225ee6040260801c5b62040000821615614143576d2216e584f5fa1ea926041bedfe980260801c5b62080000821615614160576b048a170391f7dc42444e8fa20260801c5b60008460020b131561419f57807fffffffffffffffffffffffffffffffffffffffffffffffffffffffffffffffff8161419b5761419b615a5c565b0490505b680100000000000000008106156141b75760016141ba565b60005b60ff16604082901c0192505050919050565b6000806141d98385615988565b905060006141e78685613029565b77ffffffffffffffffffffffffffffffffffffffffffffffff1690506000856fffffffffffffffffffffffffffffffff16836fffffffffffffffffffffffffffffffff16836142369190615c63565b6142409190615c7a565b9050610f7081614a52565b600061152c8261427e5761425f8585613029565b77ffffffffffffffffffffffffffffffffffffffffffffffff16614a52565b6fffffffffffffffffffffffffffffffff8086169085160260401c61425f565b6000816142b45761ffff831684811b901c61152c565b505061ffff1690811c901b90565b60008082116142d057600080fd5b70010000000000000000000000000000000082106142f057608091821c91015b68010000000000000000821061430857604091821c91015b640100000000821061431c57602091821c91015b62010000821061432e57601091821c91015b610100821061433f57600891821c91015b6010821061434f57600491821c91015b6004821061435f57600291821c91015b6002821061203657600101919050565b600080821161437d57600080fd5b5060ff6fffffffffffffffffffffffffffffffff8216156143bf577fffffffffffffffffffffffffffffffffffffffffffffffffffffffffffffff80016143c7565b608082901c91505b67ffffffffffffffff8216156143fe577fffffffffffffffffffffffffffffffffffffffffffffffffffffffffffffffc001614406565b604082901c91505b63ffffffff821615614439577fffffffffffffffffffffffffffffffffffffffffffffffffffffffffffffffe001614441565b602082901c91505b61ffff821615614472577ffffffffffffffffffffffffffffffffffffffffffffffffffffffffffffffff00161447a565b601082901c91505b60ff8216156144aa577ffffffffffffffffffffffffffffffffffffffffffffffffffffffffffffffff8016144b2565b600882901c91505b600f8216156144e2577ffffffffffffffffffffffffffffffffffffffffffffffffffffffffffffffffc016144ea565b600482901c91505b600382161561451a577ffffffffffffffffffffffffffffffffffffffffffffffffffffffffffffffffe01614522565b600282901c91505b6001821615612036577fffffffffffffffffffffffffffffffffffffffffffffffffffffffffffffffff01919050565b6000806000614566858560ff16600161314f565b915060ff169150801580156117b457508360ff16821495945050505050565b6000816145b2577fffffffffffffffffffffffffffffffffffffffffffffffffffffffffffff8000610af7565b617fff92915050565b6000816145c9576000610af7565b60ff92915050565b6000816145fe577fffffffffffffffffffffffffffffffffffffffffffffffffffffffffff800000610af7565b627fffff92915050565b83516000906fffffffffffffffffffffffffffffffff90811690831611816146328787878761341c565b9050610f7061464088613a82565b8851838589614a71565b600060028161465a878786613aa7565b6146649083615c8e565b9050806fffffffffffffffffffffffffffffffff16856fffffffffffffffffffffffffffffffff16111561277257808503610f70565b6000806146a886868561424b565b9050612d368185614b8a565b82516146c1908383614ca0565b6fffffffffffffffffffffffffffffffff16835260608301516146ee9067ffffffffffffffff1683614d1a565b67ffffffffffffffff908116606085018190526000916147119190851690614d7d565b9050600061475a6147418387604001516fffffffffffffffffffffffffffffffff16613d8a90919063ffffffff16565b71ffffffffffffffffffffffffffffffffffff16614a52565b90506147668282614dc5565b856080018181516147779190615cba565b67ffffffffffffffff16905250602085018051829190612225908390615a33565b6000806147a485613a82565b9050836147bf576147ba81866000015185612e6a565b6117b4565b6117b481866000015185612eb5565b60008060006147dc86613a82565b8651909150600090614802906fffffffffffffffffffffffffffffffff84169088612eb5565b8751909150600090614828906fffffffffffffffffffffffffffffffff85169089612e6a565b9050851561483c5790935091508282614843565b9350915081835b505050935093915050565b60008061485d86868686614e38565b909250905061486d600483615acc565b915061487a600482615acc565b905094509492505050565b600080600080614896868b8b614edb565b9050876fffffffffffffffffffffffffffffffff16816fffffffffffffffffffffffffffffffff16106148cc57600091506148d9565b6148d68189615988565b91505b896148e457846148e6565b855b9350896148f357856148f5565b845b6fffffffffffffffffffffffffffffffff909716909a52919994985090965092945050505050565b600080600061492b87613a82565b905061493e876000015182888888614f11565b9150841561496b578651614966906fffffffffffffffffffffffffffffffff83169084612e6a565b61498b565b865161498b906fffffffffffffffffffffffffffffffff83169084612eb5565b92505094509492505050565b6000806149a686868686614e38565b909250905061487a600482615acc565b6000808260000b12156149cf578160000b608001610af7565b5060800190565b600060808260ff16106149ec5760808203610af7565b5060ff167fffffffffffffffffffffffffffffffffffffffffffffffffffffffffffffff800190565b60008282604051602001612f7d92919091825260f81b602082015260210190565b6000614a4182614fad565b614a4a84614fad565b039392505050565b806fffffffffffffffffffffffffffffffff8116811461203657600080fd5b6000856fffffffffffffffffffffffffffffffff16600003614a95575060006117b4565b6000614aa38787851561424b565b6fffffffffffffffffffffffffffffffff1690506000614ac488888661424b565b6fffffffffffffffffffffffffffffffff169050600084151586151514614aff57866fffffffffffffffffffffffffffffffff168203614b15565b866fffffffffffffffffffffffffffffffff1682015b905080600003614b3a576fffffffffffffffffffffffffffffffff93505050506117b4565b6000816fffffffffffffffffffffffffffffffff8b16800281614b5f57614b5f615a5c565b049050614b7c848211614b7457818503614a52565b848203614a52565b9a9950505050505050505050565b60006fffffffffffffffffffffffffffffffff83161580614bce5750826fffffffffffffffffffffffffffffffff16826fffffffffffffffffffffffffffffffff16115b15614bdb57506000610af7565b6000614be78385615a33565b90506000614c076fffffffffffffffffffffffffffffffff831686614fc9565b9050614c1c8167ffffffffffffffff16615092565b925066010000000000008367ffffffffffffffff1610614c98576040517f08c379a000000000000000000000000000000000000000000000000000000000815260206004820152600260248201527f49460000000000000000000000000000000000000000000000000000000000006044820152606401610d03565b505092915050565b6000660100000000000067ffffffffffffffff841681018315614ce3576fffffffffffffffffffffffffffffffff86168102603081901c613b1060018201614a52565b75ffffffffffffffffffffffffffffffff000000000000603087901b16818181614d0f57614d0f615a5c565b049350505050611719565b6000660100000000000067ffffffffffffffff848116820181851683010290603082901c907fffffffffffffffffffffffffffffffffffffffffffffffffffff0000000000008201908110612d365767ffffffffffffffff945050505050610af7565b6000660100000000000067ffffffffffffffff831681016dffffffffffffffff000000000000603086901b1683828281614db957614db9615a5c565b04979650505050505050565b6000816fffffffffffffffffffffffffffffffff16600003614de957506000610af7565b614df4826001615a33565b6fffffffffffffffffffffffffffffffff16826fffffffffffffffffffffffffffffffff168467ffffffffffffffff16614e2e9190615c63565b6117199190615c7a565b60008082151584151503614e8f57614e61866fffffffffffffffffffffffffffffffff16611e9b565b614e7c866fffffffffffffffffffffffffffffffff16611e9b565b614e85906159b1565b9092509050610bd0565b614eaa866fffffffffffffffffffffffffffffffff16611e9b565b614eb3906159b1565b614ece866fffffffffffffffffffffffffffffffff16611e9b565b9097909650945050505050565b60008082151584151514614ef757614ef2856159b1565b614ef9565b845b9050600081600f0b121561152c576000915050611719565b60008083614f2a57614f25878787866150d6565b614f36565b614f368787878661513d565b90506f0ffff5433e2b3d8211706e6102aa94726fffffffffffffffffffffffffffffffff821610614f8457614f7c60016f0ffff5433e2b3d8211706e6102aa9472615988565b9150506117b4565b620100026fffffffffffffffffffffffffffffffff82161015612d3657620100029150506117b4565b6000600a82901b6d03fffffffffffffffffffffff80016610af7565b600079ffffffffffffffffffffffffffffffffffffffffffffffffffff6fffffffffffffffffffffffffffffffff841610801561502a5750816fffffffffffffffffffffffffffffffff16836fffffffffffffffffffffffffffffffff1610155b61503357600080fd5b660100000000000075ffffffffffffffffffffffffffffffff000000000000603085901b166000826fffffffffffffffffffffffffffffffff8616838161507c5761507c615a5c565b040390508281106117b457829350505050610af7565b600066010000000000008267ffffffffffffffff16106150b157600080fd5b5067ffffffffffffffff8116800260331c60019190911c677fffffffffffffff160390565b6000806150e28661522e565b905060006150f3828787871561513d565b9050806fffffffffffffffffffffffffffffffff16600003615129576f0ffff5433e2b3d8211706e6102aa94729250505061152c565b6151328161522e565b610f70906001615a33565b6000836fffffffffffffffffffffffffffffffff1660000361517057506fffffffffffffffffffffffffffffffff61152c565b600061517c8486613029565b90506fffffffffffffffffffffffffffffffff77ffffffffffffffffffffffffffffffffffffffffffffffff821611156151c9576fffffffffffffffffffffffffffffffff91505061152c565b8083156151e3576151da8188615a33565b9250505061152c565b866fffffffffffffffffffffffffffffffff16816fffffffffffffffffffffffffffffffff16106152195760009250505061152c565b615224816001615a33565b6151da9088615988565b600080826fffffffffffffffffffffffffffffffff167001000000000000000000000000000000008161526357615263615a5c565b0490506fffffffffffffffffffffffffffffffff811115610af757600080fd5b80356fffffffffffffffffffffffffffffffff8116811461203657600080fd5b8035600281900b811461203657600080fd5b803567ffffffffffffffff8116811461203657600080fd5b6000806000806000806000806000806101408b8d0312156152ed57600080fd5b6152f68b615283565b995061530460208c016152a3565b985061531260408c01615283565b975061532060608c01615283565b965061532e60808c016152b5565b955061533c60a08c016152b5565b945061534a60c08c016152a3565b935061535860e08c016152a3565b92506153676101008c01615283565b91506101208b013590509295989b9194979a5092959850565b600080600080600080600060e0888a03121561539b57600080fd5b6153a488615283565b96506153b260208901615283565b95506153c060408901615283565b94506153ce606089016152b5565b93506153dc608089016152b5565b92506153ea60a08901615283565b915060c0880135905092959891949750929550565b6040516060810167ffffffffffffffff81118282101715615449577f4e487b7100000000000000000000000000000000000000000000000000000000600052604160045260246000fd5b60405290565b60405160e0810167ffffffffffffffff81118282101715615449577f4e487b7100000000000000000000000000000000000000000000000000000000600052604160045260246000fd5b60405160a0810167ffffffffffffffff81118282101715615449577f4e487b7100000000000000000000000000000000000000000000000000000000600052604160045260246000fd5b80151581146154f157600080fd5b50565b803560ff8116811461203657600080fd5b803561ffff8116811461203657600080fd5b803573ffffffffffffffffffffffffffffffffffffffff8116811461203657600080fd5b600081830361012081121561554f57600080fd5b6155576153ff565b915060e081121561556757600080fd5b5061557061544f565b615579836154f4565b815261558760208401615505565b6020820152615598604084016154f4565b60408201526155a960608401615505565b60608201526155ba608084016154f4565b60808201526155cb60a084016154f4565b60a08201526155dc60c084016154f4565b60c0820152815260e082013560208201526155fa6101008301615517565b604082015292915050565b60008060008084860361028081121561561d57600080fd5b60a081121561562b57600080fd5b615633615499565b61563c87615283565b815261564a60208801615283565b602082015261565b60408801615283565b604082015261566c606088016152b5565b606082015261567d608088016152b5565b6080820152945061569060a087016152a3565b935060a07fffffffffffffffffffffffffffffffffffffffffffffffffffffffffffffff40820112156156c257600080fd5b506156cb615499565b60c08601356156d9816154e3565b815260e08601356156e9816154e3565b60208201526156fb61010087016154f4565b604082015261570d6101208701615283565b606082015261571f6101408701615283565b6080820152915061573486610160870161553b565b905092959194509250565b6000806040838503121561575257600080fd5b61575b83615517565b9150612e6160208401615505565b60005b8381101561578457818101518382015260200161576c565b50506000910152565b600081518084526157a5816020860160208601615769565b601f017fffffffffffffffffffffffffffffffffffffffffffffffffffffffffffffffe0169290920160200192915050565b6040815260006157ea604083018561578d565b82810360208401526117b4818561578d565b805160ff8151168352602081015161ffff808216602086015260ff6040840151166040860152806060840151166060860152505060ff608082015116608084015260a081015161585160a085018260ff169052565b5060c0810151905061586860c084018260ff169052565b50602081015160e08301526040015173ffffffffffffffffffffffffffffffffffffffff1661010090910152565b84516fffffffffffffffffffffffffffffffff908116825260208087015182168184015260408088015183168185015260608089015167ffffffffffffffff908116828701526080808b015190911681870152600289900b60a08701528751151560c087015292870151151560e08601529086015160ff1661010085015285015182166101208401528401511661014082015261028081016117b46101608301846157fc565b60006020828403121561594e57600080fd5b8151611719816154e3565b7f4e487b7100000000000000000000000000000000000000000000000000000000600052601160045260246000fd5b6fffffffffffffffffffffffffffffffff828116828216039080821115613d8357613d83615959565b600081600f0b7fffffffffffffffffffffffffffffffff8000000000000000000000000000000081036159e6576159e6615959565b60000392915050565b68ffffffffffffffffff818116838216019080821115613d8357613d83615959565b68ffffffffffffffffff828116828216039080821115613d8357613d83615959565b6fffffffffffffffffffffffffffffffff818116838216019080821115613d8357613d83615959565b7f4e487b7100000000000000000000000000000000000000000000000000000000600052601260045260246000fd5b600282810b9082900b037fffffffffffffffffffffffffffffffffffffffffffffffffffffffffff8000008112627fffff82131715610af757610af7615959565b600f81810b9083900b016f7fffffffffffffffffffffffffffffff81137fffffffffffffffffffffffffffffffff8000000000000000000000000000000082121715610af757610af7615959565b63ffffffff828116828216039080821115613d8357613d83615959565b600063ffffffff80841680615b4e57615b4e615a5c565b92169190910492915050565b67ffffffffffffffff828116828216039080821115613d8357613d83615959565b60008260020b80615b8e57615b8e615a5c565b808360020b0791505092915050565b600181810b9083900b01617fff81137fffffffffffffffffffffffffffffffffffffffffffffffffffffffffffff800082121715610af757610af7615959565b60008260010b80615bf057615bf0615a5c565b808360010b0791505092915050565b60008251615c11818460208701615769565b9190910192915050565b600060208284031215615c2d57600080fd5b815180600f0b811461171957600080fd5b6bffffffffffffffffffffffff828116828216039080821115613d8357613d83615959565b8082028115828204841417610af757610af7615959565b600082615c8957615c89615a5c565b500490565b6fffffffffffffffffffffffffffffffff818116838216028082169190828114614c9857614c98615959565b67ffffffffffffffff818116838216019080821115613d8357613d8361595956fea26469706673582212206c063996c8c898b235ec54f0853b3ab25a0a911a1435847f8e91cde36b12fece64736f6c63430008130033",
  "linkReferences": {},
  "deployedLinkReferences": {}
}