{
    "contractName": "SdexDeployer",
    "address": "0x609Ac40043aea999b7d8b7eE8B6e094b32ff4757",
    "sourceName": "contracts/periphery/SdexDeployer.sol",
    "abi": [
        {
            "inputs": [
                {
                    "internalType": "address",
                    "name": "owner",
                    "type": "address"
                }
            ],
            "stateMutability": "nonpayable",
            "type": "constructor"
        },
        {
            "anonymous": false,
            "inputs": [
                {
                    "indexed": false,
                    "internalType": "address",
                    "name": "addr",
                    "type": "address"
                },
                {
                    "indexed": false,
                    "internalType": "uint256",
                    "name": "salt",
                    "type": "uint256"
                }
            ],
            "name": "SdexDeploy",
            "type": "event"
        },
        {
            "inputs": [
                {
                    "internalType": "bytes",
                    "name": "bytescode",
                    "type": "bytes"
                },
                {
                    "internalType": "uint256",
                    "name": "salt",
                    "type": "uint256"
                }
            ],
            "name": "deploy",
            "outputs": [
                {
                    "internalType": "address",
                    "name": "",
                    "type": "address"
                }
            ],
            "stateMutability": "nonpayable",
            "type": "function"
        },
        {
            "inputs": [],
            "name": "dex_",
            "outputs": [
                {
                    "internalType": "address",
                    "name": "",
                    "type": "address"
                }
            ],
            "stateMutability": "view",
            "type": "function"
        },
        {
            "inputs": [
                {
                    "internalType": "bytes",
                    "name": "bytecode",
                    "type": "bytes"
                },
                {
                    "internalType": "uint256",
                    "name": "_salt",
                    "type": "uint256"
                }
            ],
            "name": "getAddress",
            "outputs": [
                {
                    "internalType": "address",
                    "name": "",
                    "type": "address"
                }
            ],
            "stateMutability": "view",
            "type": "function"
        },
        {
            "inputs": [
                {
                    "internalType": "address",
                    "name": "dex",
                    "type": "address"
                },
                {
                    "internalType": "uint16",
                    "name": "proxyPath",
                    "type": "uint16"
                },
                {
                    "internalType": "bytes",
                    "name": "cmd",
                    "type": "bytes"
                },
                {
                    "internalType": "bool",
                    "name": "sudo",
                    "type": "bool"
                }
            ],
            "name": "protocolCmd",
            "outputs": [],
            "stateMutability": "nonpayable",
            "type": "function"
        }
    ],
    "bytecode": "0x60a060405234801561001057600080fd5b5060405161065938038061065983398101604081905261002f91610040565b6001600160a01b0316608052610070565b60006020828403121561005257600080fd5b81516001600160a01b038116811461006957600080fd5b9392505050565b6080516105cf61008a600039600060ed01526105cf6000f3fe608060405234801561001057600080fd5b506004361061004c5760003560e01c806387834a0e146100515780638b60a6bd1461009a57806394ca2cb5146100af5780639c4ae2d0146100c2575b600080fd5b6000546100719073ffffffffffffffffffffffffffffffffffffffff1681565b60405173ffffffffffffffffffffffffffffffffffffffff909116815260200160405180910390f35b6100ad6100a836600461036a565b6100d5565b005b6100716100bd366004610462565b610209565b6100716100d0366004610462565b610293565b3373ffffffffffffffffffffffffffffffffffffffff7f00000000000000000000000000000000000000000000000000000000000000001614610178576040517f08c379a000000000000000000000000000000000000000000000000000000000815260206004820152601560248201527f446f6573206e6f74206f776e206465706c6f7965720000000000000000000000604482015260640160405180910390fd5b6040517f13fd34f400000000000000000000000000000000000000000000000000000000815273ffffffffffffffffffffffffffffffffffffffff8616906313fd34f4906101d0908790879087908790600401610535565b600060405180830381600087803b1580156101ea57600080fd5b505af11580156101fe573d6000803e3d6000fd5b505050505050505050565b8151602080840191909120604080517fff00000000000000000000000000000000000000000000000000000000000000818501523060601b7fffffffffffffffffffffffffffffffffffffffff0000000000000000000000001660218201526035810185905260558082019390935281518082039093018352607501905280519101205b92915050565b600061029f838361033c565b600080547fffffffffffffffffffffffff00000000000000000000000000000000000000001673ffffffffffffffffffffffffffffffffffffffff92909216918217905560408051918252602082018490527fd9f2c23e9b4ce619c3d99bd5f5687a06736837c12591116c70f4547ea567c286910160405180910390a15060005473ffffffffffffffffffffffffffffffffffffffff1692915050565b6000818351602085016000f59050803b61028d57600080fd5b8035801515811461036557600080fd5b919050565b60008060008060006080868803121561038257600080fd5b853573ffffffffffffffffffffffffffffffffffffffff811681146103a657600080fd5b9450602086013561ffff811681146103bd57600080fd5b9350604086013567ffffffffffffffff808211156103da57600080fd5b818801915088601f8301126103ee57600080fd5b8135818111156103fd57600080fd5b89602082850101111561040f57600080fd5b60208301955080945050505061042760608701610355565b90509295509295909350565b7f4e487b7100000000000000000000000000000000000000000000000000000000600052604160045260246000fd5b6000806040838503121561047557600080fd5b823567ffffffffffffffff8082111561048d57600080fd5b818501915085601f8301126104a157600080fd5b8135818111156104b3576104b3610433565b604051601f82017fffffffffffffffffffffffffffffffffffffffffffffffffffffffffffffffe0908116603f011681019083821181831017156104f9576104f9610433565b8160405282815288602084870101111561051257600080fd5b826020860160208301376000602093820184015298969091013596505050505050565b61ffff851681526060602082015282606082015282846080830137600060808483010152600060807fffffffffffffffffffffffffffffffffffffffffffffffffffffffffffffffe0601f860116830101905082151560408301529594505050505056fea2646970667358221220f01c6476bb05f95696a8908dca11e91f417cc53473c7eb6bedccdf9c0188a80564736f6c63430008130033",
    "linkReferences": {},
    "deployedLinkReferences": {}
}