{
  "_format": "hh-sol-artifact-1",
  "contractName": "KnockoutLiqPath",
  "address": "0x718425f091Df36637e14602635B9a17a20Ba23E4",
  "sourceName": "contracts/callpaths/KnockoutPath.sol",
  "abi": [
    {
      "anonymous": false,
      "inputs": [
        {
          "indexed": true,
          "internalType": "bytes32",
          "name": "pool",
          "type": "bytes32"
        },
        {
          "indexed": true,
          "internalType": "int24",
          "name": "tick",
          "type": "int24"
        },
        {
          "indexed": false,
          "internalType": "bool",
          "name": "isBid",
          "type": "bool"
        },
        {
          "indexed": false,
          "internalType": "uint32",
          "name": "pivotTime",
          "type": "uint32"
        },
        {
          "indexed": false,
          "internalType": "uint64",
          "name": "feeMileage",
          "type": "uint64"
        },
        {
          "indexed": false,
          "internalType": "uint160",
          "name": "commitEntropy",
          "type": "uint160"
        }
      ],
      "name": "SdexKnockoutCross",
      "type": "event"
    },
    {
      "inputs": [
        {
          "internalType": "address",
          "name": "",
          "type": "address"
        },
        {
          "internalType": "uint16",
          "name": "slot",
          "type": "uint16"
        }
      ],
      "name": "acceptSdexProxyRole",
      "outputs": [
        {
          "internalType": "bool",
          "name": "",
          "type": "bool"
        }
      ],
      "stateMutability": "pure",
      "type": "function"
    },
    {
      "inputs": [
        {
          "internalType": "bytes",
          "name": "cmd",
          "type": "bytes"
        }
      ],
      "name": "userCmd",
      "outputs": [
        {
          "internalType": "int128",
          "name": "baseFlow",
          "type": "int128"
        },
        {
          "internalType": "int128",
          "name": "quoteFlow",
          "type": "int128"
        }
      ],
      "stateMutability": "payable",
      "type": "function"
    }
  ],
  "bytecode": "0x608060405262010011805460ff60e01b1916600160e71b17905534801561002557600080fd5b50615003806100356000396000f3fe6080604052600436106100295760003560e01c8063ac54c0fc1461002e578063f96dc78814610063575b600080fd5b34801561003a57600080fd5b5061004e610049366004614842565b610090565b60405190151581526020015b60405180910390f35b610076610071366004614882565b61009f565b60408051600f93840b81529190920b60208201520161005a565b61ffff81166007145b92915050565b6000806100ac84846100f6565b60405191935091507fdb0d481fef789c7e1437eb7aa5474ab5f71f1b3d2f23473433d29c381bf54f05906100e79086908690869086906148f4565b60405180910390a19250929050565b60008080808080808080808061010e8c8e018e614a02565b985098509850985098509850985098509850600061012d89898961018c565b9050600061013e8260200151610268565b60408051606081018252871515815260028a810b602083015289900b918101919091529091506101748c8c8c8686868b8b61033d565b9d509d505050505050505050505050505b9250929050565b60408051610140810182526000606082018181526080830182905260a0830182905260c0830182905260e0830182905261010083018290526101208301829052825260208201819052918101919091526101eb620100098585856104a9565b90506101f6816105da565b610261576040517f08c379a000000000000000000000000000000000000000000000000000000000815260206004820152600260248201527f504900000000000000000000000000000000000000000000000000000000000060448201526064015b60405180910390fd5b9392505050565b6040805160a0810182526000808252602082018190529181018290526060810182905260808101919091525060008181526201000f6020908152604091829020825160a08101845281546fffffffffffffffffffffffffffffffff808216808452700100000000000000000000000000000000928390048216958401959095526001909301549283169482019490945292810467ffffffffffffffff9081166060850152780100000000000000000000000000000000000000000000000090910416608083015261033857600080fd5b919050565b6000807fffffffffffffffffffffffffffffffffffffffffffffffffffffffffffffffa560ff8b16016103825761037889898989898861065b565b909250905061048f565b7fffffffffffffffffffffffffffffffffffffffffffffffffffffffffffffffa460ff8b16016103ba57610378898989898988610871565b7fffffffffffffffffffffffffffffffffffffffffffffffffffffffffffffffa360ff8b16016103f4576103788760200151878786610a7b565b7fffffffffffffffffffffffffffffffffffffffffffffffffffffffffffffffa260ff8b160161042d5761037887602001518685610b8e565b6040517f08c379a000000000000000000000000000000000000000000000000000000000815260206004820152600f60248201527f496e76616c696420636f6d6d616e6400000000000000000000000000000000006044820152606401610258565b61049c8989848488610bc1565b9850989650505050505050565b60408051610140810182526000606082018181526080830182905260a0830182905260c0830182905260e083018290526101008301829052610120830182905282526020820181905291810182905290610504858585610bf3565b600081815260208881526040808320815160e081018352905460ff808216835261ffff6101008304811695840195909552630100000082048116938301939093526401000000008104909316606082015266010000000000008304821660808201526701000000000000008304821660a0820152680100000000000000009092041660c082018190529293509161059c908690610c81565b60408051606081018252938452602084019490945273ffffffffffffffffffffffffffffffffffffffff16928201929092529150505b949350505050565b805151600090600160ff909116111561064f576040517f08c379a000000000000000000000000000000000000000000000000000000000815260206004820152600360248201527f49505300000000000000000000000000000000000000000000000000000000006044820152606401610258565b50515160ff1660011490565b600080600080848060200190518101906106759190614b5a565b91509150600061069a88600001516fffffffffffffffffffffffffffffffff16610ca5565b90506106a7878284610ff8565b61070d576040517f08c379a000000000000000000000000000000000000000000000000000000000815260206004820152600260248201527f4b4c0000000000000000000000000000000000000000000000000000000000006044820152606401610258565b600061072e8460018b600001518b602001518c604001518d60000151611057565b90506107468a8d8d8b602001518c60400151866110e1565b61076089838a848e602001518f6000015160a00151611251565b60208c0151919750955061084e908a60009182526201000f60209081526040928390208251918301516fffffffffffffffffffffffffffffffff9081167001000000000000000000000000000000009081029382169390931782559383015160019091018054606085015160809095015167ffffffffffffffff90811678010000000000000000000000000000000000000000000000000277ffffffffffffffffffffffffffffffffffffffffffffffff919096169094027fffffffffffffffff00000000000000000000000000000000000000000000000090911692909516919091179390931716179055565b61085e8686868b600001516112b8565b909d909c509a5050505050505050505050565b60008060008060008580602001905181019061088d9190614b86565b92509250925060006108b489600001516fffffffffffffffffffffffffffffffff16610ca5565b90506108c1888284610ff8565b610927576040517f08c379a000000000000000000000000000000000000000000000000000000000815260206004820152600260248201527f4b4c0000000000000000000000000000000000000000000000000000000000006044820152606401610258565b6000836109525761094d8560008c600001518c602001518d604001518e60000151611057565b610954565b845b905061096c8b8e8e8c602001518d6040015186611326565b61097d8a838b848f602001516113e6565b60208d01519198509650610a6b908b60009182526201000f60209081526040928390208251918301516fffffffffffffffffffffffffffffffff9081167001000000000000000000000000000000009081029382169390931782559383015160019091018054606085015160809095015167ffffffffffffffff90811678010000000000000000000000000000000000000000000000000277ffffffffffffffffffffffffffffffffffffffffffffffff919096169094027fffffffffffffffff00000000000000000000000000000000000000000000000090911692909516919091179390931716179055565b5050505050965096945050505050565b60008060008084806020019051810190610a959190614bd0565b91509150610aa6878784848c611440565b60008a81526201000f60209081526040918290208b51918c01516fffffffffffffffffffffffffffffffff9283167001000000000000000000000000000000009184168202178255928c01516001909101805460608e015160808f0151939094167fffffffffffffffff0000000000000000000000000000000000000000000000009091161767ffffffffffffffff9384169094029390931777ffffffffffffffffffffffffffffffffffffffffffffffff16780100000000000000000000000000000000000000000000000092909116919091021790559094509250505094509492505050565b600080600083806020019051810190610ba79190614c8d565b9050610bb4858288611489565b9097909650945050505050565b60005473ffffffffffffffffffffffffffffffffffffffff1680610bea818089888a89896114db565b50505050505050565b60008273ffffffffffffffffffffffffffffffffffffffff168473ffffffffffffffffffffffffffffffffffffffff1610610c2d57600080fd5b6040805173ffffffffffffffffffffffffffffffffffffffff8087166020830152851691810191909152606081018390526080015b6040516020818303038152906040528051906020012090509392505050565b60006001828116811480610c96576000610c9c565b606085901c5b95945050505050565b6000620100026fffffffffffffffffffffffffffffffff831610801590610ced57506f0ffff5433e2b3d8211706e6102aa94726fffffffffffffffffffffffffffffffff8316105b610cf657600080fd5b77ffffffffffffffffffffffffffffffff0000000000000000604083901b166fffffffffffffffffffffffffffffffff811160071b81811c67ffffffffffffffff811160061b90811c63ffffffff811160051b90811c61ffff811160041b90811c60ff8111600390811b91821c600f811160021b90811c918211600190811b92831c97908811961790941790921717909117171760808110610da057607f810383901c9150610daa565b80607f0383901b91505b908002607f81811c60ff83811c9190911c800280831c81831c1c800280841c81841c1c800280851c81851c1c800280861c81861c1c800280871c81871c1c800280881c81881c1c800280891c81891c1c8002808a1c818a1c1c8002808b1c818b1c1c8002808c1c818c1c1c8002808d1c818d1c1c8002808e1c9c81901c9c909c1c80029c8d901c9e9d7fffffffffffffffffffffffffffffffffffffffffffffffffffffffffffffff808f0160401b60c09190911c678000000000000000161760c19b909b1c674000000000000000169a909a1760c29990991c672000000000000000169890981760c39790971c671000000000000000169690961760c49590951c670800000000000000169490941760c59390931c670400000000000000169290921760c69190911c670200000000000000161760c79190911c670100000000000000161760c89190911c6680000000000000161760c99190911c6640000000000000161760ca9190911c6620000000000000161760cb9190911c6610000000000000161760cc9190911c6608000000000000161760cd9190911c66040000000000001617693627a301d71055774c8581027ffffffffffffffffffffffffffffffffffd709b7e5480fba5a50fed5e62ffc5568101608090811d906fdb2df09e81959a81455e260799a0632f8301901d600281810b9083900b14610fe957886fffffffffffffffffffffffffffffffff16610fc582611530565b6fffffffffffffffffffffffffffffffff161115610fe35781610feb565b80610feb565b815b9998505050505050505050565b82516000901561102c57600082611013578460400151611019565b84602001515b90508360020b8160020b12915050610261565b60008261103d578460200151611043565b84604001515b90508360020b8160020b1215915050610261565b6000806000611068878787876118a2565b91509150600061109885848461107e8e8e611947565b6fffffffffffffffffffffffffffffffff16929190611a05565b9050886110bf576110ba816fffffffffffffffffffffffffffffffff16611a7f565b6110d3565b6ffffffffffffffffffffffffffffff80081165b9a9950505050505050505050565b604086015173ffffffffffffffffffffffffffffffffffffffff1615611249576040868101516000805492517f2dd148f100000000000000000000000000000000000000000000000000000000815273ffffffffffffffffffffffffffffffffffffffff938416600482015233602482015288841660448201528784166064820152600287810b608483015286900b60a48201526fffffffffffffffffffffffffffffffff851660c4820152909290911690632dd148f19060e4015b6020604051808303816000875af11580156111bc573d6000803e3d6000fd5b505050506040513d601f19601f820116820180604052508101906111e09190614cb3565b905080610bea576040517f08c379a000000000000000000000000000000000000000000000000000000000815260206004820152600160248201527f5a000000000000000000000000000000000000000000000000000000000000006044820152606401610258565b505050505050565b6000806112808484898b608001518a61127b8b6fffffffffffffffffffffffffffffffff16611b30565b611c06565b50506000806112998a888a602001518b60400151611c61565b915091506112a78282611ca5565b909b909a5098505050505050505050565b60008060006112d8856fffffffffffffffffffffffffffffffff16611ce9565b90508380156112ec575086600f0b81600f0b135b156112f957809650611315565b8315801561130c575085600f0b81600f0b135b15611315578095505b868692509250505b94509492505050565b604086015173ffffffffffffffffffffffffffffffffffffffff1615611249576040868101516000805492517f2a179e9b00000000000000000000000000000000000000000000000000000000815273ffffffffffffffffffffffffffffffffffffffff938416600482015233602482015288841660448201528784166064820152600287810b608483015286900b60a48201526fffffffffffffffffffffffffffffffff851660c4820152909290911690632a179e9b9060e40161119d565b600080600061141684888a60800151896114118a6fffffffffffffffffffffffffffffffff16611b30565b611d1d565b925050506000806114328a88858b602001518c60400151611d76565b915091506112a78282611da5565b60008060008061145285898989611df0565b90925090506d03fffffffffffffffffffffff800600a83901b1660008061147b8c84868e611e21565b9150915061085e8282611da5565b6000806000611499848787611e40565b90506d03fffffffffffffffffffffff800600a82901b166000806114bd838a611e63565b915091506114cb8282611da5565b909a909950975050505050505050565b73ffffffffffffffffffffffffffffffffffffffff851661150c57611507878786600185161515611ed4565b61151e565b61151e87878688600186161515611f10565b610bea87878486600286161515611f10565b60007ffffffffffffffffffffffffffffffffffffffffffffffffffffffffffff5d892600283900b1280159061156d5750620cb14a600283900b13155b61157657600080fd5b6000808360020b1261158b578260020b611593565b8260020b6000035b90506000816001166000036115b9577001000000000000000000000000000000006115cb565b6ffffcb933bd6fad37aa2d162d1a5940015b70ffffffffffffffffffffffffffffffffff16905060028216156115ff576ffff97272373d413259a46990580e213a0260801c5b600482161561161e576ffff2e50f5f656932ef12357cf3c7fdcc0260801c5b600882161561163d576fffe5caca7e10e4e61c3624eaa0941cd00260801c5b601082161561165c576fffcb9843d60f6159c9db58835c9266440260801c5b602082161561167b576fff973b41fa98c081472e6896dfb254c00260801c5b604082161561169a576fff2ea16466c96a3843ec78b326b528610260801c5b60808216156116b9576ffe5dee046a99a2a811c461f1969c30530260801c5b6101008216156116d9576ffcbe86c7900a88aedcffc83b479aa3a40260801c5b6102008216156116f9576ff987a7253ac413176f2b074cf7815e540260801c5b610400821615611719576ff3392b0822b70005940c7a398e4b70f30260801c5b610800821615611739576fe7159475a2c29b7443b29c7fa6e889d90260801c5b611000821615611759576fd097f3bdfd2022b8845ad8f792aa58250260801c5b612000821615611779576fa9f746462d870fdf8a65dc1f90e061e50260801c5b614000821615611799576f70d869a156d2a1b890bb3df62baf32f70260801c5b6180008216156117b9576f31be135f97d08fd981231505542fcfa60260801c5b620100008216156117da576f09aa508b5b7a84e1c677de54f3e99bc90260801c5b620200008216156117fa576e5d6af8dedb81196699c329225ee6040260801c5b62040000821615611819576d2216e584f5fa1ea926041bedfe980260801c5b62080000821615611836576b048a170391f7dc42444e8fa20260801c5b60008460020b131561187557807fffffffffffffffffffffffffffffffffffffffffffffffffffffffffffffffff8161187157611871614cd0565b0490505b6801000000000000000081061561188d576001611890565b60005b60ff16604082901c0192505050919050565b6000806118b18560020b611530565b91506118bf8460020b611530565b9050816fffffffffffffffffffffffffffffffff16866fffffffffffffffffffffffffffffffff16116118fc5782156118f757600080fd5b61131d565b806fffffffffffffffffffffffffffffffff16866fffffffffffffffffffffffffffffffff161061193157826118f757600080fd5b821561193e57508461131d565b94959350505050565b60006004821561199657806fffffffffffffffffffffffffffffffff16846fffffffffffffffffffffffffffffffff161061198b576119868185614d2e565b61198e565b60005b915050610099565b6119b160046fffffffffffffffffffffffffffffffff614d2e565b6fffffffffffffffffffffffffffffffff16846fffffffffffffffffffffffffffffffff16116119e5576119868185614d57565b6fffffffffffffffffffffffffffffffff915050610099565b5092915050565b600083611a3057611a29856001611a1b86611f40565b611a2486611f40565b611a05565b90506105d2565b6000826fffffffffffffffffffffffffffffffff16846fffffffffffffffffffffffffffffffff1611611a6557838303611a69565b8284035b9050611a7786600183611f95565b9150506105d2565b60006ffffffffffffffffffffffffffffff8008083169003611afd576040517f08c379a000000000000000000000000000000000000000000000000000000000815260206004820152600860248201527f6f766572666c6f770000000000000000000000000000000000000000000000006044820152606401610258565b50600b90811c6e1fffffffffffffffffffffffffffff16600101901b7107fffffffffffffffffffffffffffffff8001690565b6000600a82901c6e3fffffffffffffffffffffffffffff8116906ffffffffffffffffffffffffffffffc0084169060011615808015611b805750846fffffffffffffffffffffffffffffffff1682145b8015611b9757506bffffffffffffffffffffffff83105b611bfd576040517f08c379a000000000000000000000000000000000000000000000000000000000815260206004820152600260248201527f46440000000000000000000000000000000000000000000000000000000000006044820152606401610258565b50909392505050565b600080611c16888886868a611fec565b80925081935050506000611c36898887602001518860400151888b6121f6565b90508115611c4857611c48898661223e565b611c5589868684876122f9565b50965096945050505050565b6000806000806000611c7989600001518989896124aa565b925092509250611c8a8989836125ae565b611c958383836125d8565b9450945050505094509492505050565b600080611cc3846fffffffffffffffffffffffffffffffff16611ce9565b611cde846fffffffffffffffffffffffffffffffff16611ce9565b915091509250929050565b60006f80000000000000000000000000000000826fffffffffffffffffffffffffffffffff1610611d1957600080fd5b5090565b6000806000611d2d88868661264f565b935091508215611d4157611d4188866127b7565b6000611d59898988602001518960400151898c6127de565b9050611d688987878487612838565b915050955095509592505050565b600080611d8587878686612a32565b9092509050611d978282898989612a80565b909890975095505050505050565b600080611dc3846fffffffffffffffffffffffffffffffff16611ce9565b611dcc90614d80565b611de7846fffffffffffffffffffffffffffffffff16611ce9565b611cde90614d80565b600080600080611e0288888888612b27565b91509150611e1288888385612bdb565b90999098509650505050505050565b600080611e2e8584611e63565b9092509050610bb48282888888612a80565b6000611e4d848484612cdf565b611e5a8484600085612bdb565b50949350505050565b600080600080611e7b85602001518660400151612d93565b8651919350915015611eab57611ea46fffffffffffffffffffffffffffffffff87168383612e0a565b9250611ecb565b611ec86fffffffffffffffffffffffffffffffff87168383612e55565b93505b50509250929050565b6000611ede612e9d565b905082600f0b600014611eff57611efa85858560008587612f72565b611f09565b611f098482612fb3565b5050505050565b73ffffffffffffffffffffffffffffffffffffffff8216611f3057600080fd5b6000611249868686868587612f72565b600080826fffffffffffffffffffffffffffffffff1670010000000000000000000000000000000081611f7557611f75614cd0565b0490506fffffffffffffffffffffffffffffffff81111561009957600080fd5b600082611fdf57611fda6fffffffffffffffffffffffffffffffff8086169084160260401c5b77ffffffffffffffffffffffffffffffffffffffffffffffff16612fe7565b6105d2565b6105d2611fbb8584613020565b60008080611ffa8689613069565b6000818152620100036020526040902080546bffffffffffffffffffffffff1615935090915082156120f55761202e61307d565b6000838152620100046020526040902090945061204a90613097565b61205587868a613178565b805463ffffffff85166c01000000000000000000000000027fffffffffffffffffffffffffffffffff000000000000000000000000000000009091166bffffffffffffffffffffffff8816171781556120ad87613223565b815461ffff91909116700100000000000000000000000000000000027fffffffffffffffffffffffffffff0000ffffffffffffffffffffffffffffffff9091161781556121ea565b8054869082906000906121179084906bffffffffffffffffffffffff16614dbe565b92506101000a8154816bffffffffffffffffffffffff02191690836bffffffffffffffffffffffff16021790555080600001600c9054906101000a900463ffffffff16935061216587613223565b8154700100000000000000000000000000000000900461ffff9081169116146121ea576040517f08c379a000000000000000000000000000000000000000000000000000000000815260206004820152600260248201527f4b520000000000000000000000000000000000000000000000000000000000006044820152606401610258565b50509550959350505050565b60006122048787878561324f565b6122108787868561324f565b61221b8786856132fa565b612226878585613365565b61223387878787866133f0565b979650505050505050565b80511561229557600061225583836020015161341e565b80547fffffffffffffffffffffffffffffffffffffffff00000000000000000000000081166bffffffffffffffffffffffff909116176001179055505050565b60006122a583836040015161341e565b80547fffffffffffffffff000000000000000000000000ffffffffffffffffffffffff811660016c01000000000000000000000000928390046bffffffffffffffffffffffff1617909102179055505b5050565b6000805485516020808801516040808a015181518085018d905273ffffffffffffffffffffffffffffffffffffffff909616868301529315156060860152600291820b608086015292900b60a084015263ffffffff851660c0808501919091528251808503909101815260e09093019091528151910120600081815262010005602052604081208054929350916123c09067ffffffffffffffff878116916bffffffffffffffffffffffff808b16926c010000000000000000000000008304169116613471565b8254909150869083906000906123e59084906bffffffffffffffffffffffff16614dbe565b82546101009290920a6bffffffffffffffffffffffff8181021990931691909216919091021790555081547fffffffffffffffffffffffff0000000000000000ffffffffffffffffffffffff166c0100000000000000000000000067ffffffffffffffff83160217825561245761307d565b825463ffffffff9190911674010000000000000000000000000000000000000000027fffffffffffffffff00000000ffffffffffffffffffffffffffffffffffffffff9091161790915550505050505050565b60008060008060006124bc8787612d93565b91509150816fffffffffffffffffffffffffffffffff16896fffffffffffffffffffffffffffffffff161015612510576125096fffffffffffffffffffffffffffffffff89168383612e0a565b93506125a2565b806fffffffffffffffffffffffffffffffff16896fffffffffffffffffffffffffffffffff161061255f576125586fffffffffffffffffffffffffffffffff89168383612e55565b94506125a2565b61257c6fffffffffffffffffffffffffffffffff89168a83612e0a565b935061259b6fffffffffffffffffffffffffffffffff8916838b612e55565b9450600192505b50509450945094915050565b6125d3836125cd846fffffffffffffffffffffffffffffffff16611ce9565b83613522565b505050565b6000806000856fffffffffffffffffffffffffffffffff1611806125f95750825b61260457600061260f565b61260f600486614d57565b6000856fffffffffffffffffffffffffffffffff16118061262d5750835b612638576000612643565b612643600486614d57565b91509150935093915050565b600080600061266b86866000015161266688613565565b613580565b60008181526201000360205260409020805463ffffffff6c010000000000000000000000008204169550919250906bffffffffffffffffffffffff9081169086161115612714576040517f08c379a000000000000000000000000000000000000000000000000000000000815260206004820152600260248201527f4b420000000000000000000000000000000000000000000000000000000000006044820152606401610258565b80546bffffffffffffffffffffffff8681169116149250821561275c5780547fffffffffffffffffffffffffffff0000000000000000000000000000000000001681556127ad565b80548590829060009061277e9084906bffffffffffffffffffffffff16614de3565b92506101000a8154816bffffffffffffffffffffffff02191690836bffffffffffffffffffffffff1602179055505b5050935093915050565b8051156127ce576122f582600183602001516135ab565b6122f582600083604001516135ab565b6000806127ec88878661364e565b905060006127fb898787613707565b905061280a89898989886133f0565b9250811561281c5761281c89886137b6565b801561282c5761282c89876137b6565b50509695505050505050565b6000805485516020808801516040808a015181518085018d905273ffffffffffffffffffffffffffffffffffffffff909616868301529315156060860152600291820b608086015292900b60a084015263ffffffff851660c0808501919091528251808503909101815260e0909301825282519281019290922080845262010005909252822080546128e79067ffffffffffffffff878116916c01000000000000000000000000900416613825565b81549093506129149074010000000000000000000000000000000000000000900463ffffffff1689613863565b80546bffffffffffffffffffffffff9081169087161115612991576040517f08c379a000000000000000000000000000000000000000000000000000000000815260206004820152600260248201527f4b420000000000000000000000000000000000000000000000000000000000006044820152606401610258565b80546bffffffffffffffffffffffff908116908716036129d65780547fffffffffffffffff000000000000000000000000000000000000000000000000168155612a27565b8054869082906000906129f89084906bffffffffffffffffffffffff16614de3565b92506101000a8154816bffffffffffffffffffffffff02191690836bffffffffffffffffffffffff1602179055505b505095945050505050565b6000806000612a4787600001518787876124aa565b91945092509050612a7687612a6d6fffffffffffffffffffffffffffffffff8916611ce9565b6125cd90614d80565b5094509492505050565b60008067ffffffffffffffff831615612b1c576000612ad36fffffffffffffffffffffffffffffffff861667ffffffffffffffff86160260301c71ffffffffffffffffffffffffffffffffffff16613925565b90506fffffffffffffffffffffffffffffffff811615612b1a57600080612afa8884613958565b9092509050612b09828b614d57565b9950612b15818a614d57565b985050505b505b509495939450505050565b6000806000612b3e87876000015161266689613565565b60008181526201000460209081526040918290208251606081018452815473ffffffffffffffffffffffffffffffffffffffff8116825263ffffffff74010000000000000000000000000000000000000000820481169483019490945267ffffffffffffffff78010000000000000000000000000000000000000000000000009091041693810193909352929350611e1291908890889061399716565b60008054845160208087015160408089015181518085018c905273ffffffffffffffffffffffffffffffffffffffff909616868301529315156060860152600291820b608086015292900b60a084015263ffffffff851660c0808501919091528251808503909101815260e0909301825282519281019290922080845262010005909252822080546bffffffffffffffffffffffff1692919067ffffffffffffffff861615612cad578054612caa906c01000000000000000000000000900467ffffffffffffffff1687614e08565b92505b80547fffffffffffffffff00000000000000000000000000000000000000000000000016905550909590945092505050565b6000612cf384846000015161266686613565565b6000818152620100046020526040902080549192509063ffffffff80851674010000000000000000000000000000000000000000909204161015611f09576040517f08c379a000000000000000000000000000000000000000000000000000000000815260206004820152600260248201527f4b410000000000000000000000000000000000000000000000000000000000006044820152606401610258565b6000808360020b8360020b13612da857600080fd5b7ffffffffffffffffffffffffffffffffffffffffffffffffffffffffffff5d892600285900b1215612dd957600080fd5b620cb14a600284900b1315612ded57600080fd5b612df684611530565b9150612e0183611530565b90509250929050565b6000826fffffffffffffffffffffffffffffffff16826fffffffffffffffffffffffffffffffff161115612e4a57612e438483856139c6565b9050610261565b612e438484846139c6565b600080826fffffffffffffffffffffffffffffffff16846fffffffffffffffffffffffffffffffff1611612e8b57838303612e8f565b8284035b9050610c9c85826001613a45565b600080547501000000000000000000000000000000000000000000900460ff1615612f24576040517f08c379a000000000000000000000000000000000000000000000000000000000815260206004820152600260248201527f44530000000000000000000000000000000000000000000000000000000000006044820152606401610258565b612f2d34613a94565b600080547fffffffffffffffffffff00ffffffffffffffffffffffffffffffffffffffffff167501000000000000000000000000000000000000000000179055919050565b6000600f85900b1315612f9157612f8c8685858585613ab3565b611249565b6000600f85900b12156112495761124985612fab86614d80565b858585613ae6565b6fffffffffffffffffffffffffffffffff8116156122f5576122f582826fffffffffffffffffffffffffffffffff16613b0e565b806fffffffffffffffffffffffffffffffff811677ffffffffffffffffffffffffffffffffffffffffffffffff82161461033857600080fd5b60006fffffffffffffffffffffffffffffffff821677ffffffffffffffffffffffffffffffff0000000000000000604085901b168161306157613061614cd0565b049392505050565b600061026182846000015161266686613565565b60004263ffffffff8111156103385763ffffffff91505090565b61309f61307d565b815463ffffffff918216740100000000000000000000000000000000000000009091049091160361312c576040517f08c379a000000000000000000000000000000000000000000000000000000000815260206004820152600260248201527f4b540000000000000000000000000000000000000000000000000000000000006044820152606401610258565b805473ffffffffffffffffffffffffffffffffffffffff166000036131755780547fffffffffffffffffffffffff00000000000000000000000000000000000000001660011781555b50565b6003600482901c168015801591600f84169160029190911115906040851615159084906131ab57506131ab878483613bd8565b80156131bd57506131bd878784610ff8565b610bea576040517f08c379a000000000000000000000000000000000000000000000000000000000815260206004820152600260248201527f4b560000000000000000000000000000000000000000000000000000000000006044820152606401610258565b6000808260200151836040015161323a9190614e29565b905061ffff62ffffff82161061009957600080fd5b600061325b858461341e565b80549091506bffffffffffffffffffffffff16158015613298575080546c0100000000000000000000000090046bffffffffffffffffffffffff16155b15611f09578360020b8360020b126132f057805477ffffffffffffffffffffffffffffffffffffffffffffffff16780100000000000000000000000000000000000000000000000067ffffffffffffffff8416021781555b611f098584613c60565b6000613306848461341e565b80549091506bffffffffffffffffffffffff1660006133258285613ce8565b83547fffffffffffffffffffffffffffffffffffffffff000000000000000000000000166bffffffffffffffffffffffff91909116179092555050505050565b6000613371848461341e565b80549091506c0100000000000000000000000090046bffffffffffffffffffffffff1660006133a08285613ce8565b83546bffffffffffffffffffffffff9091166c01000000000000000000000000027fffffffffffffffff000000000000000000000000ffffffffffffffffffffffff909116179092555050505050565b6000806133ff87868886613d09565b9050600061340f88868987613d09565b91909103979650505050505050565b6000620100026000848460405160200161344592919091825260e81b602082015260230190565b604051602081830303815290604052805190602001208152602001908152602001600020905092915050565b6000816fffffffffffffffffffffffffffffffff166000036134945750836105d2565b836fffffffffffffffffffffffffffffffff166000036134b55750816105d2565b8267ffffffffffffffff168567ffffffffffffffff16036134d75750836105d2565b60006134ed86866134e88682614d57565b613d90565b9050600061350085856134e8818a614d57565b905061350d816001614e6a565b613518836001614e6a565b6122339190614e6a565b80156125d3576040830151613549906fffffffffffffffffffffffffffffffff1683613dda565b6fffffffffffffffffffffffffffffffff166040840152505050565b8051600090613578578160400151610099565b506020015190565b6000838383604051602001610c6293929190928352901515602083015260020b604082015260600190565b60006135b7848361341e565b905082156135fc5780547fffffffffffffffffffffffffffffffffffffffff00000000000000000000000081166bfffffffffffffffffffffffe909116178155613648565b80547fffffffffffffffff000000000000000000000000ffffffffffffffffffffffff81166c01000000000000000000000000918290046bfffffffffffffffffffffffe169091021781555b50505050565b60008061365b858561341e565b80549091506bffffffffffffffffffffffff16600061367a8286613e47565b83547fffffffffffffffffffffffffffffffffffffffff000000000000000000000000166bffffffffffffffffffffffff821690811785559091501580156136df575082546c0100000000000000000000000090046bffffffffffffffffffffffff16155b156136fa576136ee8787613e53565b60019350505050610261565b5060009695505050505050565b600080613714858561341e565b80549091506c0100000000000000000000000090046bffffffffffffffffffffffff1660006137438286613e47565b83547fffffffffffffffff000000000000000000000000ffffffffffffffffffffffff166c010000000000000000000000006bffffffffffffffffffffffff83169081029190911785559091501580156136df575082546bffffffffffffffffffffffff166136fa576136ee8787613e53565b62010002600083836040516020016137db92919091825260e81b602082015260230190565b604080517fffffffffffffffffffffffffffffffffffffffffffffffffffffffffffffffe08184030181529181528151602092830120835290820192909252016000908120555050565b600060026138338184614e6a565b67ffffffffffffffff168467ffffffffffffffff16111561198b57806138598486614e08565b61198e9190614e08565b600a60008361387061307d565b61387a9190614e8b565b905060006138888383614ea8565b905060ff63ffffffff821611611f095760008481526201000960205260409020546601000000000000900460ff1663ffffffff82161015611f09576040517f08c379a000000000000000000000000000000000000000000000000000000000815260206004820152600160248201527f4a000000000000000000000000000000000000000000000000000000000000006044820152606401610258565b806fffffffffffffffffffffffffffffffff811671ffffffffffffffffffffffffffffffffffff82161461033857600080fd5b6000806139658484613edc565b9092509050610185846139896fffffffffffffffffffffffffffffffff8616611ce9565b61399290614d80565b613f34565b60008082516000146139b3576139ae858585613f73565b612643565b5050505060208101516040909101519091565b6000806139d38385614d2e565b905060006139e18685613020565b77ffffffffffffffffffffffffffffffffffffffffffffffff1690506000856fffffffffffffffffffffffffffffffff16836fffffffffffffffffffffffffffffffff1683613a309190614ecb565b613a3a9190614ee2565b905061223381613a94565b60006105d282613a7857613a598585613020565b77ffffffffffffffffffffffffffffffffffffffffffffffff16613a94565b6fffffffffffffffffffffffffffffffff8481169086160260401c5b806fffffffffffffffffffffffffffffffff8116811461033857600080fd5b8015613ada576000613ac68686866140bc565b9050613ad4868286866141ce565b50611f09565b611f098585858561421c565b8015613b0257613af785858561424d565b611efa8584846142ff565b611f0985858585614324565b60008273ffffffffffffffffffffffffffffffffffffffff168260405160006040518083038185875af1925050503d8060008114613b68576040519150601f19603f3d011682016040523d82523d6000602084013e613b6d565b606091505b50509050806125d3576040517f08c379a000000000000000000000000000000000000000000000000000000000815260206004820152600260248201527f54460000000000000000000000000000000000000000000000000000000000006044820152606401610258565b60008084602001518560400151613bef9190614e29565b604086015190915062ffffff808316600160ff88161b90911614906000600282900b8112613c2557613c2082614ef6565b613c27565b815b90506000861580613c4a575062ffffff80831660ff8a1681811c8316901b909116145b9050838015610feb575098975050505050505050565b6000613c6e8260020b614367565b60ff166001901b90506000613c858360020b614383565b60ff166001901b905081620100066000613c9f8787614391565b81526020019081526020016000206000828254179250508190555080620100076000613ccb87876143dc565b815260208101919091526040016000208054909117905550505050565b8082016bffffffffffffffffffffffff808416908216101561009957600080fd5b600080613d16868661341e565b90508360020b8560020b1315613d5d578054613d58907801000000000000000000000000000000000000000000000000900467ffffffffffffffff1684614e08565b613d86565b80547801000000000000000000000000000000000000000000000000900467ffffffffffffffff165b9695505050505050565b6000816fffffffffffffffffffffffffffffffff16836fffffffffffffffffffffffffffffffff168567ffffffffffffffff160281613dd157613dd1614cd0565b04949350505050565b60008082600f0b1215613e1157508082016fffffffffffffffffffffffffffffffff80841690821610613e0c57600080fd5b610099565b826fffffffffffffffffffffffffffffffff168284019150816fffffffffffffffffffffffffffffffff16101561009957600080fd5b60006102618284614de3565b6000613e618260020b614367565b60ff166001901b1990506000613e798360020b614383565b60ff166001901b1990506000613e8f85856143dc565b600081815262010007602052604081208054851690819055919250819003611249576000613ebd8787614391565b6000908152620100066020526040902080548616905550505050505050565b6000806000613eef848660600151614408565b8551909150613f17906fffffffffffffffffffffffffffffffff80841691160260401c611fbb565b9250613f2a611fbb828760000151613020565b9150509250929050565b6020820151613f55906fffffffffffffffffffffffffffffffff1682613dda565b6fffffffffffffffffffffffffffffffff1660209092019190915250565b60008083815b8451811015613ff257613fe882868381518110613f9857613f98614f2b565b60200260200101516040805173ffffffffffffffffffffffffffffffffffffffff939093166020808501919091528382019290925280518084038201815260609384019091528051910120901c90565b9150600101613f79565b50855173ffffffffffffffffffffffffffffffffffffffff828116911614614076576040517f08c379a000000000000000000000000000000000000000000000000000000000815260206004820152600260248201527f4b500000000000000000000000000000000000000000000000000000000000006044820152606401610258565b6140af8460008151811061408c5761408c614f2b565b602002602001015163ffffffff604082901c169167ffffffffffffffff90911690565b9250925050935093915050565b6040805173ffffffffffffffffffffffffffffffffffffffff858116602080840191909152908416828401528251808303840181526060909201835281519181019190912060008181526201001090925291812080549192916fffffffffffffffffffffffffffffffff908116908616811115614194578154869083906000906141599084906fffffffffffffffffffffffffffffffff16614d2e565b92506101000a8154816fffffffffffffffffffffffffffffffff02191690836fffffffffffffffffffffffffffffffff1602179055506141c4565b81547fffffffffffffffffffffffffffffffff000000000000000000000000000000001682556122338187614d2e565b5050509392505050565b6fffffffffffffffffffffffffffffffff8316156141f7576141f28484848461421c565b613648565b73ffffffffffffffffffffffffffffffffffffffff8216613648576136488482612fb3565b73ffffffffffffffffffffffffffffffffffffffff8216614242576141f284848361445d565b613648848484614503565b6040805173ffffffffffffffffffffffffffffffffffffffff858116602080840191909152908416828401528251808303840181526060909201835281519181019190912060008181526201001090925291812080548592906142c39084906fffffffffffffffffffffffffffffffff16614d57565b92506101000a8154816fffffffffffffffffffffffffffffffff02191690836fffffffffffffffffffffffffffffffff16021790555050505050565b73ffffffffffffffffffffffffffffffffffffffff82166125d3576125d38382612fb3565b73ffffffffffffffffffffffffffffffffffffffff821661434a576141f2848483614521565b6136488285856fffffffffffffffffffffffffffffffff16614546565b60006101006143798360020b60081d90565b6100999190614f5a565b600061009961010083614f7c565b600080600283900b60101d905083816040516020016143bd92919091825260f81b602082015260210190565b6040516020818303038152906040528051906020012091505092915050565b600080600283900b60081d905083816040516020016143bd92919091825260f01b602082015260220190565b600066010000000000006fffffffffffffffffffffffffffffffff80851667ffffffffffffffff851683010290603082901c90811115610c9c576fffffffffffffffffffffffffffffffff9350505050610099565b816fffffffffffffffffffffffffffffffff16816fffffffffffffffffffffffffffffffff1610156144eb576040517f08c379a000000000000000000000000000000000000000000000000000000000815260206004820152600260248201527f45430000000000000000000000000000000000000000000000000000000000006044820152606401610258565b60006144f78383614d2e565b90506136488482612fb3565b6125d3818430856fffffffffffffffffffffffffffffffff166146af565b6125d38361452f8385614d57565b6fffffffffffffffffffffffffffffffff16613b0e565b6040805173ffffffffffffffffffffffffffffffffffffffff8481166024830152604480830185905283518084039091018152606490920183526020820180517bffffffffffffffffffffffffffffffffffffffffffffffffffffffff167fa9059cbb0000000000000000000000000000000000000000000000000000000017905291516000928392908716916145dd9190614f9e565b6000604051808303816000865af19150503d806000811461461a576040519150601f19603f3d011682016040523d82523d6000602084013e61461f565b606091505b50915091508180156146495750805115806146495750808060200190518101906146499190614cb3565b611f09576040517f08c379a000000000000000000000000000000000000000000000000000000000815260206004820152600260248201527f54460000000000000000000000000000000000000000000000000000000000006044820152606401610258565b6040805173ffffffffffffffffffffffffffffffffffffffff85811660248301528481166044830152606480830185905283518084039091018152608490920183526020820180517bffffffffffffffffffffffffffffffffffffffffffffffffffffffff167f23b872dd00000000000000000000000000000000000000000000000000000000179052915160009283929088169161474e9190614f9e565b6000604051808303816000865af19150503d806000811461478b576040519150601f19603f3d011682016040523d82523d6000602084013e614790565b606091505b50915091508180156147ba5750805115806147ba5750808060200190518101906147ba9190614cb3565b611249576040517f08c379a000000000000000000000000000000000000000000000000000000000815260206004820152600260248201527f54460000000000000000000000000000000000000000000000000000000000006044820152606401610258565b73ffffffffffffffffffffffffffffffffffffffff8116811461317557600080fd5b6000806040838503121561485557600080fd5b823561486081614820565b9150602083013561ffff8116811461487757600080fd5b809150509250929050565b6000806020838503121561489557600080fd5b823567ffffffffffffffff808211156148ad57600080fd5b818501915085601f8301126148c157600080fd5b8135818111156148d057600080fd5b8660208285010111156148e257600080fd5b60209290920196919550909350505050565b606081528360608201528385608083013760006080858301810191909152600f93840b60208301529190920b6040830152601f9092017fffffffffffffffffffffffffffffffffffffffffffffffffffffffffffffffe0160101919050565b803560ff8116811461033857600080fd5b8035600281900b811461033857600080fd5b801515811461317557600080fd5b7f4e487b7100000000000000000000000000000000000000000000000000000000600052604160045260246000fd5b604051601f82017fffffffffffffffffffffffffffffffffffffffffffffffffffffffffffffffe016810167ffffffffffffffff811182821017156149fa576149fa614984565b604052919050565b60008060008060008060008060006101208a8c031215614a2157600080fd5b614a2a8a614953565b98506020808b0135614a3b81614820565b985060408b0135614a4b81614820565b975060608b01359650614a6060808c01614964565b9550614a6e60a08c01614964565b945060c08b0135614a7e81614976565b9350614a8c60e08c01614953565b92506101008b013567ffffffffffffffff80821115614aaa57600080fd5b818d0191508d601f830112614abe57600080fd5b813581811115614ad057614ad0614984565b614b00847fffffffffffffffffffffffffffffffffffffffffffffffffffffffffffffffe0601f840116016149b3565b91508082528e84828501011115614b1657600080fd5b80848401858401376000848284010152508093505050509295985092959850929598565b80516fffffffffffffffffffffffffffffffff8116811461033857600080fd5b60008060408385031215614b6d57600080fd5b614b7683614b3a565b9150602083015161487781614976565b600080600060608486031215614b9b57600080fd5b614ba484614b3a565b92506020840151614bb481614976565b6040850151909250614bc581614976565b809150509250925092565b60008060408385031215614be357600080fd5b8251614bee81614820565b8092505060208084015167ffffffffffffffff80821115614c0e57600080fd5b818601915086601f830112614c2257600080fd5b815181811115614c3457614c34614984565b8060051b9150614c458483016149b3565b8181529183018401918481019089841115614c5f57600080fd5b938501935b83851015614c7d57845182529385019390850190614c64565b8096505050505050509250929050565b600060208284031215614c9f57600080fd5b815163ffffffff8116811461026157600080fd5b600060208284031215614cc557600080fd5b815161026181614976565b7f4e487b7100000000000000000000000000000000000000000000000000000000600052601260045260246000fd5b7f4e487b7100000000000000000000000000000000000000000000000000000000600052601160045260246000fd5b6fffffffffffffffffffffffffffffffff8281168282160390808211156119fe576119fe614cff565b6fffffffffffffffffffffffffffffffff8181168382160190808211156119fe576119fe614cff565b600081600f0b7fffffffffffffffffffffffffffffffff800000000000000000000000000000008103614db557614db5614cff565b60000392915050565b6bffffffffffffffffffffffff8181168382160190808211156119fe576119fe614cff565b6bffffffffffffffffffffffff8281168282160390808211156119fe576119fe614cff565b67ffffffffffffffff8281168282160390808211156119fe576119fe614cff565b600282810b9082900b037fffffffffffffffffffffffffffffffffffffffffffffffffffffffffff8000008112627fffff8213171561009957610099614cff565b67ffffffffffffffff8181168382160190808211156119fe576119fe614cff565b63ffffffff8281168282160390808211156119fe576119fe614cff565b600063ffffffff80841680614ebf57614ebf614cd0565b92169190910492915050565b808202811582820484141761009957610099614cff565b600082614ef157614ef1614cd0565b500490565b60008160020b7fffffffffffffffffffffffffffffffffffffffffffffffffffffffffff8000008103614db557614db5614cff565b7f4e487b7100000000000000000000000000000000000000000000000000000000600052603260045260246000fd5b60008260010b80614f6d57614f6d614cd0565b808360010b0791505092915050565b60008260020b80614f8f57614f8f614cd0565b808360020b0791505092915050565b6000825160005b81811015614fbf5760208186018101518583015201614fa5565b50600092019182525091905056fea2646970667358221220e0b1bf2ee4bdc879ee6ff8f38db79a5bb3efed3b98d610a10a1a5a531fc4187b64736f6c63430008130033",
  "linkReferences": {},
  "deployedLinkReferences": {}
}