{
  "_format": "hh-sol-artifact-1",
  "contractName": "ColdPath",
  "sourceName": "contracts/callpaths/ColdPath.sol",
  "address": "0x4AC1fda4171bC77cf23Be54529E0CF135f6b9B93",
  "abi": [
    {
      "anonymous": false,
      "inputs": [
        {
          "indexed": true,
          "internalType": "bytes32",
          "name": "pool",
          "type": "bytes32"
        },
        {
          "indexed": true,
          "internalType": "int24",
          "name": "tick",
          "type": "int24"
        },
        {
          "indexed": false,
          "internalType": "bool",
          "name": "isBid",
          "type": "bool"
        },
        {
          "indexed": false,
          "internalType": "uint32",
          "name": "pivotTime",
          "type": "uint32"
        },
        {
          "indexed": false,
          "internalType": "uint64",
          "name": "feeMileage",
          "type": "uint64"
        },
        {
          "indexed": false,
          "internalType": "uint160",
          "name": "commitEntropy",
          "type": "uint160"
        }
      ],
      "name": "SdexKnockoutCross",
      "type": "event"
    },
    {
      "inputs": [
        {
          "internalType": "address",
          "name": "",
          "type": "address"
        },
        {
          "internalType": "uint16",
          "name": "slot",
          "type": "uint16"
        }
      ],
      "name": "acceptSdexProxyRole",
      "outputs": [
        {
          "internalType": "bool",
          "name": "",
          "type": "bool"
        }
      ],
      "stateMutability": "nonpayable",
      "type": "function"
    },
    {
      "inputs": [
        {
          "internalType": "bytes",
          "name": "cmd",
          "type": "bytes"
        }
      ],
      "name": "protocolCmd",
      "outputs": [],
      "stateMutability": "nonpayable",
      "type": "function"
    },
    {
      "inputs": [
        {
          "internalType": "bytes",
          "name": "cmd",
          "type": "bytes"
        }
      ],
      "name": "userCmd",
      "outputs": [],
      "stateMutability": "payable",
      "type": "function"
    }
  ],
  "bytecode": "0x608060405262010011805460ff60e01b1916600160e71b17905534801561002557600080fd5b5061571480620000366000396000f3fe6080604052600436106100345760003560e01c8063a2ff7eba14610039578063b67019801461006d578063f96dc7881461008f575b600080fd5b34801561004557600080fd5b50610059610054366004614ae0565b6100a2565b604051901515815260200160405180910390f35b34801561007957600080fd5b5061008d610088366004614b0c565b6100b1565b005b61008d61009d366004614b0c565b610323565b61ffff81166003145b92915050565b60008282601f8181106100c6576100c6614b7e565b919091013560f81c9150507fffffffffffffffffffffffffffffffffffffffffffffffffffffffffffffff9381016101075761010283836105e5565b6102e5565b7fffffffffffffffffffffffffffffffffffffffffffffffffffffffffffffff9260ff82160161013b576101028383610661565b7fffffffffffffffffffffffffffffffffffffffffffffffffffffffffffffff9160ff82160161016f5761010283836106f7565b7fffffffffffffffffffffffffffffffffffffffffffffffffffffffffffffff8e60ff8216016101a3576101028383610734565b7fffffffffffffffffffffffffffffffffffffffffffffffffffffffffffffff8c60ff8216016101d7576101028383610785565b7fffffffffffffffffffffffffffffffffffffffffffffffffffffffffffffff8d60ff82160161020b5761010283836107d6565b7fffffffffffffffffffffffffffffffffffffffffffffffffffffffffffffff9060ff82160161023f57610102838361086f565b7fffffffffffffffffffffffffffffffffffffffffffffffffffffffffffffff8f60ff8216016102735761010283836108cf565b7fffffffffffffffffffffffffffffffffffffffffffffffffffffffffffffff8b60ff8216016102a75761010283836109f4565b7fffffffffffffffffffffffffffffffffffffffffffffffffffffffffffffff8a60ff8216016102db576101028383610aa0565b6102e58383610b04565b7f212b0754b514bfd6457ecfb92fcc808027d45a6ff167d9d4cbd2efc63d41244a8383604051610316929190614bad565b60405180910390a1505050565b60008282601f81811061033857610338614b7e565b919091013560f81c9150507fffffffffffffffffffffffffffffffffffffffffffffffffffffffffffffffb98101610379576103748383610cab565b6105b4565b7fffffffffffffffffffffffffffffffffffffffffffffffffffffffffffffffb860ff8216016103ad576103748383610de5565b7fffffffffffffffffffffffffffffffffffffffffffffffffffffffffffffffb760ff8216016103e1576103748383610ec7565b7fffffffffffffffffffffffffffffffffffffffffffffffffffffffffffffffad60ff821601610415576103748383610ee9565b7fffffffffffffffffffffffffffffffffffffffffffffffffffffffffffffffb660ff821601610449576103748383610f1b565b7fffffffffffffffffffffffffffffffffffffffffffffffffffffffffffffffb560ff82160161047d576103748383610f3d565b7fffffffffffffffffffffffffffffffffffffffffffffffffffffffffffffffb460ff8216016104b1576103748383610f5f565b7fffffffffffffffffffffffffffffffffffffffffffffffffffffffffffffffb060ff8216016104e5576103748383610f85565b7fffffffffffffffffffffffffffffffffffffffffffffffffffffffffffffffaf60ff821601610519576103748383610fa9565b7fffffffffffffffffffffffffffffffffffffffffffffffffffffffffffffffae60ff82160161054d576103748383610fcf565b6040517f08c379a000000000000000000000000000000000000000000000000000000000815260206004820152600f60248201527f496e76616c696420636f6d6d616e64000000000000000000000000000000000060448201526064015b60405180910390fd5b7f1060769e8e50e4f756bc89298fa9307d7b2bad20fddf4a347e729a979d0a64908383604051610316929190614bad565b60006105f382840184614c0b565b6040519092508291507ff04678cb0a9a94c6123dfbed8362627d9754e802db5ef393b2abf29bbffb10c890600090a26000908152620100086020526040902080547fffffffffffffffffffffffffffffffffffffffffffffffffffffffffffffff001690555050565b505050565b6000808080808061067487890189614c35565b6040805161ffff87811682528616602082015260ff858116828401528481166060830152831660808201529051969d50949b50929950909750955093508892507f6574bab9cbe9cbdd301eff0716be38e5549a862fbb0a27f091ae8e30acf09752919081900360a00190a26106ed868686868686610fed565b5050505050505050565b600080808080808061070b888a018a614cb4565b97509750975097509750975097505061072987878787878787611226565b505050505050505050565b600061074282840184614d48565b60405160ff821681529092507f703dadb0730cdc09b07d7039d74dddaa44bed181ac5df56ceaac826808f8c07c915060200160405180910390a161065c81611300565b600061079382840184614d48565b60405160ff821681529092507f78cebabf44aeb53b6a6d1d9fda97040ebcd7b5119147f4d20834f499d194eebb915060200160405180910390a161065c816113df565b600080806107e684860186614d72565b6201000b5460405170010000000000000000000000000000000090910460ff168152929650909450925082915073ffffffffffffffffffffffffffffffffffffffff80851691908616907fb89e42dc3bd965ba356db6bd3f5ddd604530083da13da6d8491ad2b2718a011f9060200160405180910390a46108688383836114c4565b5050505050565b600061087d82840184614de1565b6040516fffffffffffffffffffffffffffffffff821681529092507f7838d07bf20579cb7640bf7e1381607db1a5d8c4799053314890c72673a85c2e915060200160405180910390a161065c81611521565b600080806108df84860186614e0b565b604080516fffffffffffffffffffffffffffffffff8416815261ffff83166020820152939750919550935073ffffffffffffffffffffffffffffffffffffffff861692507f56f43876270ac6e001a4449e363d26518c494eac1547ed144ab29b5b99e38d08910160405180910390a273ffffffffffffffffffffffffffffffffffffffff831660009081526201000a6020526040902080547fffffffffffffffffffffffffff000000000000000000000000000000000000ff166101006fffffffffffffffffffffffffffffffff8516027fffffffffffffffffffffffffff0000ffffffffffffffffffffffffffffffffff16177101000000000000000000000000000000000061ffff841602179055610868565b6000808080610a0585870187614e61565b9450945094509450508073ffffffffffffffffffffffffffffffffffffffff168373ffffffffffffffffffffffffffffffffffffffff168573ffffffffffffffffffffffffffffffffffffffff167f098305ba0a696a9abeb7da51d5c2cb76b16c7478e3841217d867075f1659821e85604051610a8491815260200190565b60405180910390a4610a9884848484611602565b505050505050565b6000610aae82840184614ec7565b620100145460405191935073ffffffffffffffffffffffffffffffffffffffff808516935016907fc4726c0a01b1327bdead8fae7fe11b39aea3cd9a4dc6e62f37ff793bb90bda4f90600090a361065c81611776565b60005474010000000000000000000000000000000000000000900460ff16610b8a576040517f08c379a00000000000000000000000000000000000000000000000000000000081526004016105ab9060208082526004908201527f5375646f00000000000000000000000000000000000000000000000000000000604082015260600190565b60008282601f818110610b9f57610b9f614b7e565b919091013560f81c9150507fffffffffffffffffffffffffffffffffffffffffffffffffffffffffffffffd88101610bdb5761065c838361183d565b7fffffffffffffffffffffffffffffffffffffffffffffffffffffffffffffffd760ff821601610c0f5761065c838361194f565b7fffffffffffffffffffffffffffffffffffffffffffffffffffffffffffffffec60ff821601610c435761065c8383611af4565b7fffffffffffffffffffffffffffffffffffffffffffffffffffffffffffffffea60ff821601610c775761065c8383611cb1565b7fffffffffffffffffffffffffffffffffffffffffffffffffffffffffffffffe960ff82160161054d5761065c8383611d4b565b6000808080610cbc85870187614efe565b945094509450945050600080610cd3868686611de6565b91509150610ce382878787611eaf565b600080610cf1848685611ff3565b6000549193509150610d1c9073ffffffffffffffffffffffffffffffffffffffff1689848a856121e9565b62010014546040517f5feb0ffd00000000000000000000000000000000000000000000000000000000815273ffffffffffffffffffffffffffffffffffffffff8a811660048301528981166024830152604482018990523060648301526000921690635feb0ffd906084016020604051808303816000875af1158015610da6573d6000803e3d6000fd5b505050506040513d601f19601f82011682018060405250810190610dca9190614f60565b9050610dd889898984611602565b5050505050505050505050565b60008080610df58486018661500f565b9350935093505060005b8151811015610a9857600361ffff16828281518110610e2057610e20614b7e565b602002602001015161ffff1603610e93576040517f08c379a000000000000000000000000000000000000000000000000000000000815260206004820152601660248201527f496e76616c696420526f7574657220417070726f76650000000000000000000060448201526064016105ab565b610eb78484848481518110610eaa57610eaa614b7e565b6020026020010151612229565b610ec08161511f565b9050610dff565b60008080610ed784860186615157565b935093509350506108688383836122af565b6000808080808080610efd888a018a6151af565b9750975097509750975097509750506107298787878787878761235a565b60008080610f2b84860186615247565b93509350935050610868838383612422565b60008080610f4d84860186615247565b935093509350506108688383836124f3565b6000808080610f7085870187615284565b945094509450945050610a9884848484612532565b600080610f94838501856152d1565b9250925050610fa382826125a7565b50505050565b6000808080610fba8587018761539b565b945094509450945050610a98848484846126b8565b600080610fde83850185615416565b9250925050610fa382826127cd565b60008681526201000860205260408120805460ff84811668010000000000000000027fffffffffffffffffffffffffffffffffffffffffffffff00ffffffffffffffff87831667010000000000000002167fffffffffffffffffffffffffffffffffffffffffffffff0000ffffffffffffff9289166601000000000000027fffffffffffffffffffffffffffffffffffffffffffffffffff00ffffffffffff61ffff8c811664010000000002919091167fffffffffffffffffffffffffffffffffffffffffffffffffff000000ffffffff918e16610100027fffffffffffffffffffffffffffffffffffffffffffffffffffffffffff0000009097169690961760011716949094179390931791909116919091171781559061110f88846128d4565b905073ffffffffffffffffffffffffffffffffffffffff8116156106ed5760008173ffffffffffffffffffffffffffffffffffffffff163b1180156111c057508073ffffffffffffffffffffffffffffffffffffffff1663f4f886846040518163ffffffff1660e01b81526004016020604051808303816000875af115801561119c573d6000803e3d6000fd5b505050506040513d601f19601f820116820180604052508101906111c09190615484565b6106ed576040517f08c379a000000000000000000000000000000000000000000000000000000000815260206004820152600660248201527f4f7261636c65000000000000000000000000000000000000000000000000000060448201526064016105ab565b60006112338888886128f8565b80547fffffffffffffffffffffffffffffffffffffffffffffffffffff0000ff0000ff1661010061ffff978816027fffffffffffffffffffffffffffffffffffffffffffffffffffff0000ffffffff16176401000000009590961694909402949094177fffffffffffffffffffffffffffffffffffffffffffffffff0000ffffffffffff16660100000000000060ff938416027fffffffffffffffffffffffffffffffffffffffffffffffff00ffffffffffffff1617670100000000000000919092160217905550505050565b620100115460ff7c010000000000000000000000000000000000000000000000000000000090910481169082161115611395576040517f08c379a000000000000000000000000000000000000000000000000000000000815260206004820152600260248201527f545200000000000000000000000000000000000000000000000000000000000060448201526064016105ab565b6201000b805460ff909216700100000000000000000000000000000000027fffffffffffffffffffffffffffffff00ffffffffffffffffffffffffffffffff909216919091179055565b620100115460ff7c010000000000000000000000000000000000000000000000000000000090910481169082161115611474576040517f08c379a000000000000000000000000000000000000000000000000000000000815260206004820152600260248201527f545200000000000000000000000000000000000000000000000000000000000060448201526064016105ab565b6000805460ff9092167801000000000000000000000000000000000000000000000000027fffffffffffffff00ffffffffffffffffffffffffffffffffffffffffffffffff909216919091179055565b60006114d18484846128f8565b6201000b5481547fffffffffffffffffffffffffffffffffffffffffffffffffffffffff00ffffff1670010000000000000000000000000000000090910460ff1663010000000217905550505050565b6000816fffffffffffffffffffffffffffffffff161180156115575750629896806fffffffffffffffffffffffffffffffff8216105b6115bd576040517f08c379a000000000000000000000000000000000000000000000000000000000815260206004820152600860248201527f496e6974206c697100000000000000000000000000000000000000000000000060448201526064016105ab565b6201000b80547fffffffffffffffffffffffffffffffff00000000000000000000000000000000166fffffffffffffffffffffffffffffffff92909216919091179055565b73ffffffffffffffffffffffffffffffffffffffff81163b611680576040517f08c379a000000000000000000000000000000000000000000000000000000000815260206004820152600f60248201527f496e76616c6964206c70546f6b656e000000000000000000000000000000000060448201526064016105ab565b600061168d8585856129fb565b600081815262010013602052604090205490915073ffffffffffffffffffffffffffffffffffffffff161561171e576040517f08c379a000000000000000000000000000000000000000000000000000000000815260206004820152600360248201527f45504c000000000000000000000000000000000000000000000000000000000060448201526064016105ab565b6000908152620100136020526040902080547fffffffffffffffffffffffff00000000000000000000000000000000000000001673ffffffffffffffffffffffffffffffffffffffff92909216919091179055505050565b73ffffffffffffffffffffffffffffffffffffffff81163b6117f4576040517f08c379a000000000000000000000000000000000000000000000000000000000815260206004820181905260248201527f496e76616c6964206c70546f6b656e206465706c6f796572206164647265737360448201526064016105ab565b6201001480547fffffffffffffffffffffffff00000000000000000000000000000000000000001673ffffffffffffffffffffffffffffffffffffffff92909216919091179055565b600061184b82840184614ec7565b620100115490925074010000000000000000000000000000000000000000900467ffffffffffffffff1642101590506118e0576040517f08c379a000000000000000000000000000000000000000000000000000000000815260206004820152600e60248201527f547265617375727920737461727400000000000000000000000000000000000060448201526064016105ab565b620100115460405173ffffffffffffffffffffffffffffffffffffffff918216918316907fbdcd7dcddd535083a6d22b55c021205ac0eff43705fb59b6645f6f479a6dd20b90600090a3620100115461065c9073ffffffffffffffffffffffffffffffffffffffff1682612a89565b600061195d82840184614ec7565b91505073ffffffffffffffffffffffffffffffffffffffff81161580159061199b575073ffffffffffffffffffffffffffffffffffffffff81163b15155b611a01576040517f08c379a000000000000000000000000000000000000000000000000000000000815260206004820152601060248201527f547265617375727920696e76616c69640000000000000000000000000000000060448201526064016105ab565b6201001180547fffffffffffffffffffffffff00000000000000000000000000000000000000001673ffffffffffffffffffffffffffffffffffffffff8316179055611a504262093a806154a1565b6201001180547fffffffff0000000000000000ffffffffffffffffffffffffffffffffffffffff81167401000000000000000000000000000000000000000067ffffffffffffffff94851681029182179384905560405193049093169273ffffffffffffffffffffffffffffffffffffffff918216911617907f0f02a9e0f1a59164f628064cb5ecad90405bca20d668c8528c2165d67476533c90600090a3505050565b6000611b0282840184614ec7565b91505073ffffffffffffffffffffffffffffffffffffffff811615801590611b41575060008173ffffffffffffffffffffffffffffffffffffffff163b115b8015611bb957508073ffffffffffffffffffffffffffffffffffffffff1663380fb91f6040518163ffffffff1660e01b81526004016020604051808303816000875af1158015611b95573d6000803e3d6000fd5b505050506040513d601f19601f82011682018060405250810190611bb99190615484565b611c1f576040517f08c379a000000000000000000000000000000000000000000000000000000000815260206004820152601160248201527f496e76616c696420417574686f7269747900000000000000000000000000000060448201526064016105ab565b620100015460405173ffffffffffffffffffffffffffffffffffffffff909116907f794f2baba4b07f7dd9f1123c7e93530ca10b65cf26558362b14d0a437e3099c590600090a26201000180547fffffffffffffffffffffffff00000000000000000000000000000000000000001673ffffffffffffffffffffffffffffffffffffffff929092169190911790555050565b6000611cbf828401846154b4565b9150507f2e7754bb17467b54f4b17a302f1adb01f606496fa3421665b36ff44ff8dbc5fa81604051611cf5911515815260200190565b60405180910390a160008054911515760100000000000000000000000000000000000000000000027fffffffffffffffffff00ffffffffffffffffffffffffffffffffffffffffffff9092169190911790555050565b6000611d59828401846154b4565b9150507f7fabf78b254427483595fa50cfb7e832154c4936f7bdb0b266535f271722dc4681604051611d8f911515815260200190565b60405180910390a16000805491151577010000000000000000000000000000000000000000000000027fffffffffffffffff00ffffffffffffffffffffffffffffffffffffffffffffff9092169190911790555050565b60408051610140810182526000606082018181526080830182905260a0830182905260c0830182905260e083018290526101008301829052610120830182905282526020820181905291810182905290611e41858585612b66565b6000611e4c84612be9565b6201000b54700100000000000000000000000000000000900460ff1660408201529050611e7f6201000987878785612d25565b611e8a868686612e3d565b6201000b549093506fffffffffffffffffffffffffffffffff16915050935093915050565b604084015173ffffffffffffffffffffffffffffffffffffffff1615610fa3576040848101516000805492517fb24e054a00000000000000000000000000000000000000000000000000000000815273ffffffffffffffffffffffffffffffffffffffff9384166004820152336024820152868416604482015285841660648201526084810185905290929091169063b24e054a9060a4016020604051808303816000875af1158015611f66573d6000803e3d6000fd5b505050506040513d601f19601f82011682018060405250810190611f8a9190615484565b905080610868576040517f08c379a000000000000000000000000000000000000000000000000000000000815260206004820152600160248201527f5a0000000000000000000000000000000000000000000000000000000000000060448201526064016105ab565b60008060006120c886602001516040805160a0810182526000808252602082018190529181018290526060810182905260808101919091525060009081526201000f6020908152604091829020825160a08101845281546fffffffffffffffffffffffffffffffff8082168352700100000000000000000000000000000000918290048116948301949094526001909201549283169381019390935267ffffffffffffffff90820481166060840152780100000000000000000000000000000000000000000000000090910416608082015290565b90506120d48186612ea7565b836fffffffffffffffffffffffffffffffff166000036120f357600193505b6120fd8185612fe7565b60208881015160009081526201000f82526040908190208551928601516fffffffffffffffffffffffffffffffff9384167001000000000000000000000000000000009185168202178255918601516001909101805460608801516080890151939095167fffffffffffffffff0000000000000000000000000000000000000000000000009091161767ffffffffffffffff9485169093029290921777ffffffffffffffffffffffffffffffffffffffffffffffff1678010000000000000000000000000000000000000000000000009390911692909202919091179055909350915050935093915050565b6000806121f68685613012565b9150915061220a8788888888886003613161565b6122158683876131b6565b6122208482856131b6565b50505050505050565b6000805461224e9073ffffffffffffffffffffffffffffffffffffffff168584613306565b60009081526201001060205260409020805463ffffffff90941674010000000000000000000000000000000000000000027fffffffffffffffff00000000ffffffffffffffffffffffffffffffffffffffff90941693909317909255505050565b6000546122db9073ffffffffffffffffffffffffffffffffffffffff1683836122d6613345565b61341a565b60006122e78483613450565b600081815262010010602052604081208054929350859290919061231e9084906fffffffffffffffffffffffffffffffff166154e0565b92506101000a8154816fffffffffffffffffffffffffffffffff02191690836fffffffffffffffffffffffffffffffff16021790555050505050565b6040517fd505accf00000000000000000000000000000000000000000000000000000000815273ffffffffffffffffffffffffffffffffffffffff88811660048301523060248301526fffffffffffffffffffffffffffffffff881660448301526064820186905260ff8516608483015260a4820184905260c4820183905286169063d505accf9060e401600060405180830381600087803b1580156123ff57600080fd5b505af1158015612413573d6000803e3d6000fd5b505050506122208787876122af565b600080546124469073ffffffffffffffffffffffffffffffffffffffff1683613450565b60008181526201001060205260408120549192506fffffffffffffffffffffffffffffffff90911690612479858361349f565b60008481526201001060205260408120805492935083929091906124b09084906fffffffffffffffffffffffffffffffff16615510565b92506101000a8154816fffffffffffffffffffffffffffffffff02191690836fffffffffffffffffffffffffffffffff160217905550610a988682866000613569565b600080546125179073ffffffffffffffffffffffffffffffffffffffff1683613450565b905060006125258584613450565b90506108688282866135ac565b600080546125569073ffffffffffffffffffffffffffffffffffffffff168661369a565b600080549192509061257e9073ffffffffffffffffffffffffffffffffffffffff168661369a565b9050600061258c8385613450565b9050600061259a8386613450565b90506106ed8282886135ac565b60008054620100109082906125d29073ffffffffffffffffffffffffffffffffffffffff16866136f5565b81526020810191909152604001600020805490915063ffffffff7001000000000000000000000000000000009091048116908316101561266e576040517f08c379a000000000000000000000000000000000000000000000000000000000815260206004820152600260248201527f4e4900000000000000000000000000000000000000000000000000000000000060448201526064016105ab565b805463ffffffff909216700100000000000000000000000000000000027fffffffffffffffffffffffff00000000ffffffffffffffffffffffffffffffff90921691909117905550565b600080546040517f3bb6297000000000000000000000000000000000000000000000000000000000815273ffffffffffffffffffffffffffffffffffffffff85811692633bb629709261271792909116908990899088906004016155a7565b6020604051808303816000875af1158015612736573d6000803e3d6000fd5b505050506040513d601f19601f8201168201806040525081019061275a9190615484565b9050806127c3576040517f08c379a000000000000000000000000000000000000000000000000000000000815260206004820152600260248201527f4f4e00000000000000000000000000000000000000000000000000000000000060448201526064016105ab565b61086885856125a7565b600080546040517fdd64725a00000000000000000000000000000000000000000000000000000000815273ffffffffffffffffffffffffffffffffffffffff8581169263dd64725a92612828929091169086906004016155f2565b6020604051808303816000875af1158015612847573d6000803e3d6000fd5b505050506040513d601f19601f8201168201806040525081019061286b9190615484565b90508061065c576040517f08c379a000000000000000000000000000000000000000000000000000000000815260206004820152600260248201527f4f4700000000000000000000000000000000000000000000000000000000000060448201526064016105ab565b600060018281168114806128e95760006128ef565b606085901c5b95945050505050565b600061290962010009858585613726565b6040805160e081018252825460ff808216835261ffff610100830481166020850152630100000083048216948401949094526401000000008204909316606083015266010000000000008104831660808301526701000000000000008104831660a083015268010000000000000000900490911660c082015290915061298e9061374d565b6129f4576040517f08c379a000000000000000000000000000000000000000000000000000000000815260206004820152600260248201527f504900000000000000000000000000000000000000000000000000000000000060448201526064016105ab565b9392505050565b60008273ffffffffffffffffffffffffffffffffffffffff168473ffffffffffffffffffffffffffffffffffffffff1610612a3557600080fd5b6040805173ffffffffffffffffffffffffffffffffffffffff8087166020830152851691810191909152606081018390526080015b6040516020818303038152906040528051906020012090509392505050565b73ffffffffffffffffffffffffffffffffffffffff811660009081526201000c6020526040902080547fffffffffffffffffffffffffffffffff0000000000000000000000000000000081169091556fffffffffffffffffffffffffffffffff16801561065c576040805173ffffffffffffffffffffffffffffffffffffffff8581166020808401919091529085168284015282518083038401815260609092018352815191810191909120600081815262010010909252918120805484929061231e9084906fffffffffffffffffffffffffffffffff166154e0565b6000612b77620100098585856137cf565b9050612b82816138fe565b15610fa3576040517f08c379a000000000000000000000000000000000000000000000000000000000815260206004820152600260248201527f504600000000000000000000000000000000000000000000000000000000000060448201526064016105ab565b6040805160e081018252600080825260208201819052918101829052606081018290526080810182905260a0810182905260c0810191909152506000818152620100086020908152604091829020825160e081018452905460ff808216835261ffff6101008304811694840194909452630100000082048116948301949094526401000000008104909216606082015266010000000000008204831660808201526701000000000000008204831660a08201526801000000000000000090910490911660c0820152612cba8161374d565b612d20576040517f08c379a000000000000000000000000000000000000000000000000000000000815260206004820152600260248201527f505400000000000000000000000000000000000000000000000000000000000060448201526064016105ab565b919050565b6000612d328585856129fb565b90508186600083815260200190815260200160002060008201518160000160006101000a81548160ff021916908360ff16021790555060208201518160000160016101000a81548161ffff021916908361ffff16021790555060408201518160000160036101000a81548160ff021916908360ff16021790555060608201518160000160046101000a81548161ffff021916908361ffff16021790555060808201518160000160066101000a81548160ff021916908360ff16021790555060a08201518160000160076101000a81548160ff021916908360ff16021790555060c08201518160000160086101000a81548160ff021916908360ff160217905550905050505050505050565b60408051610140810182526000606082018181526080830182905260a0830182905260c0830182905260e083018290526101008301829052610120830182905282526020820181905291810191909152612e9c620100098585856137cf565b905061298e816138fe565b6000612eb28261397f565b90507ffffffffffffffffffffffffffffffffffffffffffffffffffffffffffff5d892600282900b12801590612eef5750620cb14a600282900b13155b612f55576040517f08c379a000000000000000000000000000000000000000000000000000000000815260206004820152600160248201527f520000000000000000000000000000000000000000000000000000000000000060448201526064016105ab565b82516fffffffffffffffffffffffffffffffff1615612fd0576040517f08c379a000000000000000000000000000000000000000000000000000000000815260206004820152600160248201527f4e0000000000000000000000000000000000000000000000000000000000000060448201526064016105ab565b506fffffffffffffffffffffffffffffffff169052565b600080600080612ff78686613cd2565b915091506130058282613cfc565b9350935050509250929050565b60008073ffffffffffffffffffffffffffffffffffffffff8416156130c4576040517f70a0823100000000000000000000000000000000000000000000000000000000815230600482015273ffffffffffffffffffffffffffffffffffffffff8516906370a0823190602401602060405180830381865afa15801561309b573d6000803e3d6000fd5b505050506040513d601f19601f820116820180604052508101906130bf9190615629565b6130c7565b60005b6040517f70a0823100000000000000000000000000000000000000000000000000000000815230600482015290925073ffffffffffffffffffffffffffffffffffffffff8416906370a0823190602401602060405180830381865afa158015613134573d6000803e3d6000fd5b505050506040513d601f19601f820116820180604052508101906131589190615629565b90509250929050565b73ffffffffffffffffffffffffffffffffffffffff85166131925761318d878786600185161515613d40565b6131a4565b6131a487878688600186161515613d75565b61222087878486600286161515613d75565b73ffffffffffffffffffffffffffffffffffffffff83161561065c576040517f70a0823100000000000000000000000000000000000000000000000000000000815230600482015260009073ffffffffffffffffffffffffffffffffffffffff8516906370a0823190602401602060405180830381865afa15801561323f573d6000803e3d6000fd5b505050506040513d601f19601f820116820180604052508101906132639190615629565b90508281101580156132795750600082600f0b12155b80156132a057506fffffffffffffffffffffffffffffffff821661329d8483615642565b10155b610fa3576040517f08c379a000000000000000000000000000000000000000000000000000000000815260206004820152600260248201527f544400000000000000000000000000000000000000000000000000000000000060448201526064016105ab565b6040805173ffffffffffffffffffffffffffffffffffffffff808616602083015284169181019190915261ffff82166060820152600090608001612a6a565b600080547501000000000000000000000000000000000000000000900460ff16156133cc576040517f08c379a000000000000000000000000000000000000000000000000000000000815260206004820152600260248201527f445300000000000000000000000000000000000000000000000000000000000060448201526064016105ab565b6133d534613da5565b600080547fffffffffffffffffffff00ffffffffffffffffffffffffffffffffffffffffff167501000000000000000000000000000000000000000000179055919050565b73ffffffffffffffffffffffffffffffffffffffff821661344557613440848483613dc4565b610fa3565b610fa3848484613e6a565b6040805173ffffffffffffffffffffffffffffffffffffffff80851660208301528316918101919091526000906060015b60405160208183030381529060405280519060200120905092915050565b60008083600f0b12156134c6576134b583615655565b6134bf9083615510565b90506134db565b82600f0b6000036134d85750806134db565b50815b816fffffffffffffffffffffffffffffffff16816fffffffffffffffffffffffffffffffff1611156100ab576040517f08c379a000000000000000000000000000000000000000000000000000000000815260206004820152600260248201527f534300000000000000000000000000000000000000000000000000000000000060448201526064016105ab565b73ffffffffffffffffffffffffffffffffffffffff821661358f57613440848483613e88565b610fa38285856fffffffffffffffffffffffffffffffff16613ead565b60008381526201001060205260408120546fffffffffffffffffffffffffffffffff16906135da838361349f565b60008681526201001060205260408120805492935083929091906136119084906fffffffffffffffffffffffffffffffff16615510565b82546101009290920a6fffffffffffffffffffffffffffffffff818102199093169183160217909155600086815262010010602052604081208054859450909261365d918591166154e0565b92506101000a8154816fffffffffffffffffffffffffffffffff02191690836fffffffffffffffffffffffffffffffff1602179055505050505050565b6000816000036136ab5750816100ab565b506040805173ffffffffffffffffffffffffffffffffffffffff848116602080840191909152828401859052835180840385018152606090930190935281519190920120166100ab565b6040805173ffffffffffffffffffffffffffffffffffffffff84166020820152908101829052600090606001613481565b6000806137348585856129fb565b6000908152602087905260409020915050949350505050565b6000600160ff16826000015160ff1611156137c4576040517f08c379a000000000000000000000000000000000000000000000000000000000815260206004820152600360248201527f495053000000000000000000000000000000000000000000000000000000000060448201526064016105ab565b505160ff1660011490565b60408051610140810182526000606082018181526080830182905260a0830182905260c0830182905260e08301829052610100830182905261012083018290528252602082018190529181018290529061382a8585856129fb565b600081815260208881526040808320815160e081018352905460ff808216835261ffff6101008304811695840195909552630100000082048116938301939093526401000000008104909316606082015266010000000000008304821660808201526701000000000000008304821660a0820152680100000000000000009092041660c08201819052929350916138c29086906128d4565b60408051606081018252938452602084019490945273ffffffffffffffffffffffffffffffffffffffff16928201929092529695505050505050565b805151600090600160ff9091161115613973576040517f08c379a000000000000000000000000000000000000000000000000000000000815260206004820152600360248201527f495053000000000000000000000000000000000000000000000000000000000060448201526064016105ab565b50515160ff1660011490565b6000620100026fffffffffffffffffffffffffffffffff8316108015906139c757506f0ffff5433e2b3d8211706e6102aa94726fffffffffffffffffffffffffffffffff8316105b6139d057600080fd5b77ffffffffffffffffffffffffffffffff0000000000000000604083901b166fffffffffffffffffffffffffffffffff811160071b81811c67ffffffffffffffff811160061b90811c63ffffffff811160051b90811c61ffff811160041b90811c60ff8111600390811b91821c600f811160021b90811c918211600190811b92831c97908811961790941790921717909117171760808110613a7a57607f810383901c9150613a84565b80607f0383901b91505b908002607f81811c60ff83811c9190911c800280831c81831c1c800280841c81841c1c800280851c81851c1c800280861c81861c1c800280871c81871c1c800280881c81881c1c800280891c81891c1c8002808a1c818a1c1c8002808b1c818b1c1c8002808c1c818c1c1c8002808d1c818d1c1c8002808e1c9c81901c9c909c1c80029c8d901c9e9d7fffffffffffffffffffffffffffffffffffffffffffffffffffffffffffffff808f0160401b60c09190911c678000000000000000161760c19b909b1c674000000000000000169a909a1760c29990991c672000000000000000169890981760c39790971c671000000000000000169690961760c49590951c670800000000000000169490941760c59390931c670400000000000000169290921760c69190911c670200000000000000161760c79190911c670100000000000000161760c89190911c6680000000000000161760c99190911c6640000000000000161760ca9190911c6620000000000000161760cb9190911c6610000000000000161760cc9190911c6608000000000000161760cd9190911c66040000000000001617693627a301d71055774c8581027ffffffffffffffffffffffffffffffffffd709b7e5480fba5a50fed5e62ffc5568101608090811d906fdb2df09e81959a81455e260799a0632f8301901d600281810b9083900b14613cc357886fffffffffffffffffffffffffffffffff16613c9f82614016565b6fffffffffffffffffffffffffffffffff161115613cbd5781613cc5565b80613cc5565b815b9998505050505050505050565b600080600080613ce28686614388565b91509150613cf086866143fb565b61300582826001614423565b600080613d1a846fffffffffffffffffffffffffffffffff1661449a565b613d35846fffffffffffffffffffffffffffffffff1661449a565b915091509250929050565b6000613d4a613345565b905082600f0b600014613d6b57613d66858585600085876144ce565b610868565b610868848261450f565b73ffffffffffffffffffffffffffffffffffffffff8216613d9557600080fd5b6000610a988686868685876144ce565b806fffffffffffffffffffffffffffffffff81168114612d2057600080fd5b816fffffffffffffffffffffffffffffffff16816fffffffffffffffffffffffffffffffff161015613e52576040517f08c379a000000000000000000000000000000000000000000000000000000000815260206004820152600260248201527f454300000000000000000000000000000000000000000000000000000000000060448201526064016105ab565b6000613e5e8383615510565b9050610fa3848261450f565b61065c818430856fffffffffffffffffffffffffffffffff16614543565b61065c83613e9683856154e0565b6fffffffffffffffffffffffffffffffff166146b4565b6040805173ffffffffffffffffffffffffffffffffffffffff8481166024830152604480830185905283518084039091018152606490920183526020820180517bffffffffffffffffffffffffffffffffffffffffffffffffffffffff167fa9059cbb000000000000000000000000000000000000000000000000000000001790529151600092839290871691613f449190615693565b6000604051808303816000865af19150503d8060008114613f81576040519150601f19603f3d011682016040523d82523d6000602084013e613f86565b606091505b5091509150818015613fb0575080511580613fb0575080806020019051810190613fb09190615484565b610868576040517f08c379a000000000000000000000000000000000000000000000000000000000815260206004820152600260248201527f544600000000000000000000000000000000000000000000000000000000000060448201526064016105ab565b60007ffffffffffffffffffffffffffffffffffffffffffffffffffffffffffff5d892600283900b128015906140535750620cb14a600283900b13155b61405c57600080fd5b6000808360020b12614071578260020b614079565b8260020b6000035b905060008160011660000361409f577001000000000000000000000000000000006140b1565b6ffffcb933bd6fad37aa2d162d1a5940015b70ffffffffffffffffffffffffffffffffff16905060028216156140e5576ffff97272373d413259a46990580e213a0260801c5b6004821615614104576ffff2e50f5f656932ef12357cf3c7fdcc0260801c5b6008821615614123576fffe5caca7e10e4e61c3624eaa0941cd00260801c5b6010821615614142576fffcb9843d60f6159c9db58835c9266440260801c5b6020821615614161576fff973b41fa98c081472e6896dfb254c00260801c5b6040821615614180576fff2ea16466c96a3843ec78b326b528610260801c5b608082161561419f576ffe5dee046a99a2a811c461f1969c30530260801c5b6101008216156141bf576ffcbe86c7900a88aedcffc83b479aa3a40260801c5b6102008216156141df576ff987a7253ac413176f2b074cf7815e540260801c5b6104008216156141ff576ff3392b0822b70005940c7a398e4b70f30260801c5b61080082161561421f576fe7159475a2c29b7443b29c7fa6e889d90260801c5b61100082161561423f576fd097f3bdfd2022b8845ad8f792aa58250260801c5b61200082161561425f576fa9f746462d870fdf8a65dc1f90e061e50260801c5b61400082161561427f576f70d869a156d2a1b890bb3df62baf32f70260801c5b61800082161561429f576f31be135f97d08fd981231505542fcfa60260801c5b620100008216156142c0576f09aa508b5b7a84e1c677de54f3e99bc90260801c5b620200008216156142e0576e5d6af8dedb81196699c329225ee6040260801c5b620400008216156142ff576d2216e584f5fa1ea926041bedfe980260801c5b6208000082161561431c576b048a170391f7dc42444e8fa20260801c5b60008460020b131561435b57807fffffffffffffffffffffffffffffffffffffffffffffffffffffffffffffffff81614357576143576156af565b0490505b68010000000000000000810615614373576001614376565b60005b60ff16604082901c0192505050919050565b600080600061439b84866060015161477e565b85519091506143de906fffffffffffffffffffffffffffffffff80841691160260401c5b77ffffffffffffffffffffffffffffffffffffffffffffffff166147d3565b92506143f16143bf82876000015161480c565b9150509250929050565b61441f8261441a836fffffffffffffffffffffffffffffffff1661449a565b614855565b5050565b6000806000856fffffffffffffffffffffffffffffffff1611806144445750825b61444f57600061445a565b61445a6004866154e0565b6000856fffffffffffffffffffffffffffffffff1611806144785750835b61448357600061448e565b61448e6004866154e0565b91509150935093915050565b60006f80000000000000000000000000000000826fffffffffffffffffffffffffffffffff16106144ca57600080fd5b5090565b6000600f85900b13156144ed576144e88685858585614894565b610a98565b6000600f85900b1215610a9857610a988561450786615655565b8585856148c7565b6fffffffffffffffffffffffffffffffff81161561441f5761441f82826fffffffffffffffffffffffffffffffff166146b4565b6040805173ffffffffffffffffffffffffffffffffffffffff85811660248301528481166044830152606480830185905283518084039091018152608490920183526020820180517bffffffffffffffffffffffffffffffffffffffffffffffffffffffff167f23b872dd0000000000000000000000000000000000000000000000000000000017905291516000928392908816916145e29190615693565b6000604051808303816000865af19150503d806000811461461f576040519150601f19603f3d011682016040523d82523d6000602084013e614624565b606091505b509150915081801561464e57508051158061464e57508080602001905181019061464e9190615484565b610a98576040517f08c379a000000000000000000000000000000000000000000000000000000000815260206004820152600260248201527f544600000000000000000000000000000000000000000000000000000000000060448201526064016105ab565b60008273ffffffffffffffffffffffffffffffffffffffff168260405160006040518083038185875af1925050503d806000811461470e576040519150601f19603f3d011682016040523d82523d6000602084013e614713565b606091505b505090508061065c576040517f08c379a000000000000000000000000000000000000000000000000000000000815260206004820152600260248201527f544600000000000000000000000000000000000000000000000000000000000060448201526064016105ab565b600066010000000000006fffffffffffffffffffffffffffffffff80851667ffffffffffffffff851683010290603082901c908111156128ef576fffffffffffffffffffffffffffffffff93505050506100ab565b806fffffffffffffffffffffffffffffffff811677ffffffffffffffffffffffffffffffffffffffffffffffff821614612d2057600080fd5b60006fffffffffffffffffffffffffffffffff821677ffffffffffffffffffffffffffffffff0000000000000000604085901b168161484d5761484d6156af565b049392505050565b6020820151614876906fffffffffffffffffffffffffffffffff16826148ef565b6fffffffffffffffffffffffffffffffff1660209092019190915250565b80156148bb5760006148a786868661495c565b90506148b586828686614a3b565b50610868565b6108688585858561341a565b80156148e3576148d88585856122db565b613d66858484614a84565b61086885858585613569565b60008082600f0b121561492657508082016fffffffffffffffffffffffffffffffff8084169082161061492157600080fd5b6100ab565b826fffffffffffffffffffffffffffffffff168284019150816fffffffffffffffffffffffffffffffff1610156100ab57600080fd5b6000806149698584613450565b600081815262010010602052604090208054919250906fffffffffffffffffffffffffffffffff9081169086168111156149fe578154869083906000906149c39084906fffffffffffffffffffffffffffffffff16615510565b92506101000a8154816fffffffffffffffffffffffffffffffff02191690836fffffffffffffffffffffffffffffffff160217905550614a31565b81547fffffffffffffffffffffffffffffffff00000000000000000000000000000000168255614a2e8187615510565b93505b5050509392505050565b6fffffffffffffffffffffffffffffffff831615614a5f576134408484848461341a565b73ffffffffffffffffffffffffffffffffffffffff8216610fa357610fa3848261450f565b73ffffffffffffffffffffffffffffffffffffffff821661065c5761065c838261450f565b73ffffffffffffffffffffffffffffffffffffffff81168114614acb57600080fd5b50565b803561ffff81168114612d2057600080fd5b60008060408385031215614af357600080fd5b8235614afe81614aa9565b915061315860208401614ace565b60008060208385031215614b1f57600080fd5b823567ffffffffffffffff80821115614b3757600080fd5b818501915085601f830112614b4b57600080fd5b813581811115614b5a57600080fd5b866020828501011115614b6c57600080fd5b60209290920196919550909350505050565b7f4e487b7100000000000000000000000000000000000000000000000000000000600052603260045260246000fd5b60208152816020820152818360408301376000818301604090810191909152601f9092017fffffffffffffffffffffffffffffffffffffffffffffffffffffffffffffffe0160101919050565b803560ff81168114612d2057600080fd5b60008060408385031215614c1e57600080fd5b614c2783614bfa565b946020939093013593505050565b600080600080600080600060e0888a031215614c5057600080fd5b614c5988614bfa565b965060208801359550614c6e60408901614ace565b9450614c7c60608901614ace565b9350614c8a60808901614bfa565b9250614c9860a08901614bfa565b9150614ca660c08901614bfa565b905092959891949750929550565b600080600080600080600080610100898b031215614cd157600080fd5b614cda89614bfa565b97506020890135614cea81614aa9565b96506040890135614cfa81614aa9565b955060608901359450614d0f60808a01614ace565b9350614d1d60a08a01614ace565b9250614d2b60c08a01614bfa565b9150614d3960e08a01614bfa565b90509295985092959890939650565b60008060408385031215614d5b57600080fd5b614d6483614bfa565b915061315860208401614bfa565b60008060008060808587031215614d8857600080fd5b614d9185614bfa565b93506020850135614da181614aa9565b92506040850135614db181614aa9565b9396929550929360600135925050565b80356fffffffffffffffffffffffffffffffff81168114612d2057600080fd5b60008060408385031215614df457600080fd5b614dfd83614bfa565b915061315860208401614dc1565b60008060008060808587031215614e2157600080fd5b614e2a85614bfa565b93506020850135614e3a81614aa9565b9250614e4860408601614dc1565b9150614e5660608601614ace565b905092959194509250565b600080600080600060a08688031215614e7957600080fd5b614e8286614bfa565b94506020860135614e9281614aa9565b93506040860135614ea281614aa9565b9250606086013591506080860135614eb981614aa9565b809150509295509295909350565b60008060408385031215614eda57600080fd5b614ee383614bfa565b91506020830135614ef381614aa9565b809150509250929050565b600080600080600060a08688031215614f1657600080fd5b614f1f86614bfa565b94506020860135614f2f81614aa9565b93506040860135614f3f81614aa9565b925060608601359150614f5460808701614dc1565b90509295509295909350565b600060208284031215614f7257600080fd5b81516129f481614aa9565b803563ffffffff81168114612d2057600080fd5b7f4e487b7100000000000000000000000000000000000000000000000000000000600052604160045260246000fd5b604051601f82017fffffffffffffffffffffffffffffffffffffffffffffffffffffffffffffffe016810167ffffffffffffffff8111828210171561500757615007614f91565b604052919050565b6000806000806080858703121561502557600080fd5b61502e85614bfa565b935060208086013561503f81614aa9565b935061504d60408701614f7d565b9250606086013567ffffffffffffffff8082111561506a57600080fd5b818801915088601f83011261507e57600080fd5b81358181111561509057615090614f91565b8060051b91506150a1848301614fc0565b818152918301840191848101908b8411156150bb57600080fd5b938501935b838510156150e0576150d185614ace565b825293850193908501906150c0565b989b979a50959850505050505050565b7f4e487b7100000000000000000000000000000000000000000000000000000000600052601160045260246000fd5b60007fffffffffffffffffffffffffffffffffffffffffffffffffffffffffffffffff8203615150576151506150f0565b5060010190565b6000806000806080858703121561516d57600080fd5b61517685614bfa565b9350602085013561518681614aa9565b925061519460408601614dc1565b915060608501356151a481614aa9565b939692955090935050565b600080600080600080600080610100898b0312156151cc57600080fd5b6151d589614bfa565b975060208901356151e581614aa9565b96506151f360408a01614dc1565b9550606089013561520381614aa9565b94506080890135935061521860a08a01614bfa565b925060c0890135915060e089013590509295985092959890939650565b8035600f81900b8114612d2057600080fd5b6000806000806080858703121561525d57600080fd5b61526685614bfa565b9350602085013561527681614aa9565b925061519460408601615235565b600080600080600060a0868803121561529c57600080fd5b6152a586614bfa565b945060208601359350604086013592506152c160608701615235565b91506080860135614eb981614aa9565b6000806000606084860312156152e657600080fd5b6152ef84614bfa565b92506020840135915061530460408501614f7d565b90509250925092565b600082601f83011261531e57600080fd5b813567ffffffffffffffff81111561533857615338614f91565b61536960207fffffffffffffffffffffffffffffffffffffffffffffffffffffffffffffffe0601f84011601614fc0565b81815284602083860101111561537e57600080fd5b816020850160208301376000918101602001919091529392505050565b600080600080600060a086880312156153b357600080fd5b6153bc86614bfa565b9450602086013593506153d160408701614f7d565b925060608601356153e181614aa9565b9150608086013567ffffffffffffffff8111156153fd57600080fd5b6154098882890161530d565b9150509295509295909350565b60008060006060848603121561542b57600080fd5b61543484614bfa565b9250602084013561544481614aa9565b9150604084013567ffffffffffffffff81111561546057600080fd5b61546c8682870161530d565b9150509250925092565b8015158114614acb57600080fd5b60006020828403121561549657600080fd5b81516129f481615476565b808201808211156100ab576100ab6150f0565b600080604083850312156154c757600080fd5b6154d083614bfa565b91506020830135614ef381615476565b6fffffffffffffffffffffffffffffffff818116838216019080821115615509576155096150f0565b5092915050565b6fffffffffffffffffffffffffffffffff828116828216039080821115615509576155096150f0565b60005b8381101561555457818101518382015260200161553c565b50506000910152565b60008151808452615575816020860160208601615539565b601f017fffffffffffffffffffffffffffffffffffffffffffffffffffffffffffffffe0169290920160200192915050565b73ffffffffffffffffffffffffffffffffffffffff8516815283602082015263ffffffff831660408201526080606082015260006155e8608083018461555d565b9695505050505050565b73ffffffffffffffffffffffffffffffffffffffff83168152604060208201526000615621604083018461555d565b949350505050565b60006020828403121561563b57600080fd5b5051919050565b818103818111156100ab576100ab6150f0565b600081600f0b7fffffffffffffffffffffffffffffffff80000000000000000000000000000000810361568a5761568a6150f0565b60000392915050565b600082516156a5818460208701615539565b9190910192915050565b7f4e487b7100000000000000000000000000000000000000000000000000000000600052601260045260246000fdfea26469706673582212202df5afe21c15bc6b04a8304b4567f5d7dc441d584976b01fdf20aa49c026c08a64736f6c63430008130033",
  "linkReferences": {},
  "deployedLinkReferences": {}
}