{
  "_format": "hh-sol-artifact-1",
  "contractName": "SdexQuery",
  "address": "0xf1e7167A0b085B52A8ad02A5Cc48eD2027b8B577",
  "sourceName": "contracts/lens/SdexQuery.sol",
  "abi": [
    {
      "inputs": [
        {
          "internalType": "address",
          "name": "dex",
          "type": "address"
        }
      ],
      "stateMutability": "nonpayable",
      "type": "constructor"
    },
    {
      "inputs": [],
      "name": "dex_",
      "outputs": [
        {
          "internalType": "address",
          "name": "",
          "type": "address"
        }
      ],
      "stateMutability": "view",
      "type": "function"
    },
    {
      "inputs": [
        {
          "internalType": "address",
          "name": "owner",
          "type": "address"
        },
        {
          "internalType": "address",
          "name": "base",
          "type": "address"
        },
        {
          "internalType": "address",
          "name": "quote",
          "type": "address"
        },
        {
          "internalType": "uint256",
          "name": "poolIdx",
          "type": "uint256"
        }
      ],
      "name": "queryAmbientPosition",
      "outputs": [
        {
          "internalType": "uint128",
          "name": "seeds",
          "type": "uint128"
        },
        {
          "internalType": "uint32",
          "name": "timestamp",
          "type": "uint32"
        }
      ],
      "stateMutability": "view",
      "type": "function"
    },
    {
      "inputs": [
        {
          "internalType": "address",
          "name": "owner",
          "type": "address"
        },
        {
          "internalType": "address",
          "name": "base",
          "type": "address"
        },
        {
          "internalType": "address",
          "name": "quote",
          "type": "address"
        },
        {
          "internalType": "uint256",
          "name": "poolIdx",
          "type": "uint256"
        }
      ],
      "name": "queryAmbientTokens",
      "outputs": [
        {
          "internalType": "uint128",
          "name": "liq",
          "type": "uint128"
        },
        {
          "internalType": "uint128",
          "name": "baseQty",
          "type": "uint128"
        },
        {
          "internalType": "uint128",
          "name": "quoteQty",
          "type": "uint128"
        }
      ],
      "stateMutability": "view",
      "type": "function"
    },
    {
      "inputs": [
        {
          "internalType": "address",
          "name": "owner",
          "type": "address"
        },
        {
          "internalType": "address",
          "name": "base",
          "type": "address"
        },
        {
          "internalType": "address",
          "name": "quote",
          "type": "address"
        },
        {
          "internalType": "uint256",
          "name": "poolIdx",
          "type": "uint256"
        },
        {
          "internalType": "int24",
          "name": "lowerTick",
          "type": "int24"
        },
        {
          "internalType": "int24",
          "name": "upperTick",
          "type": "int24"
        }
      ],
      "name": "queryConcRewards",
      "outputs": [
        {
          "internalType": "uint128",
          "name": "liqRewards",
          "type": "uint128"
        },
        {
          "internalType": "uint128",
          "name": "baseRewards",
          "type": "uint128"
        },
        {
          "internalType": "uint128",
          "name": "quoteRewards",
          "type": "uint128"
        }
      ],
      "stateMutability": "view",
      "type": "function"
    },
    {
      "inputs": [
        {
          "internalType": "address",
          "name": "base",
          "type": "address"
        },
        {
          "internalType": "address",
          "name": "quote",
          "type": "address"
        },
        {
          "internalType": "uint256",
          "name": "poolIdx",
          "type": "uint256"
        }
      ],
      "name": "queryCurve",
      "outputs": [
        {
          "components": [
            {
              "internalType": "uint128",
              "name": "priceRoot_",
              "type": "uint128"
            },
            {
              "internalType": "uint128",
              "name": "ambientSeeds_",
              "type": "uint128"
            },
            {
              "internalType": "uint128",
              "name": "concLiq_",
              "type": "uint128"
            },
            {
              "internalType": "uint64",
              "name": "seedDeflator_",
              "type": "uint64"
            },
            {
              "internalType": "uint64",
              "name": "concGrowth_",
              "type": "uint64"
            }
          ],
          "internalType": "struct CurveMath.CurveState",
          "name": "curve",
          "type": "tuple"
        }
      ],
      "stateMutability": "view",
      "type": "function"
    },
    {
      "inputs": [
        {
          "internalType": "address",
          "name": "base",
          "type": "address"
        },
        {
          "internalType": "address",
          "name": "quote",
          "type": "address"
        },
        {
          "internalType": "uint256",
          "name": "poolIdx",
          "type": "uint256"
        }
      ],
      "name": "queryCurveTick",
      "outputs": [
        {
          "internalType": "int24",
          "name": "",
          "type": "int24"
        }
      ],
      "stateMutability": "view",
      "type": "function"
    },
    {
      "inputs": [
        {
          "internalType": "address",
          "name": "base",
          "type": "address"
        },
        {
          "internalType": "address",
          "name": "quote",
          "type": "address"
        },
        {
          "internalType": "uint256",
          "name": "poolIdx",
          "type": "uint256"
        },
        {
          "internalType": "bool",
          "name": "isBid",
          "type": "bool"
        },
        {
          "internalType": "int24",
          "name": "tick",
          "type": "int24"
        }
      ],
      "name": "queryKnockoutMerkle",
      "outputs": [
        {
          "internalType": "uint160",
          "name": "root",
          "type": "uint160"
        },
        {
          "internalType": "uint32",
          "name": "pivot",
          "type": "uint32"
        },
        {
          "internalType": "uint64",
          "name": "fee",
          "type": "uint64"
        }
      ],
      "stateMutability": "view",
      "type": "function"
    },
    {
      "inputs": [
        {
          "internalType": "address",
          "name": "base",
          "type": "address"
        },
        {
          "internalType": "address",
          "name": "quote",
          "type": "address"
        },
        {
          "internalType": "uint256",
          "name": "poolIdx",
          "type": "uint256"
        },
        {
          "internalType": "bool",
          "name": "isBid",
          "type": "bool"
        },
        {
          "internalType": "int24",
          "name": "tick",
          "type": "int24"
        }
      ],
      "name": "queryKnockoutPivot",
      "outputs": [
        {
          "internalType": "uint96",
          "name": "lots",
          "type": "uint96"
        },
        {
          "internalType": "uint32",
          "name": "pivot",
          "type": "uint32"
        },
        {
          "internalType": "uint16",
          "name": "range",
          "type": "uint16"
        }
      ],
      "stateMutability": "view",
      "type": "function"
    },
    {
      "inputs": [
        {
          "internalType": "address",
          "name": "owner",
          "type": "address"
        },
        {
          "internalType": "address",
          "name": "base",
          "type": "address"
        },
        {
          "internalType": "address",
          "name": "quote",
          "type": "address"
        },
        {
          "internalType": "uint256",
          "name": "poolIdx",
          "type": "uint256"
        },
        {
          "internalType": "uint32",
          "name": "pivot",
          "type": "uint32"
        },
        {
          "internalType": "bool",
          "name": "isBid",
          "type": "bool"
        },
        {
          "internalType": "int24",
          "name": "lowerTick",
          "type": "int24"
        },
        {
          "internalType": "int24",
          "name": "upperTick",
          "type": "int24"
        }
      ],
      "name": "queryKnockoutPos",
      "outputs": [
        {
          "internalType": "uint96",
          "name": "lots",
          "type": "uint96"
        },
        {
          "internalType": "uint64",
          "name": "mileage",
          "type": "uint64"
        },
        {
          "internalType": "uint32",
          "name": "timestamp",
          "type": "uint32"
        }
      ],
      "stateMutability": "view",
      "type": "function"
    },
    {
      "inputs": [
        {
          "internalType": "address",
          "name": "owner",
          "type": "address"
        },
        {
          "internalType": "address",
          "name": "base",
          "type": "address"
        },
        {
          "internalType": "address",
          "name": "quote",
          "type": "address"
        },
        {
          "internalType": "uint256",
          "name": "poolIdx",
          "type": "uint256"
        },
        {
          "internalType": "uint32",
          "name": "pivot",
          "type": "uint32"
        },
        {
          "internalType": "bool",
          "name": "isBid",
          "type": "bool"
        },
        {
          "internalType": "int24",
          "name": "lowerTick",
          "type": "int24"
        },
        {
          "internalType": "int24",
          "name": "upperTick",
          "type": "int24"
        }
      ],
      "name": "queryKnockoutTokens",
      "outputs": [
        {
          "internalType": "uint128",
          "name": "liq",
          "type": "uint128"
        },
        {
          "internalType": "uint128",
          "name": "baseQty",
          "type": "uint128"
        },
        {
          "internalType": "uint128",
          "name": "quoteQty",
          "type": "uint128"
        },
        {
          "internalType": "bool",
          "name": "knockedOut",
          "type": "bool"
        }
      ],
      "stateMutability": "view",
      "type": "function"
    },
    {
      "inputs": [
        {
          "internalType": "address",
          "name": "base",
          "type": "address"
        },
        {
          "internalType": "address",
          "name": "quote",
          "type": "address"
        },
        {
          "internalType": "uint256",
          "name": "poolIdx",
          "type": "uint256"
        },
        {
          "internalType": "int24",
          "name": "tick",
          "type": "int24"
        }
      ],
      "name": "queryLevel",
      "outputs": [
        {
          "internalType": "uint96",
          "name": "bidLots",
          "type": "uint96"
        },
        {
          "internalType": "uint96",
          "name": "askLots",
          "type": "uint96"
        },
        {
          "internalType": "uint64",
          "name": "odometer",
          "type": "uint64"
        }
      ],
      "stateMutability": "view",
      "type": "function"
    },
    {
      "inputs": [
        {
          "internalType": "address",
          "name": "base",
          "type": "address"
        },
        {
          "internalType": "address",
          "name": "quote",
          "type": "address"
        },
        {
          "internalType": "uint256",
          "name": "poolIdx",
          "type": "uint256"
        }
      ],
      "name": "queryLiquidity",
      "outputs": [
        {
          "internalType": "uint128",
          "name": "",
          "type": "uint128"
        }
      ],
      "stateMutability": "view",
      "type": "function"
    },
    {
      "inputs": [
        {
          "internalType": "address",
          "name": "base",
          "type": "address"
        },
        {
          "internalType": "address",
          "name": "quote",
          "type": "address"
        },
        {
          "internalType": "uint256",
          "name": "poolIdx",
          "type": "uint256"
        }
      ],
      "name": "queryPoolParams",
      "outputs": [
        {
          "components": [
            {
              "internalType": "uint8",
              "name": "schema_",
              "type": "uint8"
            },
            {
              "internalType": "uint16",
              "name": "feeRate_",
              "type": "uint16"
            },
            {
              "internalType": "uint8",
              "name": "protocolTake_",
              "type": "uint8"
            },
            {
              "internalType": "uint16",
              "name": "tickSize_",
              "type": "uint16"
            },
            {
              "internalType": "uint8",
              "name": "jitThresh_",
              "type": "uint8"
            },
            {
              "internalType": "uint8",
              "name": "knockoutBits_",
              "type": "uint8"
            },
            {
              "internalType": "uint8",
              "name": "oracleFlags_",
              "type": "uint8"
            }
          ],
          "internalType": "struct PoolSpecs.Pool",
          "name": "pool",
          "type": "tuple"
        }
      ],
      "stateMutability": "view",
      "type": "function"
    },
    {
      "inputs": [
        {
          "internalType": "uint256",
          "name": "poolIdx",
          "type": "uint256"
        }
      ],
      "name": "queryPoolTemplate",
      "outputs": [
        {
          "components": [
            {
              "internalType": "uint8",
              "name": "schema_",
              "type": "uint8"
            },
            {
              "internalType": "uint16",
              "name": "feeRate_",
              "type": "uint16"
            },
            {
              "internalType": "uint8",
              "name": "protocolTake_",
              "type": "uint8"
            },
            {
              "internalType": "uint16",
              "name": "tickSize_",
              "type": "uint16"
            },
            {
              "internalType": "uint8",
              "name": "jitThresh_",
              "type": "uint8"
            },
            {
              "internalType": "uint8",
              "name": "knockoutBits_",
              "type": "uint8"
            },
            {
              "internalType": "uint8",
              "name": "oracleFlags_",
              "type": "uint8"
            }
          ],
          "internalType": "struct PoolSpecs.Pool",
          "name": "pool",
          "type": "tuple"
        }
      ],
      "stateMutability": "view",
      "type": "function"
    },
    {
      "inputs": [
        {
          "internalType": "address",
          "name": "base",
          "type": "address"
        },
        {
          "internalType": "address",
          "name": "quote",
          "type": "address"
        },
        {
          "internalType": "uint256",
          "name": "poolIdx",
          "type": "uint256"
        }
      ],
      "name": "queryPrice",
      "outputs": [
        {
          "internalType": "uint128",
          "name": "",
          "type": "uint128"
        }
      ],
      "stateMutability": "view",
      "type": "function"
    },
    {
      "inputs": [
        {
          "internalType": "address",
          "name": "token",
          "type": "address"
        }
      ],
      "name": "queryProtocolAccum",
      "outputs": [
        {
          "internalType": "uint128",
          "name": "",
          "type": "uint128"
        }
      ],
      "stateMutability": "view",
      "type": "function"
    },
    {
      "inputs": [
        {
          "internalType": "address",
          "name": "owner",
          "type": "address"
        },
        {
          "internalType": "address",
          "name": "base",
          "type": "address"
        },
        {
          "internalType": "address",
          "name": "quote",
          "type": "address"
        },
        {
          "internalType": "uint256",
          "name": "poolIdx",
          "type": "uint256"
        },
        {
          "internalType": "int24",
          "name": "lowerTick",
          "type": "int24"
        },
        {
          "internalType": "int24",
          "name": "upperTick",
          "type": "int24"
        }
      ],
      "name": "queryRangePosition",
      "outputs": [
        {
          "internalType": "uint128",
          "name": "liq",
          "type": "uint128"
        },
        {
          "internalType": "uint64",
          "name": "fee",
          "type": "uint64"
        },
        {
          "internalType": "uint32",
          "name": "timestamp",
          "type": "uint32"
        },
        {
          "internalType": "bool",
          "name": "atomic",
          "type": "bool"
        }
      ],
      "stateMutability": "view",
      "type": "function"
    },
    {
      "inputs": [
        {
          "internalType": "address",
          "name": "owner",
          "type": "address"
        },
        {
          "internalType": "address",
          "name": "base",
          "type": "address"
        },
        {
          "internalType": "address",
          "name": "quote",
          "type": "address"
        },
        {
          "internalType": "uint256",
          "name": "poolIdx",
          "type": "uint256"
        },
        {
          "internalType": "int24",
          "name": "lowerTick",
          "type": "int24"
        },
        {
          "internalType": "int24",
          "name": "upperTick",
          "type": "int24"
        }
      ],
      "name": "queryRangeTokens",
      "outputs": [
        {
          "internalType": "uint128",
          "name": "liq",
          "type": "uint128"
        },
        {
          "internalType": "uint128",
          "name": "baseQty",
          "type": "uint128"
        },
        {
          "internalType": "uint128",
          "name": "quoteQty",
          "type": "uint128"
        }
      ],
      "stateMutability": "view",
      "type": "function"
    },
    {
      "inputs": [
        {
          "internalType": "address",
          "name": "owner",
          "type": "address"
        },
        {
          "internalType": "address",
          "name": "token",
          "type": "address"
        }
      ],
      "name": "querySurplus",
      "outputs": [
        {
          "internalType": "uint128",
          "name": "surplus",
          "type": "uint128"
        }
      ],
      "stateMutability": "view",
      "type": "function"
    },
    {
      "inputs": [
        {
          "internalType": "address",
          "name": "owner",
          "type": "address"
        },
        {
          "internalType": "address",
          "name": "tracker",
          "type": "address"
        },
        {
          "internalType": "uint256",
          "name": "salt",
          "type": "uint256"
        }
      ],
      "name": "queryVirtual",
      "outputs": [
        {
          "internalType": "uint128",
          "name": "surplus",
          "type": "uint128"
        }
      ],
      "stateMutability": "view",
      "type": "function"
    }
  ],
  "bytecode": "0x60a06040523480156200001157600080fd5b5060405162002c8438038062002c84833981016040819052620000349162000110565b6001600160a01b03811615801590620000ad5750806001600160a01b0316637c5196256040518163ffffffff1660e01b8152600401602060405180830381865afa15801562000087573d6000803e3d6000fd5b505050506040513d601f19601f82011682018060405250810190620000ad919062000142565b620000fe5760405162461bcd60e51b815260206004820152601360248201527f496e76616c69642043726f635377617044657800000000000000000000000000604482015260640160405180910390fd5b6001600160a01b031660805262000166565b6000602082840312156200012357600080fd5b81516001600160a01b03811681146200013b57600080fd5b9392505050565b6000602082840312156200015557600080fd5b815180151581146200013b57600080fd5b608051612aa7620001dd600039600081816103b7015281816106a501528181610819015281816109eb01528181610d2601528181610f150152818161108c01528181611127015281816113c60152818161153b015281816116d701528181611865015281816119ca0152611c8a0152612aa76000f3fe608060405234801561001057600080fd5b506004361061016c5760003560e01c80638e56c1c1116100cd578063dc91a6ad11610081578063ed8f58f411610066578063ed8f58f4146105c1578063f8c7efa7146105d4578063ff163e14146105e757600080fd5b8063dc91a6ad14610588578063ebca95de146105ae57600080fd5b8063992236c5116100b2578063992236c5146104c5578063ab0a989814610521578063d7fd8d0f1461057557600080fd5b80638e56c1c1146103fe57806393c33a711461047457600080fd5b80633dccd7d7116101245780636756e9b8116101095780636756e9b81461035f5780637f44601a1461037257806387834a0e146103b257600080fd5b80633dccd7d71461030657806356bf0f5b1461034c57600080fd5b8063338adc6711610155578063338adc671461023e578063340bfa1214610272578063391d582f146102ba57600080fd5b806310fc74f4146101715780632855bcf3146101bc575b600080fd5b61018461017f3660046126fe565b6105fa565b604080516bffffffffffffffffffffffff909416845263ffffffff909216602084015261ffff16908201526060015b60405180910390f35b6101cf6101ca36600461275c565b610757565b6040516101b39190600060e08201905060ff8351168252602083015161ffff808216602085015260ff6040860151166040850152806060860151166060850152505060ff608084015116608083015260ff60a08401511660a083015260ff60c08401511660c083015292915050565b61025161024c366004612775565b6108f9565b6040516fffffffffffffffffffffffffffffffff90911681526020016101b3565b6102856102803660046127b1565b610916565b604080516bffffffffffffffffffffffff948516815293909216602084015267ffffffffffffffff16908201526060016101b3565b6102cd6102c83660046127fe565b610a9a565b604080516bffffffffffffffffffffffff909416845267ffffffffffffffff909216602084015263ffffffff16908201526060016101b3565b610319610314366004612899565b610af3565b604080516fffffffffffffffffffffffffffffffff948516815292841660208401529216918101919091526060016101b3565b61025161035a366004612906565b610c4d565b61025161036d366004612775565b610dc2565b610385610380366004612930565b610e25565b604080516fffffffffffffffffffffffffffffffff909316835263ffffffff9091166020830152016101b3565b6103d97f000000000000000000000000000000000000000000000000000000000000000081565b60405173ffffffffffffffffffffffffffffffffffffffff90911681526020016101b3565b61041161040c366004612775565b610fcb565b6040805182516fffffffffffffffffffffffffffffffff908116825260208085015182169083015283830151169181019190915260608083015167ffffffffffffffff90811691830191909152608092830151169181019190915260a0016101b3565b6104876104823660046127fe565b611204565b6040516101b394939291906fffffffffffffffffffffffffffffffff9485168152928416602084015292166040820152901515606082015260800190565b6104d86104d3366004612899565b6112cc565b604080516fffffffffffffffffffffffffffffffff909516855267ffffffffffffffff909316602085015263ffffffff90911691830191909152151560608201526080016101b3565b61053461052f3660046126fe565b611490565b6040805173ffffffffffffffffffffffffffffffffffffffff909416845263ffffffff909216602084015267ffffffffffffffff16908201526060016101b3565b610319610583366004612899565b6115f5565b61059b610596366004612775565b61163e565b60405160029190910b81526020016101b3565b6103196105bc366004612930565b611781565b6102516105cf36600461297b565b6117c1565b6102516105e2366004612775565b6118e5565b6101cf6105f5366004612775565b6118fb565b60008060008061060b898989611aad565b9050600061061a828888611b3b565b90506000816201000360405160200161063d929190918252602082015260400190565b604080518083037fffffffffffffffffffffffffffffffffffffffffffffffffffffffffffffffe00181529082905280516020909101207f02ce8af30000000000000000000000000000000000000000000000000000000082526004820181905291506000907f000000000000000000000000000000000000000000000000000000000000000073ffffffffffffffffffffffffffffffffffffffff16906302ce8af390602401602060405180830381865afa158015610701573d6000803e3d6000fd5b505050506040513d601f19601f820116820180604052508101906107259190612996565b6bffffffffffffffffffffffff81169d63ffffffff606083901c169d5060809190911c9b509950505050505050505050565b6040805160e081018252600080825260208201819052918101829052606081018290526080810182905260a0810182905260c0810191909152600082620100086040516020016107b1929190918252602082015260400190565b604080518083037fffffffffffffffffffffffffffffffffffffffffffffffffffffffffffffffe00181529082905280516020909101207f02ce8af30000000000000000000000000000000000000000000000000000000082526004820181905291506000907f000000000000000000000000000000000000000000000000000000000000000073ffffffffffffffffffffffffffffffffffffffff16906302ce8af390602401602060405180830381865afa158015610875573d6000803e3d6000fd5b505050506040513d601f19601f820116820180604052508101906108999190612996565b60ff808216855261ffff600883901c8116602080880191909152601884901c83166040808901919091529084901c9091166060870152603083901c82166080870152603883901c821660a08701529190911c1660c0840152509092915050565b600061090e610909858585610fcb565b611b66565b949350505050565b600080600080610927888888611aad565b90506000818660405160200161094a92919091825260e81b602082015260230190565b60405160208183030381529060405280519060200120905060008162010002604051602001610983929190918252602082015260400190565b604080518083037fffffffffffffffffffffffffffffffffffffffffffffffffffffffffffffffe00181529082905280516020909101207f02ce8af30000000000000000000000000000000000000000000000000000000082526004820181905291506000907f000000000000000000000000000000000000000000000000000000000000000073ffffffffffffffffffffffffffffffffffffffff16906302ce8af390602401602060405180830381865afa158015610a47573d6000803e3d6000fd5b505050506040513d601f19601f82011682018060405250810190610a6b9190612996565b6bffffffffffffffffffffffff8181169d606083901c9091169c5060c09190911c9a5098505050505050505050565b600080600080610aab8b8b8b611aad565b604080516060810182528915158152600289810b602083015288900b91810191909152909150610add81838f8c611b92565b9450945094505050985098509895505050505050565b6000806000806000610b098b8b8b8b8b8b6112cc565b5050915091506000610b1d8b8b8b8b610916565b925050506000610b2f8c8c8c8b610916565b925050506000610b408d8d8d610fcb565b90506000610b4f8e8e8e610fcb565b6080015190506000610b648360000151611d3a565b905060008160020b8d60020b1315610b8557610b8086846129de565b610b87565b855b905060008260020b8d60020b1315610ba857610ba386856129de565b610baa565b855b905067ffffffffffffffff80831681831603810190891668ffffffffffffffffff82161015610bed5760008060009c509c509c5050505050505050505050610c41565b67ffffffffffffffff891681036000610c22610c098d8461208d565b71ffffffffffffffffffffffffffffffffffff166120b6565b9050610c2e88826120ee565b9e509e509e505050505050505050505050505b96509650969350505050565b6000808383604051602001610c8592919073ffffffffffffffffffffffffffffffffffffffff92831681529116602082015260400190565b60405160208183030381529060405280519060200120905060008162010010604051602001610cbe929190918252602082015260400190565b604080518083037fffffffffffffffffffffffffffffffffffffffffffffffffffffffffffffffe00181529082905280516020909101207f02ce8af30000000000000000000000000000000000000000000000000000000082526004820181905291506000907f000000000000000000000000000000000000000000000000000000000000000073ffffffffffffffffffffffffffffffffffffffff16906302ce8af390602401602060405180830381865afa158015610d82573d6000803e3d6000fd5b505050506040513d601f19601f82011682018060405250810190610da69190612996565b6fffffffffffffffffffffffffffffffff169695505050505050565b600080610e1084846040805173ffffffffffffffffffffffffffffffffffffffff93841660208083019190915281830193909352815180820383018152606090910190915280519101201690565b9050610e1c8582610c4d565b95945050505050565b6000806000610e35868686611aad565b6040517fffffffffffffffffffffffffffffffffffffffff00000000000000000000000060608a901b166020820152603481018290529091506000906054016040516020818303038152906040528051906020012090506000816201000e604051602001610ead929190918252602082015260400190565b604080518083037fffffffffffffffffffffffffffffffffffffffffffffffffffffffffffffffe00181529082905280516020909101207f02ce8af30000000000000000000000000000000000000000000000000000000082526004820181905291506000907f000000000000000000000000000000000000000000000000000000000000000073ffffffffffffffffffffffffffffffffffffffff16906302ce8af390602401602060405180830381865afa158015610f71573d6000803e3d6000fd5b505050506040513d601f19601f82011682018060405250810190610f959190612996565b6fffffffffffffffffffffffffffffffff81169b60809190911c6bffffffffffffffffffffffff169a5098505050505050505050565b6040805160a081018252600080825260208201819052918101829052606081018290526080810182905290611001858585611aad565b90506000816201000f604051602001611024929190918252602082015260400190565b604080518083037fffffffffffffffffffffffffffffffffffffffffffffffffffffffffffffffe00181529082905280516020909101207f02ce8af30000000000000000000000000000000000000000000000000000000082526004820181905291506000907f000000000000000000000000000000000000000000000000000000000000000073ffffffffffffffffffffffffffffffffffffffff16906302ce8af390602401602060405180830381865afa1580156110e8573d6000803e3d6000fd5b505050506040513d601f19601f8201168201806040525081019061110c9190612996565b9050600073ffffffffffffffffffffffffffffffffffffffff7f0000000000000000000000000000000000000000000000000000000000000000166302ce8af3611157856001612a06565b6040518263ffffffff1660e01b815260040161117591815260200190565b602060405180830381865afa158015611192573d6000803e3d6000fd5b505050506040513d601f19601f820116820180604052508101906111b69190612996565b6fffffffffffffffffffffffffffffffff8084168752608093841c60208801528116604087015267ffffffffffffffff81841c16606087015260c01c91850191909152509195945050505050565b6000806000806000876112175785611219565b865b9050600061122d8e8e8e8e8e8e8e8e610a9a565b5050905060006112408e8e8e8d876105fa565b50915050600a82901b6d03fffffffffffffffffffffff8001696508a63ffffffff168163ffffffff1614159350831561129857600061127e84612119565b905061128c818b8b8b61248b565b90975095506112ba9050565b60006112a58f8f8f610fcb565b90506112b3818b8b8b612589565b9097509550505b50505098509850985098945050505050565b60008060008060006112df8a8a8a611aad565b6040805160608e901b7fffffffffffffffffffffffffffffffffffffffff000000000000000000000000166020808301919091526034820184905260e88b811b60548401528a901b60578301528251603a818403018152605a83019093528251920191909120607a820181905262010012609a83015291925060009060ba01604080518083037fffffffffffffffffffffffffffffffffffffffffffffffffffffffffffffffe00181529082905280516020909101207f02ce8af30000000000000000000000000000000000000000000000000000000082526004820181905291506000907f000000000000000000000000000000000000000000000000000000000000000073ffffffffffffffffffffffffffffffffffffffff16906302ce8af390602401602060405180830381865afa158015611422573d6000803e3d6000fd5b505050506040513d601f19601f820116820180604052508101906114469190612996565b6fffffffffffffffffffffffffffffffff81169f67ffffffffffffffff608083901c169f5063ffffffff60c083901c169e5060e09190911c15159c509a5050505050505050505050565b6000806000806114a1898989611aad565b905060006114b0828888611b3b565b9050600081620100046040516020016114d3929190918252602082015260400190565b604080518083037fffffffffffffffffffffffffffffffffffffffffffffffffffffffffffffffe00181529082905280516020909101207f02ce8af30000000000000000000000000000000000000000000000000000000082526004820181905291506000907f000000000000000000000000000000000000000000000000000000000000000073ffffffffffffffffffffffffffffffffffffffff16906302ce8af390602401602060405180830381865afa158015611597573d6000803e3d6000fd5b505050506040513d601f19601f820116820180604052508101906115bb9190612996565b73ffffffffffffffffffffffffffffffffffffffff81169d63ffffffff60a083901c169d5060c09190911c9b509950505050505050505050565b60008060006116088989898989896112cc565b509194506000915061161d9050898989610fcb565b905061162b81878787612589565b949b909a50939850929650505050505050565b60008061164c858585611aad565b90506000816201000f60405160200161166f929190918252602082015260400190565b604080518083037fffffffffffffffffffffffffffffffffffffffffffffffffffffffffffffffe00181529082905280516020909101207f02ce8af30000000000000000000000000000000000000000000000000000000082526004820181905291506000907f000000000000000000000000000000000000000000000000000000000000000073ffffffffffffffffffffffffffffffffffffffff16906302ce8af390602401602060405180830381865afa158015611733573d6000803e3d6000fd5b505050506040513d601f19601f820116820180604052508101906117579190612996565b90506fffffffffffffffffffffffffffffffff811661177581611d3a565b98975050505050505050565b60008060008061179388888888610e25565b50905060006117a3888888610fcb565b90506117af81836120ee565b94509450945050509450945094915050565b60405160009073ffffffffffffffffffffffffffffffffffffffff83169082906117fd9083906201000c90602001918252602082015260400190565b604080518083037fffffffffffffffffffffffffffffffffffffffffffffffffffffffffffffffe00181529082905280516020909101207f02ce8af30000000000000000000000000000000000000000000000000000000082526004820181905291506000907f000000000000000000000000000000000000000000000000000000000000000073ffffffffffffffffffffffffffffffffffffffff16906302ce8af390602401602060405180830381865afa1580156118c1573d6000803e3d6000fd5b505050506040513d601f19601f82011682018060405250810190610e1c9190612996565b60006118f2848484610fcb565b51949350505050565b6040805160e081018252600080825260208201819052918101829052606081018290526080810182905260a0810182905260c081018290529061193f858585611aad565b905060008162010009604051602001611962929190918252602082015260400190565b604080518083037fffffffffffffffffffffffffffffffffffffffffffffffffffffffffffffffe00181529082905280516020909101207f02ce8af30000000000000000000000000000000000000000000000000000000082526004820181905291506000907f000000000000000000000000000000000000000000000000000000000000000073ffffffffffffffffffffffffffffffffffffffff16906302ce8af390602401602060405180830381865afa158015611a26573d6000803e3d6000fd5b505050506040513d601f19601f82011682018060405250810190611a4a9190612996565b60ff808216865261ffff600883901c8116602080890191909152601884901c83166040808a01919091529084901c9091166060880152603083901c82166080880152603883901c821660a08801529190911c1660c0850152509195945050505050565b60008273ffffffffffffffffffffffffffffffffffffffff168473ffffffffffffffffffffffffffffffffffffffff1610611ae757600080fd5b6040805173ffffffffffffffffffffffffffffffffffffffff8087166020830152851691810191909152606081018390526080015b6040516020818303038152906040528051906020012090509392505050565b6000838383604051602001611b1c93929190928352901515602083015260020b604082015260600190565b600080611b7b836020015184606001516125a9565b9050611b8b8184604001516125fe565b9392505050565b8351602080860151604080880151815180850189905273ffffffffffffffffffffffffffffffffffffffff8816818401529415156060860152600292830b608086015290910b60a084015263ffffffff841660c0808501919091528151808503909101815260e08401909152805191012061010082018190526201000561012083015260009182918291829061014001604080518083037fffffffffffffffffffffffffffffffffffffffffffffffffffffffffffffffe00181529082905280516020909101207f02ce8af30000000000000000000000000000000000000000000000000000000082526004820181905291506000907f000000000000000000000000000000000000000000000000000000000000000073ffffffffffffffffffffffffffffffffffffffff16906302ce8af390602401602060405180830381865afa158015611ce6573d6000803e3d6000fd5b505050506040513d601f19601f82011682018060405250810190611d0a9190612996565b6bffffffffffffffffffffffff81169b63ffffffff608083901c169b5060e09190911c9950975050505050505050565b6000620100026fffffffffffffffffffffffffffffffff831610801590611d8257506f0ffff5433e2b3d8211706e6102aa94726fffffffffffffffffffffffffffffffff8316105b611d8b57600080fd5b77ffffffffffffffffffffffffffffffff0000000000000000604083901b166fffffffffffffffffffffffffffffffff811160071b81811c67ffffffffffffffff811160061b90811c63ffffffff811160051b90811c61ffff811160041b90811c60ff8111600390811b91821c600f811160021b90811c918211600190811b92831c97908811961790941790921717909117171760808110611e3557607f810383901c9150611e3f565b80607f0383901b91505b908002607f81811c60ff83811c9190911c800280831c81831c1c800280841c81841c1c800280851c81851c1c800280861c81861c1c800280871c81871c1c800280881c81881c1c800280891c81891c1c8002808a1c818a1c1c8002808b1c818b1c1c8002808c1c818c1c1c8002808d1c818d1c1c8002808e1c9c81901c9c909c1c80029c8d901c9e9d7fffffffffffffffffffffffffffffffffffffffffffffffffffffffffffffff808f0160401b60c09190911c678000000000000000161760c19b909b1c674000000000000000169a909a1760c29990991c672000000000000000169890981760c39790971c671000000000000000169690961760c49590951c670800000000000000169490941760c59390931c670400000000000000169290921760c69190911c670200000000000000161760c79190911c670100000000000000161760c89190911c6680000000000000161760c99190911c6640000000000000161760ca9190911c6620000000000000161760cb9190911c6610000000000000161760cc9190911c6608000000000000161760cd9190911c66040000000000001617693627a301d71055774c8581027ffffffffffffffffffffffffffffffffffd709b7e5480fba5a50fed5e62ffc5568101608090811d906fdb2df09e81959a81455e260799a0632f8301901d600281810b9083900b1461207e57886fffffffffffffffffffffffffffffffff1661205a82612119565b6fffffffffffffffffffffffffffffffff1611156120785781612080565b80612080565b815b9998505050505050505050565b6fffffffffffffffffffffffffffffffff821667ffffffffffffffff82160260301c5b92915050565b806fffffffffffffffffffffffffffffffff811671ffffffffffffffffffffffffffffffffffff8216146120e957600080fd5b919050565b60008060006121018486606001516125a9565b925061210d8584612623565b93969095509293505050565b60007ffffffffffffffffffffffffffffffffffffffffffffffffffffffffffff5d892600283900b128015906121565750620cb14a600283900b13155b61215f57600080fd5b6000808360020b12612174578260020b61217c565b8260020b6000035b90506000816001166000036121a2577001000000000000000000000000000000006121b4565b6ffffcb933bd6fad37aa2d162d1a5940015b70ffffffffffffffffffffffffffffffffff16905060028216156121e8576ffff97272373d413259a46990580e213a0260801c5b6004821615612207576ffff2e50f5f656932ef12357cf3c7fdcc0260801c5b6008821615612226576fffe5caca7e10e4e61c3624eaa0941cd00260801c5b6010821615612245576fffcb9843d60f6159c9db58835c9266440260801c5b6020821615612264576fff973b41fa98c081472e6896dfb254c00260801c5b6040821615612283576fff2ea16466c96a3843ec78b326b528610260801c5b60808216156122a2576ffe5dee046a99a2a811c461f1969c30530260801c5b6101008216156122c2576ffcbe86c7900a88aedcffc83b479aa3a40260801c5b6102008216156122e2576ff987a7253ac413176f2b074cf7815e540260801c5b610400821615612302576ff3392b0822b70005940c7a398e4b70f30260801c5b610800821615612322576fe7159475a2c29b7443b29c7fa6e889d90260801c5b611000821615612342576fd097f3bdfd2022b8845ad8f792aa58250260801c5b612000821615612362576fa9f746462d870fdf8a65dc1f90e061e50260801c5b614000821615612382576f70d869a156d2a1b890bb3df62baf32f70260801c5b6180008216156123a2576f31be135f97d08fd981231505542fcfa60260801c5b620100008216156123c3576f09aa508b5b7a84e1c677de54f3e99bc90260801c5b620200008216156123e3576e5d6af8dedb81196699c329225ee6040260801c5b62040000821615612402576d2216e584f5fa1ea926041bedfe980260801c5b6208000082161561241f576b048a170391f7dc42444e8fa20260801c5b60008460020b131561245e57807fffffffffffffffffffffffffffffffffffffffffffffffffffffffffffffffff8161245a5761245a612a19565b0490505b68010000000000000000810615612476576001612479565b60005b60ff16604082901c0192505050919050565b600080600061249986612119565b905060006124a686612119565b90506000806124b5848861263f565b915091506000806124c6858a61263f565b915091506000806124d78e8c61263f565b91509150876fffffffffffffffffffffffffffffffff168e6fffffffffffffffffffffffffffffffff1610156125245760006125138487612a48565b995099505050505050505050612580565b866fffffffffffffffffffffffffffffffff168e6fffffffffffffffffffffffffffffffff161061256c576125598685612a48565b6000995099505050505050505050612580565b6125768683612a48565b6125138483612a48565b94509492505050565b60008061259c866000015186868661248b565b9150915094509492505050565b600066010000000000006fffffffffffffffffffffffffffffffff80851667ffffffffffffffff851683010290603082901c90811115610e1c576fffffffffffffffffffffffffffffffff93505050506120b0565b8082016fffffffffffffffffffffffffffffffff80841690821610156120b057600080fd5b60008061263484600001518461263f565b915091509250929050565b6fffffffffffffffffffffffffffffffff8281169082160260401c6000612666838561266f565b90509250929050565b60006fffffffffffffffffffffffffffffffff821677ffffffffffffffffffffffffffffffff0000000000000000604085901b16816126b0576126b0612a19565b049392505050565b803573ffffffffffffffffffffffffffffffffffffffff811681146120e957600080fd5b803580151581146120e957600080fd5b8035600281900b81146120e957600080fd5b600080600080600060a0868803121561271657600080fd5b61271f866126b8565b945061272d602087016126b8565b935060408601359250612742606087016126dc565b9150612750608087016126ec565b90509295509295909350565b60006020828403121561276e57600080fd5b5035919050565b60008060006060848603121561278a57600080fd5b612793846126b8565b92506127a1602085016126b8565b9150604084013590509250925092565b600080600080608085870312156127c757600080fd5b6127d0856126b8565b93506127de602086016126b8565b9250604085013591506127f3606086016126ec565b905092959194509250565b600080600080600080600080610100898b03121561281b57600080fd5b612824896126b8565b975061283260208a016126b8565b965061284060408a016126b8565b955060608901359450608089013563ffffffff8116811461286057600080fd5b935061286e60a08a016126dc565b925061287c60c08a016126ec565b915061288a60e08a016126ec565b90509295985092959890939650565b60008060008060008060c087890312156128b257600080fd5b6128bb876126b8565b95506128c9602088016126b8565b94506128d7604088016126b8565b9350606087013592506128ec608088016126ec565b91506128fa60a088016126ec565b90509295509295509295565b6000806040838503121561291957600080fd5b612922836126b8565b9150612666602084016126b8565b6000806000806080858703121561294657600080fd5b61294f856126b8565b935061295d602086016126b8565b925061296b604086016126b8565b9396929550929360600135925050565b60006020828403121561298d57600080fd5b611b8b826126b8565b6000602082840312156129a857600080fd5b5051919050565b7f4e487b7100000000000000000000000000000000000000000000000000000000600052601160045260246000fd5b67ffffffffffffffff8281168282160390808211156129ff576129ff6129af565b5092915050565b808201808211156120b0576120b06129af565b7f4e487b7100000000000000000000000000000000000000000000000000000000600052601260045260246000fd5b6fffffffffffffffffffffffffffffffff8281168282160390808211156129ff576129ff6129af56fea26469706673582212201f04442b9bd2601fb0b63609204d76051d84237d05afba26248f0ce9a490bf6264736f6c63430008130033",
  "linkReferences": {},
  "deployedLinkReferences": {}
}