{
  "_format": "hh-sol-artifact-1",
  "contractName": "SdexPolicy",
  "sourceName": "contracts/governance/SdexPolicy.sol",
  "abi": [
    {
      "inputs": [
        {
          "internalType": "address",
          "name": "dex",
          "type": "address"
        }
      ],
      "stateMutability": "nonpayable",
      "type": "constructor"
    },
    {
      "anonymous": false,
      "inputs": [
        {
          "indexed": false,
          "internalType": "address",
          "name": "minion",
          "type": "address"
        },
        {
          "indexed": false,
          "internalType": "string",
          "name": "reason",
          "type": "string"
        }
      ],
      "name": "SdexEmergencyHalt",
      "type": "event"
    },
    {
      "anonymous": false,
      "inputs": [
        {
          "indexed": false,
          "internalType": "address",
          "name": "ops",
          "type": "address"
        },
        {
          "indexed": false,
          "internalType": "address",
          "name": "treasury",
          "type": "address"
        },
        {
          "indexed": false,
          "internalType": "address",
          "name": "emergency",
          "type": "address"
        }
      ],
      "name": "SdexGovernAuthority",
      "type": "event"
    },
    {
      "anonymous": false,
      "inputs": [
        {
          "indexed": false,
          "internalType": "address",
          "name": "conduit",
          "type": "address"
        },
        {
          "indexed": false,
          "internalType": "string",
          "name": "reason",
          "type": "string"
        }
      ],
      "name": "SdexPolicyEmergency",
      "type": "event"
    },
    {
      "anonymous": false,
      "inputs": [
        {
          "indexed": false,
          "internalType": "address",
          "name": "conduit",
          "type": "address"
        },
        {
          "indexed": false,
          "internalType": "uint16",
          "name": "proxyPath",
          "type": "uint16"
        },
        {
          "components": [
            {
              "internalType": "bytes32",
              "name": "cmdFlags_",
              "type": "bytes32"
            },
            {
              "internalType": "uint32",
              "name": "mandateTime_",
              "type": "uint32"
            },
            {
              "internalType": "uint32",
              "name": "expiryOffset_",
              "type": "uint32"
            }
          ],
          "indexed": false,
          "internalType": "struct SdexPolicy.PolicyRule",
          "name": "",
          "type": "tuple"
        }
      ],
      "name": "SdexPolicyForce",
      "type": "event"
    },
    {
      "anonymous": false,
      "inputs": [
        {
          "indexed": false,
          "internalType": "address",
          "name": "conduit",
          "type": "address"
        },
        {
          "indexed": false,
          "internalType": "uint16",
          "name": "proxyPath",
          "type": "uint16"
        },
        {
          "components": [
            {
              "internalType": "bytes32",
              "name": "cmdFlags_",
              "type": "bytes32"
            },
            {
              "internalType": "uint32",
              "name": "mandateTime_",
              "type": "uint32"
            },
            {
              "internalType": "uint32",
              "name": "expiryOffset_",
              "type": "uint32"
            }
          ],
          "indexed": false,
          "internalType": "struct SdexPolicy.PolicyRule",
          "name": "",
          "type": "tuple"
        }
      ],
      "name": "SdexPolicySet",
      "type": "event"
    },
    {
      "anonymous": false,
      "inputs": [
        {
          "indexed": false,
          "internalType": "address",
          "name": "minion",
          "type": "address"
        },
        {
          "indexed": false,
          "internalType": "bytes",
          "name": "cmd",
          "type": "bytes"
        }
      ],
      "name": "SdexResolutionOps",
      "type": "event"
    },
    {
      "anonymous": false,
      "inputs": [
        {
          "indexed": false,
          "internalType": "address",
          "name": "minion",
          "type": "address"
        },
        {
          "indexed": false,
          "internalType": "bool",
          "name": "sudo",
          "type": "bool"
        },
        {
          "indexed": false,
          "internalType": "bytes",
          "name": "cmd",
          "type": "bytes"
        }
      ],
      "name": "SdexResolutionTreasury",
      "type": "event"
    },
    {
      "inputs": [],
      "name": "acceptsSdexAuthority",
      "outputs": [
        {
          "internalType": "bool",
          "name": "",
          "type": "bool"
        }
      ],
      "stateMutability": "pure",
      "type": "function"
    },
    {
      "inputs": [],
      "name": "dex_",
      "outputs": [
        {
          "internalType": "address",
          "name": "",
          "type": "address"
        }
      ],
      "stateMutability": "view",
      "type": "function"
    },
    {
      "inputs": [],
      "name": "emergencyAuthority_",
      "outputs": [
        {
          "internalType": "address",
          "name": "",
          "type": "address"
        }
      ],
      "stateMutability": "view",
      "type": "function"
    },
    {
      "inputs": [
        {
          "internalType": "address",
          "name": "minion",
          "type": "address"
        },
        {
          "internalType": "string",
          "name": "reason",
          "type": "string"
        }
      ],
      "name": "emergencyHalt",
      "outputs": [],
      "stateMutability": "nonpayable",
      "type": "function"
    },
    {
      "inputs": [
        {
          "internalType": "address",
          "name": "conduit",
          "type": "address"
        },
        {
          "internalType": "uint16",
          "name": "proxyPath",
          "type": "uint16"
        },
        {
          "internalType": "string",
          "name": "reason",
          "type": "string"
        }
      ],
      "name": "emergencyReset",
      "outputs": [],
      "stateMutability": "nonpayable",
      "type": "function"
    },
    {
      "inputs": [
        {
          "internalType": "address",
          "name": "conduit",
          "type": "address"
        },
        {
          "internalType": "uint16",
          "name": "proxyPath",
          "type": "uint16"
        },
        {
          "components": [
            {
              "internalType": "bytes32",
              "name": "cmdFlags_",
              "type": "bytes32"
            },
            {
              "internalType": "uint32",
              "name": "mandateTime_",
              "type": "uint32"
            },
            {
              "internalType": "uint32",
              "name": "expiryOffset_",
              "type": "uint32"
            }
          ],
          "internalType": "struct SdexPolicy.PolicyRule",
          "name": "policy",
          "type": "tuple"
        }
      ],
      "name": "forcePolicy",
      "outputs": [],
      "stateMutability": "nonpayable",
      "type": "function"
    },
    {
      "inputs": [
        {
          "internalType": "address",
          "name": "minion",
          "type": "address"
        },
        {
          "internalType": "uint16",
          "name": "proxyPath",
          "type": "uint16"
        },
        {
          "internalType": "bytes",
          "name": "cmd",
          "type": "bytes"
        }
      ],
      "name": "invokePolicy",
      "outputs": [],
      "stateMutability": "nonpayable",
      "type": "function"
    },
    {
      "inputs": [],
      "name": "opsAuthority_",
      "outputs": [
        {
          "internalType": "address",
          "name": "",
          "type": "address"
        }
      ],
      "stateMutability": "view",
      "type": "function"
    },
    {
      "inputs": [
        {
          "internalType": "address",
          "name": "minion",
          "type": "address"
        },
        {
          "internalType": "uint16",
          "name": "proxyPath",
          "type": "uint16"
        },
        {
          "internalType": "bytes",
          "name": "cmd",
          "type": "bytes"
        }
      ],
      "name": "opsResolution",
      "outputs": [],
      "stateMutability": "nonpayable",
      "type": "function"
    },
    {
      "inputs": [],
      "name": "ownedByGovernance",
      "outputs": [
        {
          "internalType": "bool",
          "name": "",
          "type": "bool"
        }
      ],
      "stateMutability": "view",
      "type": "function"
    },
    {
      "inputs": [
        {
          "components": [
            {
              "internalType": "bytes32",
              "name": "cmdFlags_",
              "type": "bytes32"
            },
            {
              "internalType": "uint32",
              "name": "mandateTime_",
              "type": "uint32"
            },
            {
              "internalType": "uint32",
              "name": "expiryOffset_",
              "type": "uint32"
            }
          ],
          "internalType": "struct SdexPolicy.PolicyRule",
          "name": "policy",
          "type": "tuple"
        },
        {
          "internalType": "bytes",
          "name": "protocolCmd",
          "type": "bytes"
        }
      ],
      "name": "passesPolicy",
      "outputs": [
        {
          "internalType": "bool",
          "name": "",
          "type": "bool"
        }
      ],
      "stateMutability": "view",
      "type": "function"
    },
    {
      "inputs": [
        {
          "internalType": "bytes32",
          "name": "",
          "type": "bytes32"
        }
      ],
      "name": "rules_",
      "outputs": [
        {
          "internalType": "bytes32",
          "name": "cmdFlags_",
          "type": "bytes32"
        },
        {
          "internalType": "uint32",
          "name": "mandateTime_",
          "type": "uint32"
        },
        {
          "internalType": "uint32",
          "name": "expiryOffset_",
          "type": "uint32"
        }
      ],
      "stateMutability": "view",
      "type": "function"
    },
    {
      "inputs": [
        {
          "internalType": "address",
          "name": "conduit",
          "type": "address"
        },
        {
          "internalType": "uint16",
          "name": "proxyPath",
          "type": "uint16"
        },
        {
          "components": [
            {
              "internalType": "bytes32",
              "name": "cmdFlags_",
              "type": "bytes32"
            },
            {
              "internalType": "uint32",
              "name": "mandateTime_",
              "type": "uint32"
            },
            {
              "internalType": "uint32",
              "name": "expiryOffset_",
              "type": "uint32"
            }
          ],
          "internalType": "struct SdexPolicy.PolicyRule",
          "name": "policy",
          "type": "tuple"
        }
      ],
      "name": "setPolicy",
      "outputs": [],
      "stateMutability": "nonpayable",
      "type": "function"
    },
    {
      "inputs": [
        {
          "internalType": "address",
          "name": "ops",
          "type": "address"
        },
        {
          "internalType": "address",
          "name": "treasury",
          "type": "address"
        },
        {
          "internalType": "address",
          "name": "emergency",
          "type": "address"
        }
      ],
      "name": "transferGovernance",
      "outputs": [],
      "stateMutability": "nonpayable",
      "type": "function"
    },
    {
      "inputs": [
        {
          "internalType": "address",
          "name": "ops",
          "type": "address"
        },
        {
          "internalType": "address",
          "name": "treasury",
          "type": "address"
        },
        {
          "internalType": "address",
          "name": "emergency",
          "type": "address"
        }
      ],
      "name": "transferOwnership",
      "outputs": [],
      "stateMutability": "nonpayable",
      "type": "function"
    },
    {
      "inputs": [],
      "name": "treasuryAuthority_",
      "outputs": [
        {
          "internalType": "address",
          "name": "",
          "type": "address"
        }
      ],
      "stateMutability": "view",
      "type": "function"
    },
    {
      "inputs": [
        {
          "internalType": "address",
          "name": "minion",
          "type": "address"
        },
        {
          "internalType": "uint16",
          "name": "proxyPath",
          "type": "uint16"
        },
        {
          "internalType": "bytes",
          "name": "cmd",
          "type": "bytes"
        },
        {
          "internalType": "bool",
          "name": "sudo",
          "type": "bool"
        }
      ],
      "name": "treasuryResolution",
      "outputs": [],
      "stateMutability": "nonpayable",
      "type": "function"
    }
  ],
  "bytecode": "0x60a06040523480156200001157600080fd5b5060405162001c8938038062001c8983398101604081905262000034916200013c565b6001600160a01b03811615801590620000ad5750806001600160a01b031663b8d25de96040518163ffffffff1660e01b8152600401602060405180830381865afa15801562000087573d6000803e3d6000fd5b505050506040513d601f19601f82011682018060405250810190620000ad91906200016e565b620000fe5760405162461bcd60e51b815260206004820152601360248201527f496e76616c696420536465785377617044657800000000000000000000000000604482015260640160405180910390fd5b6001600160a01b031660805260008054336001600160a01b031991821681179092556001805482168317905560028054909116909117905562000192565b6000602082840312156200014f57600080fd5b81516001600160a01b03811681146200016757600080fd5b9392505050565b6000602082840312156200018157600080fd5b815180151581146200016757600080fd5b608051611adb620001ae60003960006102290152611adb6000f3fe608060405234801561001057600080fd5b506004361061011b5760003560e01c8063700a618e116100b257806393b890df11610081578063c346643711610066578063c346643714610291578063cdb3453c146102b6578063e7db7f9f146102c957600080fd5b806393b890df1461026b578063b30017f41461027e57600080fd5b8063700a618e146101fe57806370ba15291461021157806387834a0e146102245780638e6b5b331461024b57600080fd5b8063456a3d6f116100ee578063456a3d6f146101a55780636573b80f146101b85780636716c1cc146101d85780636b760a94146101eb57600080fd5b80631882ad621461012057806323de6f87146101355780632dc2eff81461017f578063380fb91f14610192575b600080fd5b61013361012e3660046114d9565b610324565b005b6000546101559073ffffffffffffffffffffffffffffffffffffffff1681565b60405173ffffffffffffffffffffffffffffffffffffffff90911681526020015b60405180910390f35b61013361018d36600461153e565b61051b565b60015b6040519015158152602001610176565b6101956101b3366004611648565b610674565b6002546101559073ffffffffffffffffffffffffffffffffffffffff1681565b6101336101e6366004611683565b6106d2565b6101336101f9366004611701565b610821565b61013361020c366004611701565b610b02565b61013361021f36600461153e565b610d4f565b6101557f000000000000000000000000000000000000000000000000000000000000000081565b6001546101559073ffffffffffffffffffffffffffffffffffffffff1681565b610133610279366004611744565b610ee2565b61013361028c36600461153e565b611006565b6002546101959074010000000000000000000000000000000000000000900460ff1681565b6101336102c4366004611744565b611147565b6103026102d73660046117b1565b6003602052600090815260409020805460019091015463ffffffff8082169164010000000090041683565b6040805193845263ffffffff9283166020850152911690820152606001610176565b60025473ffffffffffffffffffffffffffffffffffffffff1633146103aa576040517f08c379a000000000000000000000000000000000000000000000000000000000815260206004820152601360248201527f456d657267656e637920417574686f726974790000000000000000000000000060448201526064015b60405180910390fd5b7f6e4f2a9957f35ac058bb0e615d2158648035673864883b5ce6cf4f91b0ca64aa8383836040516103dd93929190611813565b60405180910390a160006103f16000611360565b6040517f13fd34f400000000000000000000000000000000000000000000000000000000815290915073ffffffffffffffffffffffffffffffffffffffff8516906313fd34f49061044c906003908590600190600401611843565b600060405180830381600087803b15801561046657600080fd5b505af115801561047a573d6000803e3d6000fd5b505050506104886001611391565b6040517f13fd34f400000000000000000000000000000000000000000000000000000000815290915073ffffffffffffffffffffffffffffffffffffffff8516906313fd34f4906104e3906003908590600190600401611843565b600060405180830381600087803b1580156104fd57600080fd5b505af1158015610511573d6000803e3d6000fd5b5050505050505050565b60005473ffffffffffffffffffffffffffffffffffffffff16331480610558575060015473ffffffffffffffffffffffffffffffffffffffff1633145b8061057a575060025473ffffffffffffffffffffffffffffffffffffffff1633145b6105e0576040517f08c379a000000000000000000000000000000000000000000000000000000000815260206004820152600d60248201527f4f707320417574686f726974790000000000000000000000000000000000000060448201526064016103a1565b7f46e4ae9c268bab1c1b005d82854f6a0251eead125d1fdfa5747ec4594a6e41f384838360405161061393929190611813565b60405180910390a16040517f13fd34f400000000000000000000000000000000000000000000000000000000815273ffffffffffffffffffffffffffffffffffffffff8516906313fd34f4906104e3908690869086906000906004016118c4565b600061067f846113b0565b63ffffffff1661068d6113cc565b63ffffffff16106106a0575060006106cb565b60008383601f8181106106b5576106b56118f5565b875192013560f81c9250506001821b1615159150505b9392505050565b60015473ffffffffffffffffffffffffffffffffffffffff163314610753576040517f08c379a000000000000000000000000000000000000000000000000000000000815260206004820152601260248201527f547265617375727920417574686f72697479000000000000000000000000000060448201526064016103a1565b7f806becf6b815f933757090b13cea914d31fd49d99167127925bbdcf63d427775858285856040516107889493929190611924565b60405180910390a16040517f13fd34f400000000000000000000000000000000000000000000000000000000815273ffffffffffffffffffffffffffffffffffffffff8616906313fd34f4906107e89087908790879087906004016118c4565b600060405180830381600087803b15801561080257600080fd5b505af1158015610816573d6000803e3d6000fd5b505050505050505050565b60025474010000000000000000000000000000000000000000900460ff16156108a6576040517f08c379a000000000000000000000000000000000000000000000000000000000815260206004820152601b60248201527f4f776e656420627920676f7665726e616e636520616c7265616479000000000060448201526064016103a1565b60015473ffffffffffffffffffffffffffffffffffffffff163314610927576040517f08c379a000000000000000000000000000000000000000000000000000000000815260206004820152601260248201527f547265617375727920417574686f72697479000000000000000000000000000060448201526064016103a1565b73ffffffffffffffffffffffffffffffffffffffff83166109a4576040517f08c379a000000000000000000000000000000000000000000000000000000000815260206004820152601060248201527f6e6f6e2d7a65726f20616464726573730000000000000000000000000000000060448201526064016103a1565b73ffffffffffffffffffffffffffffffffffffffff8216610a21576040517f08c379a000000000000000000000000000000000000000000000000000000000815260206004820152601060248201527f6e6f6e2d7a65726f20616464726573730000000000000000000000000000000060448201526064016103a1565b73ffffffffffffffffffffffffffffffffffffffff8116610a9e576040517f08c379a000000000000000000000000000000000000000000000000000000000815260206004820152601060248201527f6e6f6e2d7a65726f20616464726573730000000000000000000000000000000060448201526064016103a1565b6000805473ffffffffffffffffffffffffffffffffffffffff9485167fffffffffffffffffffffffff000000000000000000000000000000000000000091821617909155600180549385169382169390931790925560028054919093169116179055565b60015473ffffffffffffffffffffffffffffffffffffffff163314610b83576040517f08c379a000000000000000000000000000000000000000000000000000000000815260206004820152601260248201527f547265617375727920417574686f72697479000000000000000000000000000060448201526064016103a1565b6000805473ffffffffffffffffffffffffffffffffffffffff8086167fffffffffffffffffffffffff0000000000000000000000000000000000000000928316178355600180548683169084168117909155600280549286169290931691909117909155604080517f0e18b68100000000000000000000000000000000000000000000000000000000815290519192630e18b6819260048084019382900301818387803b158015610c3357600080fd5b505af1158015610c47573d6000803e3d6000fd5b505050508273ffffffffffffffffffffffffffffffffffffffff16630e18b6816040518163ffffffff1660e01b8152600401600060405180830381600087803b158015610c9357600080fd5b505af1158015610ca7573d6000803e3d6000fd5b505050508073ffffffffffffffffffffffffffffffffffffffff16630e18b6816040518163ffffffff1660e01b8152600401600060405180830381600087803b158015610cf357600080fd5b505af1158015610d07573d6000803e3d6000fd5b5050600280547fffffffffffffffffffffff00ffffffffffffffffffffffffffffffffffffffff16740100000000000000000000000000000000000000001790555050505050565b6040805133602082015261ffff851691810191909152600090606001604080517fffffffffffffffffffffffffffffffffffffffffffffffffffffffffffffffe08184030181528282528051602091820120600081815260038352839020606085018452805485526001015463ffffffff808216938601939093526401000000009004909116918301919091529150610de9818585610674565b610e4f576040517f08c379a000000000000000000000000000000000000000000000000000000000815260206004820152601060248201527f506f6c69637920617574686f726974790000000000000000000000000000000060448201526064016103a1565b6040517f13fd34f400000000000000000000000000000000000000000000000000000000815273ffffffffffffffffffffffffffffffffffffffff8716906313fd34f490610ea8908890889088906000906004016118c4565b600060405180830381600087803b158015610ec257600080fd5b505af1158015610ed6573d6000803e3d6000fd5b50505050505050505050565b60015473ffffffffffffffffffffffffffffffffffffffff163314610f63576040517f08c379a000000000000000000000000000000000000000000000000000000000815260206004820152601260248201527f547265617375727920417574686f72697479000000000000000000000000000060448201526064016103a1565b6040805173ffffffffffffffffffffffffffffffffffffffff851660208083019190915261ffff85168284015282518083038401815260609092018352815191810191909120600081815260039092529190208290610fc28282611966565b9050507fbfcb07db72adca66366270ca1bfcfe146f69cfef671cd2d3010b3b54bf58b325848484604051610ff8939291906119d0565b60405180910390a150505050565b60025473ffffffffffffffffffffffffffffffffffffffff163314611087576040517f08c379a000000000000000000000000000000000000000000000000000000000815260206004820152601360248201527f456d657267656e637920417574686f726974790000000000000000000000000060448201526064016103a1565b6040805173ffffffffffffffffffffffffffffffffffffffff861660208083019190915261ffff86168284015282518083038401815260609092018084528251928201929092206000818152600390925292812090815560010180547fffffffffffffffffffffffffffffffffffffffffffffffff00000000000000001690557f106b0576a23aca2f4a191f06e47b61fb10f80fc6f73e37b744e01d292b2681999061113890879086908690611813565b60405180910390a15050505050565b60005473ffffffffffffffffffffffffffffffffffffffff16331480611184575060015473ffffffffffffffffffffffffffffffffffffffff1633145b806111a6575060025473ffffffffffffffffffffffffffffffffffffffff1633145b61120c576040517f08c379a000000000000000000000000000000000000000000000000000000000815260206004820152600d60248201527f4f707320417574686f726974790000000000000000000000000000000000000060448201526064016103a1565b6040805173ffffffffffffffffffffffffffffffffffffffff851660208083019190915261ffff85168284015282518083038401815260608301808552815191830191909120600081815260039093529184902060c0840190945283548152600184015463ffffffff80821660808601526401000000009091041660a09093019290925291906112aa906112a536869003860186611a3e565b6113eb565b611310576040517f08c379a000000000000000000000000000000000000000000000000000000000815260206004820152601560248201527f496c6c6567616c20706f6c69637920757064617465000000000000000000000060448201526064016103a1565b6000828152600360205260409020839061132a8282611966565b9050507f5549af2835bb4798b7b332a2abf25802d8790acfa4d0aa3c6dc1260984e3a867858585604051611138939291906119d0565b60408051601660208201528215159181019190915260609081015b6040516020818303038152906040529050919050565b604080516017602082015282151591810191909152606090810161137b565b6000816040015182602001516113c69190611a5a565b92915050565b60004263ffffffff8111156113e65763ffffffff91505090565b919050565b60006113f78383611415565b1561140c576114058361144a565b90506113c6565b50600192915050565b80518251602080850151908401516000931990921615159163ffffffff91821691161081806114415750805b95945050505050565b6000816020015163ffffffff1661145f6113cc565b63ffffffff161192915050565b803573ffffffffffffffffffffffffffffffffffffffff811681146113e657600080fd5b60008083601f8401126114a257600080fd5b50813567ffffffffffffffff8111156114ba57600080fd5b6020830191508360208285010111156114d257600080fd5b9250929050565b6000806000604084860312156114ee57600080fd5b6114f78461146c565b9250602084013567ffffffffffffffff81111561151357600080fd5b61151f86828701611490565b9497909650939450505050565b803561ffff811681146113e657600080fd5b6000806000806060858703121561155457600080fd5b61155d8561146c565b935061156b6020860161152c565b9250604085013567ffffffffffffffff81111561158757600080fd5b61159387828801611490565b95989497509550505050565b63ffffffff811681146115b157600080fd5b50565b6000606082840312156115c657600080fd5b6040516060810181811067ffffffffffffffff82111715611610577f4e487b7100000000000000000000000000000000000000000000000000000000600052604160045260246000fd5b6040528235815290508060208301356116288161159f565b6020820152604083013561163b8161159f565b6040919091015292915050565b60008060006080848603121561165d57600080fd5b61166785856115b4565b9250606084013567ffffffffffffffff81111561151357600080fd5b60008060008060006080868803121561169b57600080fd5b6116a48661146c565b94506116b26020870161152c565b9350604086013567ffffffffffffffff8111156116ce57600080fd5b6116da88828901611490565b909450925050606086013580151581146116f357600080fd5b809150509295509295909350565b60008060006060848603121561171657600080fd5b61171f8461146c565b925061172d6020850161146c565b915061173b6040850161146c565b90509250925092565b600080600083850360a081121561175a57600080fd5b6117638561146c565b93506117716020860161152c565b925060607fffffffffffffffffffffffffffffffffffffffffffffffffffffffffffffffc0820112156117a357600080fd5b506040840190509250925092565b6000602082840312156117c357600080fd5b5035919050565b8183528181602085013750600060208284010152600060207fffffffffffffffffffffffffffffffffffffffffffffffffffffffffffffffe0601f840116840101905092915050565b73ffffffffffffffffffffffffffffffffffffffff841681526040602082015260006114416040830184866117ca565b61ffff8416815260006020606081840152845180606085015260005b8181101561187b5786810183015185820160800152820161185f565b5060006080828601015260807fffffffffffffffffffffffffffffffffffffffffffffffffffffffffffffffe0601f830116850101925050508215156040830152949350505050565b61ffff851681526060602082015260006118e26060830185876117ca565b9050821515604083015295945050505050565b7f4e487b7100000000000000000000000000000000000000000000000000000000600052603260045260246000fd5b73ffffffffffffffffffffffffffffffffffffffff85168152831515602082015260606040820152600061195c6060830184866117ca565b9695505050505050565b8135815560018101602083013561197c8161159f565b8154604085013561198c8161159f565b67ffffffff000000008160201b1663ffffffff84167fffffffffffffffffffffffffffffffffffffffffffffffff0000000000000000841617178455505050505050565b600060a08201905073ffffffffffffffffffffffffffffffffffffffff8516825261ffff84166020830152823560408301526020830135611a108161159f565b63ffffffff9081166060840152604084013590611a2c8261159f565b80821660808501525050949350505050565b600060608284031215611a5057600080fd5b6106cb83836115b4565b63ffffffff818116838216019080821115611a9e577f4e487b7100000000000000000000000000000000000000000000000000000000600052601160045260246000fd5b509291505056fea26469706673582212207cd7a264a3bc97ec1268c1206752ee8703137a9f2e3f84066bd1af32205abd2064736f6c63430008130033",
  "linkReferences": {},
  "deployedLinkReferences": {}
}