{
    "_format": "hh-sol-artifact-1",
    "contractName": "SdexQuery",
    "address": "0x1dff4Ff93dF17Ad6F44E23368341CcFb8fB8B675",
    "sourceName": "contracts/lens/SdexQuery.sol",
    "abi": [
        {
            "inputs": [
                {
                    "internalType": "address",
                    "name": "dex",
                    "type": "address"
                }
            ],
            "stateMutability": "nonpayable",
            "type": "constructor"
        },
        {
            "inputs": [],
            "name": "dex_",
            "outputs": [
                {
                    "internalType": "address",
                    "name": "",
                    "type": "address"
                }
            ],
            "stateMutability": "view",
            "type": "function"
        },
        {
            "inputs": [
                {
                    "internalType": "address",
                    "name": "owner",
                    "type": "address"
                },
                {
                    "internalType": "address",
                    "name": "base",
                    "type": "address"
                },
                {
                    "internalType": "address",
                    "name": "quote",
                    "type": "address"
                },
                {
                    "internalType": "uint256",
                    "name": "poolIdx",
                    "type": "uint256"
                }
            ],
            "name": "queryAmbientPosition",
            "outputs": [
                {
                    "internalType": "uint128",
                    "name": "seeds",
                    "type": "uint128"
                },
                {
                    "internalType": "uint32",
                    "name": "timestamp",
                    "type": "uint32"
                }
            ],
            "stateMutability": "view",
            "type": "function"
        },
        {
            "inputs": [
                {
                    "internalType": "address",
                    "name": "owner",
                    "type": "address"
                },
                {
                    "internalType": "address",
                    "name": "base",
                    "type": "address"
                },
                {
                    "internalType": "address",
                    "name": "quote",
                    "type": "address"
                },
                {
                    "internalType": "uint256",
                    "name": "poolIdx",
                    "type": "uint256"
                }
            ],
            "name": "queryAmbientTokens",
            "outputs": [
                {
                    "internalType": "uint128",
                    "name": "liq",
                    "type": "uint128"
                },
                {
                    "internalType": "uint128",
                    "name": "baseQty",
                    "type": "uint128"
                },
                {
                    "internalType": "uint128",
                    "name": "quoteQty",
                    "type": "uint128"
                }
            ],
            "stateMutability": "view",
            "type": "function"
        },
        {
            "inputs": [
                {
                    "internalType": "address",
                    "name": "owner",
                    "type": "address"
                },
                {
                    "internalType": "address",
                    "name": "base",
                    "type": "address"
                },
                {
                    "internalType": "address",
                    "name": "quote",
                    "type": "address"
                },
                {
                    "internalType": "uint256",
                    "name": "poolIdx",
                    "type": "uint256"
                },
                {
                    "internalType": "int24",
                    "name": "lowerTick",
                    "type": "int24"
                },
                {
                    "internalType": "int24",
                    "name": "upperTick",
                    "type": "int24"
                }
            ],
            "name": "queryConcRewards",
            "outputs": [
                {
                    "internalType": "uint128",
                    "name": "liqRewards",
                    "type": "uint128"
                },
                {
                    "internalType": "uint128",
                    "name": "baseRewards",
                    "type": "uint128"
                },
                {
                    "internalType": "uint128",
                    "name": "quoteRewards",
                    "type": "uint128"
                }
            ],
            "stateMutability": "view",
            "type": "function"
        },
        {
            "inputs": [
                {
                    "internalType": "address",
                    "name": "base",
                    "type": "address"
                },
                {
                    "internalType": "address",
                    "name": "quote",
                    "type": "address"
                },
                {
                    "internalType": "uint256",
                    "name": "poolIdx",
                    "type": "uint256"
                }
            ],
            "name": "queryCurve",
            "outputs": [
                {
                    "components": [
                        {
                            "internalType": "uint128",
                            "name": "priceRoot_",
                            "type": "uint128"
                        },
                        {
                            "internalType": "uint128",
                            "name": "ambientSeeds_",
                            "type": "uint128"
                        },
                        {
                            "internalType": "uint128",
                            "name": "concLiq_",
                            "type": "uint128"
                        },
                        {
                            "internalType": "uint64",
                            "name": "seedDeflator_",
                            "type": "uint64"
                        },
                        {
                            "internalType": "uint64",
                            "name": "concGrowth_",
                            "type": "uint64"
                        }
                    ],
                    "internalType": "struct CurveMath.CurveState",
                    "name": "curve",
                    "type": "tuple"
                }
            ],
            "stateMutability": "view",
            "type": "function"
        },
        {
            "inputs": [
                {
                    "internalType": "address",
                    "name": "base",
                    "type": "address"
                },
                {
                    "internalType": "address",
                    "name": "quote",
                    "type": "address"
                },
                {
                    "internalType": "uint256",
                    "name": "poolIdx",
                    "type": "uint256"
                }
            ],
            "name": "queryCurveTick",
            "outputs": [
                {
                    "internalType": "int24",
                    "name": "",
                    "type": "int24"
                }
            ],
            "stateMutability": "view",
            "type": "function"
        },
        {
            "inputs": [
                {
                    "internalType": "address",
                    "name": "base",
                    "type": "address"
                },
                {
                    "internalType": "address",
                    "name": "quote",
                    "type": "address"
                },
                {
                    "internalType": "uint256",
                    "name": "poolIdx",
                    "type": "uint256"
                },
                {
                    "internalType": "bool",
                    "name": "isBid",
                    "type": "bool"
                },
                {
                    "internalType": "int24",
                    "name": "tick",
                    "type": "int24"
                }
            ],
            "name": "queryKnockoutMerkle",
            "outputs": [
                {
                    "internalType": "uint160",
                    "name": "root",
                    "type": "uint160"
                },
                {
                    "internalType": "uint32",
                    "name": "pivot",
                    "type": "uint32"
                },
                {
                    "internalType": "uint64",
                    "name": "fee",
                    "type": "uint64"
                }
            ],
            "stateMutability": "view",
            "type": "function"
        },
        {
            "inputs": [
                {
                    "internalType": "address",
                    "name": "base",
                    "type": "address"
                },
                {
                    "internalType": "address",
                    "name": "quote",
                    "type": "address"
                },
                {
                    "internalType": "uint256",
                    "name": "poolIdx",
                    "type": "uint256"
                },
                {
                    "internalType": "bool",
                    "name": "isBid",
                    "type": "bool"
                },
                {
                    "internalType": "int24",
                    "name": "tick",
                    "type": "int24"
                }
            ],
            "name": "queryKnockoutPivot",
            "outputs": [
                {
                    "internalType": "uint96",
                    "name": "lots",
                    "type": "uint96"
                },
                {
                    "internalType": "uint32",
                    "name": "pivot",
                    "type": "uint32"
                },
                {
                    "internalType": "uint16",
                    "name": "range",
                    "type": "uint16"
                }
            ],
            "stateMutability": "view",
            "type": "function"
        },
        {
            "inputs": [
                {
                    "internalType": "address",
                    "name": "owner",
                    "type": "address"
                },
                {
                    "internalType": "address",
                    "name": "base",
                    "type": "address"
                },
                {
                    "internalType": "address",
                    "name": "quote",
                    "type": "address"
                },
                {
                    "internalType": "uint256",
                    "name": "poolIdx",
                    "type": "uint256"
                },
                {
                    "internalType": "uint32",
                    "name": "pivot",
                    "type": "uint32"
                },
                {
                    "internalType": "bool",
                    "name": "isBid",
                    "type": "bool"
                },
                {
                    "internalType": "int24",
                    "name": "lowerTick",
                    "type": "int24"
                },
                {
                    "internalType": "int24",
                    "name": "upperTick",
                    "type": "int24"
                }
            ],
            "name": "queryKnockoutPos",
            "outputs": [
                {
                    "internalType": "uint96",
                    "name": "lots",
                    "type": "uint96"
                },
                {
                    "internalType": "uint64",
                    "name": "mileage",
                    "type": "uint64"
                },
                {
                    "internalType": "uint32",
                    "name": "timestamp",
                    "type": "uint32"
                }
            ],
            "stateMutability": "view",
            "type": "function"
        },
        {
            "inputs": [
                {
                    "internalType": "address",
                    "name": "owner",
                    "type": "address"
                },
                {
                    "internalType": "address",
                    "name": "base",
                    "type": "address"
                },
                {
                    "internalType": "address",
                    "name": "quote",
                    "type": "address"
                },
                {
                    "internalType": "uint256",
                    "name": "poolIdx",
                    "type": "uint256"
                },
                {
                    "internalType": "uint32",
                    "name": "pivot",
                    "type": "uint32"
                },
                {
                    "internalType": "bool",
                    "name": "isBid",
                    "type": "bool"
                },
                {
                    "internalType": "int24",
                    "name": "lowerTick",
                    "type": "int24"
                },
                {
                    "internalType": "int24",
                    "name": "upperTick",
                    "type": "int24"
                }
            ],
            "name": "queryKnockoutTokens",
            "outputs": [
                {
                    "internalType": "uint128",
                    "name": "liq",
                    "type": "uint128"
                },
                {
                    "internalType": "uint128",
                    "name": "baseQty",
                    "type": "uint128"
                },
                {
                    "internalType": "uint128",
                    "name": "quoteQty",
                    "type": "uint128"
                },
                {
                    "internalType": "bool",
                    "name": "knockedOut",
                    "type": "bool"
                }
            ],
            "stateMutability": "view",
            "type": "function"
        },
        {
            "inputs": [
                {
                    "internalType": "address",
                    "name": "base",
                    "type": "address"
                },
                {
                    "internalType": "address",
                    "name": "quote",
                    "type": "address"
                },
                {
                    "internalType": "uint256",
                    "name": "poolIdx",
                    "type": "uint256"
                },
                {
                    "internalType": "int24",
                    "name": "tick",
                    "type": "int24"
                }
            ],
            "name": "queryLevel",
            "outputs": [
                {
                    "internalType": "uint96",
                    "name": "bidLots",
                    "type": "uint96"
                },
                {
                    "internalType": "uint96",
                    "name": "askLots",
                    "type": "uint96"
                },
                {
                    "internalType": "uint64",
                    "name": "odometer",
                    "type": "uint64"
                }
            ],
            "stateMutability": "view",
            "type": "function"
        },
        {
            "inputs": [
                {
                    "internalType": "address",
                    "name": "base",
                    "type": "address"
                },
                {
                    "internalType": "address",
                    "name": "quote",
                    "type": "address"
                },
                {
                    "internalType": "uint256",
                    "name": "poolIdx",
                    "type": "uint256"
                }
            ],
            "name": "queryLiquidity",
            "outputs": [
                {
                    "internalType": "uint128",
                    "name": "",
                    "type": "uint128"
                }
            ],
            "stateMutability": "view",
            "type": "function"
        },
        {
            "inputs": [],
            "name": "queryLpTokenDeployerAddress",
            "outputs": [
                {
                    "internalType": "address",
                    "name": "",
                    "type": "address"
                }
            ],
            "stateMutability": "view",
            "type": "function"
        },
        {
            "inputs": [
                {
                    "internalType": "address",
                    "name": "base",
                    "type": "address"
                },
                {
                    "internalType": "address",
                    "name": "quote",
                    "type": "address"
                },
                {
                    "internalType": "uint256",
                    "name": "poolIdx",
                    "type": "uint256"
                }
            ],
            "name": "queryPoolLpTokenAddress",
            "outputs": [
                {
                    "internalType": "address",
                    "name": "",
                    "type": "address"
                }
            ],
            "stateMutability": "view",
            "type": "function"
        },
        {
            "inputs": [
                {
                    "internalType": "address",
                    "name": "base",
                    "type": "address"
                },
                {
                    "internalType": "address",
                    "name": "quote",
                    "type": "address"
                },
                {
                    "internalType": "uint256",
                    "name": "poolIdx",
                    "type": "uint256"
                }
            ],
            "name": "queryPoolParams",
            "outputs": [
                {
                    "components": [
                        {
                            "internalType": "uint8",
                            "name": "schema_",
                            "type": "uint8"
                        },
                        {
                            "internalType": "uint16",
                            "name": "feeRate_",
                            "type": "uint16"
                        },
                        {
                            "internalType": "uint8",
                            "name": "protocolTake_",
                            "type": "uint8"
                        },
                        {
                            "internalType": "uint16",
                            "name": "tickSize_",
                            "type": "uint16"
                        },
                        {
                            "internalType": "uint8",
                            "name": "jitThresh_",
                            "type": "uint8"
                        },
                        {
                            "internalType": "uint8",
                            "name": "knockoutBits_",
                            "type": "uint8"
                        },
                        {
                            "internalType": "uint8",
                            "name": "oracleFlags_",
                            "type": "uint8"
                        }
                    ],
                    "internalType": "struct PoolSpecs.Pool",
                    "name": "pool",
                    "type": "tuple"
                }
            ],
            "stateMutability": "view",
            "type": "function"
        },
        {
            "inputs": [
                {
                    "internalType": "uint256",
                    "name": "poolIdx",
                    "type": "uint256"
                }
            ],
            "name": "queryPoolTemplate",
            "outputs": [
                {
                    "components": [
                        {
                            "internalType": "uint8",
                            "name": "schema_",
                            "type": "uint8"
                        },
                        {
                            "internalType": "uint16",
                            "name": "feeRate_",
                            "type": "uint16"
                        },
                        {
                            "internalType": "uint8",
                            "name": "protocolTake_",
                            "type": "uint8"
                        },
                        {
                            "internalType": "uint16",
                            "name": "tickSize_",
                            "type": "uint16"
                        },
                        {
                            "internalType": "uint8",
                            "name": "jitThresh_",
                            "type": "uint8"
                        },
                        {
                            "internalType": "uint8",
                            "name": "knockoutBits_",
                            "type": "uint8"
                        },
                        {
                            "internalType": "uint8",
                            "name": "oracleFlags_",
                            "type": "uint8"
                        }
                    ],
                    "internalType": "struct PoolSpecs.Pool",
                    "name": "pool",
                    "type": "tuple"
                }
            ],
            "stateMutability": "view",
            "type": "function"
        },
        {
            "inputs": [
                {
                    "internalType": "address",
                    "name": "base",
                    "type": "address"
                },
                {
                    "internalType": "address",
                    "name": "quote",
                    "type": "address"
                },
                {
                    "internalType": "uint256",
                    "name": "poolIdx",
                    "type": "uint256"
                }
            ],
            "name": "queryPrice",
            "outputs": [
                {
                    "internalType": "uint128",
                    "name": "",
                    "type": "uint128"
                }
            ],
            "stateMutability": "view",
            "type": "function"
        },
        {
            "inputs": [
                {
                    "internalType": "address",
                    "name": "token",
                    "type": "address"
                }
            ],
            "name": "queryProtocolAccum",
            "outputs": [
                {
                    "internalType": "uint128",
                    "name": "",
                    "type": "uint128"
                }
            ],
            "stateMutability": "view",
            "type": "function"
        },
        {
            "inputs": [
                {
                    "internalType": "address",
                    "name": "owner",
                    "type": "address"
                },
                {
                    "internalType": "address",
                    "name": "base",
                    "type": "address"
                },
                {
                    "internalType": "address",
                    "name": "quote",
                    "type": "address"
                },
                {
                    "internalType": "uint256",
                    "name": "poolIdx",
                    "type": "uint256"
                },
                {
                    "internalType": "int24",
                    "name": "lowerTick",
                    "type": "int24"
                },
                {
                    "internalType": "int24",
                    "name": "upperTick",
                    "type": "int24"
                }
            ],
            "name": "queryRangePosition",
            "outputs": [
                {
                    "internalType": "uint128",
                    "name": "liq",
                    "type": "uint128"
                },
                {
                    "internalType": "uint64",
                    "name": "fee",
                    "type": "uint64"
                },
                {
                    "internalType": "uint32",
                    "name": "timestamp",
                    "type": "uint32"
                },
                {
                    "internalType": "bool",
                    "name": "atomic",
                    "type": "bool"
                }
            ],
            "stateMutability": "view",
            "type": "function"
        },
        {
            "inputs": [
                {
                    "internalType": "address",
                    "name": "owner",
                    "type": "address"
                },
                {
                    "internalType": "address",
                    "name": "base",
                    "type": "address"
                },
                {
                    "internalType": "address",
                    "name": "quote",
                    "type": "address"
                },
                {
                    "internalType": "uint256",
                    "name": "poolIdx",
                    "type": "uint256"
                },
                {
                    "internalType": "int24",
                    "name": "lowerTick",
                    "type": "int24"
                },
                {
                    "internalType": "int24",
                    "name": "upperTick",
                    "type": "int24"
                }
            ],
            "name": "queryRangeTokens",
            "outputs": [
                {
                    "internalType": "uint128",
                    "name": "liq",
                    "type": "uint128"
                },
                {
                    "internalType": "uint128",
                    "name": "baseQty",
                    "type": "uint128"
                },
                {
                    "internalType": "uint128",
                    "name": "quoteQty",
                    "type": "uint128"
                }
            ],
            "stateMutability": "view",
            "type": "function"
        },
        {
            "inputs": [
                {
                    "internalType": "address",
                    "name": "owner",
                    "type": "address"
                },
                {
                    "internalType": "address",
                    "name": "token",
                    "type": "address"
                }
            ],
            "name": "querySurplus",
            "outputs": [
                {
                    "internalType": "uint128",
                    "name": "surplus",
                    "type": "uint128"
                }
            ],
            "stateMutability": "view",
            "type": "function"
        },
        {
            "inputs": [
                {
                    "internalType": "address",
                    "name": "owner",
                    "type": "address"
                },
                {
                    "internalType": "address",
                    "name": "tracker",
                    "type": "address"
                },
                {
                    "internalType": "uint256",
                    "name": "salt",
                    "type": "uint256"
                }
            ],
            "name": "queryVirtual",
            "outputs": [
                {
                    "internalType": "uint128",
                    "name": "surplus",
                    "type": "uint128"
                }
            ],
            "stateMutability": "view",
            "type": "function"
        }
    ],
    "bytecode": "0x60a06040523480156200001157600080fd5b5060405162002e9a38038062002e9a833981016040819052620000349162000110565b6001600160a01b03811615801590620000ad5750806001600160a01b031663b8d25de96040518163ffffffff1660e01b8152600401602060405180830381865afa15801562000087573d6000803e3d6000fd5b505050506040513d601f19601f82011682018060405250810190620000ad919062000142565b620000fe5760405162461bcd60e51b815260206004820152601360248201527f496e76616c696420536465785377617044657800000000000000000000000000604482015260640160405180910390fd5b6001600160a01b031660805262000166565b6000602082840312156200012357600080fd5b81516001600160a01b03811681146200013b57600080fd5b9392505050565b6000602082840312156200015557600080fd5b815180151581146200013b57600080fd5b608051612caf620001eb6000396000818161040c015281816106c3015281816107f9015281816108f601528181610a2901528181610bfb01528181610f5701528181611146015281816112bd01528181611358015281816115f70152818161176c0152818161190801528181611a9601528181611bfb0152611ebb0152612caf6000f3fe608060405234801561001057600080fd5b50600436106101815760003560e01c806387834a0e116100d8578063d7fd8d0f1161008c578063ed8f58f411610066578063ed8f58f4146105f1578063f8c7efa714610604578063ff163e141461061757600080fd5b8063d7fd8d0f146105a5578063dc91a6ad146105b8578063ebca95de146105de57600080fd5b806393c33a71116100bd57806393c33a71146104a4578063992236c5146104f5578063ab0a98981461055157600080fd5b806387834a0e146104075780638e56c1c11461042e57600080fd5b8063340bfa121161013a57806356bf0f5b1161011457806356bf0f5b146103a15780636756e9b8146103b45780637f44601a146103c757600080fd5b8063340bfa12146102c7578063391d582f1461030f5780633dccd7d71461035b57600080fd5b80631fd808f11161016b5780631fd808f1146102095780632855bcf314610211578063338adc671461029357600080fd5b80622c2e711461018657806310fc74f4146101c3575b600080fd5b6101996101943660046128e4565b61062a565b60405173ffffffffffffffffffffffffffffffffffffffff90911681526020015b60405180910390f35b6101d66101d1366004612942565b61074e565b604080516bffffffffffffffffffffffff909416845263ffffffff909216602084015261ffff16908201526060016101ba565b6101996108ab565b61022461021f3660046129a0565b610967565b6040516101ba9190600060e08201905060ff8351168252602083015161ffff808216602085015260ff6040860151166040850152806060860151166060850152505060ff608084015116608083015260ff60a08401511660a083015260ff60c08401511660c083015292915050565b6102a66102a13660046128e4565b610b09565b6040516fffffffffffffffffffffffffffffffff90911681526020016101ba565b6102da6102d53660046129b9565b610b26565b604080516bffffffffffffffffffffffff948516815293909216602084015267ffffffffffffffff16908201526060016101ba565b61032261031d366004612a06565b610caa565b604080516bffffffffffffffffffffffff909416845267ffffffffffffffff909216602084015263ffffffff16908201526060016101ba565b61036e610369366004612aa1565b610d03565b604080516fffffffffffffffffffffffffffffffff948516815292841660208401529216918101919091526060016101ba565b6102a66103af366004612b0e565b610e7e565b6102a66103c23660046128e4565b610ff3565b6103da6103d5366004612b38565b611056565b604080516fffffffffffffffffffffffffffffffff909316835263ffffffff9091166020830152016101ba565b6101997f000000000000000000000000000000000000000000000000000000000000000081565b61044161043c3660046128e4565b6111fc565b6040805182516fffffffffffffffffffffffffffffffff908116825260208085015182169083015283830151169181019190915260608083015167ffffffffffffffff90811691830191909152608092830151169181019190915260a0016101ba565b6104b76104b2366004612a06565b611435565b6040516101ba94939291906fffffffffffffffffffffffffffffffff9485168152928416602084015292166040820152901515606082015260800190565b610508610503366004612aa1565b6114fd565b604080516fffffffffffffffffffffffffffffffff909516855267ffffffffffffffff909316602085015263ffffffff90911691830191909152151560608201526080016101ba565b61056461055f366004612942565b6116c1565b6040805173ffffffffffffffffffffffffffffffffffffffff909416845263ffffffff909216602084015267ffffffffffffffff16908201526060016101ba565b61036e6105b3366004612aa1565b611826565b6105cb6105c63660046128e4565b61186f565b60405160029190910b81526020016101ba565b61036e6105ec366004612b38565b6119b2565b6102a66105ff366004612b83565b6119f2565b6102a66106123660046128e4565b611b16565b6102246106253660046128e4565b611b2c565b600080610638858585611cde565b90506000816201001360405160200161065b929190918252602082015260400190565b604080518083037fffffffffffffffffffffffffffffffffffffffffffffffffffffffffffffffe00181529082905280516020909101207f02ce8af30000000000000000000000000000000000000000000000000000000082526004820181905291506000907f000000000000000000000000000000000000000000000000000000000000000073ffffffffffffffffffffffffffffffffffffffff16906302ce8af390602401602060405180830381865afa15801561071f573d6000803e3d6000fd5b505050506040513d601f19601f820116820180604052508101906107439190612b9e565b979650505050505050565b60008060008061075f898989611cde565b9050600061076e828888611d6c565b905060008162010003604051602001610791929190918252602082015260400190565b604080518083037fffffffffffffffffffffffffffffffffffffffffffffffffffffffffffffffe00181529082905280516020909101207f02ce8af30000000000000000000000000000000000000000000000000000000082526004820181905291506000907f000000000000000000000000000000000000000000000000000000000000000073ffffffffffffffffffffffffffffffffffffffff16906302ce8af390602401602060405180830381865afa158015610855573d6000803e3d6000fd5b505050506040513d601f19601f820116820180604052508101906108799190612b9e565b6bffffffffffffffffffffffff81169d63ffffffff606083901c169d5060809190911c9b509950505050505050505050565b6040517f02ce8af3000000000000000000000000000000000000000000000000000000008152620100146004820152600090819073ffffffffffffffffffffffffffffffffffffffff7f000000000000000000000000000000000000000000000000000000000000000016906302ce8af390602401602060405180830381865afa15801561093d573d6000803e3d6000fd5b505050506040513d601f19601f820116820180604052508101906109619190612b9e565b92915050565b6040805160e081018252600080825260208201819052918101829052606081018290526080810182905260a0810182905260c0810191909152600082620100086040516020016109c1929190918252602082015260400190565b604080518083037fffffffffffffffffffffffffffffffffffffffffffffffffffffffffffffffe00181529082905280516020909101207f02ce8af30000000000000000000000000000000000000000000000000000000082526004820181905291506000907f000000000000000000000000000000000000000000000000000000000000000073ffffffffffffffffffffffffffffffffffffffff16906302ce8af390602401602060405180830381865afa158015610a85573d6000803e3d6000fd5b505050506040513d601f19601f82011682018060405250810190610aa99190612b9e565b60ff808216855261ffff600883901c8116602080880191909152601884901c83166040808901919091529084901c9091166060870152603083901c82166080870152603883901c821660a08701529190911c1660c0840152509092915050565b6000610b1e610b198585856111fc565b611d97565b949350505050565b600080600080610b37888888611cde565b905060008186604051602001610b5a92919091825260e81b602082015260230190565b60405160208183030381529060405280519060200120905060008162010002604051602001610b93929190918252602082015260400190565b604080518083037fffffffffffffffffffffffffffffffffffffffffffffffffffffffffffffffe00181529082905280516020909101207f02ce8af30000000000000000000000000000000000000000000000000000000082526004820181905291506000907f000000000000000000000000000000000000000000000000000000000000000073ffffffffffffffffffffffffffffffffffffffff16906302ce8af390602401602060405180830381865afa158015610c57573d6000803e3d6000fd5b505050506040513d601f19601f82011682018060405250810190610c7b9190612b9e565b6bffffffffffffffffffffffff8181169d606083901c9091169c5060c09190911c9a5098505050505050505050565b600080600080610cbb8b8b8b611cde565b604080516060810182528915158152600289810b602083015288900b91810191909152909150610ced81838f8c611dc3565b9450945094505050985098509895505050505050565b6000806000806000610d198b8b8b8b8b8b6114fd565b5050915091506000610d2d8b8b8b8b610b26565b925050506000610d3f8c8c8c8b610b26565b925050506000610d508d8d8d6111fc565b90506000610d5f8e8e8e6111fc565b6080015190506000610d748360000151611f6b565b905060008160020b8d60020b1315610d9557610d908684612be6565b610d97565b855b905060008260020b8d60020b1315610db857610db38685612be6565b610dba565b855b905067ffffffffffffffff80831681831603810190891668ffffffffffffffffff82161015610dfd5760008060009c509c509c5050505050505050505050610e72565b67ffffffffffffffff891681036000610e53610e3a8d8467ffffffffffffffff166fffffffffffffffffffffffffffffffff919091160260301c90565b71ffffffffffffffffffffffffffffffffffff166122be565b9050610e5f88826122f6565b9e509e509e505050505050505050505050505b96509650969350505050565b6000808383604051602001610eb692919073ffffffffffffffffffffffffffffffffffffffff92831681529116602082015260400190565b60405160208183030381529060405280519060200120905060008162010010604051602001610eef929190918252602082015260400190565b604080518083037fffffffffffffffffffffffffffffffffffffffffffffffffffffffffffffffe00181529082905280516020909101207f02ce8af30000000000000000000000000000000000000000000000000000000082526004820181905291506000907f000000000000000000000000000000000000000000000000000000000000000073ffffffffffffffffffffffffffffffffffffffff16906302ce8af390602401602060405180830381865afa158015610fb3573d6000803e3d6000fd5b505050506040513d601f19601f82011682018060405250810190610fd79190612b9e565b6fffffffffffffffffffffffffffffffff169695505050505050565b60008061104184846040805173ffffffffffffffffffffffffffffffffffffffff93841660208083019190915281830193909352815180820383018152606090910190915280519101201690565b905061104d8582610e7e565b95945050505050565b6000806000611066868686611cde565b6040517fffffffffffffffffffffffffffffffffffffffff00000000000000000000000060608a901b166020820152603481018290529091506000906054016040516020818303038152906040528051906020012090506000816201000e6040516020016110de929190918252602082015260400190565b604080518083037fffffffffffffffffffffffffffffffffffffffffffffffffffffffffffffffe00181529082905280516020909101207f02ce8af30000000000000000000000000000000000000000000000000000000082526004820181905291506000907f000000000000000000000000000000000000000000000000000000000000000073ffffffffffffffffffffffffffffffffffffffff16906302ce8af390602401602060405180830381865afa1580156111a2573d6000803e3d6000fd5b505050506040513d601f19601f820116820180604052508101906111c69190612b9e565b6fffffffffffffffffffffffffffffffff81169b60809190911c6bffffffffffffffffffffffff169a5098505050505050505050565b6040805160a081018252600080825260208201819052918101829052606081018290526080810182905290611232858585611cde565b90506000816201000f604051602001611255929190918252602082015260400190565b604080518083037fffffffffffffffffffffffffffffffffffffffffffffffffffffffffffffffe00181529082905280516020909101207f02ce8af30000000000000000000000000000000000000000000000000000000082526004820181905291506000907f000000000000000000000000000000000000000000000000000000000000000073ffffffffffffffffffffffffffffffffffffffff16906302ce8af390602401602060405180830381865afa158015611319573d6000803e3d6000fd5b505050506040513d601f19601f8201168201806040525081019061133d9190612b9e565b9050600073ffffffffffffffffffffffffffffffffffffffff7f0000000000000000000000000000000000000000000000000000000000000000166302ce8af3611388856001612c0e565b6040518263ffffffff1660e01b81526004016113a691815260200190565b602060405180830381865afa1580156113c3573d6000803e3d6000fd5b505050506040513d601f19601f820116820180604052508101906113e79190612b9e565b6fffffffffffffffffffffffffffffffff8084168752608093841c60208801528116604087015267ffffffffffffffff81841c16606087015260c01c91850191909152509195945050505050565b600080600080600087611448578561144a565b865b9050600061145e8e8e8e8e8e8e8e8e610caa565b5050905060006114718e8e8e8d8761074e565b50915050600a82901b6d03fffffffffffffffffffffff8001696508a63ffffffff168163ffffffff161415935083156114c95760006114af84612321565b90506114bd818b8b8b612693565b90975095506114eb9050565b60006114d68f8f8f6111fc565b90506114e4818b8b8b612791565b9097509550505b50505098509850985098945050505050565b60008060008060006115108a8a8a611cde565b6040805160608e901b7fffffffffffffffffffffffffffffffffffffffff000000000000000000000000166020808301919091526034820184905260e88b811b60548401528a901b60578301528251603a818403018152605a83019093528251920191909120607a820181905262010012609a83015291925060009060ba01604080518083037fffffffffffffffffffffffffffffffffffffffffffffffffffffffffffffffe00181529082905280516020909101207f02ce8af30000000000000000000000000000000000000000000000000000000082526004820181905291506000907f000000000000000000000000000000000000000000000000000000000000000073ffffffffffffffffffffffffffffffffffffffff16906302ce8af390602401602060405180830381865afa158015611653573d6000803e3d6000fd5b505050506040513d601f19601f820116820180604052508101906116779190612b9e565b6fffffffffffffffffffffffffffffffff81169f67ffffffffffffffff608083901c169f5063ffffffff60c083901c169e5060e09190911c15159c509a5050505050505050505050565b6000806000806116d2898989611cde565b905060006116e1828888611d6c565b905060008162010004604051602001611704929190918252602082015260400190565b604080518083037fffffffffffffffffffffffffffffffffffffffffffffffffffffffffffffffe00181529082905280516020909101207f02ce8af30000000000000000000000000000000000000000000000000000000082526004820181905291506000907f000000000000000000000000000000000000000000000000000000000000000073ffffffffffffffffffffffffffffffffffffffff16906302ce8af390602401602060405180830381865afa1580156117c8573d6000803e3d6000fd5b505050506040513d601f19601f820116820180604052508101906117ec9190612b9e565b73ffffffffffffffffffffffffffffffffffffffff81169d63ffffffff60a083901c169d5060c09190911c9b509950505050505050505050565b60008060006118398989898989896114fd565b509194506000915061184e90508989896111fc565b905061185c81878787612791565b949b909a50939850929650505050505050565b60008061187d858585611cde565b90506000816201000f6040516020016118a0929190918252602082015260400190565b604080518083037fffffffffffffffffffffffffffffffffffffffffffffffffffffffffffffffe00181529082905280516020909101207f02ce8af30000000000000000000000000000000000000000000000000000000082526004820181905291506000907f000000000000000000000000000000000000000000000000000000000000000073ffffffffffffffffffffffffffffffffffffffff16906302ce8af390602401602060405180830381865afa158015611964573d6000803e3d6000fd5b505050506040513d601f19601f820116820180604052508101906119889190612b9e565b90506fffffffffffffffffffffffffffffffff81166119a681611f6b565b98975050505050505050565b6000806000806119c488888888611056565b50905060006119d48888886111fc565b90506119e081836122f6565b94509450945050509450945094915050565b60405160009073ffffffffffffffffffffffffffffffffffffffff8316908290611a2e9083906201000c90602001918252602082015260400190565b604080518083037fffffffffffffffffffffffffffffffffffffffffffffffffffffffffffffffe00181529082905280516020909101207f02ce8af30000000000000000000000000000000000000000000000000000000082526004820181905291506000907f000000000000000000000000000000000000000000000000000000000000000073ffffffffffffffffffffffffffffffffffffffff16906302ce8af390602401602060405180830381865afa158015611af2573d6000803e3d6000fd5b505050506040513d601f19601f8201168201806040525081019061104d9190612b9e565b6000611b238484846111fc565b51949350505050565b6040805160e081018252600080825260208201819052918101829052606081018290526080810182905260a0810182905260c0810182905290611b70858585611cde565b905060008162010009604051602001611b93929190918252602082015260400190565b604080518083037fffffffffffffffffffffffffffffffffffffffffffffffffffffffffffffffe00181529082905280516020909101207f02ce8af30000000000000000000000000000000000000000000000000000000082526004820181905291506000907f000000000000000000000000000000000000000000000000000000000000000073ffffffffffffffffffffffffffffffffffffffff16906302ce8af390602401602060405180830381865afa158015611c57573d6000803e3d6000fd5b505050506040513d601f19601f82011682018060405250810190611c7b9190612b9e565b60ff808216865261ffff600883901c8116602080890191909152601884901c83166040808a01919091529084901c9091166060880152603083901c82166080880152603883901c821660a08801529190911c1660c0850152509195945050505050565b60008273ffffffffffffffffffffffffffffffffffffffff168473ffffffffffffffffffffffffffffffffffffffff1610611d1857600080fd5b6040805173ffffffffffffffffffffffffffffffffffffffff8087166020830152851691810191909152606081018390526080015b6040516020818303038152906040528051906020012090509392505050565b6000838383604051602001611d4d93929190928352901515602083015260020b604082015260600190565b600080611dac836020015184606001516127b1565b9050611dbc818460400151612806565b9392505050565b8351602080860151604080880151815180850189905273ffffffffffffffffffffffffffffffffffffffff8816818401529415156060860152600292830b608086015290910b60a084015263ffffffff841660c0808501919091528151808503909101815260e08401909152805191012061010082018190526201000561012083015260009182918291829061014001604080518083037fffffffffffffffffffffffffffffffffffffffffffffffffffffffffffffffe00181529082905280516020909101207f02ce8af30000000000000000000000000000000000000000000000000000000082526004820181905291506000907f000000000000000000000000000000000000000000000000000000000000000073ffffffffffffffffffffffffffffffffffffffff16906302ce8af390602401602060405180830381865afa158015611f17573d6000803e3d6000fd5b505050506040513d601f19601f82011682018060405250810190611f3b9190612b9e565b6bffffffffffffffffffffffff81169b63ffffffff608083901c169b5060e09190911c9950975050505050505050565b6000620100026fffffffffffffffffffffffffffffffff831610801590611fb357506f0ffff5433e2b3d8211706e6102aa94726fffffffffffffffffffffffffffffffff8316105b611fbc57600080fd5b77ffffffffffffffffffffffffffffffff0000000000000000604083901b166fffffffffffffffffffffffffffffffff811160071b81811c67ffffffffffffffff811160061b90811c63ffffffff811160051b90811c61ffff811160041b90811c60ff8111600390811b91821c600f811160021b90811c918211600190811b92831c9790881196179094179092171790911717176080811061206657607f810383901c9150612070565b80607f0383901b91505b908002607f81811c60ff83811c9190911c800280831c81831c1c800280841c81841c1c800280851c81851c1c800280861c81861c1c800280871c81871c1c800280881c81881c1c800280891c81891c1c8002808a1c818a1c1c8002808b1c818b1c1c8002808c1c818c1c1c8002808d1c818d1c1c8002808e1c9c81901c9c909c1c80029c8d901c9e9d7fffffffffffffffffffffffffffffffffffffffffffffffffffffffffffffff808f0160401b60c09190911c678000000000000000161760c19b909b1c674000000000000000169a909a1760c29990991c672000000000000000169890981760c39790971c671000000000000000169690961760c49590951c670800000000000000169490941760c59390931c670400000000000000169290921760c69190911c670200000000000000161760c79190911c670100000000000000161760c89190911c6680000000000000161760c99190911c6640000000000000161760ca9190911c6620000000000000161760cb9190911c6610000000000000161760cc9190911c6608000000000000161760cd9190911c66040000000000001617693627a301d71055774c8581027ffffffffffffffffffffffffffffffffffd709b7e5480fba5a50fed5e62ffc5568101608090811d906fdb2df09e81959a81455e260799a0632f8301901d600281810b9083900b146122af57886fffffffffffffffffffffffffffffffff1661228b82612321565b6fffffffffffffffffffffffffffffffff1611156122a957816122b1565b806122b1565b815b9998505050505050505050565b806fffffffffffffffffffffffffffffffff811671ffffffffffffffffffffffffffffffffffff8216146122f157600080fd5b919050565b60008060006123098486606001516127b1565b9250612315858461282b565b93969095509293505050565b60007ffffffffffffffffffffffffffffffffffffffffffffffffffffffffffff5d892600283900b1280159061235e5750620cb14a600283900b13155b61236757600080fd5b6000808360020b1261237c578260020b612384565b8260020b6000035b90506000816001166000036123aa577001000000000000000000000000000000006123bc565b6ffffcb933bd6fad37aa2d162d1a5940015b70ffffffffffffffffffffffffffffffffff16905060028216156123f0576ffff97272373d413259a46990580e213a0260801c5b600482161561240f576ffff2e50f5f656932ef12357cf3c7fdcc0260801c5b600882161561242e576fffe5caca7e10e4e61c3624eaa0941cd00260801c5b601082161561244d576fffcb9843d60f6159c9db58835c9266440260801c5b602082161561246c576fff973b41fa98c081472e6896dfb254c00260801c5b604082161561248b576fff2ea16466c96a3843ec78b326b528610260801c5b60808216156124aa576ffe5dee046a99a2a811c461f1969c30530260801c5b6101008216156124ca576ffcbe86c7900a88aedcffc83b479aa3a40260801c5b6102008216156124ea576ff987a7253ac413176f2b074cf7815e540260801c5b61040082161561250a576ff3392b0822b70005940c7a398e4b70f30260801c5b61080082161561252a576fe7159475a2c29b7443b29c7fa6e889d90260801c5b61100082161561254a576fd097f3bdfd2022b8845ad8f792aa58250260801c5b61200082161561256a576fa9f746462d870fdf8a65dc1f90e061e50260801c5b61400082161561258a576f70d869a156d2a1b890bb3df62baf32f70260801c5b6180008216156125aa576f31be135f97d08fd981231505542fcfa60260801c5b620100008216156125cb576f09aa508b5b7a84e1c677de54f3e99bc90260801c5b620200008216156125eb576e5d6af8dedb81196699c329225ee6040260801c5b6204000082161561260a576d2216e584f5fa1ea926041bedfe980260801c5b62080000821615612627576b048a170391f7dc42444e8fa20260801c5b60008460020b131561266657807fffffffffffffffffffffffffffffffffffffffffffffffffffffffffffffffff8161266257612662612c21565b0490505b6801000000000000000081061561267e576001612681565b60005b60ff16604082901c0192505050919050565b60008060006126a186612321565b905060006126ae86612321565b90506000806126bd8488612847565b915091506000806126ce858a612847565b915091506000806126df8e8c612847565b91509150876fffffffffffffffffffffffffffffffff168e6fffffffffffffffffffffffffffffffff16101561272c57600061271b8487612c50565b995099505050505050505050612788565b866fffffffffffffffffffffffffffffffff168e6fffffffffffffffffffffffffffffffff1610612774576127618685612c50565b6000995099505050505050505050612788565b61277e8683612c50565b61271b8483612c50565b94509492505050565b6000806127a48660000151868686612693565b9150915094509492505050565b600066010000000000006fffffffffffffffffffffffffffffffff80851667ffffffffffffffff851683010290603082901c9081111561104d576fffffffffffffffffffffffffffffffff9350505050610961565b8082016fffffffffffffffffffffffffffffffff808416908216101561096157600080fd5b60008061283c846000015184612847565b915091509250929050565b6fffffffffffffffffffffffffffffffff8281169082160260401c600061286e8385612877565b90509250929050565b60006fffffffffffffffffffffffffffffffff821677ffffffffffffffffffffffffffffffff0000000000000000604085901b16816128b8576128b8612c21565b049392505050565b803573ffffffffffffffffffffffffffffffffffffffff811681146122f157600080fd5b6000806000606084860312156128f957600080fd5b612902846128c0565b9250612910602085016128c0565b9150604084013590509250925092565b803580151581146122f157600080fd5b8035600281900b81146122f157600080fd5b600080600080600060a0868803121561295a57600080fd5b612963866128c0565b9450612971602087016128c0565b93506040860135925061298660608701612920565b915061299460808701612930565b90509295509295909350565b6000602082840312156129b257600080fd5b5035919050565b600080600080608085870312156129cf57600080fd5b6129d8856128c0565b93506129e6602086016128c0565b9250604085013591506129fb60608601612930565b905092959194509250565b600080600080600080600080610100898b031215612a2357600080fd5b612a2c896128c0565b9750612a3a60208a016128c0565b9650612a4860408a016128c0565b955060608901359450608089013563ffffffff81168114612a6857600080fd5b9350612a7660a08a01612920565b9250612a8460c08a01612930565b9150612a9260e08a01612930565b90509295985092959890939650565b60008060008060008060c08789031215612aba57600080fd5b612ac3876128c0565b9550612ad1602088016128c0565b9450612adf604088016128c0565b935060608701359250612af460808801612930565b9150612b0260a08801612930565b90509295509295509295565b60008060408385031215612b2157600080fd5b612b2a836128c0565b915061286e602084016128c0565b60008060008060808587031215612b4e57600080fd5b612b57856128c0565b9350612b65602086016128c0565b9250612b73604086016128c0565b9396929550929360600135925050565b600060208284031215612b9557600080fd5b611dbc826128c0565b600060208284031215612bb057600080fd5b5051919050565b7f4e487b7100000000000000000000000000000000000000000000000000000000600052601160045260246000fd5b67ffffffffffffffff828116828216039080821115612c0757612c07612bb7565b5092915050565b8082018082111561096157610961612bb7565b7f4e487b7100000000000000000000000000000000000000000000000000000000600052601260045260246000fd5b6fffffffffffffffffffffffffffffffff828116828216039080821115612c0757612c07612bb756fea2646970667358221220b4e2e7c7fd9b7ccb38c797eac5d53974029bc933fe2ca35a57d3521db7c558b064736f6c63430008130033",
    "linkReferences": {},
    "deployedLinkReferences": {}
}