{
  "_format": "hh-sol-artifact-1",
  "contractName": "KnockoutFlagPath",
  "address": "0x9228378287e43eFe94890D8d0C47deBCBe54F7F3",
  "sourceName": "contracts/callpaths/KnockoutPath.sol",
  "abi": [
    {
      "anonymous": false,
      "inputs": [
        {
          "indexed": true,
          "internalType": "bytes32",
          "name": "pool",
          "type": "bytes32"
        },
        {
          "indexed": true,
          "internalType": "int24",
          "name": "tick",
          "type": "int24"
        },
        {
          "indexed": false,
          "internalType": "bool",
          "name": "isBid",
          "type": "bool"
        },
        {
          "indexed": false,
          "internalType": "uint32",
          "name": "pivotTime",
          "type": "uint32"
        },
        {
          "indexed": false,
          "internalType": "uint64",
          "name": "feeMileage",
          "type": "uint64"
        },
        {
          "indexed": false,
          "internalType": "uint160",
          "name": "commitEntropy",
          "type": "uint160"
        }
      ],
      "name": "SdexKnockoutCross",
      "type": "event"
    },
    {
      "inputs": [
        {
          "internalType": "address",
          "name": "",
          "type": "address"
        },
        {
          "internalType": "uint16",
          "name": "slot",
          "type": "uint16"
        }
      ],
      "name": "acceptSdexProxyRole",
      "outputs": [
        {
          "internalType": "bool",
          "name": "",
          "type": "bool"
        }
      ],
      "stateMutability": "pure",
      "type": "function"
    },
    {
      "inputs": [
        {
          "internalType": "bytes32",
          "name": "pool",
          "type": "bytes32"
        },
        {
          "internalType": "int24",
          "name": "tick",
          "type": "int24"
        },
        {
          "internalType": "bool",
          "name": "isBuy",
          "type": "bool"
        },
        {
          "internalType": "uint64",
          "name": "feeGlobal",
          "type": "uint64"
        }
      ],
      "name": "crossCurveFlag",
      "outputs": [
        {
          "internalType": "int128",
          "name": "",
          "type": "int128"
        }
      ],
      "stateMutability": "payable",
      "type": "function"
    }
  ],
  "bytecode": "0x608060405262010011805460ff60e01b1916600160e71b17905534801561002557600080fd5b50610cb3806100356000396000f3fe6080604052600436106100295760003560e01c80633c05c6211461002e578063ac54c0fc14610059575b600080fd5b61004161003c366004610aa4565b610089565b604051600f9190910b81526020015b60405180910390f35b34801561006557600080fd5b50610079610074366004610b0f565b6100a5565b6040519015158152602001610050565b60008215610099868287866100b5565b50600095945050505050565b61ffff8116610dac145b92915050565b60006100c28585856102b8565b6000818152620100036020908152604080832062010004909252909120919250906100ee878787610303565b6040805160608101825283546bffffffffffffffffffffffff811682526c01000000000000000000000000810463ffffffff166020830152700100000000000000000000000000000000900461ffff16918101919091526000906101569089908989896103a6565b6040805160608101825285546bffffffffffffffffffffffff811682526c01000000000000000000000000810463ffffffff908116602084015270010000000000000000000000000000000090910461ffff16928201929092529192506101c1918491849061040c16565b8154600287900b9089907f78d4bacd92cc15fe8ee27d50b9be043e663f43f413418e9b478c034765931ec8908a9074010000000000000000000000000000000000000000810463ffffffff16907801000000000000000000000000000000000000000000000000900467ffffffffffffffff1661023c610544565b60408051941515855263ffffffff93909316602085015267ffffffffffffffff919091168383015273ffffffffffffffffffffffffffffffffffffffff166060830152519081900360800190a3505080547fffffffffffffffffffffffffffff0000000000000000000000000000000000001690555050505050565b60008383836040516020016102e393929190928352901515602083015260020b604082015260600190565b6040516020818303038152906040528051906020012090505b9392505050565b600061030f8483610557565b905082156103545780547fffffffffffffffffffffffffffffffffffffffff00000000000000000000000081166bfffffffffffffffffffffffe9091161781556103a0565b80547fffffffffffffffff000000000000000000000000ffffffffffffffffffffffff81166c01000000000000000000000000918290046bfffffffffffffffffffffffe169091021781555b50505050565b604084015160009061ffff1681856103be57846103c3565b600185035b90506000866103d4578286036103d6565b855b9050600087156103e8578387016103ea565b865b90506103fe8a8484848d600001518b6105aa565b9a9950505050505050505050565b60408051606081018252845473ffffffffffffffffffffffffffffffffffffffff8116825274010000000000000000000000000000000000000000810463ffffffff1660208301527801000000000000000000000000000000000000000000000000900467ffffffffffffffff16918101919091526104929061048d610544565b610604565b835460209093015167ffffffffffffffff90921678010000000000000000000000000000000000000000000000000277ffffffffffffffffffffffffffffffffffffffffffffffff63ffffffff90931674010000000000000000000000000000000000000000027fffffffffffffffff00000000000000000000000000000000000000000000000090941673ffffffffffffffffffffffffffffffffffffffff92909216919091179290921716179055565b6000610551600143610b97565b40919050565b6000620100026000848460405160200161057e92919091825260e81b602082015260230190565b604051602081830303815290604052805190602001208152602001908152602001600020905092915050565b6000806105b888878661061e565b905060006105c78987876106d7565b90506105d68989898988610786565b925081156105e8576105e889886107b4565b80156105f8576105f889876107b4565b50509695505050505050565b60006102fc83600001518460200151856040015185610823565b60008061062b8585610557565b80549091506bffffffffffffffffffffffff16600061064a8286610885565b83547fffffffffffffffffffffffffffffffffffffffff000000000000000000000000166bffffffffffffffffffffffff821690811785559091501580156106af575082546c0100000000000000000000000090046bffffffffffffffffffffffff16155b156106ca576106be8787610891565b600193505050506102fc565b5060009695505050505050565b6000806106e48585610557565b80549091506c0100000000000000000000000090046bffffffffffffffffffffffff1660006107138286610885565b83547fffffffffffffffff000000000000000000000000ffffffffffffffffffffffff166c010000000000000000000000006bffffffffffffffffffffffff83169081029190911785559091501580156106af575082546bffffffffffffffffffffffff166106ca576106be8787610891565b6000806107958786888661091b565b905060006107a58886898761091b565b91909103979650505050505050565b62010002600083836040516020016107d992919091825260e81b602082015260230190565b604080517fffffffffffffffffffffffffffffffffffffffffffffffffffffffffffffffe08184030181529181528151602092830120835290820192909252016000908120555050565b600061087c856108348686866109a2565b6040805173ffffffffffffffffffffffffffffffffffffffff939093166020808501919091528382019290925280518084038201815260609384019091528051910120901c90565b95945050505050565b60006102fc8284610baa565b600061089f8260020b610a03565b60ff166001901b19905060006108b78360020b610a1f565b60ff166001901b19905060006108cd8585610a2d565b6000818152620100076020526040812080548516908190559192508190036109135760006108fb8787610a78565b60009081526201000660205260409020805486169055505b505050505050565b6000806109288686610557565b90508360020b8560020b131561096f57805461096a907801000000000000000000000000000000000000000000000000900467ffffffffffffffff1684610bd6565b610998565b80547801000000000000000000000000000000000000000000000000900467ffffffffffffffff165b9695505050505050565b600067ffffffffffffffff83166109f16bffffffff0000000000000000604087901b167fffffffffffffffffffffffffffffffffffffffff000000000000000000000000606086901b16610bf7565b6109fb9190610bf7565b949350505050565b6000610100610a158360020b60081d90565b6100af9190610c39565b60006100af61010083610c5b565b600080600283900b60081d90508381604051602001610a5992919091825260f01b602082015260220190565b6040516020818303038152906040528051906020012091505092915050565b600080600283900b60101d90508381604051602001610a5992919091825260f81b602082015260210190565b60008060008060808587031215610aba57600080fd5b8435935060208501358060020b8114610ad257600080fd5b925060408501358015158114610ae757600080fd5b9150606085013567ffffffffffffffff81168114610b0457600080fd5b939692955090935050565b60008060408385031215610b2257600080fd5b823573ffffffffffffffffffffffffffffffffffffffff81168114610b4657600080fd5b9150602083013561ffff81168114610b5d57600080fd5b809150509250929050565b7f4e487b7100000000000000000000000000000000000000000000000000000000600052601160045260246000fd5b818103818111156100af576100af610b68565b6bffffffffffffffffffffffff828116828216039080821115610bcf57610bcf610b68565b5092915050565b67ffffffffffffffff828116828216039080821115610bcf57610bcf610b68565b808201808211156100af576100af610b68565b7f4e487b7100000000000000000000000000000000000000000000000000000000600052601260045260246000fd5b60008260010b80610c4c57610c4c610c0a565b808360010b0791505092915050565b60008260020b80610c6e57610c6e610c0a565b808360020b079150509291505056fea26469706673582212202599b427f72b30706dc463899f6401bd075f7a41b66f4f211f3900d4d477e14464736f6c63430008130033",
  "linkReferences": {},
  "deployedLinkReferences": {}
}