{
  "_format": "hh-sol-artifact-1",
  "contractName": "LongPath",
  "address": "0x132Ff2e340e1653946EC53125a9131C9269a40c3",
  "sourceName": "contracts/callpaths/LongPath.sol",
  "abi": [
    {
      "anonymous": false,
      "inputs": [
        {
          "indexed": true,
          "internalType": "bytes32",
          "name": "pool",
          "type": "bytes32"
        },
        {
          "indexed": true,
          "internalType": "int24",
          "name": "tick",
          "type": "int24"
        },
        {
          "indexed": false,
          "internalType": "bool",
          "name": "isBid",
          "type": "bool"
        },
        {
          "indexed": false,
          "internalType": "uint32",
          "name": "pivotTime",
          "type": "uint32"
        },
        {
          "indexed": false,
          "internalType": "uint64",
          "name": "feeMileage",
          "type": "uint64"
        },
        {
          "indexed": false,
          "internalType": "uint160",
          "name": "commitEntropy",
          "type": "uint160"
        }
      ],
      "name": "SdexKnockoutCross",
      "type": "event"
    },
    {
      "inputs": [
        {
          "internalType": "address",
          "name": "",
          "type": "address"
        },
        {
          "internalType": "uint16",
          "name": "slot",
          "type": "uint16"
        }
      ],
      "name": "acceptSdexProxyRole",
      "outputs": [
        {
          "internalType": "bool",
          "name": "",
          "type": "bool"
        }
      ],
      "stateMutability": "pure",
      "type": "function"
    },
    {
      "inputs": [
        {
          "internalType": "bytes",
          "name": "input",
          "type": "bytes"
        }
      ],
      "name": "userCmd",
      "outputs": [
        {
          "internalType": "int128[]",
          "name": "",
          "type": "int128[]"
        }
      ],
      "stateMutability": "payable",
      "type": "function"
    }
  ],
  "bytecode": "0x608060405262010011805460ff60e01b1916600160e71b17905534801561002557600080fd5b50614e81806100356000396000f3fe6080604052600436106100295760003560e01c8063ac54c0fc1461002e578063f96dc78814610063575b600080fd5b34801561003a57600080fd5b5061004e6100493660046140a4565b610083565b60405190151581526020015b60405180910390f35b6100766100713660046140dd565b610092565b60405161005a919061414f565b61ffff81166082145b92915050565b606060006100a084846103fe565b80519091506100f46040805160a08101825260008082526020808301829052828401829052606080840183905284516080818101875284825292810184905294850183905284019190915290919082015290565b61018d604080516101a08101909152600060c0820181815260e0830182905261010083018290526101208301829052610140830182905261016083018290526101808301829052606083019081526080830182905260a083019190915281908152604080516060810182526000808252602080830182905282840182905280850192909252825180840184528181529182015291015290565b600084602001515160016101a191906141c5565b67ffffffffffffffff8111156101b9576101b96141d8565b6040519080825280602002602001820160405280156101e2578160200160208202803683370190505b50905060005b8560200151518110156103b85761023385600001518760200151838151811061021357610213614207565b60200260200101516020015160000151866105ad9092919063ffffffff16565b6102678660200151828151811061024c5761024c614207565b6020026020010151604001518560000151866020015161061f565b602084015260005b8660200151828151811061028557610285614207565b6020026020010151600001515181101561034a576000876020015183815181106102b1576102b1614207565b60200260200101516000015182815181106102ce576102ce614207565b602002602001015190506102ef8660000151876020015183600001516106d3565b808652865160208089015190840151606085015160408601516103169594939291906107a8565b610324816080015187610894565b60408601526080860151610339908287610992565b5061034381614236565b905061026f565b5061035484610ad4565b61035d84610aee565b82828151811061036f5761036f614207565b6020026020010190600f0b9081600f0b815250508560200151818151811061039957610399614207565b6020026020010151602001519450806103b190614236565b90506101e8565b50606083015181866020015151815181106103d5576103d5614207565b6020026020010190600f0b9081600f0b815250506103f38582610b6b565b979650505050505050565b6040805160c081018252600091810182815260608083018490526080830184905260a083019390935281526020810191909152600080808581866104438260c06141c5565b926104509392919061426e565b81019061045d91906142e4565b895191151560608301526fffffffffffffffffffffffffffffffff9092166040820152600f9290920b602083015273ffffffffffffffffffffffffffffffffffffffff909216905260c094909401939250905060ff81166001146104c057600080fd5b8160ff1667ffffffffffffffff8111156104dc576104dc6141d8565b60405190808252806020026020018201604052801561055c57816020015b6105496040805160608082018352808252825160808101845260008082526020808301829052828601829052928201819052828401919091528351808501855281815291820152909182015290565b8152602001906001900390816104fa5790505b50602085015260005b8260ff168110156105a3576105998560200151828151811061058957610589614207565b6020026020010151888887610c0c565b9350600101610565565b5050505092915050565b73ffffffffffffffffffffffffffffffffffffffff8082169083161060408401819052156105f85773ffffffffffffffffffffffffffffffffffffffff918216835216602090910152565b73ffffffffffffffffffffffffffffffffffffffff8083166020850152811683525b505050565b60408051606081018252600080825260208201819052918101919091528351156106cc57600084602001516106545782610656565b835b6020808701511515845273ffffffffffffffffffffffffffffffffffffffff90911660008181526201000a8084526040808320546fffffffffffffffffffffffffffffffff610100820416888701529390925290925261ffff710100000000000000000000000000000000009091041690830152505b9392505050565b60408051610140810182526000606082018181526080830182905260a0830182905260c0830182905260e08301829052610100830182905261012083018290528252602082018190529181019190915261073262010009858585610d65565b905061073d81610e94565b6106cc576040517f08c379a000000000000000000000000000000000000000000000000000000000815260206004820152600260248201527f504900000000000000000000000000000000000000000000000000000000000060448201526064015b60405180910390fd5b604086015173ffffffffffffffffffffffffffffffffffffffff161561088c576040808701516000805489516020015193517f2136ea62000000000000000000000000000000000000000000000000000000008152919373ffffffffffffffffffffffffffffffffffffffff93841693632136ea629361083b939091169133918c918c918c918c918c91906004016143ef565b6020604051808303816000875af115801561085a573d6000803e3d6000fd5b505050506040513d601f19601f8201168201806040525081019061087e91906144d7565b905061088a8782610f15565b505b505050505050565b60408051808201909152600080825260208201528251156108c3576040820151158152600060208201526108da565b6040820151151581526060820151600f0b60208201525b82604001511561008c5782516000906108fb576108f683610faa565b610904565b61090483610fc4565b600080546040805173ffffffffffffffffffffffffffffffffffffffff9283166020808301919091529285168183015281518082038301815260609091018252805190830120835262010010909152902054909150610974906fffffffffffffffffffffffffffffffff16610fde565b8260200181815161098591906144f4565b600f0b9052505092915050565b60408051610100810182526000606082018181526080830182905260a0830182905260c0830182905260e0830182905282526020808301829052928201528251909101516109df90611012565b81526109ed848483856110e7565b8151602090810151825160009182526201000f83526040918290208151938201516fffffffffffffffffffffffffffffffff948516700100000000000000000000000000000000918616820217825592820151600190910180546060840151608090940151929095167fffffffffffffffff0000000000000000000000000000000000000000000000009095169490941767ffffffffffffffff9283169093029290921777ffffffffffffffffffffffffffffffffffffffffffffffff16780100000000000000000000000000000000000000000000000091909216021790555b50505050565b610aeb816080015182600001518360200151611142565b50565b60008060008360400151610b0d57608084015160208101519051610b1b565b608084015180516020909101515b91509150818460600151610b2f9190614542565b600f9190910b60608086019190915260809094018051600090819052815160200181905281516040018190529051909401939093525090919050565b81516000805b846020015151811015610be257610ba1848281518110610b9357610b93614207565b602002602001015184611289565b610bab9083614542565b915084602001518181518110610bc357610bc3614207565b602002602001015160200151925080610bdb90614236565b9050610b71565b50610ace8385602001515181518110610bfd57610bfd614207565b602002602001015183836112c8565b806000848285610c1d8260206141c5565b92610c2a9392919061426e565b810190610c379190614590565b90506020820191508060ff1667ffffffffffffffff811115610c5b57610c5b6141d8565b604051908082528060200260200182016040528015610d0857816020015b6040805160a080820183526000808352835160608082018652828252602080830184905282870184905280860192909252848601819052855193840186528284528382018390528386018390528381018390526080808501849052818601949094528551908101865282815290810182905293840152810191909152815260200190600190039081610c795790505b50865260005b8160ff16811015610d4c57610d4287600001518281518110610d3257610d32614207565b60200260200101518787866112f6565b9250600101610d0e565b50610d59868686856114f4565b9150505b949350505050565b60408051610140810182526000606082018181526080830182905260a0830182905260c0830182905260e083018290526101008301829052610120830182905282526020820181905291810182905290610dc085858561158b565b600081815260208881526040808320815160e081018352905460ff808216835261ffff6101008304811695840195909552630100000082048116938301939093526401000000008104909316606082015266010000000000008304821660808201526701000000000000008304821660a0820152680100000000000000009092041660c0820181905292935091610e58908690611618565b60408051606081018252938452602084019490945273ffffffffffffffffffffffffffffffffffffffff16928201929092529695505050505050565b805151600090600160ff9091161115610f09576040517f08c379a000000000000000000000000000000000000000000000000000000000815260206004820152600360248201527f4950530000000000000000000000000000000000000000000000000000000000604482015260640161079f565b50515160ff1660011490565b600161ffff8216610f82576040517f08c379a000000000000000000000000000000000000000000000000000000000815260206004820152600160248201527f5a00000000000000000000000000000000000000000000000000000000000000604482015260640161079f565b610f8c81836145ab565b83516020018051610f9e9083906145ab565b61ffff16905250505050565b60008160400151610fbf57816020015161008c565b505190565b60008160400151610fd657815161008c565b506020015190565b60006f80000000000000000000000000000000826fffffffffffffffffffffffffffffffff161061100e57600080fd5b5090565b6040805160a0810182526000808252602082018190529181018290526060810182905260808101919091525060008181526201000f6020908152604091829020825160a08101845281546fffffffffffffffffffffffffffffffff808216808452700100000000000000000000000000000000928390048216958401959095526001909301549283169482019490945292810467ffffffffffffffff908116606085015278010000000000000000000000000000000000000000000000009091041660808301526110e257600080fd5b919050565b82608001516020015161110457611104848460600151848461163b565b6111148484602001518484611677565b61112484846040015184846116f5565b82608001516020015115610ace57610ace848460600151848461163b565b60408301516fffffffffffffffffffffffffffffffff16156111e45760408084015173ffffffffffffffffffffffffffffffffffffffff841660009081526201000c6020529182208054919290916111ad9084906fffffffffffffffffffffffffffffffff166145c6565b92506101000a8154816fffffffffffffffffffffffffffffffff02191690836fffffffffffffffffffffffffffffffff1602179055505b60608301516fffffffffffffffffffffffffffffffff161561061a57606083015173ffffffffffffffffffffffffffffffffffffffff821660009081526201000c60205260408120805490919061124e9084906fffffffffffffffffffffffffffffffff166145c6565b92506101000a8154816fffffffffffffffffffffffffffffffff02191690836fffffffffffffffffffffffffffffffff160217905550505050565b60008060006112af60005473ffffffffffffffffffffffffffffffffffffffff16908190565b915091506112bf82828787611743565b95945050505050565b60005473ffffffffffffffffffffffffffffffffffffffff16806112ef81808787876117e9565b5050505050565b8060008482856113078260a06141c5565b926113149392919061426e565b81019061132191906145ef565b6020808c01516fffffffffffffffffffffffffffffffff909316604084015260ff93841690830152921515905291885260a093909301921690508067ffffffffffffffff811115611374576113746141d8565b6040519080825280602002602001820160405280156113f257816020015b6040805160c08101825260008082526020808301829052928201819052606082018190526080820181905260a082015282527fffffffffffffffffffffffffffffffffffffffffffffffffffffffffffffffff9092019101816113925790505b50604087015260005b818110156114365761142c8760400151828151811061141c5761141c614207565b6020026020010151878786611811565b92506001016113fb565b508482856114458260a06141c5565b926114529392919061426e565b81019061145f9190614651565b6060808c01516fffffffffffffffffffffffffffffffff9283166080820152929091168282015260ff90921660408201529115156020830152911515905260a092909201918590839086906114b59083906141c5565b926114c29392919061426e565b8101906114cf91906146c0565b6080909801519715156040890152151560208801521515909552606001949350505050565b60008382846115048260c06141c5565b926115119392919061426e565b81019061151e919061470b565b6020808c01516040808e01519315158484015293151590925292151560608201526fffffffffffffffffffffffffffffffff90931690830152600f9290920b9181019190915273ffffffffffffffffffffffffffffffffffffffff90911690525060c08101949350505050565b60008273ffffffffffffffffffffffffffffffffffffffff168473ffffffffffffffffffffffffffffffffffffffff16106115c557600080fd5b6040805173ffffffffffffffffffffffffffffffffffffffff8087166020830152851691810191909152606081018390526080016040516020818303038152906040528051906020012090509392505050565b6000600182811681148061162d5760006112bf565b50505060609190911c919050565b604081015161164b908486611880565b60608301516fffffffffffffffffffffffffffffffff1615610ace57610ace84838584600001516118af565b8151604082015161168a91859087611a52565b60408301516fffffffffffffffffffffffffffffffff1615610ace5760008084600001516116ce576116c9848660400151856000015160200151611ab4565b6116e5565b6116e5848660400151856000015160200151611c55565b909250905061088c868383611d6a565b60005b83518110156112ef5760008061172985888689878151811061171c5761171c614207565b6020026020010151611da1565b9092509050611739878383611d6a565b50506001016116f8565b600061175b838360200151600f90810b91900b131590565b6117c1576040517f08c379a000000000000000000000000000000000000000000000000000000000815260206004820152600160248201527f4b00000000000000000000000000000000000000000000000000000000000000604482015260640161079f565b6117cf838360400151612060565b15610d5d576112bf858585856000015186606001516120ac565b6117f585858585611743565b6117ff9082614542565b90506112ef85858385606001516120e9565b60008382846118218260c06141c5565b9261182e9392919061426e565b81019061183b919061479f565b6fffffffffffffffffffffffffffffffff1660a08b015260ff1660808a01521515604089015215156060880152600290810b60208801520b90945260c0019392505050565b604082015160ff161561061a5760006118a384838560400151866060015161211e565b9050610ace8382612138565b600080600160830154855173ffffffffffffffffffffffffffffffffffffffff909116906118dc876121d7565b86866040516024016118f1949392919061480d565b604080517fffffffffffffffffffffffffffffffffffffffffffffffffffffffffffffffe08184030181529181526020820180517bffffffffffffffffffffffffffffffffffffffffffffffffffffffff167f7b370fc200000000000000000000000000000000000000000000000000000000179052516119729190614942565b600060405180830381855af49150503d80600081146119ad576040519150601f19603f3d011682016040523d82523d6000602084013e6119b2565b606091505b5091509150816119c157600080fd5b60408051608081018252600080825260208083018290529282018190526060820152825190916119f7918401810190840161499f565b8b5167ffffffffffffffff9182166080820152911660608201526fffffffffffffffffffffffffffffffff918216604082015291811660208301529190911690529050611a48866000602090910152565b61088a8782612218565b602083015160ff1615610ace57600080611a768684876020015188604001516122a5565b915091506000611a90838387600001518a600001516122e8565b9115158652506fffffffffffffffffffffffffffffffff1660408501525050505050565b6000808080600160830154875180516020820151604080840151606085015160809095015191516fffffffffffffffffffffffffffffffff948516602482015292841660448401528316606483015267ffffffffffffffff93841660848301529290921660a4830152881660c482015260e4810187905273ffffffffffffffffffffffffffffffffffffffff9091169061010401604080517fffffffffffffffffffffffffffffffffffffffffffffffffffffffffffffffe08184030181529181526020820180517bffffffffffffffffffffffffffffffffffffffffffffffffffffffff167f2a6f08640000000000000000000000000000000000000000000000000000000017905251611bc99190614942565b600060405180830381855af49150503d8060008114611c04576040519150601f19603f3d011682016040523d82523d6000602084013e611c09565b606091505b509150915081611c1857600080fd5b80806020019051810190611c2c9190614a9b565b98516fffffffffffffffffffffffffffffffff9099166020909901989098529795505050505050565b6000808080600160830154875180516020820151604080840151606085015160809095015191516fffffffffffffffffffffffffffffffff948516602482015292841660448401528316606483015267ffffffffffffffff93841660848301529290921660a4830152881660c482015260e4810187905273ffffffffffffffffffffffffffffffffffffffff9091169061010401604080517fffffffffffffffffffffffffffffffffffffffffffffffffffffffffffffffe08184030181529181526020820180517bffffffffffffffffffffffffffffffffffffffffffffffffffffffff167f2ee115870000000000000000000000000000000000000000000000000000000017905251611bc99190614942565b8183600001818151611d7c9190614542565b600f0b905250602083018051829190611d96908390614542565b600f0b905250505050565b600080826060015115611ea8576000611db9876121d7565b8451909150611dc89082614add565b60020b84526020840151611ddc9082614add565b600290810b602086015284517ffffffffffffffffffffffffffffffffffffffffffffffffffffffffffff5d892910b12801590611e265750620cb14a60020b846020015160020b13155b8015611e405750836020015160020b846000015160020b13155b611ea6576040517f08c379a000000000000000000000000000000000000000000000000000000000815260206004820152600260248201527f5254000000000000000000000000000000000000000000000000000000000000604482015260640161079f565b505b8551835160208501516040870151611ec493909287928a61232a565b826040015115611fd9576000611f07846000015185602001518660a0015188600001516000015160600151611ef88c6121d7565b60208b01519493929190612393565b90508015611fd7576000805486516020908101518751888301516040805160609690961b7fffffffffffffffffffffffffffffffffffffffff0000000000000000000000001686860152603486019390935260e891821b6054860152901b60578401528051603a818503018152605a90930181528251928201929092208352620100129052902080547d0100000000000000000000000000000000000000000000000000000000007fffff00ffffffffffffffffffffffffffffffffffffffffffffffffffffffffff9091161790555b505b8260a001516fffffffffffffffffffffffffffffffff1660000361200257506000905080612057565b82604001516120315761202c86846000015185602001518660a0015188600001516020015161245b565b612052565b61205286846000015185602001518660a0015188600001516020015161262e565b915091505b94509492505050565b6000600f83900b8112156120765750600161008c565b6fffffffffffffffffffffffffffffffff821661209284614b1e565b6fffffffffffffffffffffffffffffffff1611905061008c565b600073ffffffffffffffffffffffffffffffffffffffff83166120d05750826112bf565b6120dd868686868661276c565b50600095945050505050565b60006120f361279c565b905082600f0b6000146121145761210f85858560008587612871565b6112ef565b6112ef84826128b2565b60008061212b86866128ea565b9050610d59818585612915565b8151602083015161214f57600082600f0b13612157565b600082600f0b125b151583526000600f83900b136121755761217082614b1e565b612177565b815b6fffffffffffffffffffffffffffffffff166060840152825115158115151461061a5782516121a957620100026121bb565b6f0ffff5433e2b3d8211706e6102aa94725b6fffffffffffffffffffffffffffffffff166080840152505050565b6000816020015161221057815151612200906fffffffffffffffffffffffffffffffff16612a09565b60020b6040830152600160208301525b506040015190565b805182518390612229908390614542565b600f0b9052506020808201519083018051612245908390614542565b600f0b90525060408082015190830180516122619083906145c6565b6fffffffffffffffffffffffffffffffff16905250606080820151908301805161228c9083906145c6565b6fffffffffffffffffffffffffffffffff169052505050565b60008060006122b68787878761211e565b9050600081600f0b129150600081600f0b136122da576122d581614b1e565b6122dc565b805b92505094509492505050565b60008061231383856122fa8989612d5c565b6fffffffffffffffffffffffffffffffff169190612e1a565b9050846112bf576123258160016145c6565b610d59565b608085015160ff161561088c5760008061234e888489608001518a60a001516122a5565b91509150600061236a8383896000015189898e60000151612e71565b9115156040890152506fffffffffffffffffffffffffffffffff1660a087015250505050505050565b60006123a0868685612efb565b61244d5760006123b38885858a8a612f2e565b9050806fffffffffffffffffffffffffffffffff16856fffffffffffffffffffffffffffffffff161015612443576040517f08c379a000000000000000000000000000000000000000000000000000000000815260206004820152600160248201527f4400000000000000000000000000000000000000000000000000000000000000604482015260640161079f565b6001915050612451565b5060005b9695505050505050565b600080808060016083015489515173ffffffffffffffffffffffffffffffffffffffff9091169061248b8b6121d7565b8b516020810151604080830151606084015160809094015191516fffffffffffffffffffffffffffffffff9687166024820152600295860b604482015292861660648401528516608483015267ffffffffffffffff92831660a48301529190911660c48201528b820b60e4820152908a900b610104820152908816610124820152610144810187905261016401604080517fffffffffffffffffffffffffffffffffffffffffffffffffffffffffffffffe08184030181529181526020820180517bffffffffffffffffffffffffffffffffffffffffffffffffffffffff167f7c6dfe3d00000000000000000000000000000000000000000000000000000000179052516125999190614942565b600060405180830381855af49150503d80600081146125d4576040519150601f19603f3d011682016040523d82523d6000602084013e6125d9565b606091505b5091509150816125e857600080fd5b808060200190518101906125fc9190614b5c565b9b516fffffffffffffffffffffffffffffffff9c8d1660408201529b166020909b019a909a5299975050505050505050565b600080808060016083015489515173ffffffffffffffffffffffffffffffffffffffff9091169061265e8b6121d7565b8b516020810151604080830151606084015160809094015191516fffffffffffffffffffffffffffffffff9687166024820152600295860b604482015292861660648401528516608483015267ffffffffffffffff92831660a48301529190911660c48201528b820b60e4820152908a900b610104820152908816610124820152610144810187905261016401604080517fffffffffffffffffffffffffffffffffffffffffffffffffffffffffffffffe08184030181529181526020820180517bffffffffffffffffffffffffffffffffffffffffffffffffffffffff167f2370632b00000000000000000000000000000000000000000000000000000000179052516125999190614942565b73ffffffffffffffffffffffffffffffffffffffff821661278c57600080fd5b600061088c868686868587612871565b600080547501000000000000000000000000000000000000000000900460ff1615612823576040517f08c379a000000000000000000000000000000000000000000000000000000000815260206004820152600260248201527f4453000000000000000000000000000000000000000000000000000000000000604482015260640161079f565b61282c34612f74565b600080547fffffffffffffffffffff00ffffffffffffffffffffffffffffffffffffffffff167501000000000000000000000000000000000000000000179055919050565b6000600f85900b13156128905761288b8685858585612f93565b61088c565b6000600f85900b121561088c5761088c856128aa86614b1e565b858585612fc6565b6fffffffffffffffffffffffffffffffff8116156128e6576128e682826fffffffffffffffffffffffffffffffff16612fee565b5050565b6000808360000151612900578260200151612903565b82515b9050808460200151610d5d9190614542565b60007fffffffffffffffffffffffffffffffffffffffffffffffffffffffffffffffff60ff8416016129485750806106cc565b7ffffffffffffffffffffffffffffffffffffffffffffffffffffffffffffffffe60ff8416016129825761297b82614b1e565b90506106cc565b7ffffffffffffffffffffffffffffffffffffffffffffffffffffffffffffffffc60ff8416016129cb5761271082600f0b85600f0b6129c19190614bbb565b61297b9190614c36565b7ffffffffffffffffffffffffffffffffffffffffffffffffffffffffffffffffb60ff8416016129ff5761297b8285614542565b61297b82856144f4565b6000620100026fffffffffffffffffffffffffffffffff831610801590612a5157506f0ffff5433e2b3d8211706e6102aa94726fffffffffffffffffffffffffffffffff8316105b612a5a57600080fd5b77ffffffffffffffffffffffffffffffff0000000000000000604083901b166fffffffffffffffffffffffffffffffff811160071b81811c67ffffffffffffffff811160061b90811c63ffffffff811160051b90811c61ffff811160041b90811c60ff8111600390811b91821c600f811160021b90811c918211600190811b92831c97908811961790941790921717909117171760808110612b0457607f810383901c9150612b0e565b80607f0383901b91505b908002607f81811c60ff83811c9190911c800280831c81831c1c800280841c81841c1c800280851c81851c1c800280861c81861c1c800280871c81871c1c800280881c81881c1c800280891c81891c1c8002808a1c818a1c1c8002808b1c818b1c1c8002808c1c818c1c1c8002808d1c818d1c1c8002808e1c9c81901c9c909c1c80029c8d901c9e9d7fffffffffffffffffffffffffffffffffffffffffffffffffffffffffffffff808f0160401b60c09190911c678000000000000000161760c19b909b1c674000000000000000169a909a1760c29990991c672000000000000000169890981760c39790971c671000000000000000169690961760c49590951c670800000000000000169490941760c59390931c670400000000000000169290921760c69190911c670200000000000000161760c79190911c670100000000000000161760c89190911c6680000000000000161760c99190911c6640000000000000161760ca9190911c6620000000000000161760cb9190911c6610000000000000161760cc9190911c6608000000000000161760cd9190911c66040000000000001617693627a301d71055774c8581027ffffffffffffffffffffffffffffffffffd709b7e5480fba5a50fed5e62ffc5568101608090811d906fdb2df09e81959a81455e260799a0632f8301901d600281810b9083900b14612d4d57886fffffffffffffffffffffffffffffffff16612d29826130b8565b6fffffffffffffffffffffffffffffffff161115612d475781612d4f565b80612d4f565b815b9998505050505050505050565b600060048215612dab57806fffffffffffffffffffffffffffffffff16846fffffffffffffffffffffffffffffffff1610612da057612d9b8185614c9e565b612da3565b60005b91505061008c565b612dc660046fffffffffffffffffffffffffffffffff614c9e565b6fffffffffffffffffffffffffffffffff16846fffffffffffffffffffffffffffffffff1611612dfa57612d9b81856145c6565b6fffffffffffffffffffffffffffffffff91505061008c565b5092915050565b600082612e6457612e5f6fffffffffffffffffffffffffffffffff8086169084160260401c5b77ffffffffffffffffffffffffffffffffffffffffffffffff1661342a565b610d5d565b610d5d612e408584613463565b6000806000612e82878787876134ac565b915091506000612eb2858484612e988e8e612d5c565b6fffffffffffffffffffffffffffffffff16929190613551565b905088612ed957612ed4816fffffffffffffffffffffffffffffffff166135cb565b612eed565b6ffffffffffffffffffffffffffffff80081165b9a9950505050505050505050565b600061ffff8216612f0c8186614cc7565b60020b1580156112bf5750612f218185614cc7565b60020b1595945050505050565b60008160020b8360020b12612f4257600080fd5b612f4e8685858561367c565b612f68576fffffffffffffffffffffffffffffffff612451565b612451868685856136f4565b806fffffffffffffffffffffffffffffffff811681146110e257600080fd5b8015612fba576000612fa6868686613760565b9050612fb486828686613875565b506112ef565b6112ef858585856138c3565b8015612fe257612fd78585856138f4565b61210f8584846139a6565b6112ef858585856139cb565b60008273ffffffffffffffffffffffffffffffffffffffff168260405160006040518083038185875af1925050503d8060008114613048576040519150601f19603f3d011682016040523d82523d6000602084013e61304d565b606091505b505090508061061a576040517f08c379a000000000000000000000000000000000000000000000000000000000815260206004820152600260248201527f5446000000000000000000000000000000000000000000000000000000000000604482015260640161079f565b60007ffffffffffffffffffffffffffffffffffffffffffffffffffffffffffff5d892600283900b128015906130f55750620cb14a600283900b13155b6130fe57600080fd5b6000808360020b12613113578260020b61311b565b8260020b6000035b905060008160011660000361314157700100000000000000000000000000000000613153565b6ffffcb933bd6fad37aa2d162d1a5940015b70ffffffffffffffffffffffffffffffffff1690506002821615613187576ffff97272373d413259a46990580e213a0260801c5b60048216156131a6576ffff2e50f5f656932ef12357cf3c7fdcc0260801c5b60088216156131c5576fffe5caca7e10e4e61c3624eaa0941cd00260801c5b60108216156131e4576fffcb9843d60f6159c9db58835c9266440260801c5b6020821615613203576fff973b41fa98c081472e6896dfb254c00260801c5b6040821615613222576fff2ea16466c96a3843ec78b326b528610260801c5b6080821615613241576ffe5dee046a99a2a811c461f1969c30530260801c5b610100821615613261576ffcbe86c7900a88aedcffc83b479aa3a40260801c5b610200821615613281576ff987a7253ac413176f2b074cf7815e540260801c5b6104008216156132a1576ff3392b0822b70005940c7a398e4b70f30260801c5b6108008216156132c1576fe7159475a2c29b7443b29c7fa6e889d90260801c5b6110008216156132e1576fd097f3bdfd2022b8845ad8f792aa58250260801c5b612000821615613301576fa9f746462d870fdf8a65dc1f90e061e50260801c5b614000821615613321576f70d869a156d2a1b890bb3df62baf32f70260801c5b618000821615613341576f31be135f97d08fd981231505542fcfa60260801c5b62010000821615613362576f09aa508b5b7a84e1c677de54f3e99bc90260801c5b62020000821615613382576e5d6af8dedb81196699c329225ee6040260801c5b620400008216156133a1576d2216e584f5fa1ea926041bedfe980260801c5b620800008216156133be576b048a170391f7dc42444e8fa20260801c5b60008460020b13156133fd57807fffffffffffffffffffffffffffffffffffffffffffffffffffffffffffffffff816133f9576133f9614c07565b0490505b68010000000000000000810615613415576001613418565b60005b60ff16604082901c0192505050919050565b806fffffffffffffffffffffffffffffffff811677ffffffffffffffffffffffffffffffffffffffffffffffff8216146110e257600080fd5b60006fffffffffffffffffffffffffffffffff821677ffffffffffffffffffffffffffffffff0000000000000000604085901b16816134a4576134a4614c07565b049392505050565b6000806134bb8560020b6130b8565b91506134c98460020b6130b8565b9050816fffffffffffffffffffffffffffffffff16866fffffffffffffffffffffffffffffffff161161350657821561350157600080fd5b612057565b806fffffffffffffffffffffffffffffffff16866fffffffffffffffffffffffffffffffff161061353b578261350157600080fd5b8215613548575084612057565b94959350505050565b60008361357c5761357585600161356786613a0e565b61357086613a0e565b613551565b9050610d5d565b6000826fffffffffffffffffffffffffffffffff16846fffffffffffffffffffffffffffffffff16116135b1578383036135b5565b8284035b90506135c386600183612e1a565b915050610d5d565b60006ffffffffffffffffffffffffffffff8008083169003613649576040517f08c379a000000000000000000000000000000000000000000000000000000000815260206004820152600860248201527f6f766572666c6f77000000000000000000000000000000000000000000000000604482015260640161079f565b50600b90811c6e1fffffffffffffffffffffffffffff16600101901b7107fffffffffffffffffffffffffffffff8001690565b600084602001516fffffffffffffffffffffffffffffffff166000036136a457506000610d5d565b60006136b08486613a63565b905060006136be8685613a63565b9050866040015161ffff168262ffffff16111580156103f35750866040015161ffff168162ffffff161115979650505050505050565b600080613702858585613a8b565b905062ffffff81161561371a576135c3868286613b08565b60006137268686613b20565b905060006137348786613b99565b9050613741888287613be1565b61374c898489613be1565b61375691906145c6565b9350505050610d5d565b6040805173ffffffffffffffffffffffffffffffffffffffff858116602080840191909152908416828401528251808303840181526060909201835281519181019190912060008181526201001090925291812080549192916fffffffffffffffffffffffffffffffff908116908616811115613838578154869083906000906137fd9084906fffffffffffffffffffffffffffffffff16614c9e565b92506101000a8154816fffffffffffffffffffffffffffffffff02191690836fffffffffffffffffffffffffffffffff16021790555061386b565b81547fffffffffffffffffffffffffffffffff000000000000000000000000000000001682556138688187614c9e565b93505b5050509392505050565b6fffffffffffffffffffffffffffffffff83161561389e57613899848484846138c3565b610ace565b73ffffffffffffffffffffffffffffffffffffffff8216610ace57610ace84826128b2565b73ffffffffffffffffffffffffffffffffffffffff82166138e957613899848483613c0e565b610ace848484613cb4565b6040805173ffffffffffffffffffffffffffffffffffffffff8581166020808401919091529084168284015282518083038401815260609092018352815191810191909120600081815262010010909252918120805485929061396a9084906fffffffffffffffffffffffffffffffff166145c6565b92506101000a8154816fffffffffffffffffffffffffffffffff02191690836fffffffffffffffffffffffffffffffff16021790555050505050565b73ffffffffffffffffffffffffffffffffffffffff821661061a5761061a83826128b2565b73ffffffffffffffffffffffffffffffffffffffff82166139f157613899848483613cd2565b610ace8285856fffffffffffffffffffffffffffffffff16613cf7565b600080826fffffffffffffffffffffffffffffffff1670010000000000000000000000000000000081613a4357613a43614c07565b0490506fffffffffffffffffffffffffffffffff81111561008c57600080fd5b60008260020b8260020b13613a8157613a7c8284614ce9565b6106cc565b6106cc8383614ce9565b60008160020b8360020b12613a9f57600080fd5b60008360020b128015613ab5575060008260020b125b15613ad55761297b84613ac784614d2a565b613ad086614d2a565b613a8b565b60008360020b128015613aec575060008260020b12155b15613af9575060006106cc565b61297b8461ffff168484613e60565b6000613b15848484613be1565b610d5d906002614d5f565b6000808260020b1215613b4657613b3f83613b3a84614d2a565b613b99565b905061008c565b8160020b600003613b595750600061008c565b8161ffff841660008180613b6e600186614d93565b613b789190614daf565b613b83906001614dd1565b613b8d9190614ded565b90506124518382614d93565b6000808260020b1215613bb857613b3f83613bb384614d2a565b613b20565b8161ffff8416600081613bcb8185614daf565b613bd59190614ded565b90506124518184614d93565b60008262ffffff16600003613bf8575060006106cc565b602084015184516112bf90829085908790613ecb565b816fffffffffffffffffffffffffffffffff16816fffffffffffffffffffffffffffffffff161015613c9c576040517f08c379a000000000000000000000000000000000000000000000000000000000815260206004820152600260248201527f4543000000000000000000000000000000000000000000000000000000000000604482015260640161079f565b6000613ca88383614c9e565b9050610ace84826128b2565b61061a818430856fffffffffffffffffffffffffffffffff16613f01565b61061a83613ce083856145c6565b6fffffffffffffffffffffffffffffffff16612fee565b6040805173ffffffffffffffffffffffffffffffffffffffff8481166024830152604480830185905283518084039091018152606490920183526020820180517bffffffffffffffffffffffffffffffffffffffffffffffffffffffff167fa9059cbb000000000000000000000000000000000000000000000000000000001790529151600092839290871691613d8e9190614942565b6000604051808303816000865af19150503d8060008114613dcb576040519150601f19603f3d011682016040523d82523d6000602084013e613dd0565b606091505b5091509150818015613dfa575080511580613dfa575080806020019051810190613dfa9190614e0c565b6112ef576040517f08c379a000000000000000000000000000000000000000000000000000000000815260206004820152600260248201527f5446000000000000000000000000000000000000000000000000000000000000604482015260640161079f565b6000613e6c8484614e29565b62ffffff161580613e895750613e828483614e29565b62ffffff16155b15613e96575060006106cc565b613ea08483614daf565b62ffffff16613eaf8585614daf565b62ffffff1614613ec1575060006106cc565b61297b8383614d93565b600080613eda8560020b6130b8565b90506000613ef3613eeb8688614add565b60020b6130b8565b90506103f387858484613551565b6040805173ffffffffffffffffffffffffffffffffffffffff85811660248301528481166044830152606480830185905283518084039091018152608490920183526020820180517bffffffffffffffffffffffffffffffffffffffffffffffffffffffff167f23b872dd000000000000000000000000000000000000000000000000000000001790529151600092839290881691613fa09190614942565b6000604051808303816000865af19150503d8060008114613fdd576040519150601f19603f3d011682016040523d82523d6000602084013e613fe2565b606091505b509150915081801561400c57508051158061400c57508080602001905181019061400c9190614e0c565b61088c576040517f08c379a000000000000000000000000000000000000000000000000000000000815260206004820152600260248201527f5446000000000000000000000000000000000000000000000000000000000000604482015260640161079f565b73ffffffffffffffffffffffffffffffffffffffff81168114610aeb57600080fd5b61ffff81168114610aeb57600080fd5b600080604083850312156140b757600080fd5b82356140c281614072565b915060208301356140d281614094565b809150509250929050565b600080602083850312156140f057600080fd5b823567ffffffffffffffff8082111561410857600080fd5b818501915085601f83011261411c57600080fd5b81358181111561412b57600080fd5b86602082850101111561413d57600080fd5b60209290920196919550909350505050565b6020808252825182820181905260009190848201906040850190845b8181101561418a578351600f0b8352928401929184019160010161416b565b50909695505050505050565b7f4e487b7100000000000000000000000000000000000000000000000000000000600052601160045260246000fd5b8082018082111561008c5761008c614196565b7f4e487b7100000000000000000000000000000000000000000000000000000000600052604160045260246000fd5b7f4e487b7100000000000000000000000000000000000000000000000000000000600052603260045260246000fd5b60007fffffffffffffffffffffffffffffffffffffffffffffffffffffffffffffffff820361426757614267614196565b5060010190565b6000808585111561427e57600080fd5b8386111561428b57600080fd5b5050820193919092039150565b803560ff811681146110e257600080fd5b80600f0b8114610aeb57600080fd5b6fffffffffffffffffffffffffffffffff81168114610aeb57600080fd5b8015158114610aeb57600080fd5b60008060008060008060c087890312156142fd57600080fd5b61430687614298565b9550602087013561431681614072565b94506040870135614326816142a9565b93506060870135614336816142b8565b92506080870135614346816142d6565b915061435460a08801614298565b90509295509295509295565b600081518084526020808501945080840160005b838110156143e45781518051600290810b895284820151900b8489015260408082015115159089015260608082015115159089015260808082015160ff169089015260a0908101516fffffffffffffffffffffffffffffffff169088015260c09096019590820190600101614374565b509495945050505050565b60006101c073ffffffffffffffffffffffffffffffffffffffff808c168452808b166020850152808a16604085015280891660608501525086511515608084015260ff60208801511660a08401526fffffffffffffffffffffffffffffffff60408801511660c08401526144b060e084018780511515825260208101511515602083015260ff604082015116604083015260608101516fffffffffffffffffffffffffffffffff808216606085015280608084015116608085015250505050565b806101808401526144c381840186614360565b915050612d4f6101a083018461ffff169052565b6000602082840312156144e957600080fd5b81516106cc81614094565b600f82810b9082900b037fffffffffffffffffffffffffffffffff8000000000000000000000000000000081126f7fffffffffffffffffffffffffffffff8213171561008c5761008c614196565b600f81810b9083900b016f7fffffffffffffffffffffffffffffff81137fffffffffffffffffffffffffffffffff800000000000000000000000000000008212171561008c5761008c614196565b6000602082840312156145a257600080fd5b6106cc82614298565b61ffff828116828216039080821115612e1357612e13614196565b6fffffffffffffffffffffffffffffffff818116838216019080821115612e1357612e13614196565b600080600080600060a0868803121561460757600080fd5b853594506020860135614619816142d6565b935061462760408701614298565b92506060860135614637816142b8565b915061464560808701614298565b90509295509295909350565b600080600080600060a0868803121561466957600080fd5b8535614674816142d6565b94506020860135614684816142d6565b935061469260408701614298565b925060608601356146a2816142b8565b915060808601356146b2816142b8565b809150509295509295909350565b6000806000606084860312156146d557600080fd5b83356146e0816142d6565b925060208401356146f0816142d6565b91506040840135614700816142d6565b809150509250925092565b60008060008060008060c0878903121561472457600080fd5b863561472f81614072565b9550602087013561473f816142a9565b9450604087013561474f816142b8565b9350606087013561475f816142d6565b9250608087013561476f816142d6565b915060a087013561477f816142d6565b809150509295509295509295565b8035600281900b81146110e257600080fd5b60008060008060008060c087890312156147b857600080fd5b6147c18761478d565b95506147cf6020880161478d565b945060408701356147df816142d6565b935060608701356147ef816142d6565b92506147fd60808801614298565b915060a087013561477f816142b8565b84516fffffffffffffffffffffffffffffffff908116825260208087015182168184015260408088015183168185015260608089015167ffffffffffffffff908116828701526080808b015190911681870152600289900b60a08701528751151560c087015292870151151560e08601529086015160ff1661010085015285015182166101208401528401511661014082015261028081018251805160ff908116610160850152602082015161ffff908116610180860152604083015182166101a08601526060830151166101c08501526080820151166101e084015260a08101516148ff61020085018260ff169052565b5060c0015160ff16610220830152602083015161024083015260409092015173ffffffffffffffffffffffffffffffffffffffff16610260909101529392505050565b6000825160005b818110156149635760208186018101518583015201614949565b506000920191825250919050565b80516110e2816142a9565b80516110e2816142b8565b805167ffffffffffffffff811681146110e257600080fd5b6000806000806000808688036101208112156149ba57600080fd5b60808112156149c857600080fd5b506040516080810181811067ffffffffffffffff82111715614a13577f4e487b7100000000000000000000000000000000000000000000000000000000600052604160045260246000fd5b604052614a1f88614971565b8152614a2d60208901614971565b6020820152614a3e6040890161497c565b6040820152614a4f6060890161497c565b60608201529550614a626080880161497c565b9450614a7060a0880161497c565b9350614a7e60c0880161497c565b9250614a8c60e08801614987565b91506143546101008801614987565b600080600060608486031215614ab057600080fd5b8351614abb816142a9565b6020850151909350614acc816142a9565b6040850151909250614700816142b8565b600281810b9083900b01627fffff81137fffffffffffffffffffffffffffffffffffffffffffffffffffffffffff8000008212171561008c5761008c614196565b600081600f0b7fffffffffffffffffffffffffffffffff800000000000000000000000000000008103614b5357614b53614196565b60000392915050565b60008060008060808587031215614b7257600080fd5b8451614b7d816142a9565b6020860151909450614b8e816142a9565b6040860151909350614b9f816142b8565b6060860151909250614bb0816142b8565b939692955090935050565b808202600082127f800000000000000000000000000000000000000000000000000000000000000084141615614bf357614bf3614196565b818105831482151761008c5761008c614196565b7f4e487b7100000000000000000000000000000000000000000000000000000000600052601260045260246000fd5b600082614c4557614c45614c07565b7fffffffffffffffffffffffffffffffffffffffffffffffffffffffffffffffff83147f800000000000000000000000000000000000000000000000000000000000000083141615614c9957614c99614196565b500590565b6fffffffffffffffffffffffffffffffff828116828216039080821115612e1357612e13614196565b60008260020b80614cda57614cda614c07565b808360020b0791505092915050565b600282810b9082900b037fffffffffffffffffffffffffffffffffffffffffffffffffffffffffff8000008112627fffff8213171561008c5761008c614196565b60008160020b7fffffffffffffffffffffffffffffffffffffffffffffffffffffffffff8000008103614b5357614b53614196565b6fffffffffffffffffffffffffffffffff818116838216028082169190828114614d8b57614d8b614196565b505092915050565b62ffffff828116828216039080821115612e1357612e13614196565b600062ffffff80841680614dc557614dc5614c07565b92169190910492915050565b62ffffff818116838216019080821115612e1357612e13614196565b62ffffff818116838216028082169190828114614d8b57614d8b614196565b600060208284031215614e1e57600080fd5b81516106cc816142d6565b600062ffffff80841680614e3f57614e3f614c07565b9216919091069291505056fea26469706673582212204b994192a79c774380c497ec4cf28fced4aa016462d6ae8fa36a8401c777181264736f6c63430008130033",
  "linkReferences": {},
  "deployedLinkReferences": {}
}