{
  "_format": "hh-sol-artifact-1",
  "contractName": "SdexSwapRouter",
  "address": "0x3F1cE244F286e9e16B68cd117b07A7c4a8bf815e",
  "sourceName": "contracts/periphery/SdexSwapRouter.sol",
  "abi": [
    {
      "inputs": [
        {
          "internalType": "address",
          "name": "dex",
          "type": "address"
        }
      ],
      "stateMutability": "nonpayable",
      "type": "constructor"
    },
    {
      "inputs": [
        {
          "internalType": "address",
          "name": "base",
          "type": "address"
        },
        {
          "internalType": "address",
          "name": "quote",
          "type": "address"
        },
        {
          "internalType": "uint256",
          "name": "poolIdx",
          "type": "uint256"
        },
        {
          "internalType": "bool",
          "name": "isBuy",
          "type": "bool"
        },
        {
          "internalType": "bool",
          "name": "inBaseQty",
          "type": "bool"
        },
        {
          "internalType": "uint128",
          "name": "qty",
          "type": "uint128"
        },
        {
          "internalType": "uint16",
          "name": "tip",
          "type": "uint16"
        },
        {
          "internalType": "uint128",
          "name": "limitPrice",
          "type": "uint128"
        },
        {
          "internalType": "uint128",
          "name": "minOut",
          "type": "uint128"
        },
        {
          "internalType": "uint8",
          "name": "reserveFlags",
          "type": "uint8"
        }
      ],
      "name": "swap",
      "outputs": [
        {
          "internalType": "int128",
          "name": "baseFlow",
          "type": "int128"
        },
        {
          "internalType": "int128",
          "name": "quoteFlow",
          "type": "int128"
        }
      ],
      "stateMutability": "payable",
      "type": "function"
    },
    {
      "stateMutability": "payable",
      "type": "receive"
    }
  ],
  "bytecode": "0x60a060405234801561001057600080fd5b50604051610ea5380380610ea583398101604081905261002f91610040565b6001600160a01b0316608052610070565b60006020828403121561005257600080fd5b81516001600160a01b038116811461006957600080fd5b9392505050565b608051610e13610092600039600081816104bd01526106260152610e136000f3fe6080604052600436106100225760003560e01c80633d719cd9146100fb57600080fd5b366100f65760005473ffffffffffffffffffffffffffffffffffffffff166100d1576040517f08c379a000000000000000000000000000000000000000000000000000000000815260206004820152602360248201527f446f6573206e6f742072656365697665204574686572206f757473696465206c60448201527f6f636b000000000000000000000000000000000000000000000000000000000060648201526084015b60405180910390fd5b6000546100f49073ffffffffffffffffffffffffffffffffffffffff163461012c565b005b600080fd5b61010e610109366004610afb565b6101fb565b60408051600f93840b81529190920b60208201520160405180910390f35b60008273ffffffffffffffffffffffffffffffffffffffff168260405160006040518083038185875af1925050503d8060008114610186576040519150601f19603f3d011682016040523d82523d6000602084013e61018b565b606091505b50509050806101f6576040517f08c379a000000000000000000000000000000000000000000000000000000000815260206004820152600260248201527f544600000000000000000000000000000000000000000000000000000000000060448201526064016100c8565b505050565b60008054819073ffffffffffffffffffffffffffffffffffffffff161561027e576040517f08c379a000000000000000000000000000000000000000000000000000000000815260206004820152600f60248201527f52652d656e7472616e742063616c6c000000000000000000000000000000000060448201526064016100c8565b600080547fffffffffffffffffffffffff0000000000000000000000000000000000000000163317905560ff831615610339576040517f08c379a000000000000000000000000000000000000000000000000000000000815260206004820152602a60248201527f526f7574657220646f6573206e6f7420737570706f727420737572706c75732060448201527f636f6c6c61746572616c0000000000000000000000000000000000000000000060648201526084016100c8565b6103478c8c8b8b8b896103a0565b6103588c8c8c8c8c8c8c8c8c610420565b90925090506103678c8c6105a7565b600080547fffffffffffffffffffffffff0000000000000000000000000000000000000000169055909b909a5098505050505050505050565b60008480156103c4575073ffffffffffffffffffffffffffffffffffffffff871615155b9050841560008115861515146103da57836103dc565b845b6fffffffffffffffffffffffffffffffff16905082156104055761040089826105bd565b610415565b81156104155761041588826105bd565b505050505050505050565b6040805173ffffffffffffffffffffffffffffffffffffffff808c1660208301528a169181019190915260608101889052861515608082015285151560a08201526fffffffffffffffffffffffffffffffff80861660c083015261ffff851660e0830152808416610100830152821661012082015260006101408201819052908190819061016001604051602081830303815290604052905060007f000000000000000000000000000000000000000000000000000000000000000073ffffffffffffffffffffffffffffffffffffffff1663a15112f9346001856040518463ffffffff1660e01b8152600401610518929190610be9565b60006040518083038185885af1158015610536573d6000803e3d6000fd5b50505050506040513d6000823e601f3d9081017fffffffffffffffffffffffffffffffffffffffffffffffffffffffffffffffe016820160405261057d9190810190610c74565b9050808060200190518101906105939190610d51565b909e909d509b505050505050505050505050565b6105b0826106f8565b6105b9816106f8565b5050565b73ffffffffffffffffffffffffffffffffffffffff821660009081526001602052604081205490036106ec576040517f095ea7b300000000000000000000000000000000000000000000000000000000815273ffffffffffffffffffffffffffffffffffffffff7f0000000000000000000000000000000000000000000000000000000000000000811660048301527fffffffffffffffffffffffffffffffffffffffffffffffffffffffffffffffff602483015283169063095ea7b3906044016020604051808303816000875af115801561069d573d6000803e3d6000fd5b505050506040513d601f19601f820116820180604052508101906106c19190610d84565b5073ffffffffffffffffffffffffffffffffffffffff82166000908152600160208190526040909120555b6105b9823330846107bb565b73ffffffffffffffffffffffffffffffffffffffff8116156107b8576040517f70a0823100000000000000000000000000000000000000000000000000000000815230600482015260009073ffffffffffffffffffffffffffffffffffffffff8316906370a0823190602401602060405180830381865afa158015610781573d6000803e3d6000fd5b505050506040513d601f19601f820116820180604052508101906107a59190610da8565b905080156105b9576105b9823383610934565b50565b6040805173ffffffffffffffffffffffffffffffffffffffff85811660248301528481166044830152606480830185905283518084039091018152608490920183526020820180517bffffffffffffffffffffffffffffffffffffffffffffffffffffffff167f23b872dd00000000000000000000000000000000000000000000000000000000179052915160009283929088169161085a9190610dc1565b6000604051808303816000865af19150503d8060008114610897576040519150601f19603f3d011682016040523d82523d6000602084013e61089c565b606091505b50915091508180156108c65750805115806108c65750808060200190518101906108c69190610d84565b61092c576040517f08c379a000000000000000000000000000000000000000000000000000000000815260206004820152600260248201527f544600000000000000000000000000000000000000000000000000000000000060448201526064016100c8565b505050505050565b6040805173ffffffffffffffffffffffffffffffffffffffff8481166024830152604480830185905283518084039091018152606490920183526020820180517bffffffffffffffffffffffffffffffffffffffffffffffffffffffff167fa9059cbb0000000000000000000000000000000000000000000000000000000017905291516000928392908716916109cb9190610dc1565b6000604051808303816000865af19150503d8060008114610a08576040519150601f19603f3d011682016040523d82523d6000602084013e610a0d565b606091505b5091509150818015610a37575080511580610a37575080806020019051810190610a379190610d84565b610a9d576040517f08c379a000000000000000000000000000000000000000000000000000000000815260206004820152600260248201527f544600000000000000000000000000000000000000000000000000000000000060448201526064016100c8565b5050505050565b803573ffffffffffffffffffffffffffffffffffffffff81168114610ac857600080fd5b919050565b80151581146107b857600080fd5b80356fffffffffffffffffffffffffffffffff81168114610ac857600080fd5b6000806000806000806000806000806101408b8d031215610b1b57600080fd5b610b248b610aa4565b9950610b3260208c01610aa4565b985060408b0135975060608b0135610b4981610acd565b965060808b0135610b5981610acd565b9550610b6760a08c01610adb565b945060c08b013561ffff81168114610b7e57600080fd5b9350610b8c60e08c01610adb565b9250610b9b6101008c01610adb565b91506101208b013560ff81168114610bb257600080fd5b809150509295989b9194979a5092959850565b60005b83811015610be0578181015183820152602001610bc8565b50506000910152565b61ffff831681526040602082015260008251806040840152610c12816060850160208701610bc5565b601f017fffffffffffffffffffffffffffffffffffffffffffffffffffffffffffffffe016919091016060019392505050565b7f4e487b7100000000000000000000000000000000000000000000000000000000600052604160045260246000fd5b600060208284031215610c8657600080fd5b815167ffffffffffffffff80821115610c9e57600080fd5b818401915084601f830112610cb257600080fd5b815181811115610cc457610cc4610c45565b604051601f82017fffffffffffffffffffffffffffffffffffffffffffffffffffffffffffffffe0908116603f01168101908382118183101715610d0a57610d0a610c45565b81604052828152876020848701011115610d2357600080fd5b610d34836020830160208801610bc5565b979650505050505050565b8051600f81900b8114610ac857600080fd5b60008060408385031215610d6457600080fd5b610d6d83610d3f565b9150610d7b60208401610d3f565b90509250929050565b600060208284031215610d9657600080fd5b8151610da181610acd565b9392505050565b600060208284031215610dba57600080fd5b5051919050565b60008251610dd3818460208701610bc5565b919091019291505056fea2646970667358221220e9dfc09d1c06ac24bea8f691681763147af30b497680d8202ecc7817c7a356a564736f6c63430008130033",
  "linkReferences": {},
  "deployedLinkReferences": {}
}