{
  "_format": "hh-sol-artifact-1",
  "contractName": "SdexImpact",
  "sourceName": "contracts/lens/SdexImpact.sol",
  "address": "0x56c1F530BF3C81f729EBA05b7BFbf5daA48C875b",
  "abi": [
    {
      "inputs": [
        {
          "internalType": "address",
          "name": "dex",
          "type": "address"
        }
      ],
      "stateMutability": "nonpayable",
      "type": "constructor"
    },
    {
      "inputs": [
        {
          "internalType": "address",
          "name": "base",
          "type": "address"
        },
        {
          "internalType": "address",
          "name": "quote",
          "type": "address"
        },
        {
          "internalType": "uint256",
          "name": "poolIdx",
          "type": "uint256"
        },
        {
          "internalType": "bool",
          "name": "isBuy",
          "type": "bool"
        },
        {
          "internalType": "bool",
          "name": "inBaseQty",
          "type": "bool"
        },
        {
          "internalType": "uint128",
          "name": "qty",
          "type": "uint128"
        },
        {
          "internalType": "uint16",
          "name": "poolTip",
          "type": "uint16"
        },
        {
          "internalType": "uint128",
          "name": "limitPrice",
          "type": "uint128"
        }
      ],
      "name": "calcImpact",
      "outputs": [
        {
          "internalType": "int128",
          "name": "baseFlow",
          "type": "int128"
        },
        {
          "internalType": "int128",
          "name": "quoteFlow",
          "type": "int128"
        },
        {
          "internalType": "uint128",
          "name": "finalPrice",
          "type": "uint128"
        }
      ],
      "stateMutability": "view",
      "type": "function"
    },
    {
      "inputs": [],
      "name": "dex_",
      "outputs": [
        {
          "internalType": "address",
          "name": "",
          "type": "address"
        }
      ],
      "stateMutability": "view",
      "type": "function"
    }
  ],
  "bytecode": "0x60a06040523480156200001157600080fd5b5060405162003aaa38038062003aaa833981016040819052620000349162000110565b6001600160a01b03811615801590620000ad5750806001600160a01b031663b8d25de96040518163ffffffff1660e01b8152600401602060405180830381865afa15801562000087573d6000803e3d6000fd5b505050506040513d601f19601f82011682018060405250810190620000ad919062000142565b620000fe5760405162461bcd60e51b815260206004820152601360248201527f496e76616c696420536465785377617044657800000000000000000000000000604482015260640160405180910390fd5b6001600160a01b031660805262000166565b6000602082840312156200012357600080fd5b81516001600160a01b03811681146200013b57600080fd5b9392505050565b6000602082840312156200015557600080fd5b815180151581146200013b57600080fd5b608051613906620001a460003960008181608d01528181610244015281816103df0152818161047a015281816111d4015261179701526139066000f3fe608060405234801561001057600080fd5b50600436106100365760003560e01c80634a6c44bf1461003b57806387834a0e14610088575b600080fd5b61004e61004936600461358b565b6100d4565b60408051600f94850b81529290930b60208301526fffffffffffffffffffffffffffffffff16918101919091526060015b60405180910390f35b6100af7f000000000000000000000000000000000000000000000000000000000000000081565b60405173ffffffffffffffffffffffffffffffffffffffff909116815260200161007f565b6000806000806100e68c8c8c8961015b565b905060006100f58d8d8d61031e565b6040805160a0810182526000918101919091528b151581528a151560208201526fffffffffffffffffffffffffffffffff8a8116606083015288166080820152909150610143838383610557565b9251909f929e509c50909a5050505050505050505050565b60408051610140810182526000606082018181526080830182905260a0830182905260c0830182905260e0830182905261010083018290526101208301829052825260208201819052918101919091526201000960006101bc8787876106a7565b9050600081836040516020016101dc929190918252602082015260400190565b604080518083037fffffffffffffffffffffffffffffffffffffffffffffffffffffffffffffffe00181529082905280516020909101207f02ce8af30000000000000000000000000000000000000000000000000000000082526004820181905291506000907f000000000000000000000000000000000000000000000000000000000000000073ffffffffffffffffffffffffffffffffffffffff16906302ce8af390602401602060405180830381865afa1580156102a0573d6000803e3d6000fd5b505050506040513d601f19601f820116820180604052508101906102c49190613624565b6020808701859052865161ffff600884901c811691830191909152875160ff601885901c16604090910152875190910151919250908116908716111561031257845161ffff87166020909101525b50505050949350505050565b6040805160a0810182526000808252602082018190529181018290526060810182905260808101829052906103548585856106a7565b90506000816201000f604051602001610377929190918252602082015260400190565b604080518083037fffffffffffffffffffffffffffffffffffffffffffffffffffffffffffffffe00181529082905280516020909101207f02ce8af30000000000000000000000000000000000000000000000000000000082526004820181905291506000907f000000000000000000000000000000000000000000000000000000000000000073ffffffffffffffffffffffffffffffffffffffff16906302ce8af390602401602060405180830381865afa15801561043b573d6000803e3d6000fd5b505050506040513d601f19601f8201168201806040525081019061045f9190613624565b9050600073ffffffffffffffffffffffffffffffffffffffff7f0000000000000000000000000000000000000000000000000000000000000000166302ce8af36104aa85600161366c565b6040518263ffffffff1660e01b81526004016104c891815260200190565b602060405180830381865afa1580156104e5573d6000803e3d6000fd5b505050506040513d601f19601f820116820180604052508101906105099190613624565b6fffffffffffffffffffffffffffffffff8084168752608093841c60208801528116604087015267ffffffffffffffff81841c16606087015260c01c91850191909152509195945050505050565b60808101518251825160009283926fffffffffffffffffffffffffffffffff91821691161015901515036105905750600090508061069f565b60408051608081018252600080825260208201819052918101829052606081019190915260006105d586600001516fffffffffffffffffffffffffffffffff16610735565b905060015b801561068f576000806105f68a60200151896000015186610a88565b8b51919350915061060d908a9087908b9086610ad6565b6106178989610b8d565b9250821561068857801561066e57600061063a8b60200151848b60000151610c2c565b92839150600282810b91900b148061066b578b5161065e908c9089908d9088610ad6565b6106688b8b610b8d565b94505b50505b82156106885761068585838b8b8e60200151610c9a565b93505b50506105da565b5050805160209091015190925090505b935093915050565b60008273ffffffffffffffffffffffffffffffffffffffff168473ffffffffffffffffffffffffffffffffffffffff16106106e157600080fd5b6040805173ffffffffffffffffffffffffffffffffffffffff8087166020830152851691810191909152606081018390526080016040516020818303038152906040528051906020012090505b9392505050565b6000620100026fffffffffffffffffffffffffffffffff83161080159061077d57506f0ffff5433e2b3d8211706e6102aa94726fffffffffffffffffffffffffffffffff8316105b61078657600080fd5b77ffffffffffffffffffffffffffffffff0000000000000000604083901b166fffffffffffffffffffffffffffffffff811160071b81811c67ffffffffffffffff811160061b90811c63ffffffff811160051b90811c61ffff811160041b90811c60ff8111600390811b91821c600f811160021b90811c918211600190811b92831c9790881196179094179092171790911717176080811061083057607f810383901c915061083a565b80607f0383901b91505b908002607f81811c60ff83811c9190911c800280831c81831c1c800280841c81841c1c800280851c81851c1c800280861c81861c1c800280871c81871c1c800280881c81881c1c800280891c81891c1c8002808a1c818a1c1c8002808b1c818b1c1c8002808c1c818c1c1c8002808d1c818d1c1c8002808e1c9c81901c9c909c1c80029c8d901c9e9d7fffffffffffffffffffffffffffffffffffffffffffffffffffffffffffffff808f0160401b60c09190911c678000000000000000161760c19b909b1c674000000000000000169a909a1760c29990991c672000000000000000169890981760c39790971c671000000000000000169690961760c49590951c670800000000000000169490941760c59390931c670400000000000000169290921760c69190911c670200000000000000161760c79190911c670100000000000000161760c89190911c6680000000000000161760c99190911c6640000000000000161760ca9190911c6620000000000000161760cb9190911c6610000000000000161760cc9190911c6608000000000000161760cd9190911c66040000000000001617693627a301d71055774c8581027ffffffffffffffffffffffffffffffffffd709b7e5480fba5a50fed5e62ffc5568101608090811d906fdb2df09e81959a81455e260799a0632f8301901d600281810b9083900b14610a7957886fffffffffffffffffffffffffffffffff16610a5582610d93565b6fffffffffffffffffffffffffffffffff161115610a735781610a7b565b80610a7b565b815b9998505050505050505050565b6000806000610a9f610a9a8786611105565b611150565b90506000610ab1600286900b8761125c565b9050600285900b60081d610ac787838386611298565b90999098509650505050505050565b6000610aeb82856080015186600001516112e7565b90506000866000015190506000806000610b108a8960600151898b6020015189611362565b60208b01519295509093509150610b2b908a908585856113ae565b610b448a89602001518a600001518b606001518961141a565b6fffffffffffffffffffffffffffffffff1660608b015260208a01519194509250610b74908a90858560006113ae565b8751610b81908b86611519565b50505050505050505050565b6000808260000151610bcd5782608001516fffffffffffffffffffffffffffffffff1684600001516fffffffffffffffffffffffffffffffff1611610bfd565b82608001516fffffffffffffffffffffffffffffffff1684600001516fffffffffffffffffffffffffffffffff16105b9050808015610c225750600083606001516fffffffffffffffffffffffffffffffff16115b9150505b92915050565b6000806000610c3b8585611566565b91509150600080610c4e888585896115a8565b9150915080610c625750925061072e915050565b610c6e88858589611603565b909250905080610c835750925061072e915050565b610c8e888588611673565b98975050505050505050565b6000610ca585611693565b610cb0575083610d8a565b600080610cbd84886116d2565b915091506000610ccd838361183a565b905060008660000151610ce35781600003610ce5565b815b6040890151909150610d09906fffffffffffffffffffffffffffffffff1682611856565b6fffffffffffffffffffffffffffffffff16604089015260208701518751606089015160009283928392610d40928e9290916118c3565b91945092509050610d528d84846119a3565b60608a0180518290036fffffffffffffffffffffffffffffffff1690528951610d7e5760018c03610d80565b8b5b9750505050505050505b95945050505050565b60007ffffffffffffffffffffffffffffffffffffffffffffffffffffffffffff5d892600283900b12801590610dd05750620cb14a600283900b13155b610dd957600080fd5b6000808360020b12610dee578260020b610df6565b8260020b6000035b9050600081600116600003610e1c57700100000000000000000000000000000000610e2e565b6ffffcb933bd6fad37aa2d162d1a5940015b70ffffffffffffffffffffffffffffffffff1690506002821615610e62576ffff97272373d413259a46990580e213a0260801c5b6004821615610e81576ffff2e50f5f656932ef12357cf3c7fdcc0260801c5b6008821615610ea0576fffe5caca7e10e4e61c3624eaa0941cd00260801c5b6010821615610ebf576fffcb9843d60f6159c9db58835c9266440260801c5b6020821615610ede576fff973b41fa98c081472e6896dfb254c00260801c5b6040821615610efd576fff2ea16466c96a3843ec78b326b528610260801c5b6080821615610f1c576ffe5dee046a99a2a811c461f1969c30530260801c5b610100821615610f3c576ffcbe86c7900a88aedcffc83b479aa3a40260801c5b610200821615610f5c576ff987a7253ac413176f2b074cf7815e540260801c5b610400821615610f7c576ff3392b0822b70005940c7a398e4b70f30260801c5b610800821615610f9c576fe7159475a2c29b7443b29c7fa6e889d90260801c5b611000821615610fbc576fd097f3bdfd2022b8845ad8f792aa58250260801c5b612000821615610fdc576fa9f746462d870fdf8a65dc1f90e061e50260801c5b614000821615610ffc576f70d869a156d2a1b890bb3df62baf32f70260801c5b61800082161561101c576f31be135f97d08fd981231505542fcfa60260801c5b6201000082161561103d576f09aa508b5b7a84e1c677de54f3e99bc90260801c5b6202000082161561105d576e5d6af8dedb81196699c329225ee6040260801c5b6204000082161561107c576d2216e584f5fa1ea926041bedfe980260801c5b62080000821615611099576b048a170391f7dc42444e8fa20260801c5b60008460020b13156110d857807fffffffffffffffffffffffffffffffffffffffffffffffffffffffffffffffff816110d4576110d461367f565b0490505b680100000000000000008106156110f05760016110f3565b60005b60ff16604082901c0192505050919050565b600080600283900b60081d9050838160405160200161113192919091825260f01b602082015260220190565b6040516020818303038152906040528051906020012091505092915050565b6040805160208101839052620100079181018290526000919082906060015b604080518083037fffffffffffffffffffffffffffffffffffffffffffffffffffffffffffffffe00181529082905280516020909101207f02ce8af30000000000000000000000000000000000000000000000000000000082526004820181905291507f000000000000000000000000000000000000000000000000000000000000000073ffffffffffffffffffffffffffffffffffffffff16906302ce8af390602401602060405180830381865afa158015611230573d6000803e3d6000fd5b505050506040513d601f19601f820116820180604052508101906112549190613624565b949350505050565b600080611268846119da565b905060008361127857600061127b565b60015b60ff1690508061128b83866119e8565b60ff160195945050505050565b60008080806112a885888a6119ff565b915091506112b7888287611a3d565b9250826112d057600886901b60020b60ff8316016112da565b6112da8887611a70565b9350505094509492505050565b6000806112f5858585611ad7565b9050620100026fffffffffffffffffffffffffffffffff82161015611320576201000291505061072e565b6f0ffff5433e2b3d8211706e6102aa94726fffffffffffffffffffffffffffffffff82161061125457506f0ffff5433e2b3d8211706e6102aa9471905061072e565b60008060008060006113808a8a8a602001518b604001518b8b611bba565b90925090506113908a8389611c0a565b61139b828289611c86565b9450945094505050955095509592505050565b6113b98584846119a3565b83156113eb5780856060018181516113d191906136ae565b6fffffffffffffffffffffffffffffffff16905250611413565b80856040018181516113fd91906136ae565b6fffffffffffffffffffffffffffffffff169052505b5050505050565b6000806000856114555787600001516fffffffffffffffffffffffffffffffff16846fffffffffffffffffffffffffffffffff161115611482565b87600001516fffffffffffffffffffffffffffffffff16846fffffffffffffffffffffffffffffffff1610155b61148b57600080fd5b600061149989878a88611cde565b90506fffffffffffffffffffffffffffffffff8087169082161080156114dd576114c68a878b8b8b611d2b565b919650945092506114d88a8488611d79565b61150c565b89516114ec8b848c8c8c611e08565b919750955093506114ff8b858b8a611e42565b61150a898c83611519565b505b5050955095509592505050565b8261153d5781516fffffffffffffffffffffffffffffffff80831691161115611558565b81516fffffffffffffffffffffffffffffffff808316911610155b61156157600080fd5b505050565b6000806000836115805761157b6001866136de565b611582565b845b90506115908160020b611f0f565b925061159e8160020b611f26565b9150509250929050565b60008060006115bb610a9a888888611f42565b90506000806115cb8382886119ff565b9150915080156115e55760006001945094505050506115fa565b6115f0888884611fa0565b6000945094505050505b94509492505050565b600080600061161a6116158888611fc9565b611fdd565b9050600061162886866119e8565b905060008061163b8460ff8516896119ff565b915091508015611656576000600195509550505050506115fa565b6116628a8a848a6115a8565b955095505050505094509492505050565b600081611689576116848484612000565b611254565b611254848461208c565b60007fffffffffffffffffffffffffffffffffffffffffffffffffffffffffff800000600283900b138015610c26575050627fffff60029190910b1290565b600080600084846040516020016116f692919091825260e81b602082015260230190565b6040516020818303038152906040528051906020012090506000816201000260405160200161172f929190918252602082015260400190565b604080518083037fffffffffffffffffffffffffffffffffffffffffffffffffffffffffffffffe00181529082905280516020909101207f02ce8af30000000000000000000000000000000000000000000000000000000082526004820181905291506000907f000000000000000000000000000000000000000000000000000000000000000073ffffffffffffffffffffffffffffffffffffffff16906302ce8af390602401602060405180830381865afa1580156117f3573d6000803e3d6000fd5b505050506040513d601f19601f820116820180604052508101906118179190613624565b6bffffffffffffffffffffffff8082169960609290921c16975095505050505050565b6000611845826120d6565b61184e846120d6565b039392505050565b60008082600f0b121561188d57508082016fffffffffffffffffffffffffffffffff8084169082161061188857600080fd5b610c26565b826fffffffffffffffffffffffffffffffff168284019150816fffffffffffffffffffffffffffffffff161015610c2657600080fd5b6000806000806118dd6118d5896120f2565b895189612117565b9050806fffffffffffffffffffffffffffffffff16856fffffffffffffffffffffffffffffffff1611611971576040517f08c379a000000000000000000000000000000000000000000000000000000000815260206004820152600260248201527f424400000000000000000000000000000000000000000000000000000000000060448201526064015b60405180910390fd5b851561198e5761198288888361218b565b93509350935050611999565b611982888883612227565b9450945094915050565b81836000018181516119b5919061371f565b600f0b9052506020830180518291906119cf90839061371f565b600f0b905250505050565b6000610c266101008361376d565b6000816119f8578260ff0361072e565b5090919050565b600080611a0d8585856122d1565b94505083158061069f5782611a2a57611a25856122f5565b611a33565b611a33856123a3565b9150935093915050565b60008315611a4c57508161072e565b6000611a588382612586565b905080611a655783610d8a565b600095945050505050565b60008215611aca57611a81836125b9565b60010b8260010b14611aba57611ab5611a9b83600161378f565b611aa585156125ef565b60ff1660089190911b60020b0190565b611ac3565b611ac383612605565b9050610c26565b600882901b60020b611ac3565b60007ffffffffffffffffffffffffffffffffffffffffffffffffffffffffffff5d892600285900b131580611b135750620cb14a600285900b12155b15611b1f57508161072e565b8115611b72576001600081611b3387610d93565b039050846fffffffffffffffffffffffffffffffff16816fffffffffffffffffffffffffffffffff1610611b675784611b69565b805b9250505061072e565b6000611b7d85610d93565b9050836fffffffffffffffffffffffffffffffff16816fffffffffffffffffffffffffffffffff1611611bb05783611bb2565b805b91505061072e565b60008080611bca8989878761263c565b9050610100620f42406fffffffffffffffffffffffffffffffff831661ffff8a16020460ff8816810291909104908190039a909950975050505050505050565b6000611c15846120f2565b9050806fffffffffffffffffffffffffffffffff16600003611c375750505050565b8351821590600090611c4c9084908785612689565b90506000611c6084886000015184866126e6565b905067ffffffffffffffff811615611c7d57611c7d878285612700565b50505050505050565b600080808585018415611cb557611cae816fffffffffffffffffffffffffffffffff166127e4565b9250611cd3565b611cd0816fffffffffffffffffffffffffffffffff166127e4565b93505b509195909450915050565b600080611cec868585612818565b9050846fffffffffffffffffffffffffffffffff16816fffffffffffffffffffffffffffffffff1611611d1f5780611d21565b845b9695505050505050565b6000806000806000611d3e8a8a8a61284e565b91509150600080611d5184848c8c6128ce565b91509150611d648c8b8b8b8f8787612905565b96509650965050505050955095509592505050565b82516fffffffffffffffffffffffffffffffff908116818316149083161515818015611da25750805b611413576040517f08c379a000000000000000000000000000000000000000000000000000000000815260206004820152600260248201527f52500000000000000000000000000000000000000000000000000000000000006044820152606401611968565b6000806000806000611e1c8a8a8a8a61299d565b91509150600080611e2f8b858c8c612a17565b91509150611d648c8b8b8b878787612905565b600082611e675784516fffffffffffffffffffffffffffffffff808416911611611e81565b84516fffffffffffffffffffffffffffffffff8084169116105b90506fffffffffffffffffffffffffffffffff841615818015611ea15750805b611f07576040517f08c379a000000000000000000000000000000000000000000000000000000000815260206004820152600260248201527f52460000000000000000000000000000000000000000000000000000000000006044820152606401611968565b505050505050565b6000610c26611f218360020b60101d90565b612a36565b6000610100611f388360020b60081d90565b610c2691906137cf565b600080611f5f611f5185612a56565b60081b60010b60ff85160190565b90508481604051602001611f8092919091825260f01b602082015260220190565b604051602081830303815290604052805190602001209150509392505050565b6000611254611fae85612a56565b60101b60020b61ff00600886901b1660030b0160ff84160190565b600061072e83611fd884612a56565b612a95565b60408051602081018390526201000691810182905260009190829060600161116f565b600060ff7fffffffffffffffffffffffffffffffffffffffffffffffffffffffffffffffff83015b60ff8160ff161015612081576000806120448784866000611603565b915091508061205857509250610c26915050565b50507fffffffffffffffffffffffffffffffffffffffffffffffffffffffffffffffff01612028565b50610c226000612605565b600080600183015b60ff8116156120cb576000806120ad8784866001611603565b91509150806120c157509250610c26915050565b5050600101612094565b50610c226001612605565b6000600a82901b6d03fffffffffffffffffffffff80016610c26565b60008061210783602001518460600151612ad4565b905061072e818460400151612b29565b600081156121375750600167ffffffffffffffff604085901c160161072e565b60006121468560018603612b4e565b905060006121548686612b4e565b9050808203600177ffffffffffffffffffffffffffffffffffffffffffffffff82160161218081612b97565b94505050505061072e565b600080600060016f0ffff5433e2b3d8211706e6102aa9472036fffffffffffffffffffffffffffffffff1686600001516fffffffffffffffffffffffffffffffff1610156121ed5785516001016fffffffffffffffffffffffffffffffff1686525b6000915061220c846fffffffffffffffffffffffffffffffff166127e4565b92508461221a57600061221c565b835b905093509350939050565b6000806000620100026fffffffffffffffffffffffffffffffff1686600001516fffffffffffffffffffffffffffffffff1611156122985785517fffffffffffffffffffffffffffffffffffffffffffffffffffffffffffffffff016fffffffffffffffffffffffffffffffff1686525b600092506122b7846fffffffffffffffffffffffffffffffff166127e4565b9150846122c4578361221c565b6000905093509350939050565b6000816122e75761ffff831684811b901c611254565b505061ffff1690811c901b90565b600080821161230357600080fd5b700100000000000000000000000000000000821061232357608091821c91015b68010000000000000000821061233b57604091821c91015b640100000000821061234f57602091821c91015b62010000821061236157601091821c91015b610100821061237257600891821c91015b6010821061238257600491821c91015b6004821061239257600291821c91015b6002821061239e576001015b919050565b60008082116123b157600080fd5b5060ff6fffffffffffffffffffffffffffffffff8216156123f3577fffffffffffffffffffffffffffffffffffffffffffffffffffffffffffffff80016123fb565b608082901c91505b67ffffffffffffffff821615612432577fffffffffffffffffffffffffffffffffffffffffffffffffffffffffffffffc00161243a565b604082901c91505b63ffffffff82161561246d577fffffffffffffffffffffffffffffffffffffffffffffffffffffffffffffffe001612475565b602082901c91505b61ffff8216156124a6577ffffffffffffffffffffffffffffffffffffffffffffffffffffffffffffffff0016124ae565b601082901c91505b60ff8216156124de577ffffffffffffffffffffffffffffffffffffffffffffffffffffffffffffffff8016124e6565b600882901c91505b600f821615612516577ffffffffffffffffffffffffffffffffffffffffffffffffffffffffffffffffc0161251e565b600482901c91505b600382161561254e577ffffffffffffffffffffffffffffffffffffffffffffffffffffffffffffffffe01612556565b600282901c91505b600182161561239e577fffffffffffffffffffffffffffffffffffffffffffffffffffffffffffffffff01919050565b600080600061259a858560ff1660016119ff565b915060ff16915080158015610d8a57508360ff16821495945050505050565b6000816125e6577fffffffffffffffffffffffffffffffffffffffffffffffffffffffffffff8000610c26565b617fff92915050565b6000816125fd576000610c26565b60ff92915050565b600081612632577fffffffffffffffffffffffffffffffffffffffffffffffffffffffffff800000610c26565b627fffff92915050565b83516000906fffffffffffffffffffffffffffffffff908116908316118161266687878787611cde565b905061267e612674886120f2565b8851838589612bb6565b979650505050505050565b6000600281612699878786612117565b6126a390836137f1565b9050806fffffffffffffffffffffffffffffffff16856fffffffffffffffffffffffffffffffff1611156126d95780850361267e565b5060009695505050505050565b6000806126f4868685612ccf565b9050611d218185612d22565b825161270d908383612e38565b6fffffffffffffffffffffffffffffffff168352606083015161273a9067ffffffffffffffff1683612eb2565b67ffffffffffffffff9081166060850181905260009161275d9190851690612f15565b905060006127a661278d8387604001516fffffffffffffffffffffffffffffffff16612f5d90919063ffffffff16565b71ffffffffffffffffffffffffffffffffffff16612b97565b90506127b28282612f83565b856080018181516127c3919061381d565b67ffffffffffffffff169052506020850180518291906113fd9083906136ae565b60006f80000000000000000000000000000000826fffffffffffffffffffffffffffffffff161061281457600080fd5b5090565b600080612824856120f2565b90508361283f5761283a81866000015185612ff6565b610d8a565b610d8a81866000015185613041565b600080600061285c866120f2565b8651909150600090612882906fffffffffffffffffffffffffffffffff84169088613041565b87519091506000906128a8906fffffffffffffffffffffffffffffffff85169089612ff6565b905085156128bc57909350915082826128c3565b9350915081835b505050935093915050565b6000806128dd86868686613089565b90925090506128ed60048361371f565b91506128fa60048261371f565b905094509492505050565b600080600080612916868b8b61312c565b9050876fffffffffffffffffffffffffffffffff16816fffffffffffffffffffffffffffffffff161061294c5760009150612959565b612956818961383e565b91505b896129645784612966565b855b9350896129735785612975565b845b6fffffffffffffffffffffffffffffffff909716909a52919994985090965092945050505050565b60008060006129ab876120f2565b90506129be876000015182888888613162565b915084156129eb5786516129e6906fffffffffffffffffffffffffffffffff83169084612ff6565b612a0b565b8651612a0b906fffffffffffffffffffffffffffffffff83169084613041565b92505094509492505050565b600080612a2686868686613089565b90925090506128fa60048261371f565b6000808260000b1215612a4f578160000b608001610c26565b5060800190565b600060808260ff1610612a6c5760808203610c26565b5060ff167fffffffffffffffffffffffffffffffffffffffffffffffffffffffffffffff800190565b60008282604051602001612ab692919091825260f81b602082015260210190565b60405160208183030381529060405280519060200120905092915050565b600066010000000000006fffffffffffffffffffffffffffffffff80851667ffffffffffffffff851683010290603082901c90811115610d8a576fffffffffffffffffffffffffffffffff9350505050610c26565b8082016fffffffffffffffffffffffffffffffff8084169082161015610c2657600080fd5b60006fffffffffffffffffffffffffffffffff821677ffffffffffffffffffffffffffffffff0000000000000000604085901b1681612b8f57612b8f61367f565b049392505050565b806fffffffffffffffffffffffffffffffff8116811461239e57600080fd5b6000856fffffffffffffffffffffffffffffffff16600003612bda57506000610d8a565b6000612be887878515612ccf565b6fffffffffffffffffffffffffffffffff1690506000612c09888886612ccf565b6fffffffffffffffffffffffffffffffff169050600084151586151514612c4457866fffffffffffffffffffffffffffffffff168203612c5a565b866fffffffffffffffffffffffffffffffff1682015b905080600003612c7f576fffffffffffffffffffffffffffffffff9350505050610d8a565b6000816fffffffffffffffffffffffffffffffff8b16800281612ca457612ca461367f565b049050612cc1848211612cb957818503612b97565b848203612b97565b9a9950505050505050505050565b600061125482612d0257612ce38585612b4e565b77ffffffffffffffffffffffffffffffffffffffffffffffff16612b97565b6fffffffffffffffffffffffffffffffff8086169085160260401c612ce3565b60006fffffffffffffffffffffffffffffffff83161580612d665750826fffffffffffffffffffffffffffffffff16826fffffffffffffffffffffffffffffffff16115b15612d7357506000610c26565b6000612d7f83856136ae565b90506000612d9f6fffffffffffffffffffffffffffffffff8316866131fe565b9050612db48167ffffffffffffffff166132c7565b925066010000000000008367ffffffffffffffff1610612e30576040517f08c379a000000000000000000000000000000000000000000000000000000000815260206004820152600260248201527f49460000000000000000000000000000000000000000000000000000000000006044820152606401611968565b505092915050565b6000660100000000000067ffffffffffffffff841681018315612e7b576fffffffffffffffffffffffffffffffff86168102603081901c61218060018201612b97565b75ffffffffffffffffffffffffffffffff000000000000603087901b16818181612ea757612ea761367f565b04935050505061072e565b6000660100000000000067ffffffffffffffff848116820181851683010290603082901c907fffffffffffffffffffffffffffffffffffffffffffffffffffff0000000000008201908110611d215767ffffffffffffffff945050505050610c26565b6000660100000000000067ffffffffffffffff831681016dffffffffffffffff000000000000603086901b1683828281612f5157612f5161367f565b04979650505050505050565b67ffffffffffffffff166fffffffffffffffffffffffffffffffff919091160260301c90565b6000816fffffffffffffffffffffffffffffffff16600003612fa757506000610c26565b612fb28260016136ae565b6fffffffffffffffffffffffffffffffff16826fffffffffffffffffffffffffffffffff168467ffffffffffffffff16612fec9190613867565b61072e919061387e565b6000826fffffffffffffffffffffffffffffffff16826fffffffffffffffffffffffffffffffff1611156130365761302f84838561330b565b905061072e565b61302f84848461330b565b600080826fffffffffffffffffffffffffffffffff16846fffffffffffffffffffffffffffffffff16116130775783830361307b565b8284035b9050610d8a85826001612ccf565b600080821515841515036130e0576130b2866fffffffffffffffffffffffffffffffff166127e4565b6130cd866fffffffffffffffffffffffffffffffff166127e4565b6130d690613892565b90925090506115fa565b6130fb866fffffffffffffffffffffffffffffffff166127e4565b61310490613892565b61311f866fffffffffffffffffffffffffffffffff166127e4565b9097909650945050505050565b600080821515841515146131485761314385613892565b61314a565b845b9050600081600f0b121561125457600091505061072e565b6000808361317b576131768787878661338a565b613187565b613187878787866133f1565b90506f0ffff5433e2b3d8211706e6102aa94726fffffffffffffffffffffffffffffffff8216106131d5576131cd60016f0ffff5433e2b3d8211706e6102aa947261383e565b915050610d8a565b620100026fffffffffffffffffffffffffffffffff82161015611d215762010002915050610d8a565b600079ffffffffffffffffffffffffffffffffffffffffffffffffffff6fffffffffffffffffffffffffffffffff841610801561325f5750816fffffffffffffffffffffffffffffffff16836fffffffffffffffffffffffffffffffff1610155b61326857600080fd5b660100000000000075ffffffffffffffffffffffffffffffff000000000000603085901b166000826fffffffffffffffffffffffffffffffff861683816132b1576132b161367f565b04039050828110610d8a57829350505050610c26565b600066010000000000008267ffffffffffffffff16106132e657600080fd5b5067ffffffffffffffff8116800260331c60019190911c677fffffffffffffff160390565b600080613318838561383e565b905060006133268685612b4e565b77ffffffffffffffffffffffffffffffffffffffffffffffff1690506000856fffffffffffffffffffffffffffffffff16836fffffffffffffffffffffffffffffffff16836133759190613867565b61337f919061387e565b905061267e81612b97565b600080613396866134e2565b905060006133a782878787156133f1565b9050806fffffffffffffffffffffffffffffffff166000036133dd576f0ffff5433e2b3d8211706e6102aa947292505050611254565b6133e6816134e2565b61267e9060016136ae565b6000836fffffffffffffffffffffffffffffffff1660000361342457506fffffffffffffffffffffffffffffffff611254565b60006134308486612b4e565b90506fffffffffffffffffffffffffffffffff77ffffffffffffffffffffffffffffffffffffffffffffffff8216111561347d576fffffffffffffffffffffffffffffffff915050611254565b8083156134975761348e81886136ae565b92505050611254565b866fffffffffffffffffffffffffffffffff16816fffffffffffffffffffffffffffffffff16106134cd57600092505050611254565b6134d88160016136ae565b61348e908861383e565b600080826fffffffffffffffffffffffffffffffff16700100000000000000000000000000000000816135175761351761367f565b0490506fffffffffffffffffffffffffffffffff811115610c2657600080fd5b803573ffffffffffffffffffffffffffffffffffffffff8116811461239e57600080fd5b8035801515811461239e57600080fd5b80356fffffffffffffffffffffffffffffffff8116811461239e57600080fd5b600080600080600080600080610100898b0312156135a857600080fd5b6135b189613537565b97506135bf60208a01613537565b9650604089013595506135d460608a0161355b565b94506135e260808a0161355b565b93506135f060a08a0161356b565b925060c089013561ffff8116811461360757600080fd5b915061361560e08a0161356b565b90509295985092959890939650565b60006020828403121561363657600080fd5b5051919050565b7f4e487b7100000000000000000000000000000000000000000000000000000000600052601160045260246000fd5b80820180821115610c2657610c2661363d565b7f4e487b7100000000000000000000000000000000000000000000000000000000600052601260045260246000fd5b6fffffffffffffffffffffffffffffffff8181168382160190808211156136d7576136d761363d565b5092915050565b600282810b9082900b037fffffffffffffffffffffffffffffffffffffffffffffffffffffffffff8000008112627fffff82131715610c2657610c2661363d565b600f81810b9083900b016f7fffffffffffffffffffffffffffffff81137fffffffffffffffffffffffffffffffff8000000000000000000000000000000082121715610c2657610c2661363d565b60008260020b806137805761378061367f565b808360020b0791505092915050565b600181810b9083900b01617fff81137fffffffffffffffffffffffffffffffffffffffffffffffffffffffffffff800082121715610c2657610c2661363d565b60008260010b806137e2576137e261367f565b808360010b0791505092915050565b6fffffffffffffffffffffffffffffffff818116838216028082169190828114612e3057612e3061363d565b67ffffffffffffffff8181168382160190808211156136d7576136d761363d565b6fffffffffffffffffffffffffffffffff8281168282160390808211156136d7576136d761363d565b8082028115828204841417610c2657610c2661363d565b60008261388d5761388d61367f565b500490565b600081600f0b7fffffffffffffffffffffffffffffffff8000000000000000000000000000000081036138c7576138c761363d565b6000039291505056fea2646970667358221220d53d7b1f30703449e0dbf62043c6d342f0ef22bea0ff6d4cdbc86e3752ba255664736f6c63430008130033",
  "linkReferences": {},
  "deployedLinkReferences": {}
}