{
  "address": "0x869f0297749084e0256cC761867FE7cE456640FC",
  "abi": [
    {
      "anonymous": false,
      "inputs": [
        {
          "indexed": true,
          "internalType": "address",
          "name": "owner",
          "type": "address"
        },
        {
          "indexed": true,
          "internalType": "address",
          "name": "spender",
          "type": "address"
        },
        {
          "indexed": false,
          "internalType": "uint256",
          "name": "value",
          "type": "uint256"
        }
      ],
      "name": "Approval",
      "type": "event"
    },
    {
      "anonymous": false,
      "inputs": [
        {
          "indexed": false,
          "internalType": "uint8",
          "name": "version",
          "type": "uint8"
        }
      ],
      "name": "Initialized",
      "type": "event"
    },
    {
      "anonymous": false,
      "inputs": [
        {
          "indexed": true,
          "internalType": "address",
          "name": "from",
          "type": "address"
        },
        {
          "indexed": true,
          "internalType": "address",
          "name": "to",
          "type": "address"
        },
        {
          "indexed": false,
          "internalType": "uint256",
          "name": "value",
          "type": "uint256"
        }
      ],
      "name": "Transfer",
      "type": "event"
    },
    {
      "inputs": [
        {
          "internalType": "address",
          "name": "owner",
          "type": "address"
        },
        {
          "internalType": "address",
          "name": "spender",
          "type": "address"
        }
      ],
      "name": "allowance",
      "outputs": [
        {
          "internalType": "uint256",
          "name": "",
          "type": "uint256"
        }
      ],
      "stateMutability": "view",
      "type": "function"
    },
    {
      "inputs": [
        {
          "internalType": "address",
          "name": "spender",
          "type": "address"
        },
        {
          "internalType": "uint256",
          "name": "amount",
          "type": "uint256"
        }
      ],
      "name": "approve",
      "outputs": [
        {
          "internalType": "bool",
          "name": "",
          "type": "bool"
        }
      ],
      "stateMutability": "nonpayable",
      "type": "function"
    },
    {
      "inputs": [
        {
          "internalType": "address",
          "name": "account",
          "type": "address"
        }
      ],
      "name": "balanceOf",
      "outputs": [
        {
          "internalType": "uint256",
          "name": "",
          "type": "uint256"
        }
      ],
      "stateMutability": "view",
      "type": "function"
    },
    {
      "inputs": [],
      "name": "baseToken",
      "outputs": [
        {
          "internalType": "address",
          "name": "",
          "type": "address"
        }
      ],
      "stateMutability": "view",
      "type": "function"
    },
    {
      "inputs": [],
      "name": "decimals",
      "outputs": [
        {
          "internalType": "uint8",
          "name": "",
          "type": "uint8"
        }
      ],
      "stateMutability": "view",
      "type": "function"
    },
    {
      "inputs": [
        {
          "internalType": "address",
          "name": "spender",
          "type": "address"
        },
        {
          "internalType": "uint256",
          "name": "subtractedValue",
          "type": "uint256"
        }
      ],
      "name": "decreaseAllowance",
      "outputs": [
        {
          "internalType": "bool",
          "name": "",
          "type": "bool"
        }
      ],
      "stateMutability": "nonpayable",
      "type": "function"
    },
    {
      "inputs": [
        {
          "internalType": "address",
          "name": "sender",
          "type": "address"
        },
        {
          "internalType": "bytes32",
          "name": "pool",
          "type": "bytes32"
        },
        {
          "internalType": "int24",
          "name": "lowerTick",
          "type": "int24"
        },
        {
          "internalType": "int24",
          "name": "upperTick",
          "type": "int24"
        },
        {
          "internalType": "uint128",
          "name": "seeds",
          "type": "uint128"
        },
        {
          "internalType": "uint72",
          "name": "",
          "type": "uint72"
        }
      ],
      "name": "depositSdexLiq",
      "outputs": [
        {
          "internalType": "bool",
          "name": "",
          "type": "bool"
        }
      ],
      "stateMutability": "nonpayable",
      "type": "function"
    },
    {
      "inputs": [
        {
          "internalType": "address",
          "name": "spender",
          "type": "address"
        },
        {
          "internalType": "uint256",
          "name": "addedValue",
          "type": "uint256"
        }
      ],
      "name": "increaseAllowance",
      "outputs": [
        {
          "internalType": "bool",
          "name": "",
          "type": "bool"
        }
      ],
      "stateMutability": "nonpayable",
      "type": "function"
    },
    {
      "inputs": [
        {
          "internalType": "address",
          "name": "_base",
          "type": "address"
        },
        {
          "internalType": "address",
          "name": "_quote",
          "type": "address"
        },
        {
          "internalType": "uint256",
          "name": "_poolIdx",
          "type": "uint256"
        },
        {
          "internalType": "address",
          "name": "_sdex",
          "type": "address"
        }
      ],
      "name": "initialize",
      "outputs": [],
      "stateMutability": "nonpayable",
      "type": "function"
    },
    {
      "inputs": [],
      "name": "name",
      "outputs": [
        {
          "internalType": "string",
          "name": "",
          "type": "string"
        }
      ],
      "stateMutability": "view",
      "type": "function"
    },
    {
      "inputs": [],
      "name": "poolHash",
      "outputs": [
        {
          "internalType": "bytes32",
          "name": "",
          "type": "bytes32"
        }
      ],
      "stateMutability": "view",
      "type": "function"
    },
    {
      "inputs": [],
      "name": "poolType",
      "outputs": [
        {
          "internalType": "uint256",
          "name": "",
          "type": "uint256"
        }
      ],
      "stateMutability": "view",
      "type": "function"
    },
    {
      "inputs": [],
      "name": "quoteToken",
      "outputs": [
        {
          "internalType": "address",
          "name": "",
          "type": "address"
        }
      ],
      "stateMutability": "view",
      "type": "function"
    },
    {
      "inputs": [],
      "name": "sdex",
      "outputs": [
        {
          "internalType": "address",
          "name": "",
          "type": "address"
        }
      ],
      "stateMutability": "view",
      "type": "function"
    },
    {
      "inputs": [],
      "name": "symbol",
      "outputs": [
        {
          "internalType": "string",
          "name": "",
          "type": "string"
        }
      ],
      "stateMutability": "view",
      "type": "function"
    },
    {
      "inputs": [],
      "name": "totalSupply",
      "outputs": [
        {
          "internalType": "uint256",
          "name": "",
          "type": "uint256"
        }
      ],
      "stateMutability": "view",
      "type": "function"
    },
    {
      "inputs": [
        {
          "internalType": "address",
          "name": "to",
          "type": "address"
        },
        {
          "internalType": "uint256",
          "name": "amount",
          "type": "uint256"
        }
      ],
      "name": "transfer",
      "outputs": [
        {
          "internalType": "bool",
          "name": "",
          "type": "bool"
        }
      ],
      "stateMutability": "nonpayable",
      "type": "function"
    },
    {
      "inputs": [
        {
          "internalType": "address",
          "name": "from",
          "type": "address"
        },
        {
          "internalType": "address",
          "name": "to",
          "type": "address"
        },
        {
          "internalType": "uint256",
          "name": "amount",
          "type": "uint256"
        }
      ],
      "name": "transferFrom",
      "outputs": [
        {
          "internalType": "bool",
          "name": "",
          "type": "bool"
        }
      ],
      "stateMutability": "nonpayable",
      "type": "function"
    },
    {
      "inputs": [
        {
          "internalType": "address",
          "name": "sender",
          "type": "address"
        },
        {
          "internalType": "bytes32",
          "name": "pool",
          "type": "bytes32"
        },
        {
          "internalType": "int24",
          "name": "lowerTick",
          "type": "int24"
        },
        {
          "internalType": "int24",
          "name": "upperTick",
          "type": "int24"
        },
        {
          "internalType": "uint128",
          "name": "seeds",
          "type": "uint128"
        },
        {
          "internalType": "uint72",
          "name": "",
          "type": "uint72"
        }
      ],
      "name": "withdrawSdexLiq",
      "outputs": [
        {
          "internalType": "bool",
          "name": "",
          "type": "bool"
        }
      ],
      "stateMutability": "nonpayable",
      "type": "function"
    }
  ],
  "numDeployments": 1,
  "bytecode": "0x608060405234801561001057600080fd5b50611be1806100206000396000f3fe608060405234801561001057600080fd5b50600436106101515760003560e01c8063777c92c3116100cd578063b1dd61b611610081578063c55dae6311610066578063c55dae63146102d4578063c78dc2ed146102f4578063dd62ed3e1461031457600080fd5b8063b1dd61b6146102b6578063be203094146102bf57600080fd5b80639b503daf116100b25780639b503daf14610287578063a457c2d714610290578063a9059cbb146102a357600080fd5b8063777c92c31461026c57806395d89b411461027f57600080fd5b806323b872dd116101245780633950935111610109578063395093511461021057806350872d561461022357806370a082311461023657600080fd5b806323b872dd146101ee578063313ce5671461020157600080fd5b806306fdde0314610156578063095ea7b31461017457806318160ddd14610197578063217a4b70146101a9575b600080fd5b61015e61035a565b60405161016b9190611741565b60405180910390f35b6101876101823660046117bb565b6103ec565b604051901515815260200161016b565b6035545b60405190815260200161016b565b6067546101c99073ffffffffffffffffffffffffffffffffffffffff1681565b60405173ffffffffffffffffffffffffffffffffffffffff909116815260200161016b565b6101876101fc3660046117e5565b610406565b6040516012815260200161016b565b61018761021e3660046117bb565b61042a565b610187610231366004611833565b610476565b61019b6102443660046118c9565b73ffffffffffffffffffffffffffffffffffffffff1660009081526033602052604090205490565b61018761027a366004611833565b61060f565b61015e610796565b61019b60655481565b61018761029e3660046117bb565b6107a5565b6101876102b13660046117bb565b610876565b61019b60685481565b6102d26102cd3660046118eb565b610884565b005b6066546101c99073ffffffffffffffffffffffffffffffffffffffff1681565b6069546101c99073ffffffffffffffffffffffffffffffffffffffff1681565b61019b610322366004611938565b73ffffffffffffffffffffffffffffffffffffffff918216600090815260346020908152604080832093909416825291909152205490565b6060603680546103699061196b565b80601f01602080910402602001604051908101604052809291908181526020018280546103959061196b565b80156103e25780601f106103b7576101008083540402835291602001916103e2565b820191906000526020600020905b8154815290600101906020018083116103c557829003601f168201915b5050505050905090565b6000336103fa818585610d8a565b60019150505b92915050565b600033610414858285610f3e565b61041f858585611015565b506001949350505050565b33600081815260346020908152604080832073ffffffffffffffffffffffffffffffffffffffff871684529091528120549091906103fa90829086906104719087906119be565b610d8a565b60695460009073ffffffffffffffffffffffffffffffffffffffff1633146104ff576040517f08c379a000000000000000000000000000000000000000000000000000000000815260206004820152601660248201527f536465784c7045726332303a206f6e6c7920536465780000000000000000000060448201526064015b60405180910390fd5b606554861461056a576040517f08c379a000000000000000000000000000000000000000000000000000000000815260206004820152600a60248201527f57726f6e6720706f6f6c0000000000000000000000000000000000000000000060448201526064016104f6565b8460020b600014801561058057508360020b6000145b6105e6576040517f08c379a000000000000000000000000000000000000000000000000000000000815260206004820152601660248201527f4e6f6e2d416d6269656e74204c50204465706f7369740000000000000000000060448201526064016104f6565b61060287846fffffffffffffffffffffffffffffffff1661128b565b5060019695505050505050565b60695460009073ffffffffffffffffffffffffffffffffffffffff163314610693576040517f08c379a000000000000000000000000000000000000000000000000000000000815260206004820152601660248201527f536465784c7045726332303a206f6e6c7920536465780000000000000000000060448201526064016104f6565b60655486146106fe576040517f08c379a000000000000000000000000000000000000000000000000000000000815260206004820152600a60248201527f57726f6e6720706f6f6c0000000000000000000000000000000000000000000060448201526064016104f6565b8460020b600014801561071457508360020b6000145b61077a576040517f08c379a000000000000000000000000000000000000000000000000000000000815260206004820152601660248201527f4e6f6e2d416d6269656e74204c50204465706f7369740000000000000000000060448201526064016104f6565b61060287846fffffffffffffffffffffffffffffffff1661144e565b6060603780546103699061196b565b33600081815260346020908152604080832073ffffffffffffffffffffffffffffffffffffffff8716845290915281205490919083811015610869576040517f08c379a000000000000000000000000000000000000000000000000000000000815260206004820152602560248201527f45524332303a2064656372656173656420616c6c6f77616e63652062656c6f7760448201527f207a65726f00000000000000000000000000000000000000000000000000000060648201526084016104f6565b61041f8286868403610d8a565b6000336103fa818585611015565b600054610100900460ff16158080156108a45750600054600160ff909116105b806108be5750303b1580156108be575060005460ff166001145b61094a576040517f08c379a000000000000000000000000000000000000000000000000000000000815260206004820152602e60248201527f496e697469616c697a61626c653a20636f6e747261637420697320616c72656160448201527f647920696e697469616c697a656400000000000000000000000000000000000060648201526084016104f6565b600080547fffffffffffffffffffffffffffffffffffffffffffffffffffffffffffffff0016600117905580156109a857600080547fffffffffffffffffffffffffffffffffffffffffffffffffffffffffffff00ff166101001790555b73ffffffffffffffffffffffffffffffffffffffff8416158015906109f957508373ffffffffffffffffffffffffffffffffffffffff168573ffffffffffffffffffffffffffffffffffffffff1614155b8015610a3057508473ffffffffffffffffffffffffffffffffffffffff168473ffffffffffffffffffffffffffffffffffffffff16115b610a96576040517f08c379a000000000000000000000000000000000000000000000000000000000815260206004820152601260248201527f496e76616c696420546f6b656e2050616972000000000000000000000000000060448201526064016104f6565b604080518082018252600f81527f616363657074536465784465782829000000000000000000000000000000000060209182015290517fb8d25de90000000000000000000000000000000000000000000000000000000091810191909152600090602401604051602081830303815290604052905060008373ffffffffffffffffffffffffffffffffffffffff1682604051610b3291906119f8565b6000604051808303816000865af19150503d8060008114610b6f576040519150601f19603f3d011682016040523d82523d6000602084013e610b74565b606091505b5050905080610c05576040517f08c379a000000000000000000000000000000000000000000000000000000000815260206004820152603860248201527f536465784c7045726332303a2057726f6e67205f64657820616464726573732060448201527f2d20616363657074536465784465782829206661696c6564000000000000000060648201526084016104f6565b6066805473ffffffffffffffffffffffffffffffffffffffff808a167fffffffffffffffffffffffff00000000000000000000000000000000000000009283161790925560678054928916929091169190911790556068859055610c6a878787611544565b606555606980547fffffffffffffffffffffffff00000000000000000000000000000000000000001673ffffffffffffffffffffffffffffffffffffffff8616179055604080518082018252601b81527f5364657820416d6269656e74204c5020455243323020546f6b656e00000000006020808301919091528251808401909352600a83527f4c502d53646578416d620000000000000000000000000000000000000000000090830152610d1e916115d1565b50508015610d8357600080547fffffffffffffffffffffffffffffffffffffffffffffffffffffffffffff00ff169055604051600181527f7f26b83ff96e1f2b6a682f133852f6798a09c465da95921460cefb38474024989060200160405180910390a15b5050505050565b73ffffffffffffffffffffffffffffffffffffffff8316610e2c576040517f08c379a0000000000000000000000000000000000000000000000000000000008152602060048201526024808201527f45524332303a20617070726f76652066726f6d20746865207a65726f2061646460448201527f726573730000000000000000000000000000000000000000000000000000000060648201526084016104f6565b73ffffffffffffffffffffffffffffffffffffffff8216610ecf576040517f08c379a000000000000000000000000000000000000000000000000000000000815260206004820152602260248201527f45524332303a20617070726f766520746f20746865207a65726f20616464726560448201527f737300000000000000000000000000000000000000000000000000000000000060648201526084016104f6565b73ffffffffffffffffffffffffffffffffffffffff83811660008181526034602090815260408083209487168084529482529182902085905590518481527f8c5be1e5ebec7d5bd14f71427d1e84f3dd0314c0f7b2291e5b200ac8c7c3b92591015b60405180910390a3505050565b73ffffffffffffffffffffffffffffffffffffffff8381166000908152603460209081526040808320938616835292905220547fffffffffffffffffffffffffffffffffffffffffffffffffffffffffffffffff811461100f5781811015611002576040517f08c379a000000000000000000000000000000000000000000000000000000000815260206004820152601d60248201527f45524332303a20696e73756666696369656e7420616c6c6f77616e636500000060448201526064016104f6565b61100f8484848403610d8a565b50505050565b73ffffffffffffffffffffffffffffffffffffffff83166110b8576040517f08c379a000000000000000000000000000000000000000000000000000000000815260206004820152602560248201527f45524332303a207472616e736665722066726f6d20746865207a65726f20616460448201527f647265737300000000000000000000000000000000000000000000000000000060648201526084016104f6565b73ffffffffffffffffffffffffffffffffffffffff821661115b576040517f08c379a000000000000000000000000000000000000000000000000000000000815260206004820152602360248201527f45524332303a207472616e7366657220746f20746865207a65726f206164647260448201527f657373000000000000000000000000000000000000000000000000000000000060648201526084016104f6565b73ffffffffffffffffffffffffffffffffffffffff831660009081526033602052604090205481811015611211576040517f08c379a000000000000000000000000000000000000000000000000000000000815260206004820152602660248201527f45524332303a207472616e7366657220616d6f756e742065786365656473206260448201527f616c616e6365000000000000000000000000000000000000000000000000000060648201526084016104f6565b73ffffffffffffffffffffffffffffffffffffffff80851660008181526033602052604080822086860390559286168082529083902080548601905591517fddf252ad1be2c89b69c2b068fc378daa952ba7f163c4a11628f55a4df523b3ef9061127e9086815260200190565b60405180910390a361100f565b73ffffffffffffffffffffffffffffffffffffffff821661132e576040517f08c379a000000000000000000000000000000000000000000000000000000000815260206004820152602160248201527f45524332303a206275726e2066726f6d20746865207a65726f2061646472657360448201527f730000000000000000000000000000000000000000000000000000000000000060648201526084016104f6565b73ffffffffffffffffffffffffffffffffffffffff8216600090815260336020526040902054818110156113e4576040517f08c379a000000000000000000000000000000000000000000000000000000000815260206004820152602260248201527f45524332303a206275726e20616d6f756e7420657863656564732062616c616e60448201527f636500000000000000000000000000000000000000000000000000000000000060648201526084016104f6565b73ffffffffffffffffffffffffffffffffffffffff831660008181526033602090815260408083208686039055603580548790039055518581529192917fddf252ad1be2c89b69c2b068fc378daa952ba7f163c4a11628f55a4df523b3ef9101610f31565b505050565b73ffffffffffffffffffffffffffffffffffffffff82166114cb576040517f08c379a000000000000000000000000000000000000000000000000000000000815260206004820152601f60248201527f45524332303a206d696e7420746f20746865207a65726f20616464726573730060448201526064016104f6565b80603560008282546114dd91906119be565b909155505073ffffffffffffffffffffffffffffffffffffffff82166000818152603360209081526040808320805486019055518481527fddf252ad1be2c89b69c2b068fc378daa952ba7f163c4a11628f55a4df523b3ef910160405180910390a35b5050565b60008273ffffffffffffffffffffffffffffffffffffffff168473ffffffffffffffffffffffffffffffffffffffff161061157e57600080fd5b6040805173ffffffffffffffffffffffffffffffffffffffff8087166020830152851691810191909152606081018390526080016040516020818303038152906040528051906020012090509392505050565b600054610100900460ff16611668576040517f08c379a000000000000000000000000000000000000000000000000000000000815260206004820152602b60248201527f496e697469616c697a61626c653a20636f6e7472616374206973206e6f74206960448201527f6e697469616c697a696e6700000000000000000000000000000000000000000060648201526084016104f6565b6115408282600054610100900460ff16611704576040517f08c379a000000000000000000000000000000000000000000000000000000000815260206004820152602b60248201527f496e697469616c697a61626c653a20636f6e7472616374206973206e6f74206960448201527f6e697469616c697a696e6700000000000000000000000000000000000000000060648201526084016104f6565b60366117108382611a91565b5060376114498282611a91565b60005b83811015611738578181015183820152602001611720565b50506000910152565b602081526000825180602084015261176081604085016020870161171d565b601f017fffffffffffffffffffffffffffffffffffffffffffffffffffffffffffffffe0169190910160400192915050565b803573ffffffffffffffffffffffffffffffffffffffff811681146117b657600080fd5b919050565b600080604083850312156117ce57600080fd5b6117d783611792565b946020939093013593505050565b6000806000606084860312156117fa57600080fd5b61180384611792565b925061181160208501611792565b9150604084013590509250925092565b8035600281900b81146117b657600080fd5b60008060008060008060c0878903121561184c57600080fd5b61185587611792565b95506020870135945061186a60408801611821565b935061187860608801611821565b925060808701356fffffffffffffffffffffffffffffffff8116811461189d57600080fd5b915060a087013568ffffffffffffffffff811681146118bb57600080fd5b809150509295509295509295565b6000602082840312156118db57600080fd5b6118e482611792565b9392505050565b6000806000806080858703121561190157600080fd5b61190a85611792565b935061191860208601611792565b92506040850135915061192d60608601611792565b905092959194509250565b6000806040838503121561194b57600080fd5b61195483611792565b915061196260208401611792565b90509250929050565b600181811c9082168061197f57607f821691505b6020821081036119b8577f4e487b7100000000000000000000000000000000000000000000000000000000600052602260045260246000fd5b50919050565b80820180821115610400577f4e487b7100000000000000000000000000000000000000000000000000000000600052601160045260246000fd5b60008251611a0a81846020870161171d565b9190910192915050565b7f4e487b7100000000000000000000000000000000000000000000000000000000600052604160045260246000fd5b601f82111561144957600081815260208120601f850160051c81016020861015611a6a5750805b601f850160051c820191505b81811015611a8957828155600101611a76565b505050505050565b815167ffffffffffffffff811115611aab57611aab611a14565b611abf81611ab9845461196b565b84611a43565b602080601f831160018114611b125760008415611adc5750858301515b7fffffffffffffffffffffffffffffffffffffffffffffffffffffffffffffffff600386901b1c1916600185901b178555611a89565b6000858152602081207fffffffffffffffffffffffffffffffffffffffffffffffffffffffffffffffe08616915b82811015611b5f57888601518255948401946001909101908401611b40565b5085821015611b9b57878501517fffffffffffffffffffffffffffffffffffffffffffffffffffffffffffffffff600388901b60f8161c191681555b5050505050600190811b0190555056fea2646970667358221220baff96671cc96cf48451d57859821e36d0fec81d112ba9df6bbc8b2bf08b4c8a64736f6c63430008130033",
  "implementation": "0x850C590f6F5FD09c76398a370ee35971CaE0c136",
  "devdoc": {
    "events": {
      "Approval(address,address,uint256)": {
        "details": "Emitted when the allowance of a `spender` for an `owner` is set by a call to {approve}. `value` is the new allowance."
      },
      "Initialized(uint8)": {
        "details": "Triggered when the contract has been initialized or reinitialized."
      },
      "Transfer(address,address,uint256)": {
        "details": "Emitted when `value` tokens are moved from one account (`from`) to another (`to`). Note that `value` may be zero."
      }
    },
    "kind": "dev",
    "methods": {
      "allowance(address,address)": {
        "details": "See {IERC20-allowance}."
      },
      "approve(address,uint256)": {
        "details": "See {IERC20-approve}. NOTE: If `amount` is the maximum `uint256`, the allowance is not updated on `transferFrom`. This is semantically equivalent to an infinite approval. Requirements: - `spender` cannot be the zero address."
      },
      "balanceOf(address)": {
        "details": "See {IERC20-balanceOf}."
      },
      "decimals()": {
        "details": "Returns the number of decimals used to get its user representation. For example, if `decimals` equals `2`, a balance of `505` tokens should be displayed to a user as `5.05` (`505 / 10 ** 2`). Tokens usually opt for a value of 18, imitating the relationship between Ether and Wei. This is the default value returned by this function, unless it's overridden. NOTE: This information is only used for _display_ purposes: it in no way affects any of the arithmetic of the contract, including {IERC20-balanceOf} and {IERC20-transfer}."
      },
      "decreaseAllowance(address,uint256)": {
        "details": "Atomically decreases the allowance granted to `spender` by the caller. This is an alternative to {approve} that can be used as a mitigation for problems described in {IERC20-approve}. Emits an {Approval} event indicating the updated allowance. Requirements: - `spender` cannot be the zero address. - `spender` must have allowance for the caller of at least `subtractedValue`."
      },
      "increaseAllowance(address,uint256)": {
        "details": "Atomically increases the allowance granted to `spender` by the caller. This is an alternative to {approve} that can be used as a mitigation for problems described in {IERC20-approve}. Emits an {Approval} event indicating the updated allowance. Requirements: - `spender` cannot be the zero address."
      },
      "name()": {
        "details": "Returns the name of the token."
      },
      "symbol()": {
        "details": "Returns the symbol of the token, usually a shorter version of the name."
      },
      "totalSupply()": {
        "details": "See {IERC20-totalSupply}."
      },
      "transfer(address,uint256)": {
        "details": "See {IERC20-transfer}. Requirements: - `to` cannot be the zero address. - the caller must have a balance of at least `amount`."
      },
      "transferFrom(address,address,uint256)": {
        "details": "See {IERC20-transferFrom}. Emits an {Approval} event indicating the updated allowance. This is not required by the EIP. See the note at the beginning of {ERC20}. NOTE: Does not update the allowance if the current allowance is the maximum `uint256`. Requirements: - `from` and `to` cannot be the zero address. - `from` must have a balance of at least `amount`. - the caller must have allowance for ``from``'s tokens of at least `amount`."
      }
    },
    "version": 1
  },
  "userdoc": {
    "kind": "user",
    "methods": {},
    "version": 1
  },
  "storageLayout": {
    "storage": [
      {
        "astId": 6,
        "contract": "contracts/periphery/SdexLpErc20.sol:SdexLpErc20",
        "label": "_initialized",
        "offset": 0,
        "slot": "0",
        "type": "t_uint8"
      },
      {
        "astId": 9,
        "contract": "contracts/periphery/SdexLpErc20.sol:SdexLpErc20",
        "label": "_initializing",
        "offset": 1,
        "slot": "0",
        "type": "t_bool"
      },
      {
        "astId": 1264,
        "contract": "contracts/periphery/SdexLpErc20.sol:SdexLpErc20",
        "label": "__gap",
        "offset": 0,
        "slot": "1",
        "type": "t_array(t_uint256)50_storage"
      },
      {
        "astId": 188,
        "contract": "contracts/periphery/SdexLpErc20.sol:SdexLpErc20",
        "label": "_balances",
        "offset": 0,
        "slot": "51",
        "type": "t_mapping(t_address,t_uint256)"
      },
      {
        "astId": 194,
        "contract": "contracts/periphery/SdexLpErc20.sol:SdexLpErc20",
        "label": "_allowances",
        "offset": 0,
        "slot": "52",
        "type": "t_mapping(t_address,t_mapping(t_address,t_uint256))"
      },
      {
        "astId": 196,
        "contract": "contracts/periphery/SdexLpErc20.sol:SdexLpErc20",
        "label": "_totalSupply",
        "offset": 0,
        "slot": "53",
        "type": "t_uint256"
      },
      {
        "astId": 198,
        "contract": "contracts/periphery/SdexLpErc20.sol:SdexLpErc20",
        "label": "_name",
        "offset": 0,
        "slot": "54",
        "type": "t_string_storage"
      },
      {
        "astId": 200,
        "contract": "contracts/periphery/SdexLpErc20.sol:SdexLpErc20",
        "label": "_symbol",
        "offset": 0,
        "slot": "55",
        "type": "t_string_storage"
      },
      {
        "astId": 780,
        "contract": "contracts/periphery/SdexLpErc20.sol:SdexLpErc20",
        "label": "__gap",
        "offset": 0,
        "slot": "56",
        "type": "t_array(t_uint256)45_storage"
      },
      {
        "astId": 30350,
        "contract": "contracts/periphery/SdexLpErc20.sol:SdexLpErc20",
        "label": "poolHash",
        "offset": 0,
        "slot": "101",
        "type": "t_bytes32"
      },
      {
        "astId": 30352,
        "contract": "contracts/periphery/SdexLpErc20.sol:SdexLpErc20",
        "label": "baseToken",
        "offset": 0,
        "slot": "102",
        "type": "t_address"
      },
      {
        "astId": 30354,
        "contract": "contracts/periphery/SdexLpErc20.sol:SdexLpErc20",
        "label": "quoteToken",
        "offset": 0,
        "slot": "103",
        "type": "t_address"
      },
      {
        "astId": 30356,
        "contract": "contracts/periphery/SdexLpErc20.sol:SdexLpErc20",
        "label": "poolType",
        "offset": 0,
        "slot": "104",
        "type": "t_uint256"
      },
      {
        "astId": 30358,
        "contract": "contracts/periphery/SdexLpErc20.sol:SdexLpErc20",
        "label": "sdex",
        "offset": 0,
        "slot": "105",
        "type": "t_address"
      }
    ],
    "types": {
      "t_address": {
        "encoding": "inplace",
        "label": "address",
        "numberOfBytes": "20"
      },
      "t_array(t_uint256)45_storage": {
        "base": "t_uint256",
        "encoding": "inplace",
        "label": "uint256[45]",
        "numberOfBytes": "1440"
      },
      "t_array(t_uint256)50_storage": {
        "base": "t_uint256",
        "encoding": "inplace",
        "label": "uint256[50]",
        "numberOfBytes": "1600"
      },
      "t_bool": {
        "encoding": "inplace",
        "label": "bool",
        "numberOfBytes": "1"
      },
      "t_bytes32": {
        "encoding": "inplace",
        "label": "bytes32",
        "numberOfBytes": "32"
      },
      "t_mapping(t_address,t_mapping(t_address,t_uint256))": {
        "encoding": "mapping",
        "key": "t_address",
        "label": "mapping(address => mapping(address => uint256))",
        "numberOfBytes": "32",
        "value": "t_mapping(t_address,t_uint256)"
      },
      "t_mapping(t_address,t_uint256)": {
        "encoding": "mapping",
        "key": "t_address",
        "label": "mapping(address => uint256)",
        "numberOfBytes": "32",
        "value": "t_uint256"
      },
      "t_string_storage": {
        "encoding": "bytes",
        "label": "string",
        "numberOfBytes": "32"
      },
      "t_uint256": {
        "encoding": "inplace",
        "label": "uint256",
        "numberOfBytes": "32"
      },
      "t_uint8": {
        "encoding": "inplace",
        "label": "uint8",
        "numberOfBytes": "1"
      }
    }
  }
}