{
  "address": "0x44F220aa5434901E92b0B9F1D1F3Be068BA29099",
  "abi": [
    {
      "inputs": [
        {
          "internalType": "address",
          "name": "_lpTokenBeaconAddress",
          "type": "address"
        }
      ],
      "stateMutability": "nonpayable",
      "type": "constructor"
    },
    {
      "anonymous": false,
      "inputs": [
        {
          "indexed": true,
          "internalType": "address",
          "name": "oldLpTokenBeaconAddress",
          "type": "address"
        },
        {
          "indexed": true,
          "internalType": "address",
          "name": "newLpTokenBeaconAddress",
          "type": "address"
        }
      ],
      "name": "LpTokenBeaconSet",
      "type": "event"
    },
    {
      "anonymous": false,
      "inputs": [
        {
          "indexed": true,
          "internalType": "address",
          "name": "base",
          "type": "address"
        },
        {
          "indexed": true,
          "internalType": "address",
          "name": "quote",
          "type": "address"
        },
        {
          "indexed": false,
          "internalType": "uint256",
          "name": "poolIdx",
          "type": "uint256"
        },
        {
          "indexed": false,
          "internalType": "address",
          "name": "sdex",
          "type": "address"
        },
        {
          "indexed": false,
          "internalType": "address",
          "name": "lpTokenAddress",
          "type": "address"
        }
      ],
      "name": "LpTokenCreated",
      "type": "event"
    },
    {
      "anonymous": false,
      "inputs": [
        {
          "indexed": true,
          "internalType": "address",
          "name": "previousOwner",
          "type": "address"
        },
        {
          "indexed": true,
          "internalType": "address",
          "name": "newOwner",
          "type": "address"
        }
      ],
      "name": "OwnershipTransferred",
      "type": "event"
    },
    {
      "inputs": [
        {
          "internalType": "address",
          "name": "base",
          "type": "address"
        },
        {
          "internalType": "address",
          "name": "quote",
          "type": "address"
        },
        {
          "internalType": "uint256",
          "name": "poolIdx",
          "type": "uint256"
        },
        {
          "internalType": "address",
          "name": "sdex",
          "type": "address"
        }
      ],
      "name": "deployLpToken",
      "outputs": [
        {
          "internalType": "address",
          "name": "",
          "type": "address"
        }
      ],
      "stateMutability": "nonpayable",
      "type": "function"
    },
    {
      "inputs": [],
      "name": "lpTokenBeaconAddress",
      "outputs": [
        {
          "internalType": "address",
          "name": "",
          "type": "address"
        }
      ],
      "stateMutability": "view",
      "type": "function"
    },
    {
      "inputs": [],
      "name": "owner",
      "outputs": [
        {
          "internalType": "address",
          "name": "",
          "type": "address"
        }
      ],
      "stateMutability": "view",
      "type": "function"
    },
    {
      "inputs": [],
      "name": "renounceOwnership",
      "outputs": [],
      "stateMutability": "nonpayable",
      "type": "function"
    },
    {
      "inputs": [
        {
          "internalType": "address",
          "name": "newOwner",
          "type": "address"
        }
      ],
      "name": "transferOwnership",
      "outputs": [],
      "stateMutability": "nonpayable",
      "type": "function"
    }
  ],
  "transactionHash": "0x2b0079e67c794e0ad166632a6347e465a7a1de62c90347b32216b8e320f87c20",
  "args": [
    "0x2c3d27430bC5A7B154D19808e97d8c094F7c8Ec9"
  ],
  "numDeployments": 1,
  "solcInputHash": "6892023cb5496ada3648ad0ead9c85ad",
  "bytecode": "0x60a060405234801561001057600080fd5b5060405161171738038061171783398101604081905261002f916100f4565b610038336100a4565b6001600160a01b0381163b6100935760405162461bcd60e51b815260206004820152601c60248201527f696e76616c6964206c70546f6b656e426561636f6e4164647265737300000000604482015260640160405180910390fd5b6001600160a01b0316608052610124565b600080546001600160a01b038381166001600160a01b0319831681178455604051919092169283917f8be0079c531659141344cd1fd0a4f28419497f9722a3daafe3b4186f6b6457e09190a35050565b60006020828403121561010657600080fd5b81516001600160a01b038116811461011d57600080fd5b9392505050565b6080516115d26101456000396000818160c6015261015b01526115d26000f3fe60806040523480156200001157600080fd5b50600436106200006f5760003560e01c8063720d18771162000056578063720d187714620000c05780638da5cb5b14620000e8578063f2fde38b146200010757600080fd5b80635feb0ffd1462000074578063715018a614620000b4575b600080fd5b6200008b62000085366004620004d0565b6200011e565b60405173ffffffffffffffffffffffffffffffffffffffff909116815260200160405180910390f35b620000be620002c7565b005b6200008b7f000000000000000000000000000000000000000000000000000000000000000081565b60005473ffffffffffffffffffffffffffffffffffffffff166200008b565b620000be6200011836600462000524565b620002df565b60405173ffffffffffffffffffffffffffffffffffffffff80861660248301528085166044830152606482018490528216608482015260009081907f00000000000000000000000000000000000000000000000000000000000000009060a401604080517fffffffffffffffffffffffffffffffffffffffffffffffffffffffffffffffe08184030181529181526020820180517bffffffffffffffffffffffffffffffffffffffffffffffffffffffff167fbe2030940000000000000000000000000000000000000000000000000000000017905251620002009062000498565b6200020d92919062000549565b604051809103906000f0801580156200022a573d6000803e3d6000fd5b5090508473ffffffffffffffffffffffffffffffffffffffff168673ffffffffffffffffffffffffffffffffffffffff167ff25cf645c652f6e7e2ae140c31cbdf33a52fe02ba980853ab1f2b871a390054f868685604051620002b69392919092835273ffffffffffffffffffffffffffffffffffffffff918216602084015216604082015260600190565b60405180910390a395945050505050565b620002d1620003a0565b620002dd600062000423565b565b620002e9620003a0565b73ffffffffffffffffffffffffffffffffffffffff811662000392576040517f08c379a000000000000000000000000000000000000000000000000000000000815260206004820152602660248201527f4f776e61626c653a206e6577206f776e657220697320746865207a65726f206160448201527f646472657373000000000000000000000000000000000000000000000000000060648201526084015b60405180910390fd5b6200039d8162000423565b50565b60005473ffffffffffffffffffffffffffffffffffffffff163314620002dd576040517f08c379a000000000000000000000000000000000000000000000000000000000815260206004820181905260248201527f4f776e61626c653a2063616c6c6572206973206e6f7420746865206f776e6572604482015260640162000389565b6000805473ffffffffffffffffffffffffffffffffffffffff8381167fffffffffffffffffffffffff0000000000000000000000000000000000000000831681178455604051919092169283917f8be0079c531659141344cd1fd0a4f28419497f9722a3daafe3b4186f6b6457e09190a35050565b610fc780620005d683390190565b803573ffffffffffffffffffffffffffffffffffffffff81168114620004cb57600080fd5b919050565b60008060008060808587031215620004e757600080fd5b620004f285620004a6565b93506200050260208601620004a6565b9250604085013591506200051960608601620004a6565b905092959194509250565b6000602082840312156200053757600080fd5b6200054282620004a6565b9392505050565b73ffffffffffffffffffffffffffffffffffffffff8316815260006020604081840152835180604085015260005b81811015620005955785810183015185820160600152820162000577565b5060006060828601015260607fffffffffffffffffffffffffffffffffffffffffffffffffffffffffffffffe0601f83011685010192505050939250505056fe608060405260405162000fc738038062000fc7833981016040819052620000269162000451565b8181620000368282600062000040565b5050505062000590565b6200004b836200010a565b6040516001600160a01b038416907f1cf3b03a6cf19fa2baba4df148e9dcabedea7f8a5c07840e207e5c089be95d3e90600090a26000825111806200008d5750805b15620001055762000103836001600160a01b0316635c60da1b6040518163ffffffff1660e01b8152600401602060405180830381865afa158015620000d6573d6000803e3d6000fd5b505050506040513d601f19601f82011682018060405250810190620000fc91906200051f565b8362000295565b505b505050565b6001600160a01b0381163b620001755760405162461bcd60e51b815260206004820152602560248201527f455243313936373a206e657720626561636f6e206973206e6f74206120636f6e6044820152641d1c9858dd60da1b60648201526084015b60405180910390fd5b620001ed816001600160a01b0316635c60da1b6040518163ffffffff1660e01b8152600401602060405180830381865afa158015620001b8573d6000803e3d6000fd5b505050506040513d601f19601f82011682018060405250810190620001de91906200051f565b6001600160a01b03163b151590565b620002545760405162461bcd60e51b815260206004820152603060248201527f455243313936373a20626561636f6e20696d706c656d656e746174696f6e206960448201526f1cc81b9bdd08184818dbdb9d1c9858dd60821b60648201526084016200016c565b7fa3f0ad74e5423aebfd80d3ef4346578335a9a72aeaee59ff6cb3582b35133d5080546001600160a01b0319166001600160a01b0392909216919091179055565b6060620002bd838360405180606001604052806027815260200162000fa060279139620002c4565b9392505050565b6060600080856001600160a01b031685604051620002e391906200053d565b600060405180830381855af49150503d806000811462000320576040519150601f19603f3d011682016040523d82523d6000602084013e62000325565b606091505b509092509050620003398683838762000343565b9695505050505050565b60608315620003b7578251600003620003af576001600160a01b0385163b620003af5760405162461bcd60e51b815260206004820152601d60248201527f416464726573733a2063616c6c20746f206e6f6e2d636f6e747261637400000060448201526064016200016c565b5081620003c3565b620003c38383620003cb565b949350505050565b815115620003dc5781518083602001fd5b8060405162461bcd60e51b81526004016200016c91906200055b565b80516001600160a01b03811681146200041057600080fd5b919050565b634e487b7160e01b600052604160045260246000fd5b60005b83811015620004485781810151838201526020016200042e565b50506000910152565b600080604083850312156200046557600080fd5b6200047083620003f8565b60208401519092506001600160401b03808211156200048e57600080fd5b818501915085601f830112620004a357600080fd5b815181811115620004b857620004b862000415565b604051601f8201601f19908116603f01168101908382118183101715620004e357620004e362000415565b81604052828152886020848701011115620004fd57600080fd5b620005108360208301602088016200042b565b80955050505050509250929050565b6000602082840312156200053257600080fd5b620002bd82620003f8565b60008251620005518184602087016200042b565b9190910192915050565b60208152600082518060208401526200057c8160408501602087016200042b565b601f01601f19169190910160400192915050565b610a0080620005a06000396000f3fe60806040526004361061002d5760003560e01c8063099af0e9146100445780632d6b3a6b146100645761003c565b3661003c5761003a6100a2565b005b61003a6100a2565b34801561005057600080fd5b5061003a61005f366004610813565b6100b4565b34801561007057600080fd5b50610079610201565b60405173ffffffffffffffffffffffffffffffffffffffff909116815260200160405180910390f35b6100b26100ad610246565b6102f4565b565b7fa3f0ad74e5423aebfd80d3ef4346578335a9a72aeaee59ff6cb3582b35133d505473ffffffffffffffffffffffffffffffffffffffff1673ffffffffffffffffffffffffffffffffffffffff16638da5cb5b6040518163ffffffff1660e01b8152600401602060405180830381865afa158015610136573d6000803e3d6000fd5b505050506040513d601f19601f8201168201806040525081019061015a91906108f5565b73ffffffffffffffffffffffffffffffffffffffff163373ffffffffffffffffffffffffffffffffffffffff16146101f3576040517f08c379a000000000000000000000000000000000000000000000000000000000815260206004820152601160248201527f4f6e6c7920626561636f6e206f776e657200000000000000000000000000000060448201526064015b60405180910390fd5b6101fd828261031d565b5050565b60006102417fa3f0ad74e5423aebfd80d3ef4346578335a9a72aeaee59ff6cb3582b35133d505473ffffffffffffffffffffffffffffffffffffffff1690565b905090565b60006102867fa3f0ad74e5423aebfd80d3ef4346578335a9a72aeaee59ff6cb3582b35133d505473ffffffffffffffffffffffffffffffffffffffff1690565b73ffffffffffffffffffffffffffffffffffffffff16635c60da1b6040518163ffffffff1660e01b8152600401602060405180830381865afa1580156102d0573d6000803e3d6000fd5b505050506040513d601f19601f8201168201806040525081019061024191906108f5565b3660008037600080366000845af43d6000803e808015610313573d6000f35b3d6000fd5b505050565b6101fd8282600061032d836103fe565b60405173ffffffffffffffffffffffffffffffffffffffff8416907f1cf3b03a6cf19fa2baba4df148e9dcabedea7f8a5c07840e207e5c089be95d3e90600090a260008251118061037b5750805b15610318576103f88373ffffffffffffffffffffffffffffffffffffffff16635c60da1b6040518163ffffffff1660e01b8152600401602060405180830381865afa1580156103ce573d6000803e3d6000fd5b505050506040513d601f19601f820116820180604052508101906103f291906108f5565b83610622565b50505050565b73ffffffffffffffffffffffffffffffffffffffff81163b6104a2576040517f08c379a000000000000000000000000000000000000000000000000000000000815260206004820152602560248201527f455243313936373a206e657720626561636f6e206973206e6f74206120636f6e60448201527f747261637400000000000000000000000000000000000000000000000000000060648201526084016101ea565b6105308173ffffffffffffffffffffffffffffffffffffffff16635c60da1b6040518163ffffffff1660e01b8152600401602060405180830381865afa1580156104f0573d6000803e3d6000fd5b505050506040513d601f19601f8201168201806040525081019061051491906108f5565b73ffffffffffffffffffffffffffffffffffffffff163b151590565b6105bc576040517f08c379a000000000000000000000000000000000000000000000000000000000815260206004820152603060248201527f455243313936373a20626561636f6e20696d706c656d656e746174696f6e206960448201527f73206e6f74206120636f6e74726163740000000000000000000000000000000060648201526084016101ea565b7fa3f0ad74e5423aebfd80d3ef4346578335a9a72aeaee59ff6cb3582b35133d5080547fffffffffffffffffffffffff00000000000000000000000000000000000000001673ffffffffffffffffffffffffffffffffffffffff92909216919091179055565b606061064783836040518060600160405280602781526020016109a46027913961064e565b9392505050565b60606000808573ffffffffffffffffffffffffffffffffffffffff16856040516106789190610936565b600060405180830381855af49150503d80600081146106b3576040519150601f19603f3d011682016040523d82523d6000602084013e6106b8565b606091505b50915091506106c9868383876106d3565b9695505050505050565b606083156107695782516000036107625773ffffffffffffffffffffffffffffffffffffffff85163b610762576040517f08c379a000000000000000000000000000000000000000000000000000000000815260206004820152601d60248201527f416464726573733a2063616c6c20746f206e6f6e2d636f6e747261637400000060448201526064016101ea565b5081610773565b610773838361077b565b949350505050565b81511561078b5781518083602001fd5b806040517f08c379a00000000000000000000000000000000000000000000000000000000081526004016101ea9190610952565b73ffffffffffffffffffffffffffffffffffffffff811681146107e157600080fd5b50565b7f4e487b7100000000000000000000000000000000000000000000000000000000600052604160045260246000fd5b6000806040838503121561082657600080fd5b8235610831816107bf565b9150602083013567ffffffffffffffff8082111561084e57600080fd5b818501915085601f83011261086257600080fd5b813581811115610874576108746107e4565b604051601f82017fffffffffffffffffffffffffffffffffffffffffffffffffffffffffffffffe0908116603f011681019083821181831017156108ba576108ba6107e4565b816040528281528860208487010111156108d357600080fd5b8260208601602083013760006020848301015280955050505050509250929050565b60006020828403121561090757600080fd5b8151610647816107bf565b60005b8381101561092d578181015183820152602001610915565b50506000910152565b60008251610948818460208701610912565b9190910192915050565b6020815260008251806020840152610971816040850160208701610912565b601f017fffffffffffffffffffffffffffffffffffffffffffffffffffffffffffffffe016919091016040019291505056fe416464726573733a206c6f772d6c6576656c2064656c65676174652063616c6c206661696c6564a26469706673582212205eb6305a00f6779ec4e7aaac230b2ed45a7097c7a1f916778593ce4e63096b3564736f6c63430008130033416464726573733a206c6f772d6c6576656c2064656c65676174652063616c6c206661696c6564a2646970667358221220e31e050cd939d6f37af38cfec733e3b866b056793aa2dbb337d1560f0b589b7a64736f6c63430008130033",
  "devdoc": {
    "kind": "dev",
    "methods": {
      "owner()": {
        "details": "Returns the address of the current owner."
      },
      "renounceOwnership()": {
        "details": "Leaves the contract without owner. It will not be possible to call `onlyOwner` functions. Can only be called by the current owner. NOTE: Renouncing ownership will leave the contract without an owner, thereby disabling any functionality that is only available to the owner."
      },
      "transferOwnership(address)": {
        "details": "Transfers ownership of the contract to a new account (`newOwner`). Can only be called by the current owner."
      }
    },
    "version": 1
  },
  "userdoc": {
    "kind": "user",
    "methods": {},
    "version": 1
  },
  "storageLayout": {
    "storage": [
      {
        "astId": 7,
        "contract": "contracts/mixins/SdexLpTokenDeployer.sol:SdexLpTokenDeployer",
        "label": "_owner",
        "offset": 0,
        "slot": "0",
        "type": "t_address"
      }
    ],
    "types": {
      "t_address": {
        "encoding": "inplace",
        "label": "address",
        "numberOfBytes": "20"
      }
    }
  }
}