{
  "_format": "hh-sol-artifact-1",
  "contractName": "SdexSwapRouterBypass",
  "address": "0xAeb44C43Edd3a13921C626ACE5515deB243A5653",
  "sourceName": "contracts/periphery/SdexSwapRouter.sol",
  "abi": [
    {
      "inputs": [
        {
          "internalType": "address",
          "name": "dex",
          "type": "address"
        }
      ],
      "stateMutability": "nonpayable",
      "type": "constructor"
    },
    {
      "inputs": [
        {
          "internalType": "address",
          "name": "base",
          "type": "address"
        },
        {
          "internalType": "address",
          "name": "quote",
          "type": "address"
        },
        {
          "internalType": "uint256",
          "name": "poolIdx",
          "type": "uint256"
        },
        {
          "internalType": "bool",
          "name": "isBuy",
          "type": "bool"
        },
        {
          "internalType": "bool",
          "name": "inBaseQty",
          "type": "bool"
        },
        {
          "internalType": "uint128",
          "name": "qty",
          "type": "uint128"
        },
        {
          "internalType": "uint16",
          "name": "tip",
          "type": "uint16"
        },
        {
          "internalType": "uint128",
          "name": "limitPrice",
          "type": "uint128"
        },
        {
          "internalType": "uint128",
          "name": "minOut",
          "type": "uint128"
        },
        {
          "internalType": "uint8",
          "name": "reserveFlags",
          "type": "uint8"
        }
      ],
      "name": "swap",
      "outputs": [
        {
          "internalType": "int128",
          "name": "baseFlow",
          "type": "int128"
        },
        {
          "internalType": "int128",
          "name": "quoteFlow",
          "type": "int128"
        }
      ],
      "stateMutability": "payable",
      "type": "function"
    }
  ],
  "bytecode": "0x60a060405234801561001057600080fd5b5060405161059c38038061059c83398101604081905261002f91610040565b6001600160a01b0316608052610070565b60006020828403121561005257600080fd5b81516001600160a01b038116811461006957600080fd5b9392505050565b60805161051261008a600039600060f301526105126000f3fe60806040526004361061001e5760003560e01c80633d719cd914610023575b600080fd5b610036610031366004610239565b610054565b60408051600f93840b81529190920b60208201520160405180910390f35b6040805173ffffffffffffffffffffffffffffffffffffffff808d1660208301528b169181019190915260608101899052871515608082015286151560a08201526fffffffffffffffffffffffffffffffff80871660c083015261ffff861660e0830152808516610100830152831661012082015260ff82166101408201526000908190819061016001604051602081830303815290604052905060007f000000000000000000000000000000000000000000000000000000000000000073ffffffffffffffffffffffffffffffffffffffff166390b33ce534600185336040518563ffffffff1660e01b815260040161015093929190610323565b60006040518083038185885af115801561016e573d6000803e3d6000fd5b50505050506040513d6000823e601f3d9081017fffffffffffffffffffffffffffffffffffffffffffffffffffffffffffffffe01682016040526101b591908101906103cc565b9050808060200190518101906101cb91906104a9565b909f909e509c50505050505050505050505050565b803573ffffffffffffffffffffffffffffffffffffffff8116811461020457600080fd5b919050565b8035801515811461020457600080fd5b80356fffffffffffffffffffffffffffffffff8116811461020457600080fd5b6000806000806000806000806000806101408b8d03121561025957600080fd5b6102628b6101e0565b995061027060208c016101e0565b985060408b0135975061028560608c01610209565b965061029360808c01610209565b95506102a160a08c01610219565b945060c08b013561ffff811681146102b857600080fd5b93506102c660e08c01610219565b92506102d56101008c01610219565b91506101208b013560ff811681146102ec57600080fd5b809150509295989b9194979a5092959850565b60005b8381101561031a578181015183820152602001610302565b50506000910152565b61ffff84168152606060208201526000835180606084015261034c8160808501602088016102ff565b73ffffffffffffffffffffffffffffffffffffffff93909316604083015250601f919091017fffffffffffffffffffffffffffffffffffffffffffffffffffffffffffffffe0160160800192915050565b7f4e487b7100000000000000000000000000000000000000000000000000000000600052604160045260246000fd5b6000602082840312156103de57600080fd5b815167ffffffffffffffff808211156103f657600080fd5b818401915084601f83011261040a57600080fd5b81518181111561041c5761041c61039d565b604051601f82017fffffffffffffffffffffffffffffffffffffffffffffffffffffffffffffffe0908116603f011681019083821181831017156104625761046261039d565b8160405282815287602084870101111561047b57600080fd5b61048c8360208301602088016102ff565b979650505050505050565b8051600f81900b811461020457600080fd5b600080604083850312156104bc57600080fd5b6104c583610497565b91506104d360208401610497565b9050925092905056fea26469706673582212206c891ee14ebc7bddcd3c8c1f022a2745569304f6a477ecd67741a2c83b8ae37d64736f6c63430008130033",
  "linkReferences": {},
  "deployedLinkReferences": {}
}